:020000041008E2
:4000000000780408EB0208100D00000051030810510308105103081051030810000000000000000000000000000000004D0308104D030810000000004D0308104D030810DA
:400040004D0308104D0308104D0308104D0308104D0308104D0308104D0308104D0308104D0308104D0308104D0308104D0308104D0308104D0308104D0308104D03081000
:400080004D0308104D0308104D0308104D0308104D0308104D0308104D0308104D0308104D0308104D0308104D0308104D0308104D0308104D0308104D0308104D030810C0
:4000C0004D0308104D0308104D0308104D0308104D0308104D0308104D0308104D0308104D0308104D0308104D0308104D0308104D0308104D0308104D0308104D03081080
:400100004D0308104D0308104D0308104D0308104D0308104D0308104D0308104D0308104D0308104D0308104D0308104D0308104D0308104D0308104D0308104D0308103F
:400140004D0308104D0308104D0308104D0308104D0308104D0308104D0308104D0308104D0308104D0308104D0308104D0308104D0308104D0308104D0308104D030810FF
:400180004D0308104D0308104D0308104D0308104D0308104D0308104D0308104D0308104D0308104D0308104D0308104D0308104D0308104D0308104D0308104D030810BF
:4001C0004D0308104D0308104D0308104D0308104D0308104D0308104D0308104D0308104D0308104D0308104D0308104D0308104D0308104D0308104D0308104D0308107F
:400200004D0308104D0308104D0308104D0308104D0308104D0308104D0308104D0308104D0308104D0308104D0308104D0308104D0308104D0308104D0308104D0308103E
:400240004D0308104D0308104D0308104D0308104D0308104D0308104D0308104D0308104D0308104D0308104D0308104D0308104D0308104D0308104D0308104D030810FE
:400280004D0308104D0308104D03081010B5054C237833B9044B13B10448AFF300800123237010BDE06C020800000000A4AC0810084B10B51BB108490848AFF300800848AF
:4002C000036803B910BD074B002BFBD0BDE81040184700BF00000000E46C0208A4AC08100C480208000000007047FFF7FDFF72B6104C114DAC4209DA21686268A368043B96
:40030000A2BFC858D050FAE70C34F3E70B490C4A00209142BCBF41F8040BFAE709480A490860BFF34F8F00F015FB00F0EFFA00F095F9FEE7ECCF0A1004D00A10E06C0208EF
:40034000608002080040020808ED00E0FEE7FEE700B504207146084202D0EFF3098001E0EFF30880043002F0A1FFFEE740B10179044A1170D0F80510034B196001235370D8
:40038000704700BFFC6C02089C7F020808B5174B5A6910225A615B69154BB3F90030002B09DB5A0903F01F03012101FA03F36032104941F82230104B01229A70DB789BB922
:4003C0000D4B1B7983B90C4BDA700C4806F050FC0021084604F05AFB18B9094806F048FC08BD084806F044FC08BD00BF00003240288F081000E100E0FC6C0208488C08105B
:400400007C8C0810988C081038B544F20603984200F09A8007D8B0F5805F12D041F20103984268D0F3E044F21003984245D045F21703984273D044F20803984240F0E78097
:4004400021E0754A0024072353719471D471147223460321022001F09DF8704D2C70704806F006FCAB78002B00F0D5802146204604F00CFB18B96B4806F0FAFB38BD6A482B
:4004800006F0F6FB38BD654D00242C710B788A784978664806F07AFB5F4A042353719471D471147223460321022001F073F82C702146204604F0EAFA38BD584D01232B7184
:4004C0000024EC70544A032353719471D471147223460321022001F05DF82C704FF47A72534BC3F80C2103F58033C3F84C44514806F0BEFB38BD504806F0BAFB464A0024B4
:40050000062353719471D471147223460321022001F040F8414B1C70DC701C7138BD474806F0A6FB3C4A0024052353719471D471147223460321022001F02CF8374B1C70E2
:400540005A7901325A7138BD3D4B1B78DBB9334D0024EC703B4806F08BFB4FF47A73344AC2F80C3102F58032C2F84C342A4A022353719471D471147223460321022001F0B2
:4005800009F82C7038BD012B10D10122234BDA702D4806F06DFB4FF47A722C4BC3F84C240022A3F58033C3F80C2138BD022B1CD11A4D0123EB7000241D4BC3F80C414FF4FC
:4005C0007A7203F58033C3F84C24214806F050FB114A012353719471D471147223460321022000F0D7FF2C7038BD032B13D1194806F03EFB0022094BDA704FF47A73134A87
:40060000C2F84C34A2F58032C2F80C3138BD0146114806F0BBFA38BD8C420208FC6C0208B08C08107C8C0810988C0810E08C0810000038404C8D0810748D0810808D0810E6
:40064000F17F0208AC8D0810C48D081000003940E08D0810FC8D08101C8E081010B588B000F0B6FA62B6344B5A6910225A615B69324BB3F90030002B08DB5A0903F01F0061
:400680000121814060322E4840F82210002B08DB590903F01F03012202FA03F3284A42F821302849254802F08BFD00F0B3FA05F027F82549254800F033FADB229821342043
:4006C00000F0F2F904F0C6FF04F0DCFF204804F0F1FF204806F0CCFA06A82BF0FFFF9DF818109DF819209DF81A3000931A4806F04DFA2523ADF814300122ADF8102017493B
:40070000032000F099FF4FF4FA7002F093FD144B5B7813F0FF0F05D0114B00225A70114A12685A7108AC104B44F8143D2BF0E6FF204604F00DFBEAE700003240288F0810CF
:4007400000E100E08D030810108002080000674009040810308E08104C8E08106D030810FC6C02089C7F0208016D020808B5012000F0E8FF08BD00BF704700BF5C4AD2F82C
:40078000803303F00F0303F1D00152F8212002F00702032A04D0042A05D092B9554914E0554A116811E003F1C002514951F8222002F01F02112A06D0132A04D04FF4FA41BE
:4007C00003E04E4901E04FF400418BBB484BD3F8902502F00100D3F88825C2F30172D3F8883513F0405F07D0414BD3F88835C3F30173012B02D102E0012300E0002303B133
:4008000008B9032A46D13A48D0F88025C2F31103D0F88425C2F30C02D0F88005C0F300600130B1FBF2F202FB03F2B2FBF0F131E0012B2FD12E4BD3F8402602F00100D3F881
:400840000026C2F30172D3F8003613F0405F07D0274BD3F80036C3F30173012B02D102E0012300E0002303B108B9032A12D12048D0F8002602F07F02D0F80036C3F30423E2
:40088000D0F80006C0F3044002FB01F2B2FBF3F2B2FBF0F1164BD3F88033C3F3011321FA03F215494A601648D0F89030C3F3072301330069000E0130B2FBF0F08860B2FBDE
:4008C000F3F3CB600B6103F5742202F23F220D48A0FB0202C2F387420A7503F2E7330A4AA2FB03239B098B61DB03CB61704700BF0000264000127A009842020800366E01F6
:400900000000214083DE1B43D34D621008B50D4803F0FEF8FFF730FFFFF730FF00221146042000F093FC084800F06AFD074B1B6893F8513013B1064800F0D2FD00F066FAFB
:4009400008BD00BF38940810046D0208E07F02086C8E081008B502F004FD074AD2F8883043F47003C2F88830BFF34F8FBFF36F8F02F0FBFC08BD00BF00ED00E010B50446F1
:400980002146034800F038FF0028F9D010BD00BF00006640054BD3F80833C3F30803002BF8D0024BD3F84003704700BF0000664070B582B006460D460E4B19780E4B0093EE
:4009C00000231A460D4801F08DFD002409E00A4B0022315D094801F02FFE052002F02AFC0134AC42F3DB044A0021044801F0F2FD02B070BDB8420208108002080000674036
:400A000000B583B000238DF8063080238DF804308DF80500022101A8FFF7CAFF03B05DF804FB00BFF0B583B007460E460E4B59780E4C0F4D009500231A46204601F052FDA2
:400A40002B4600223946204601F0F6FD2B4600223146204601F0F0FD2A460021204601F0B9FD03B0F0BD00BFB8420208000067401080020808B5012809D10A4B187840F0F5
:400A80000400187040F00800FFF7BAFF08E0054B187800F0FB00187040F00800FFF7B0FF012008BDA17F020838B50D46144601460420FFF7B7FF29460320FFF7B3FF214649
:400AC0000220FFF7AFFF012038BD00BF10B5044620B9FF2211461046FFF7E6FF012C04D100221146FF20FFF7DFFF022C04D10022FF211046FFF7D8FF032C04D1FF220021AE
:400B00000846FFF7D1FF012010BD00BF08B50120FFF776FF022002F08DFB002008BD00BF10B504460A46234901F0E6FA00283FD1236843F0004323601F4C237843F00803CF
:400B40002370322002F076FB207840F02000FFF757FF052002F06EFB207840F02000FFF74FFF052002F066FB207840F02000FFF747FF0422114B1A700120FFF77BFFFFF71E
:400B8000C5FF02220E4B1A700620FFF739FF00210846FFF747FFFF210820FFF743FF20210120FFF73FFF0020FFF790FF012010BD002010BDF49A0810A47F0208A17F0208D8
:400BC000A07F020808B5032000F0BCFD08BD00BF10B500221146042000F038FB064800F00FFC064C204600F07BFC00F00FF904F1340000F075FC10BD846E0208A08E081041
:400C000008B50249024802F01DF908BDA87F02080000664008B5114B1B785BB9104A1149114801F0EBFE1149114802F0C9FA01220A4B1A700E4BB3F90030002B08DB590908
:400C400003F01F03012202FA03F30A4A42F82130054A136843F00043136008BD14700208A87F0208308F081000006640010C0810188F081000E100E0C0F30800B0FA80F03D
:400C8000400970471F4B98422DD00CD840282ED003D8E8B1102828D02FE0802829D0B0F5807F28D029E0184B984228D006D8B0F1204F0DD0154B984212D01EE0144B98425D
:400CC0000AD00133984209D0023B984215D101E0002070470F4870470F4870470F4870474FF4A0007047074870470D4870470D4870470D487047034870470C4870474FF440
:400D0000A400704706005200010000F0090000A0040000F0010052000200520003005200010050000200500005005200FF00520038B5124B1B6893F83130012B04D840F238
:400D4000C3110F4802F09AFA0C4B1D682A6AB5F8B03013442C46D5F8B420D358002B0BDB084B1868FFF78EFF6B6801229A6063689B68002BFBD138BD034838BDE07F020876
:400D8000708F081018700208020050001A4B186128B102230370FF23437000234380174B1B6893F850202AB300B583B0B3F93830ADF80030002301931149684602F000FAF5
:400DC000BDF90030002B08DB590903F01F03012202FA03F30B4A42F82130084B1B6893F8513023B102220849012000F025FC03B05DF804FB704700BF18700208E07F0208BE
:400E00007D48020800E100E03549020808B50248FFF7BCFF08BD00BF2C70020838B505460C46FFF729FF002833D0002C33D0FFF7A5FC1A4B1A4A1A6000225A609D60DC60C7
:400E4000184B1B6893F85220EAB11968D3F88430CA58CB58C3F30721120E531C01FB0333114901FB03F3114A12681149A1FB02218909B3FBF1F101F5195108314FF48070E8
:400E800007F0DAFE38BD00214FF4807007F0D4FE38BD084838BD074838BD00BF1870020800010005E07F0208C0EA21019C420208D34D62100600520008B5FFF739FF08BDC5
:400EC00010B50446FFF7D8FE00283AD0FFF756FC4FF0E0521C4B1A601C4B1B7813F0FF0F04D0194A136843F480731360164B5C6000229A60DA60164B1B6893F85420DAB110
:400F00001968D3F88430CA58CB58C3F30721120E531C01FB03330F4901FB03F30E4A12680E49A1FB02218909B3FBF1F101F69801002007F081FE10BD0021084607F07CFEA6
:400F400010BD074810BD00BF187002080B000016E07F020860F590009C420208D34D62100600520038B505460C46FFF785FE00283DD0002C3DD0FFF701FC4FF0C0621E4BC8
:400F80001A601E4B1B7813F0FF0F04D01A4A136843F480731360184B4FF480725A609D60DC60174B1B6893F85320DAB11968D3F88430CA58CB58C3F30721120E531C01FBB3
:400FC0000333104901FB03F30F4A12680F49A1FB02218909B3FBF1F101F56171002007F02BFE38BD0021084607F026FE38BD084838BD074838BD00BF187002080B000016ED
:40100000E07F0208808D5B009C420208D34D621006005200002861D0F8B5054600295FD00C460B6833F0FF0303D099212D4802F025F9236933F0FF0303D09A21294802F0C6
:401040001DF9A3685B0D5B051BB19B21254802F015F9636823F4FF7323F001031BB19C21204802F00BF9E36913F0604F03D09D211C4802F003F9236A13F0604F03D09E218E
:40108000184802F0FBF8184A11688B69EB1ADB0949691B01C81826682E60166896F87D60E768AF51166896F87E602769AF51166896F87F606769AF51166896F87C60A76805
:4010C000AF516668AE61126892F88020A669AE50E269CA50236A43600020F8BD034870470248F8BDB08F0810E07F020801005A0038B50B4B1B68D3F8B4301B58002B0DDAE2
:401100000D4604460B0C1B0423B140F2D521054802F0B4F8A9B26160002038BD024838BDE07F02083090081001008A0038B50368002B01DA002300E0094B73B90D4604463B
:40114000C2600B0C1B0423B140F2BB21054802F095F8A9B2A160002038BD014838BD00BF01008A003090081038B504460D4619B99921084802F082F8074B1B68D3F8B43042
:401180001B59002B03DAE3682B60002038BD034838BD00BF70900810E07F020801008A00254B1B6893F8313083423AD900293AD00B6813F01F0F38D170B50D4604461E4BFB
:4011C0001B6893F83130984204D340F2C3111B4802F054F8184B1B68186AB3F8B03004FB0304174E34602A68D2080021686805F053F800212046FFF77BFF346825B940F2F6
:4012000093310E4802F03AF82A4600212046FFF78DFF60B900210A4B1868FFF769FF40B970BD084870470748704706487047064870BD054870BD00BFE07F0208309008105D
:401240003070020803018A0001018A0010B504461346B2B9A9B9124B1B6893F83130984204D340F2C3110F4802F008F80C4B1B681A6AB3F8B03004FB03240B4B1C600020A8
:4012800010BD43B149B1084A51609360111D2046FFF786FF10BD054810BD044810BD00BFE07F0208309008103070020803018A002DE9F0411B4B1B68DC68236883422CD96D
:4012C0000D464609A0EB4610012303FA00F819B902F047F8074600E00027124B18680368002B01DA002300E00F4B83B9626852F8263018EA030F05D148EA030342F82630F8
:40130000002400E0094C0021FFF7F2FE00E0084C25B9384602F029F800E0064C2046BDE8F08100BF3070020801008A00020188000301880004018A002DE9F0411B4B1B6832
:40134000DC68236883422CD90D464609A0EB4610012303FA00F819B902F003F8074600E00027124B18680368002B01DA002300E00F4B83B9626852F8263018EA030F05D0EB
:4013800023EA080342F82630002400E0094C0021FFF7AEFE00E0084C25B9384601F0E5FF00E0064C2046BDE8F08100BF3070020801008A00020188000301880004018A00BC
:4013C0000B4B1B68DB681A6882420CD94109A0EB4110012202FA00F05B6853F82130184203D004487047044870470448704700BF307002080101880004018A0000018800D1
:40140000024B1B680BB9014B186070473C7002082DE9F8430446884691461D46089F2C4B1B681BB9B5212B4801F028FF284B1B682C2000FB04F01C18EEB21E50C5F3072319
:4014400063602D0CA560244B1B6893F831309E4204D340F2C311214801F010FF1E4B1B68196AB3F8B02006FB02162661666893F832309E4204D340F2DF11184801F0FEFEFC
:40148000154B1B681D6A803605EB46156561A668330C1B0423B14FF4FF71104801F0EEFE330C1B0423B140F2FF110C4801F0E6FEB3B243EA0646AE60C4F81C90C4F8208086
:4014C0000023A36117B1B7F90030A381BDE8F8833C700208B0900810E07F020830900810F0B58FB0044618B95221274801F0C6FEA369072B03D95621234801F0BFFEE36AFD
:401500001BB95821204801F0B9FE236B1BB959211D4801F0B3FE07AD04F114060FCE0FC537682F6002AD26460FCE0FC533682B60164B1B68B3F93620079B1344ADF83030F3
:40154000089B0D93A26AE16A0CAD00953B460A98FFF75EFF00210091069B0A460598FFF757FF216B284601F02BFEBDF93030002B08DB590903F01F03012202FA03F3044A6F
:4015800042F821300FB0F0BDB0900810E07F020800E100E0F8B506460F461D4614461AB9FD211F4801F06AFE1E4B1B681BB9FE211B4801F063FE1B4B1B682C2101FB0630FA
:4015C00001FB07314B68012202FA03F31B04466802FA06F60269EAB18F69EFB91268002A01DA002200E0104AC2B92288134323600369DC6001238B614D620469330C1B0479
:4016000023B140F2BB21094801F038FEB2B2A2600020F8BD0648F8BD0648F8BD0548F8BDB09008103C70020801008A003090081004028A0007028A00F8B505460F461646D0
:401640000E4B1B6823B94FF4AF710D4801F016FE0A4B1B682C2404FB0534236A23B94FF4B171074801F00AFEE369B34204D9236A43F826700020F8BD0248F8BD3C70020879
:40168000B09008100A028A0070B582B000230193044620B940F2D111284801F0EFFD236923B94FF4E971254801F0E8FD636923B940F2D311214801F0E1FD236A23B94FF4C0
:4016C000EA711E4801F0DAFD6369DD682A0C20D012041A601B682069194B1B68D3F8B430C358002B15DA01A9FFF73EFD60B9019803681E0CDBB2E269934206D2226A52F846
:40170000233013B1984700E0002631462069FFF7EFFCADB275B16369ADB21D601B68636A1BB198470023636202E0A36A03B198470023A36163691B6802B070BDB09008108D
:40174000E07F020810B50446074B1B6823B940F2B111064801F092FD034B1B682C2000FB0430FFF791FF10BD3C700208B090081010B50446094B1B689B6CC34013F0010FCE
:4017800003D1BE21064801F079FD044B1B681B691034A402185900F00F0010BDE07F0208F090081010B4D0F8003303F00F03072B06D900230DE0D0F84043CC54013300E0DF
:4017C00000239342F7D306E0D0F8404321F8134001339342F8D35DF8044B704710B51446D0F80833C3F308039A4200D31C462246FFF7D8FF204610BD036813F4006F01D04D
:40180000802200E04022D0F80832C3F30803934203D0C0F84012012070470020704700BF10B4D0F8003203F00F03072B06D900230DE0CC5CC0F84042013300E0002393428F
:40184000F7D306E031F81340C0F8404201339342F8D35DF8044B704710B51446036813F4006F01D0802200E04022D0F80832C3F30803D31AA34200D81C462246FFF7D0FF22
:40188000204610BD02E0C0F84012013A002AFAD1704700BF10B51446036813F4006F01D0802200E04022D0F80832C3F30803D31AA34200D81C462246FFF7E4FF204610BD6B
:4018C00010B54A6841F201039A4231D1D0F80833C3F30803B3B10B6A43F040030B620B7873B1D0F8043343F48033C0F80433D0F8043323F48033C0F80433D0F8043301E0C5
:40190000D0F840330B6A43F020030B620B6A23F010030B62036E23F4204303660023C0F8C83F0123C0F8C03FD0F8C03F202221E0D0F80832C3F30802D0F80832C3F3C033A4
:4019400013440A6BD21A4A630A6A12F0080F05D1CA6A1A44CA628A6AD31A8B620B6A43F004030B620B6A23F001030B620023C0F8883F1022D0F84C4F40F201131C420DD046
:40198000036823F00043036000238366C366036843F000430360036842F040024FF080534B604B6C0BB11046984710BDD0F80C3F13F0020F1DD00222C0F8002FD0F8002F63
:4019C000D0F8002F12F0040F02D04FF4001001E04FF480108A6802438A604A68B2F5B81F07D00A7B12B14FF4C01201E04FF4B0124A6013F4807F03D08A6842F400028A6000
:401A000013F0010F03D08A6842F480028A6040F21112134202D04FF4C0134B60704700BF0023C0F8C83FC0F8883F836E23B140F21713C0F8083F704740F21313C0F8083FEA
:401A4000182383664FF4B8134B60704738B5D0F80C4F036E23F4807303660023C0F8C83FC0F8883FC0F8083F40F21713C0F8003FD0F8003F8B6823F480338B604B7B13B1F2
:401A80008B69CB610BE08D69D0F80822C2F30802D0F80832C3F3C0331344EB1ACB6140F201131C421BD0036E9B0F032B05D114F4827F14BF0123002300E001235BB10368F5
:401AC00023F00043036000238366C366036843F00043036003684FF080534B601BE00B7893B1D0F8043343F48033C0F80433D0F8043323F48033C0F80433D0F80433012317
:401B0000C0F8C03FD0F8C03F0B7B0BB10B4B01E04FF080534B604A6C72B14B7B13B14FF4802001E04FF400308B6813F0F87301D04FF400231843904738BD00BF00001010B9
:401B40000346002940DB11F0C00F06D0002181664FF0805050602F4844E011F4807F36D111F0010F0ED050682B49884232D1196E11F0804F0CBF012100214FF080505060B9
:401B800026482FE011F0020F06D050682249884223D10021224825E011F0100F05D04FF080515160002108461CE050681A49884216D1517B11B14FF4881101E04FF4A01123
:401BC0005160002108460DE0012116480AE00121154807E00121114804E00021134801E00021084679B1196821F00041196000219966D966196841F0004119601B684FF0DA
:401C000080535360704740F21712C3F8002FD3F8003F70470820AA00000013100620AA000420AA000320AA000720AA000520AA00036853B110B50446012001F013FB236838
:401C4000013B23601BB1002010BD002070474FF0004010BD70B505460C4691F8243013F0FF0F0ED1CB6A63B94B6C0BB108209847E36AB3FA83F35B0984F824300123C5F8EA
:401C8000883F94F8243013F0FF0F16D063783BB12B6813F4006F01D0802202E0402200E00122FF212846FFF7F5FD236B18442063236A43F00803236270BDE26A012A11D93B
:401CC00063780BB1013A00E00122A16A2846FFF7C3FD236B03442363E36A1B1AE362A36A1844A062D5F80832C3F30803802B23D0E36A012B20D101F034FBA36A1B78C5F806
:401D000040324026C5F8806FD5F8803F01F02DFB236B013323630023E362A36A0133A362C5F8886F63783BB1236A43F002032362636C0BB10420984770BD00BF38B54B68A5
:401D4000B3F5A81F03D14FF4C0134B6038BD4B68B3F5A01F4DD10C4605464A69012A11D94B780BB1013A00E0012221692846FFF773FDA3690344A36163691B1A636123690A
:401D800003442361D5F80832C3F30803802B14D06369012B11D101F0E4FA23691B78C5F840324023C5F8803FD5F8803F01F0DDFAA3690133A361002363616369CBB9237BBE
:401DC00033B14023C5F8883F4FF4A813636005E00023C5F8883F4FF4B0136360637843B1A36843F40033A360636C13B14FF48030984738BD70B504460D468A6C82B3036809
:401E000013F4803F06D0D0F84C3F13F0400F03D0022002E0002000E00020236E13F4006F06D1D4F84C3F13F0800300D001231843C0B190470123C4F8C03FD4F8C03F024626
:401E400048B91023C4F8403FD4F8403F40F2D113C4F8483F07E040F2C113C4F8483F02E0002200E00022D4F8043243F48033C4F80432D4F8043223F48033C4F80432D4F8B1
:401E800004320AB9012300E00223E366002A59D1666E06F010066B6C23B10EB1012000E0022098477EB141F202036B602B6A43F001032B626B6B2B63002385F82430012310
:401EC000C4F8883F70BD41F201036B602B6A43F010032B620123C4F8C83F2B78BBB1EB6BBBB1236E43F400532366ED6B802D05D9A5F18003802B0ED8813D0DE0013D236E65
:401F000043F4004323660023C4F8C83F04E0002502E0002500E03F25236813F4006F01D0802300E040239D4204D34FF42071064801F0A4F9D4F8043323F0FF03EDB21D432F
:401F4000C4F8045370BD00BF3091081038B54B68B3F5881F03D0B3F5901F1AD038BD0B69D0F840231A708B6901338B614B69013B4B612BB10B6901330B610423836638BDC3
:401F80000B7B13B14FF4C01301E04FF4B0134B6038BD0C4605464A690969FFF71FFCA3690344A36163691B1A6361226910442061012B24D82B6E23F480732B666369012B97
:401FC00016D12B6813F4006F01D0802300E0402323B94FF42071184801F050F9D5F8043323F0FF03C5F804334FF48813636038BD0023C5F8C83F4FF4B013636038BD402B3D
:4020000001D89C1E00E03F242B6813F4006F01D0802300E040239C4204D34FF42071064801F02CF9D5F8043323F0FF02E3B21343C5F8043338BD00BF3091081038B5CB6B76
:40204000002B50D00B78002B3FD00C460546D0F80423D2B20132896BFFF7C0FB236C03442364E36B1B1AE363A26B1044A063802B06D9A3F18002802A0FD8A3F181040DE0AF
:402080002B6E43F400432B66E36B0BB15C1E00E000240023C5F8C83F00E03F242B6813F4006F01D0802300E040239C4204D34FF42071104801F0E2F8D5F8043323F0FF0246
:4020C000E3B21343C5F8043338BD0123C3668A6B0B6CD0F84003D0540B6C01330B64CB6B013BCB6338BD0223C3660023C0F8C83F38BD00BF30910810F8B50B78012B03D089
:402100000C7A1CB9002702E0002700E00127002800F0A780002900F0A680002A00F0A58016460C460546013BDBB2022B03D94F214F4801F0A3F8637803B163791BB1502149
:402140004B4801F09BF894F90330002B03DA5121474801F093F8237913F0010F03D05221434801F08BF82369102B03D95321404801F084F8E368102B03D954213C4801F0B7
:402180007DF8637913B14FF4803100E00021E27912B14FF4807300E000230B4343F400632B60A37913B94FF4006300E000232269013A02F00F021A43E368013B1B01DBB264
:4021C0001343227843EA82732B6617B140F2073301E040F20713C5F800330FB1254B00E0254B2B6763780BB17F2300E00023C5F80433E3785B00DBB2227943EA0243C5F89C
:4022000010331E4BC5F80032A3780BB1402300E00123C5F804320023C5F8C83EC5F8883EC5F8C83FC5F8883FC5F8083F2378022B02D040F2D11300E00023C5F8483F63784B
:402240003370A37873704FF0805373600020B060B06130623064F0633063F0627064B064F8BD0748F8BD0648F8BD0548F8BD00BF7491081003002A0013102A000701010034
:402280000120AA0038B505460C4621B940F2C321194800F0F3FF2B6E9B0F012B17D1174B2344174A93421ED9A4F5BD13A3F5D66302F5611202F56162934216D9A4F5710419
:4022C000A4F533440F4B9C4211D80F4838BD84B1286EC0F303102B6E03F00F0318440230B4FBF0F038BD094838BD094838BD002038BD002038BD00BF7491081020AD88FF3A
:40230000405B730040555C0440420F00801A0600A08601002DE9F84307468846914622B940F21221624800F0A9FF08F1FF34614B9C4204D940F213215D4800F09FFF3B6EA8
:402340009B0F012B0DD149463846FFF79BFF0546D7F8003323F40073C7F80033564B3B67A2E0544B9C421FD8544B984509D8A9F5BD13A3F5D663524A934218D900210123C7
:4023800028E0504B984507D84F4B4B444F4A934213D9002101231DE04D4B4B444D4A934212D90021012315E00021012312E0002141F288352E460B460CE000214FF461750E
:4023C0004FF4C8660B4605E001214FF4BE754FF41B760023002B66D13F4BB3FBF9F3B6FBF3F404FB03F2964200D90134102C00D910240F2C8CBF00220122B5FBF3F606FB01
:4024000003F39D4200D90136102E00D91026A519B9FBF5F50FE022B10F2C09D80134002206E00F2E04D801360F2C8CBF00220122A519B9FBF5F5454502D9A3191F2BEAD94E
:4024400041B1D7F8003343F40073C7F80033234B3B6707E0D7F8003323F40073C7F80033154B3B67E31F092B04D940F283511C4800F004FF3B6E23F0F003013C2401E4B23E
:4024800023433B66731F0B2B04D94FF4B461144800F0F4FE3B6E23F00F03013E06F00F061E433E6600E000252846BDE8F88300BF749108103F420F0013102A00A08601004A
:4024C000502D1900801A060020AD88FFA0432100807E25FFC02BAF0000CA9A3B03002A00B49108102DE9F04182B005460C4617469846089E11F0800F04D04FF4D961314818
:4025000000F0BCFE304B984504D940F2C9612D4800F0B4FE012F04D940F2CA61294800F0ADFE0023C5F8483F7368B3F1805F41D14FF47A7303FB08F30193244B7360012FCD
:4025400014BF00230123737340F21713C5F8003FD5F8003F0423C5F8C03FD5F8C03FD5F8043243F48033C5F80432D5F8043223F48033C5F80432D5F804326400E4B23C432C
:40258000C5F840420223AB66D5F8004F24F0F804E405E40DD5F8403F03F0C0031C4301A8FFF746FB54EA0001EED032462846FFF7C7FA00E0064840F2D113C5F8483F02B08B
:4025C000BDE8F0817491081037894100000013100220AA0070B582B005460C461646134B994204D940F28C71114800F047FE736813F4801F17D04FF47A7303FB04F4019472
:402600001823AB66D5F8004F24F0EE04E405E40D01A8FFF70DFB54EA0001F3D032462846FFF78EFA00E0034802B070BD37894100749108100220AA00F0B583B005460F46D9
:4026400014461E46134B9A4204D940F63201124800F014FE7368B3F5A01F17D14FF47A7303FB04F40194C5F84072D5F8004F24F0F804E405E40D01A8FFF7DAFA54EA0001B4
:40268000F3D032462846FFF75BFA00E0034803B0F0BD00BF37894100749108100220AA0070B504460E46D0F88C3E13F0010F07D04FF480534B600123C0F8803ED0F8803ED2
:4026C000D4F84C5F40F201131D420FD0336A15F4807F02D04FF4807200E08022134333620023C4F8C83F45F010050EE015F0100F0BD0D4F80833C3F3080333B1F36B23B1CB
:402700000123C4F8C43FC4F8C83FD4F8CC3F13F0010F08D031462046FFF790FC0123C4F8C03FD4F8C03F15F0100F0AD031462046FFF7C6F81023C4F8403FD4F8403FD4F814
:402740004C5F15F0C00F0DD031462046FFF752FB0123C4F8803ED4F8803EC023C4F8403FD4F8403FD4F88C3F13F0410F08D031462046FFF76FFA0123C4F8803FD4F8803F24
:4027800070BD00BF70B506460D46D0F8004E14F0020F0AD0836E2BB1002383668B6843F080738B604FF4C0136B6014F0010F05D029463046FFF7FAF824F0040414F0080FB9
:4027C00008D029463046FFF7C1FB0123C6F8C03FD6F8C03F14F0040F08D029463046FFF7ADFA0123C6F8803FD6F8803F6B68B3F5C01F03D129463046FFF728F96B68B3F578
:40280000B01F03D129463046FFF70AF970BD00BF08B54B6813F4801F02D0FFF7B3FF08BDFFF73EFF08BD00BF2DE9F84305460C46036813F4006F02D04FF0800801E04FF097
:402840004008D5F8007207F00F07A26A012A19D9D4F82490E262561EB9F1000F00D026B940F27351254800F009FD324649462846FEF7F2FFA36A1B1AA362072F00D94000B1
:4028800048446062D5F80832C3F30803984533D0A36A012B30D10023A362072F02D8636A1E7801E0636A1E8800F05BFDC5F840624FF40073C5F8803FD5F8803F00F055FD52
:4028C000D5F8883F23F4007222F0010242F4007623F4EE6323F0030323B140F22A41084800F0CCFCC5F8886F236843F002032360236B0BB101209847BDE8F883F4910810FF
:40290000309108102DE9F04105460C46036813F4006F01D0802600E040267608A769D4F81C8017B1B8F1000F04D14FF49961314800F0A4FC424639462846FEF74FFF236A66
:4029400003442362E3691B1AE36173BBA368FBB1E3689E4201D8013E00E05E1E2B6813F4006F01D0802300E040239E4204D34FF42071214800F082FCD5F8043323F0FF0307
:40298000F6B21E43C5F804630123C5F8C83F02E00023C5F8C83F636823F001036360236B33B304209847BDE8F081A169D5F8002302F00F02072A00D940000844A0619E4293
:4029C00016D95C1E2B6813F4006F01D0802300E040239C4204D34FF42071074800F04EFCD5F8043323F0FF02E3B21343C5F80433BDE8F081F491081030910810002800F001
:402A0000A48170B50546002900F0A18116460C460B78022B03D93F21A24800F02FFC637B023BDBB2062B03D940219E4800F026FCA37B3BB1022B05D0032B03D041219948C9
:402A400000F01CFC94F82130012B03D94221954800F014FC94F82830012B03D94321914800F00CFC2378012B06D86368083B082B94BF0023012307E0A37F2BB16368013B9C
:402A8000062B94BF002301231BB14521854800F0F5FBA368053B042B03D94621814800F0EDFB6369FF2B03D947217E4800F0E6FBA369FF2B03D948217A4800F0DFFBA37C17
:402AC0006BB1237833B9A368092B05D1A37B2BB1012304E0012302E0012300E000231BB14A21704800F0CAFB636B23F4366323F00D031BB14C216B4800F0C0FBE36B23F4AE
:402B0000EE6323F003031BB14D21664800F0B6FB2378022B01D1A37F13B16268013A00E00022237F13B14FF4803100E00021A368082B02D84FF4006300E000230B4302F0BF
:402B40000F02134343F000732B60226B2B6813F4006F01D0802300E040239A4203D36221504800F08BFBA26B2B6813F4006F01D0802300E040239A4203D36321494800F0A9
:402B80007DFB626A2B6813F4006F01D0802300E040239A4203D36421424800F06FFB23781B0603F040732B64637F0BB1402200E00022A37C13B14FF4806300E000231343A1
:402BC000227C12B14FF4807200E000221343627C12B14FF4007200E000221A43E36A013B1B0403F470231343627B013A02F007021343A27B120102F030021343AB64237BEA
:402C000013B14FF4807200E00022E37B23B92378022B03D1012302E0012300E0002313B14FF4007300E000231A43A368013B03F00F031343C5F80033227DA3691B0403F469
:402C40007F031343C5F81033E26AD5F8003303F00F0303339A4201D3102A03D97A21114800F00CFBE37F23B12378012B03D0002302E0002300E0012313B14FF4807200E06F
:402C80000022637B013B03F007031A43A37B1B0103F0300313436B64237B2BB14FF4807203E000BF349208100022A368013B03F00F0313432278012A02D14FF4803200E099
:402CC00000221343C5F8003294F83030C5F8043394F8203013B14FF0007200E0002294F82130012B02D14FF0807300E00023134394F82820012A02D14FF4803200E000220A
:402D0000134394F8242013432B6594F83830C5F80432636B23F4926323F002031B051B0DC5F8C83FE36B23F08C035B055B0DC5F8883F76B1002070603060B060F0603062CD
:402D4000F0623063044B736370BD04487047034870BD002070BD00BFEFCDAB000160AA000B694A69934202D34869181A7047CA694869101A184470472DE9F04107460D46B0
:402D8000036813F4006F02D04FF0800801E04FF040084FEA5808D7F80863C6F308062C6926E00134EB689C4200D100246B699C420FD12B6B0BB1082098476B699C4208D12B
:402DC0000023C7F8C83F0CB1013C13E0EC68013C10E0D7F84023D7F8003303F00F03072B02D8AB681A5502E0AB6823F81420013E002ED6D12C61EC6829463846FFF7B0FFEA
:402E0000201A804519D908B1441E00E000243B6813F4006F01D0802300E040239C4204D34FF42071064800F029FAD7F8040320F0FF03E0B21843C7F80403BDE8F08100BF58
:402E40003091081038B504460D46D0F8003E13F0080F35D0D0F8CC3F13F448730AD04A681A434A60C0F8C03FD0F8C03F0B6B0BB110209847D4F8CC3F13F4006F09D06B68EA
:402E800043F400636B604FF40063C4F8C03FD4F8C03FD4F8CC3F13F0010F11D0EB6923B129462046FFF72EFD05E0AB681BB129462046FFF761FF0123C4F8C03FD4F8C03FFF
:402EC000D4F8003E13F0040F2ED0D4F88C3F13F4A0630AD02A681A432A60C4F8803FD4F8803F2B6B0BB120209847D4F88C3F13F0010F08D029462046FFF796FC0123C4F88A
:402F0000803FD4F8803FD4F88C3F13F4007F0BD00022C4F8882F2B6823F001032B60EA622B6B0BB10220984738BD00BF10B504460D4B1B6893F83C30834204D84FF4A1715B
:402F40000A4800F09BF904F1D003094A52F8230000F00700042806D1C03452F8240000F01F0040F4807010BDE07F02087492081000002640B0F5C26F80F09B80B2F5C26F71
:402F800080F09980B1F1807F80F09780F0B401244C4B1C70FF2805D800F00F000F26374607231DE0B0F5A06F05D200F00F030F260027384614E0C0F30325B0F5C06F07D2B5
:402FC0000001C4B245EA0403FF260027384607E0030203F470632B4340F60F7600273846FF2A09D81201D2B2104343F4E02347F0F00746F4702620E0B2F5A06F06D2120406
:4030000002F47022134346F4702616E0140A240404F470241C43B2F5C06F06D2130503F47003234346F47F0607E0120602F07063234346F0706646F47026234A1268156AFA
:40304000B2F8B020C2EBC202AA58002AF5DA1D4A527822B11D4AD2F81C25002A1DDA41F61F741B4A146043F63D54043A1460A2F58272D2F8184524EA07073843C2F8180594
:40308000D2F8140520EA06063343C2F814350D4B5960C2F81C15002000E00E480A4B1A68116AB2F8B030C3EBC3030B4400225A6005E0084870470748704706487047F0BC2E
:4030C000704700BF40700208E07F0208000026400801264001004A0070B505460022214B1A70214B1B681A6AB3F8B030C3EBC303D418D358002BF4DA1C4B1A6841F61F735B
:403100009A4207D11A4B1A6843F63D539A4203D0002602E0002600E00126164BD3F8202522F07F4000226260D6B1D0B165B90D4B5E684408002502460023E1FB0645204674
:40314000294602F003FF70BD064B5A68540800250023E1FB00452046294602F0F7FE70BD002070BD40700208E07F020808012640040126400000264038B50D4B9A680D4BAF
:403180009A420FD10D46044621B940F237110A4800F074F804F11003064A52F8230042F8235038BD1030054B53F8200038BD00BF00ED00E000400208FC92081000000810C9
:4031C00048B338B504460D464368072B03D93221134800F053F8B4F900306268002B08DB5201D2B203F1604303F5614383F8002305E003F00F035201D2B20A49CA540A4BC4
:403200009A680A4B9A4208D12946B4F90000FFF7B3FF002038BD06487047002038BD00BFFC92081014ED00E000ED00E0004002080100560010B5044605E0084B186800F024
:4032400087F8A4F50044B4F5004FF6D8044B186800FB04F000F07CF810BD00BFB4420208B042020808B5034B1B7800FB03F000F06FF808BDAC42020801BEFEE738B50D46FE
:40328000044C18220146204603F002FDA5610020FFF7F2FFA84D0208024B1B685B6801229A607047E07F0208FEE700BF08B50268254BDA6142681A6282685A62C2689A62A1
:4032C0000269DA6242691A6382695A63C2699A631E4A916AD963D16A1964516A5964516B9964926BDA64F1EE103A13F0900F27D0026A154B1A65426A5A65826A9A65C26ADD
:40330000DA65026B1A66426B5A66826B9A66C26BDA66026C1A67426C5A67826C9A67C26CDA67026DC3F88020426DC3F88420826DC3F88820C26DC3F88C20026EC3F8902043
:40334000FFF7B2FF08BD00BFA84D020800ED00E00230800803D001300238FCD100BF00BF7047EFF3108072B6704780F3108870474FF0B0539B899BB223B14FF0B0539B895C
:403380009BB201E04FF48073B3F5807F15D1174A13681868D3F89810435823F00F0343F00203435013681968D3F89C208B5823F00F0343F002038B50704710B40B490B68E2
:4033C0001C68D3F898000A4B1B6823F440732258134343F4407323500B681A68D3F89C3004490968D1505DF8044B7047E07F020848180016441800164FF0B0539B899BB24D
:4034000023B14FF0B0539B899BB201E04FF48073B3F5807F15D1164A13681868D3F89810435823F00F0343F00303435013681968D3F89C208B5823F00F0343F003038B5068
:40344000704730B40A4803681D68D3F8984009490B6823F440732A59134343F440732B5103681A68D3F89C300968D15030BC7047E07F0208201800164FF0B0539B899BB2DB
:4034800023B14FF0B0539B899BB201E04FF48073B3F5807F0BD10D4B1B681968D3F898208B5823F4E04343F4C0438B507047074B1B681868D3F89810054B1B6823F44073BE
:4034C0004258134343F4407343507047E07F0208181800164FF0B0539B899BB223B14FF0B0539B899BB201E04FF48073B3F5807F0BD1114B1B681968D3F898208B5823F448
:40350000E04343F480438B50704730B40A4803681D68D3F8984009490B6823F440732A59134343F440732B5103681A68D3F89C300968D15030BC7047E07F02084C180016A9
:4035400008B54FF0B0539B899BB223B14FF0B0539B899BB201E04FF48073B3F5807F17D10E20FEF705F94FF0B0535B7813F0FF0F04D04FF0B0535B78DBB200E02123222B80
:4035800002D818B9012008BD012008BD002008BD012008BD10B50446012804D940F262710F48FFF76BFE1CB90E4B5869C00F00E000200D4B1B6893F844307BB1012C0DD12A
:4035C000084B9B6913F0804F05D1064B9B69002B03DA012010BD012010BD002010BD00BF4093081000002640E07F020838B5154B1B6893F8443023B30D460446072804D9DF
:4036000040F2CC711048FFF739FE0E4B1B6893F8443023B10D4B9B6903F0070300E00023DBB29C420DD00948826922F0070104F007020A43826125B19C4202D9C820FFF753
:4036400011FE38BDE07F0208409308100000264010B30246C3680BB303680BB330B40579114B03EB85035C682346002103E0934205D019465B69002BF9D1012000E0002027
:4036800080B124B9084B03EB85056A6000E04A6111610023536105E000207047002070470020704730BC70474C70020850B310B402460479164B03EB840359680B4602E06A
:4036C000934204D05B69002BFAD1002000E00120D0B18A420ED14B6933B10D4A02EB8404636000221A610FE0094B03EB84040023636009E01A69596951615A6922B11B69BD
:40370000136101E0002070475DF8044B704700BF4C70020830B583B004460D46022808D9042806D0032804D040F6B2112848FFF7A5FD6B1EDBB2012B08D9042D06D0082D5C
:4037400004D040F6B3112248FFF798FD214800EB84004468042D12D0012D1AD111E0A3681D420AD1E3681A6800925B6801932368294668469847174B9C61646902E0002035
:4037800000E0002014B3144B9842E8D1012DE6D11CE0022D01D104E01C466369002BFBD103E00C4B9C6904B1246900200CE0A3681D4208D1E3681A6800925B680193236854
:4037C0002946684698472469002CF0D103B030BD409308104C700208FF00420070B50546012804D94FF4E0711D48FFF747FD1D4B5B682BB101210020FFF78CFF044600E024
:4038000000242CBBFFF7ADFD0646164B5B681BB104210020FFF77EFF134A136923F004031361012D01D030BF07E020BF0D4B1B7803B120BF01220B4B1A703046FFF795FD4F
:40384000084B5B684BB108210020FFF763FF04E002210020FFF75EFF044C204670BD00BF409308104C70020800ED00E0FF00420008B5FFF776FD074B5A6807490A4042F4B0
:4038800068525A605A68114059605B68FFF76DFD08BD00BF00002640FF00FC0FF8B50546012804D940F64C213948FFF7E7FC4FF0B0535B7813F0FF0F04D04FF0B0535B78A7
:4038C000DBB200E021239CB24FF0B0539B899BB223B14FF0B0539F89BFB201E04FF480770E20FDF745FF98B9B7F5807F12D1222C12D8284B1B6858684FF21801435823F011
:4039000080722B0603F0807313434350002604E0214E02E0204E00E01F4EB7F5807F01D1222C02D8B7F5807F2FD01A4B1B6893F83130012B04D840F2C3111848FFF79EFC5E
:40394000144B1B681C6AB3F8B0301C44B7F5807F02D125B1124A05E01DB1124A02E0124A00E0124A01212046FDF7E0FB68B9094B1B68D3F8B4301B59002BF8DBE36803F00D
:403980007F43B3F1204F00D100263046F8BD00BF40930810E07F020804004200708F0810010100300300000C010000300100000C70B50446022806D0052804D040F202710C
:4039C0001E48FFF75BFCFFF7BBFDA0B3FFF7C9FC0646022C07D10120FFF760FF054678B9FFF7C6FC0CE0164A536923F0070343F0030353613420FFF735FCFFF76BFD00254C
:403A0000ADB90F494B6923F0070204F0070313434B61022C02D1FFF72FFD08E09120FFF721FCFFF7E9FC0020FFF738FF05463046FFF79BFC00E0034D284670BD40930810FD
:403A40000000264003004200F8B50446012804D94FF402612A48FFF711FCFFF771FD00284AD0FFF77EFC07468CB9002147F63073244AD1504FF0B05393F84067F6B201200E
:403A8000FFF70CFF0546D8B9FFF772FC18E01E4B19681C4A47F63073D1504FF0B05393F84167F6B24FF61C71535823F01F0343F00B0353500320FFF7D5FBFFF70BFD0025BD
:403AC000B5B910494FF61C728B5823F01F0306F01F061E438E5014B9FFF7CEFC08E00720FFF7C0FBFFF788FC0020FFF7D7FE05463846FFF73AFC00E0044D2846F8BD00BF00
:403B000040930810000026401018001603004200014B1860704700BFE07F0208002800F0AC8070B40446002A00F0A98092F828300BB1012500E00025137F0BB1022300E0FD
:403B400000231D431669B60406F4802645EA060395682D0405F440351D431668300600F0E0602843136B556B43EA45031B0503F440130343906B43EA8000052E03D1D36819
:403B80001B029BB202E053681B029BB20343081D800123501368062B08D104EB81130120C3F808013F20C3F828011DE0936843B904EB81130020C3F808013120C3F8280175
:403BC00012E0012B08D1506904EB8113C3F808011C20C3F8280107E004EB81130120C3F808011220C3F82801106A04EB8113C3F80C01506AC3F810015069C3F8140190697C
:403C0000C3F81801136EB3F1FF3F17D0106C00F00F00966C360206F470663043156D2D0405F470250543906D000380B228431B01DBB2034304EB8110C0F82031D36B03F09F
:403C40000303566C360106F030063343D56C2D0205F440752B43506D8001C0B21843D36D9B0003F00C03034304EB8114C4F82431D36AC4F83831002002E0024870470148A6
:403C800070BC70470100B60038B50D4640F4004000040E4BD8614FF47A7403E0013C0120FFF7E0FA094B1B6C13F0010F01D1002CF4D144B1054B1A6C42F001021A64DB6A6A
:403CC0002B80002038BD024838BD00BF00003C400400160010B50F4B03EA004001430E4AD1614FF47A7403E0013C0120FFF7BAFA094B1B6C13F0010F01D1002CF4D134B1A4
:403D0000054A136C43F001031364002010BD034810BD00BF0000FF7F00003C400400160070B582B005460A244FF4C05141F60260FFF7D0FF034630B90DF1060141F60260DD
:403D4000FFF7A2FF03460CB1013C00E0714B23B9BDF80620B2F5C05FE6D13BBB0DF1060141F60360FFF790FF0346F8B9BDF8062002F4806292B2CAB90A244FF4806141F682
:403D80000360FFF7A7FF034630B90DF1060141F60360FFF779FF03460CB1013C00E05D4B23B9BDF80620B2F5806FE6D133B90DF1060141F60960FFF767FF0346002B43D181
:403DC000BDF8063023F03F039BB2AA78012A12D1E978012904D88EB2C6F1020294B201E00024022643F07003ADF806304A4BCB404A4A136012E0E97821B98EB2C6F10102E2
:403E000094B201E00024012623F0400343F01003ADF80630424BCB40404A1360BDF80610314389B2ADF8061041F60960FFF752FF0346EA78961B06F00306A20092B2324332
:403E4000ADF8062037494A664FF0B052527812F0FF0F04D04FF0B0525278D2B200E02122212A53D0304A128892B2002A4ED033B90DF1060141F60760FFF706FF034643BBC7
:403E8000BDF8063023F060039BB2ADF8063026490A88C2F3811243EA421323F428639AB2ADF806200B889BB2DB0103F4F063134323F4C0539BB2ADF806300988C1F30121E0
:403EC00043EAC121ADF8061041F60760FFF702FF034633B90DF1060141F60660FFF7D4FE03469BB9BDF8061021F0C0018BB2ADF806300D4A1188C1F3011143EA8111ADF858
:403F0000061041F60660FFF7E5FE0346184602B070BD00BF040016000048E801984202080024F40000F03D401618001638B50D4641F2010141EA400141F60860FFF7CAFE7A
:403F4000044630B946F6370141F60F60FFF7C2FE04466801FFF786F9204638BD024A136F43F010031367704700F03D4070B59CB0134C13AD26460FCE0FC50FCE0FC5336810
:403F80002B600AAD04F124060FCE0FC50FCE0FC533682B6001AD48340FCC0FC50FCC0FC523682B6013A90748FDF734F80AA90648FDF730F801A90548FDF72CF81CB070BD2A
:403FC000F0940810000132408001324000023240F8B5002800F0E7800546774B5B6813F4003F01D0FFF744FC744C03E0013C0120FFF738F9724BDB6E0BB1002CF6D1704B6A
:40400000D3F8A03013F0010F06D06D4BD3F8B43013F0010F40F0C980694BDB6E002B40F0C680FFF7A3FF674901F5F833664AC3F8A4202A7842F42022C3F8A8204FF00112E4
:40404000C3F8AC20D1F8003113F0010F40F0B1805B4B1B6F13F0080F0AD15C4B1B685C4A934207D95B4AA2FB03231B0D013B02E0012300E00023534A12681BB1564941EA1F
:40408000433300E0554B13434E4A13604A4B5B6913F0804F13D001210320FFF7A7FA464B5B69C3F380734E4A126892F844206AB163B1414A936943F08043936106E0404AB1
:4040C000D2F8C43043F00303C2F8C4303C4CD4F8A07047F4403343F03003C4F8A0304020FFF7C0F8D4F8B03013F0010F0BD10123C4F8B0304020FFF7B5F80323C4F8B030E9
:404100004020FFF7AFF827F4803727F0100747F4003646F020062A4BC3F8A0604FF4FA6403E0013C0120FFF79DF844F210032D4AD35813F0100F01D1002CF2D10CB1002469
:4041400000E0294C1CBB1E4A936E43F0080393660120FFF71FFA18B947F4003646F0280626F4802343F00103154AC2F8A030134E03E0013E0120FFF775F8114BD3F8B430AE
:4041800013F0010F01D1002EF3D106B9164C1CB92846FFF7C5FD044664B929786878FFF7C5FE044606E0114C04E0114C02E0104C00E0104C2046F8BD00002640F07E0E0026
:4041C00000F03D4000003C4006000001A042020800093D0083DE1B43041A0080040A0080E07F02080000324004001600010016000300160002001600014B1868704700BF33
:404200009842020810B5002405E02046FEF78EFE032804D00134042CF7D9002010BD012010BD00BF074BD3F8003503F00303012B03D0032B03D101207047012070470020FB
:40424000704700BF0000264038B5012902D0082942D047E0284B1B78012B45D00320FDF7AFF8264B984241D0FFF7CCFF01283FD0022006F097FE0546FFF773F8204B186079
:4042800028F03EFA0446062815D0022D09D1022014F0ECFF032C01D0052C0ED178B1194C12E0012014F0E2FF022C0AD058B9FFF795FA144C08E0002406E0124C04E000244B
:4042C00002E0104C00E00F4C0E4B9C4211D10C4B1868FFF74AF80CE0094B1868FFF745F8002406E0074C04E0064C02E0054C00E0044C204638BD00BFE87F0208010188001F
:4043000088700208FF00420008B50248FFF7CEF908BD00BFBC420208B0B110B50B4A5060C36A03B193600024094B1C70094B1C70094B1C60094B1C7000F09CFB084B1C70F1
:40434000084B1C70204610BD0748704788700208F87F0208FC7F020800800208FD7F0208E77F0208EC7F02080100160070B59AB03F4D15AC28686968AA68EB680FC428692B
:4043800020604C22002102A801F086FF394B029315AB049341F64C63ADF8143005238DF81630354B5B681B69069340F2CE5307931B23ADF82030ADF8223003238DF8243026
:4043C00004238DF8253006238DF8263010228DF8272001238DF828308DF829207222ADF84C208DF850302548FFF732F906F0D3FD08A806F03BFE0346002836D1204B039395
:404400001D4B5B68996B89B10B460DF12A0220311E685D689C68D868166055609460D060103310328B42F3D11B88138002A806F0C5FD0346B0B90122124B1A700023124A80
:404440001370124A13700C4B5B681A6A00929B6ADB88ADF804302623ADF8063068460EF02FFE034600210A4A116018461AB070BD5C950810954E081088700208BC420208DA
:404480003C4E0208E87F0208F07F0208F17F020800800208014B9867704700BF00F03D4008B51BF027FE034B1B680BB100B1984708BD00BF9470020848B108B5B1F5FD7FD8
:4044C00007D20A46044901F0DCFE002008BD03487047024808BD00BF07080016010016002DE9F04FADF5077DB1F1805F03D38D189D4CA54210D9B1F1A05F03D38D189B4C57
:40450000A54209D99A4CA14240F20F818D1804F20124A54200F20E81049317460E468046944B5B6913F0804F10D0924B5C6904F00704022C24D10520FFF73AFA00908E4B20
:404540009842F8D002940123039323E04FF61C73884AD35803F01F034FF0B05292F84027D2B2D31A18BF012303937BB90120FFF76BFA814B9842F9D000900523029309E0D7
:404580000294012303930023009303E00523029300230093794B009A9A4204D140F2D5117748FEF76BFE06F17046730A01935C0200210320FCF77CFE0028F9D10546824689
:4045C00083E0B44213D3BD4211D218F805200DF1180E0EF8032041B904F180521278D2B218F805E0724500D00121013506E004F1805212780DF1180E0EF803200134013388
:4046000001E000210B46B3F5007FDAD3002959D0009B002B56D1049B002B48D14FF0C80B05955D46DDF804B00BF500294FEA49294846FCF745FC8246013D0120FEF712FE97
:404640000AF4A403B3F5A40F01D1002DECD1059D4C4B9A4505D1FCF72FFC4B4B9842FAD08246BAF1000F17D14FF0C80B5B46A3461C4606A94846FCF775FC8246013C012009
:40468000FEF7F0FD0AF4A403B3F5A40F03D1002CEFD15C4600E05C463A4B9A4511D1FCF70BFC394B9842FAD0824601200AE0019B03F5002006A94002FCF7B0FB82460120CD
:4046C00000E00120019B01330193009B23B9BAF1000F01D1BD4294D308B1FEF7DDFD00210320FCF729FE0028F9D1009B33BB214B5B6913F0804F09D0029B022B06D10220ED
:40470000FFF756F900901C4B9842F8D0194B1B6813F4000F12D1039B83B90020FFF794F90090154B9842F8D008E000230093DFF86CA003E000230093DFF860A0009B63B904
:40474000124B9A450BD004339A4508D0BAF1000F01D1002004E00E4802E00E4800E00E480DF5077DBDE8F08F0000101000800014FF07001600002640040042000300420075
:40478000709608100100500002005000020052001300160012001600010016000600520048B108B5B1F5FD7F07D20A4601230449FFF796FE08BD03487047024808BD00BF93
:4047C000070800160100160070B5C0B006460C4615464FF480720849684601F052FD05E016F8012B6A401DF80250013C002CF7D1284640B070BD00BF7095081008B50022D4
:40480000FFF7E2FF08BD00BF002070470288AE2303FB02F3A3F26F33024AA2FB0323DB080B807047CDCCCCCCB0F9002042F64B0303FB02F3044A82FB0302DB17C3EB223355
:40484000C3F1BD030B807047AD8BDB680020704708B514F03BFB08BD08B5FEF703FD08BD084B1B685B6BB3F90030002B08DB590903F01F03012202FA03F3034A42F8213013
:40488000704700BF8C70020800E100E00A4B1B685B6BB3F90030002B0DDB5A0903F01F03012101FA03F32032044941F82230BFF34F8FBFF36F8F70478C70020800E100E0BB
:4048C000024BD3F8000500F00300704700002640024BD3F81C05C00F704700BF0000264008B5FEF7F9FB08BD70B504460D4616460320FCF765FD054B984205D032462946C0
:404900002046FEF737FB70BD014870BD0101880003004A00431A002BB8BF5B4293422BD310B4194BD3F83C35C3F30903884207D9411A01EB5201B1FBF2F29A1A0FD50AE085
:40494000091A01EB5201B1FBF2F21A4440F2FE318A4202D803E0002201E040F2FF320A4CD4F83C1521F47F7121F00301C2F309000143C4F83C1502E00023D81A7047981A9B
:404980005DF8044B704700BF0000264008B5034B1A684FF40041FFF7BDFF08BDD442020810B5FFF7E3FA0220FFF774FD0A4C23680A49586BFEF704FC23685B6BB3F9003095
:4049C000002B08DB590903F01F03012202FA03F3034A42F8213010BD8C700208A144081000E100E00420704708B5FEF7BAFC08BD08B5FEF7BAFC08BD08B5FEF7EFFE08BD1B
:404A000008B50021FEF7F2FD08BD00BF704700BF704700BF0020704700487047110016000048704711001600004870471100160000487047110016000048704711001600AF
:404A4000004870471100160000487047110016000048704711001600004870471100160000487047110016000048704711001600704700BF08B5034800F0A2FD024800F00B
:404A8000B1FD08BDB8440208B0440208F8B5022872D8002972D10022134606E03B4CE45C012C01D90132D2B20133002BF6D0012A0CD1374B1B681C6801EB810293002344ED
:404AC0005B681B79023BDBB2012B59D8314B1B78002B57D1304B1970E0B92D4F3C68236801EB8105AA009D186668C1EBC1014B001E44B18829822168114449686468E45A57
:404B00000C8039680C682244526849680B445B8853801EE001281CD11D4F3C68236801EB8105AA009D186668C1EBC1014B001E44B1892982216811444D6861681944098965
:404B4000298039680C682244526849680B445B895380124B18700E4B1B6818680E4B1B7803EB83039A0010440AF048F8034650B90121084A117006E0094B04E0084B02E03D
:404B8000084B00E0084B1846F8BD00BFF07F02088C700208F17F0208E67F0208FD7F02080100160002001600FF00160070B439B9144B1B681B689968CE7F00231D460EE02E
:404BC000104B1B681B68D968CE7FF6E7CA5C52B10133CC5C1B2C01D0134400E00125B34201D2002DF2D05DB101338279CA54002204E0D4180134855C0D550132052AF8D940
:404C000070BC70478C70020870B504460EF072FA054620BB134B1968086A228902EB82029300143B03445A6812F0007F17D0E67B1B695A68CB69D21A06EB4606B318A288D3
:404C400021680948184401F01CFBE37B074AD35C012B04D1064A137843F002031370284670BD00BF8C700208F47F0208EC7F0208E77F020830B587B002891A4B1B685B696C
:404C80009B889A4229D1044601AB07C883E807000022ADF81020A289ADF8122040228DF814201846FFF7B0FF054680B923681B7803F002039BB22BB10B4B1B6821460B4857
:404CC000984704E0084B1B68214609489847094A137803F0FE03137000E00025284607B030BD00BF8C700208907002080500010006000100F87F02084288531E9BB2242BE4
:404D00001AD84178D1B910B40F4B1868046A02EB82029300143B23445A6812F0007F0FD01B695A68C369D31A01EB41011944074B5B5A1380002004E001207047012070471E
:404D400000205DF8044B70478C700208F47F0208C8B1104B1B68196A038903EB83039B00143B0B445B6813F0007F0ED100B587B001AB00210491059107C883E8070018467B
:404D8000FFF742FF03E00E2070470120704707B05DF804FB8C70020800B583B00023ADF804308389ADF800300389ADF8023012238DF80430084B1B7813F0010F09D129B148
:404DC0008DF8051068460DF0BFFA02E0C0680DF0DBFA03B05DF804FBF87F020810B4044688B10023194606E0114A52F82320944200D1012101330E4A127A934206D2002903
:404E0000F2D0002003E000210A4800E0002058B951B9074B1B7A012B05D8054A42F823400133137200E004485DF8044B704700BF04800208010016000300160070B5064615
:404E40000D460020044606E0084B53F824302946304698470134054B1B7A9C4204D2044B1B7813F0010FEFD170BD00BF04800208F87F020883792BB100207047C25C32B9A3
:404E8000013300E00023052BF8D9002070470120704700BF70B58CB004460D46C04A137843F00103137044F20803984200F04E823CD842F20403984200F0F08019D841F277
:404EC0000203984200F0178108D8B0F5805F79D041F20103984200F00B8157E341F20303984200F0418141F20403984200F049834CE343F2190398425BD00AD843F20103A2
:404F0000984200F0BC8043F21203984200F0B7803CE344F20603984200F01C8200F2CF8144F20403984200F033812FE345F20C03984200F0DD821BD845F20103984200F0E4
:404F400048820AD844F20A03984200F0B58144F21003984200F0B38118E345F20203984200F0818245F20303984200F095820DE345F21003984200F0F6820AD845F20E0333
:404F8000984200F0EA8245F20F03984200F0E882FCE245F21703984200F0EB8246F20103984200F0138245F21403984240F0EE82DCE2084606F09EF9794A137803F0FE039A
:404FC0001370E3E2774B1E683046FFF753FF60B130460AF001FE734E00213068FFF7E6FD01213068FFF7E2FD37E06F4B1A68936A1B791BB34FF0B05191F8043603F03F0317
:4050000091F8050600F03F0043EA801391F8030600F01F0043EA003391F8001601F07F0143EA4143126B13705F4A1168096BC3F3072048701268126B1B0C93705A4E33689C
:40504000186B0AF0C9FD33680021186BFFF7AEFD33680121186BFFF7A9FD534B1B68986A02300BF0CFF9514A05AB1068516803C305A80AF0D5FD02224D4B1A7086E200238D
:405080004B4A13704B4A13704B4A137043F212039C4240F07B82FFF737F977E2474B1B6813F0010F40F072820023ADF814308DF816303D4E33689B6A93F900308DF8143001
:4050C00005A80AF0C7FD33689B6A93F901308DF8143001238DF81530FF238DF8163005A80AF0B8FD354A136843F0010313604DE2FFF7A4FE4AE24978314B1B88ADF8143088
:40510000002319E02F4A32F81320ADF808209DF8092012B92C48825C00E00022012A0AD9284A12F81320914205D1264A32F81330ADF8143002E00133002BE3D09DF81530D9
:40514000FF2B05D104D140F2CA312048FEF796F8BDF81430ADF82030ADF81C30C3F3072329781B4AD15411E20B78002B40F00E820B7A3BB9174B0322DA8028229A80164AD9
:405180001A604B60064A137803F0FE031370FDE149790B4B1B88ADF81430002338E000BFF87F0208D84202088C700208AC960810E87F0208F17F0208AC700208008002085C
:4051C000B4960810E47F0208F07F0208B8960810FC7F0208B4700208886C0208B34A32F81320ADF80C209DF80D2012B9B048825C00E00022012A0AD9AC4A12F813209142AC
:4052000005D1AA4A32F81330ADF8143002E00133002BE3D09DF81530FF2B05D104D140F2CA31A448FEF72AF8BDF81430ADF82430ADF81430C3F3072369789F4AD154EB786E
:40524000002B40F0A38169799C4B1B88ADF81430002319E0954A32F81320ADF810209DF8112012B99248825C00E00022012A0AD98E4A12F81320914205D18C4A32F81330D3
:40528000ADF8143002E00133002BE3D09DF81530FF2B05D104D140F2CA318648FDF7EEFFBDF81430ADF82830ADF81430C3F307230121834AD15469E1FFF7C0FD66E1AB7E46
:4052C000002B3FD12B7E012B02D100227D4B1A70E97E7A4B1B88ADF81030002319E0734A32F81320ADF814209DF8152012B97048825C00E00022012A0AD96C4A12F8132066
:40530000914205D1694A32F81330ADF8103002E00133002BE3D09DF81130FF2B05D104D140F2CA316348FDF7A9FFBDF81030ADF82C30ADF81030C3F30723FF2B02D0297E4E
:40534000614AD1540222614B1A701FE102225F4B1A701BE1FFF772FD5D4B1B7813F0010F00F01481574B1B78012B03D10222554B1A700BE1032B03D10022524B1A7005E1D7
:40538000022B40F0038100224E4B1A70514B1B685B68514A1178C1EBC10203EB42039A79002A00F0F3809B88002B00F0EF804B4B1B78002B40F0EA800120FFF767FB002843
:4053C00040F0E48001223F4B1A70DFE0FFF736FDDCE00B88ADF800309DF801301BB90221334AD15405E023B940F286313148FDF745FF6A7829882D4B23F812106B780021D0
:40540000374AD15403EB4301364E8819314B1B681B692A7802EB420202F5B962134433F8062F9B788A538370687800EB400002213044FFF7E3F96B7803EB430333449B7858
:4054400098420BD0284B1B680021284898476B7803EB4303981900229A53827029462046FFF7ECFC92E00B88ADF804309DF805301BB900210E4AD15405E023B940F28631D1
:405480000C48FDF7FBFE6B7800210D4AD15429462046FFF7D3FC79E00B88ADF814301723ADF8163005A80CF05BFF6FE0E47F0208F07F0208B8960810EC7F0208B496081022
:4054C000AC700208F17F0208B0700208E87F0208F87F02088C700208E67F0208FD7F0208FC7F0208F47F020890700208040001000846FFF7BFFB014620B929462046FFF7FB
:405500009DFC01462846FFF747FC294B1B7813F0110F04D0274B1B682946204698472A89234B1B7813F0010F11D0531E9BB2242B0DD912238DF81830ADF81620AB89ADF8EC
:40554000143001238DF8193005A80CF0FDFE184A137803F0FE03137018E0FFF76FFC15E0FFF76CFC12E0FFF769FC0FE0FFF766FC0CE00846FFF7C0FB29462046FFF75EFC9D
:4055800004E00D4A137843F001031370084B1B7813F0110F09D0064A137803F0FE031370044B1B682946204698470CB070BD00BFF87F020890700208E77F02080020704737
:4055C00030B108B5034A10600348FFF707FC08BD02487047C0700208BD550810010016000020704730B108B5034A10600348FFF7F5FB08BD02487047C4700208E155081016
:405600000100160070B539B900240AE015F8010BFBF7B4F9013402E016460D460024B442F4DB204670BD00BF70B561B900240FE0FBF7B0F9C0B2287001340A2808D00D280A
:4056400006D0013502E016460D460024B442EFDB204670BD08B5084B1B783BB9074A0D210748FEF75BFA0122034B1A70044B4FF400529A609A6108BDC8700208F0960810EE
:405680000000394008B5084B1B783BB9074A00210748FEF743FA0122034B1A70044B01229A609A6108BD00BFC9700208549708100000384008B518B1094AD062002000E038
:4056C000084858B9084B1B782BB90548FEF724FE0122054B1A7008B9FEF748FE08BD00BFDC42020801001600CA70020808B502490248FDF78DF808BD10800208000067404A
:4057000010B5144B1B788BB9134C144A14492046FCF7F2FC134A14492046FCF7FBFD13491348FDF74DFD01220A4B1A70104BB3F90030002B08DB590903F01F03012202FA30
:4057400003F30C4A42F82130034A136843F00043136010BDF07002080000674010800208F49A081084D71700A0860100ED560810108F081000E100E081F0004102E000BFC4
:4057800083F0004330B54FEA41044FEA430594EA050F08BF90EA020F1FBF54EA000C55EA020C7FEA645C7FEA655C00F0E2804FEA5454D4EB5555B8BF6D420CDD2C4480EA1E
:4057C000020281EA030382EA000083EA010180EA020281EA0303362D88BF30BD11F0004F4FEA01314FF4801C4CEA113102D0404261EB410113F0004F4FEA03334CEA1333B2
:4058000002D0524263EB430394EA050F00F0A780A4F10104D5F1200E0DDB02FA0EFC22FA05F2801841F1000103FA0EF2801843FA05F359410EE0A5F120050EF1200E012A06
:4058400003FA0EFC28BF4CF0020C43FA05F3C01851EBE37101F0004507D54FF0000EDCF1000C7EEB00006EEB0101B1F5801F1BD3B1F5001F0CD349085FEA30004FEA3C0C35
:4058800004F101044FEA445212F5800F80F09A80BCF1004F08BF5FEA500C50F1000041EB045141EA050130BD5FEA4C0C404141EB010111F4801FA4F10104E9D191F0000FDF
:4058C00004BF01460020B1FA81F308BF2033A3F10B03B3F120020CDA0C3208DD02F1140CC2F10C0201FA0CF021FA02F10CE002F11402D8BFC2F1200C01FA02F120FA0CFC80
:40590000DCBF41EA0C019040E41AA2BF01EB0451294330BD6FEA04041F3C1CDA0C340EDC04F11404C4F1200220FA04F001FA02F340EA030021FA04F345EA030130BDC4F1F9
:405940000C04C4F1200220FA02F001FA04F340EA0300294630BD21FA04F0294630BD94F0000F83F4801306BF81F480110134013D4EE77FEA645C18BF7FEA655C29D094EA9D
:40598000050F08BF90EA020F05D054EA000C04BF1946104630BD91EA030F1EBF0021002030BD5FEA545C05D14000494128BF41F0004130BD14F580043CBF01F5801130BD8A
:4059C00001F0004545F0FE4141F470014FF0000030BD7FEA645C1ABF194610467FEA655C1CBF0B46024650EA013406BF52EA033591EA030F41F4002130BD00BF90F0000F10
:405A000004BF0021704730B54FF4806404F132044FF000054FF0000150E700BF90F0000F04BF0021704730B54FF4806404F1320410F0004548BF40424FF000013EE700BFC7
:405A400042004FEAE2014FEA31014FEA02701FBF12F07F4393F07F4F81F06051704792F0000F14BF93F07F4F704730B54FF4607401F0004521F0004120E700BF50EA0102F3
:405A800008BF704730B54FF000050AE050EA010208BF704730B511F0004502D5404261EB41014FF4806404F132045FEA915C3FF4DCAE4FF003025FEADC0C18BF03325FEA79
:405AC000DC0C18BF033202EBDC02C2F1200300FA03FC20FA02F001FA03FE40EA0E0021FA02F11444C1E600BF70B54FF0FF0C4CF4E06C1CEA11541DBF1CEA135594EA0C0FC3
:405B000095EA0C0F00F0DEF82C4481EA030621EA4C5123EA4C5350EA013518BF52EA033541F4801143F4801338D0A0FB02CE4FF00005E1FB02E506F00042E0FB03E54FF0CE
:405B40000006E1FB03569CF0000F18BF4EF0010EA4F1FF04B6F5007F64F5407404D25FEA4E0E6D4146EB060642EAC62141EA55514FEAC52040EA5E504FEACE2EB4F1FD0C39
:405B800088BFBCF5E06F1ED8BEF1004F08BF5FEA500E50F1000041EB045170BD06F0004646EA010140EA020081EA0301B4EB5C04C2BFD4EB0C0541EA045170BD41F4801181
:405BC0004FF0000E013C00F3AB8014F1360FDEBF002001F0004170BDC4F10004203C35DA0C341BDC04F11404C4F1200500FA05F320FA04F001FA05F240EA020001F0004204
:405C000021F0004110EBD37021FA04F642EB06015EEA430E08BF20EAD37070BDC4F10C04C4F1200500FA04F320FA05F001FA04F240EA020001F0004110EBD37041F1000152
:405C40005EEA430E08BF20EAD37070BDC4F1200500FA05F24EEA020E20FA04F301FA05F243EA020321FA04F001F0004121FA04F220EA020000EBD3705EEA430E08BF20EA0C
:405C8000D37070BD94F0000F0FD101F00046400041EB010111F4801F08BF013CF7D041EA060195F0000F18BF704703F00046520043EB030313F4801F08BF013DF7D043EA3B
:405CC0000603704794EA0C0F0CEA135518BF95EA0C0F0CD050EA410618BF52EA4306D1D181EA030101F000414FF0000070BD50EA410606BF1046194652EA430619D094EA2D
:405D00000C0F02D150EA013613D195EA0C0F05D152EA03361CBF104619460AD181EA030101F0004141F0FE4141F470014FF0000070BD41F0FE4141F4780170BD70B54FF0FE
:405D4000FF0C4CF4E06C1CEA11541DBF1CEA135594EA0C0F95EA0C0F00F0A7F8A4EB050481EA030E52EA03354FEA013100F088804FEA03334FF0805545EA131343EA1263B0
:405D80004FEA022245EA111545EA10654FEA00260EF000419D4208BF964244F1FD0404F5407402D25B084FEA3202B61A65EB03055B084FEA32024FF480104FF4002CB6EB0F
:405DC000020E75EB030E22BFB61A754640EA0C005B084FEA3202B6EB020E75EB030E22BFB61A754640EA5C005B084FEA3202B6EB020E75EB030E22BFB61A754640EA9C0078
:405E00005B084FEA3202B6EB020E75EB030E22BFB61A754640EADC0055EA060E18D04FEA051545EA16754FEA06164FEAC30343EA52734FEAC2025FEA1C1CC0D111F4801FBD
:405E40000BD141EA00014FF000004FF0004CB6E711F4801F04BF01430020B4F1FD0C88BFBCF5E06F3FF6AFAEB5EB030C04BFB6EB020C5FEA500C50F1000041EB045170BDAC
:405E80000EF0004E4EEA113114EB5C04C2BFD4EB0C0541EA045170BD41F480114FF0000E013C90E645EA060E8DE60CEA135594EA0C0F08BF95EA0C0F3FF43BAF94EA0C0F35
:405EC0000AD150EA01347FF434AF95EA0C0F7FF425AF104619462CE795EA0C0F06D152EA03353FF4FDAE1046194622E750EA410618BF52EA43067FF4C5AE50EA41047FF423
:405F00000DAF52EA43057FF4EBAE12E74A0011D212F5001211D20DD56FF47873B3EB62520ED44FEAC12343F0004343EA505323FA02F070474FF00000704750EA013002D132
:405F40004FF0FF3070474FF00000704753B94AB9002908BF00281CBF4FF0FF314FF0FF3000F07EB9ADF1080C6DE904CE00F006F8DDF804E0DDE9022304B070472DE9F047DC
:405F80008C460E460446089D002B50D18A4217466CD9B2FA82FEBEF1000F0BD0CEF1200420FA04F401FA0EF644EA060C02FA0EF700FA0EF44FEA1749220CBCFBF9F01FFA9C
:405FC00087F809FB10C642EA064600FB08F3B34209D9F61900F1FF3280F02281B34240F21F8102383E44F61AA2B2B6FBF9F309FB136642EA064403FB08F8A04509D9E41986
:4060000003F1FF3280F00A81A04540F20781023B3C44C8EB040443EA00400021002D62D024FA0EF400232C606B60BDE8F0878B4207D9002D55D0002185E841000846BDE8C5
:40604000F087B3FA83F1002940F09080B34202D3824200F2F880841A66EB03060120B446002D40D085E81010BDE8F08712B90127B7FBF2F7B7FA87FEBEF1000F35D1F31B98
:406080004FEA17481FFA87FC0121B3FBF8F0220C08FB103642EA06460CFB00F3B34207D9F61900F1FF3202D2B34200F2CE801046F61AA2B2B6FBF8F308FB136642EA0644B4
:4060C0000CFB03FCA44507D9E41903F1FF3202D2A44500F2B5801346CCEB040443EA00409CE729462846BDE8F087CEF1200106FA0EF307FA0EF720FA01F94FEA1748CE4029
:4061000049EA0309B6FBF8FA4FEA194408FB1A661FFA87FC44EA06430AFB0CF29A4200FA0EF40AD9DB190AF1FF3180F087809A4240F28480AAF1020A3B449B1A1FFA89F975
:40614000B3FBF8F108FB113349EA034301FB0CF69E4207D9DB1901F1FF326BD29E4269D902393B449B1B41EA0A418EE7C1F1200E22FA0EF48B40234320FA0EF706FA01F4F6
:406180004FEA134C26FA0EF63C43B6FBFCF9270C0CFB19661FFA83F847EA064609FB08F7B74202FA01F200FA01FA08D9F61809F1FF3041D2B7423FD9A9F102091E44F61B00
:4061C000A0B2B6FBFCF40CFB146640EA064704FB08F8B84507D9FF1804F1FF3028D2B84526D9023C1F4444EA0940C8EB0707A0FB02894F4544464E4614D329D065B3BAEB59
:40620000040367EB060707FA0EFECB40CF404EEA030385E888000021BDE8F0871346F8E61046E0E6B8EB020469EB03060138E5E70446D8E7114695E78146C0E78A467CE786
:40624000023B3C4448E708460AE702383E442FE7C245E7D33E46D1E72946BDE8F08700BF704700BF10B501390244904207D010F8013B11F8014FA342F7D0181B10BD00200D
:4062800010BD10B5431E0A44914204D011F8014B03F8014FF8E710BD02440346934202D003F8011BFAE770472DE9F04788B0002B149F1299109EDDF84CA01D4627F02007A7
:4062C000BBBF03F100431D4600232D231446B8BF1446462F0B7003D0452F03D1013601E0032300E0022307AA049206AA03928DE8480422462B4600F033FE472F804602D148
:40630000119BDB0728D5462F08EB060911D198F80030302B0AD1002200232046294602F0E1FB18B9C6F10106CAF80060DAF800309944002200232046294602F0D3FB08B970
:40634000302202E0CDF81C9006E0079B994503D9591C07911A70F8E7079B159AC8EB03034046136008B0BDE8F08773B503460029B8BF494203F8022BB4BF2D222B220929E4
:40638000427019DD0DF1070216460A2591FBF5F405FB14113031092C02F8011D2146F5DC3031541E02F8011CB4421A460AD214F8012B03F8012BF7E730241A46214402F8B7
:4063C000024B5970101A02B070BD00002DE9F04F91B00C46DDF8688016461F46054601F0D7FC03680893184600F04AFC00230E93D8F800300990073323F0070303F10802BD
:4064000094F818A0D4F800B0C8F80020D3E90023C4E91223D4E9128929F000430B93CDF828804FF0FF32A74BDDE90A0102F08CFBA0B94FF0FF32A34BDDE90A0102F066FBB5
:4064400060B9002200234046494602F055FB10B12D2384F843309C4B9C4A0AE042464B464046494602F070FB002800F09281984B984ABAF1470F8CBF90469846032323618B
:406480002BF0040323604FF000093DE0BAF1670F00F08A81BAF1470F00F08681236000210DF133020193636805900292009342464B460691CDF810A0CDF80CE02846FFF792
:4064C000F3FE0AF0DF03472B804600F08481BAF1650F0D9900F28D810139524604F150000D91FFF742FF0E9A8318012A8146236100F37C812268D10700F178819DF8333004
:4065000013B12D2384F84330009733460FAA2146284600F09FF9013002D14FF0FF3096E123685A0501D4236965E0BAF1650F40F2D58000220023D4E9120102F0D3FA78B314
:406540000123654A31462846B8470130E5D00E9B0D9A9A420BDB2368D80708D423689B0740F111814FF0000804F1190906E1099B089A31462846B8470130CED04FF00008B1
:4065800004F11A090E9B013B9845E7DA01234A4631462846B8470130BFD008F10108F1E70D9B002B29DC01234B4A31462846B8470130B2D00D9B23B90E9B13B92368D90782
:4065C000CCD5099B089A31462846B8470130A4D04FF0000904F11A0A0D9B5B42994509DA0123524631462846B847013095D009F10109F1E70E9B4246A7E00E9AA36D9A4266
:40660000A8BF1A46002A914606DC4FF0000A29EAE97904F11A0B11E01346314642462846B8470130F1D178E701235A4631462846B84701303FF471AF0AF1010AA36DC9EBDA
:4066400003029245F0DB08EB03090D9A0E9B9A420FDB2368DA070CD40E9B0D9A9844C9EB08089B1A9845A8BF9846B8F1000F08DC0FE0099B089A31462846B8470130EBD1A9
:406680004BE743464A4631462846B84701303FF444AF4FF0000928EAE87804F11A0A09E00123524631462846B84701303FF435AF09F101090D9A0E9B9B1AC8EB0303994510
:4066C000EEDB4BE7FFFFEF7FE4AA0810E8AA0810ECAA0810F0AA0810F4AA08100E9A012A01DCDB0738D50123424631462846B84701303FF412AF099B089A31462846B8474F
:4067000001303FF40AAF00220023D4E9120102F0E9F920B14FF0000804F11A0A0EE00E9B08F10102013B19E00123524631462846B84701303FF4F1AE08F101080E9B013BD0
:406740009845F1DB4B4604F1500231462846B84701307FF403AFE0E60123424631462846B8470130EED1D8E601234A4631462846B84701303FF4D1AE08F10108E3680F9AE9
:406780009B1A9845F0DBE0680F9B9842B8BF18465DE06268531C0EA84BF480630DF1340E7FF474AE062201E012B90122626075E6002106910DF133018DE80C002360059021
:4067C0004246CDF810A0CDF80CE002914B462846FFF76AFD80460D9BD81C02DB626893421DDDAAF1020A5FFA8AFA70E60133236184E6BAF1660F14D10029636807DD2161C9
:4068000013B92268D2071DD501330B4419E013B92268D00701D5023313E0012311E04FF0670A0D9B0E9A934205DB22682361D10708D5013305E0002BD4BFC3F1020301234F
:40684000134423610D9BA3654FF0000956E611B0BDE8F08F2DE9F04791461F460A698B68DDF820809342B8BF1346C9F8003091F8432006460C4612B10133C9F8003023682D
:40688000990642BFD9F800300233C9F80030256815F0060510D104F1190A07E00123524639463046C04701301AD00135E368D9F800209B1A9D42F1DB94F843302268003333
:4068C00018BF012392060FD5E1185A1C302081F84300224494F8451082F84310023303E04FF0FF30BDE8F08704F1430239463046C0470130F4D02268D9F80050E36802F0DD
:406900000602042A08BF5D1B2269A3680CBF25EAE57500259342C4BF9B1AED184FF000091A344D4509D00123224639463046C0470130D5D009F10109F3E70020BDE8F08768
:406940002DE9F04317460A7E85B06E2A984606460C460C9B01F1430E00F0AE8011D8632A22D009D8002A00F0BB80582A40F0CA8081F84520834955E0642A1ED0692A1CD024
:40698000C0E0732A00F0B08009D86F2A2ED0702A40F0B8800A6842F020020A603EE0752A24D0782A3AD0ADE01A6801F14205111D1960136884F84230A8E021681A6811F087
:4069C000800F02D0111D196008E011F0400F02F10401196002D0B2F9003000E01368002B3CDA2D225B4284F8432037E021681A6811F0800F02D0111D196007E011F0400F70
:406A000002F10401196001D0138800E01368227E5C496F2A14BF0A2208221BE078225A4984F845202268186812F0800F00F104051D6003D1550601D5038800E00368D0073A
:406A400044BF42F0200222601BB9226822F0200222601022002084F8430001E049490A226568A560002D08DB206820F0040020602BB9002D7DD175460CE0002B79D0754646
:406A8000B3FBF2F002FB1033CB5C05F8013D03460028F5D1082A0BD12368DA0708D5236962689A42DEBF302305F8013C05F1FF35C5EB0E0323612EE008681A68496910F099
:406AC000800F03D0101D1860136808E010F0400F02F104001860136801D0198000E0196000232361754616E01A68111D1960156862680021284601F0BBF908B1401B606060
:406B0000636804E004F1420584F8422001232361002384F84330CDF800803B4603AA21463046FFF797FE013002D14FF0FF3026E023692A4639463046C0470130F5D0236806
:406B40009B0710D5002504F1190907E001234A4639463046C0470130E7D00135E368039A9B1A9D42F2DBE068039B9842B8BF184605E00B7884F8423004F142058AE705B007
:406B8000BDE8F083F6AA081007AB08100FB40A4B13B51C6824B1A36913B9204601F06EF805AB049AA1680193204601F06BFD02B0BDE8104004B07047C847020870B50E461F
:406BC000054618B183690BB901F058F8AB69AC6813B9284601F052F8224B9C4201D16C6808E0214B9C4201D1AC6803E01F4B9C4208BFEC68A3891B0701D523693BB9214699
:406C0000284600F0ADF810B14FF0FF3070BD013EA36816F8011F013BA36091B1002B04DAA269934206DB0A2904D023685A1C22601970EDE72246284600F03EF80130E7D166
:406C4000E2E7002B08DA22460A21284600F034F80130D9D00A2070BD23680A205A1C2260187070BD28AB081048AB081068AB0810024B01461868FFF7A1BF00BFC84702082B
:406C8000034613F8012B002AFBD1181A0138704710B5034642B111F8014B03F8014B013A002CF7D11A4400E010BD934202D003F8014BFAE710BD0000F8B50F461446064621
:406CC00018B183690BB900F0D9FF224B9C4201D1746808E0204B9C4201D1B46803E01F4B9C4208BFF468A369A360A3891A0709D523693BB123682069181A63699842FDB2A0
:406D00000FDB08E02146304600F02AF80028F1D04FF0FF30F8BD2146304600F045FF0028F6D1A368013BA36023685A1C22601F706269431C934204D0A389DB0707D50A2D36
:406D400005D12146304600F02FFF0028E0D12846F8BD00BF28AB081048AB081068AB0810324B70B51D6806460C4625B1AB6913B9284600F083FF2E4B9C4201D16C6808E026
:406D80002C4B9C4201D1AC6803E02B4B9C4208BFEC68B4F90C309AB215071DD4D00602D4092232603AE0510712D5616B41B104F14403994202D0304601F08EFB00236363C2
:406DC000A38923F02403A3810023636023692360A38943F00803A38123694BB9A38903F42073B3F5007F03D02146304600F0F8FFA28912F0010305D00023A36063695B42ED
:406E0000A36103E0920758BF6369A36023695BB9B4F90C3003F0800080B230B143F04003A3814FF0FF3070BD002070BDC847020828AB081048AB081068AB08102DE9F74FC5
:406E400003690C699C42804600F38380013C01F114074FEA840E00F1140657F8245006EB0E030193013556F82430B3FBF5F507EB0E09002D39D04FF0000A3846B446D34695
:406E800050F8042B93B205FB03A34FEA134A9BB2C3EB0B03120CBCF800B005FB02A213FA8BF34FEA124A1FFA82FBDCF80020CBEB124202EB23429BB243EA024381454FEAE7
:406EC000224B4CF8043BDBD256F80E306BB9019B043B9E421A4602D3C8F8104005E01268043B002AF8D1013CF3E7404601F01DFA00282CDB013530464FF0000E57F8041B79
:406F0000D0F800C08AB2C2EB0E03090C13FA8CF3C1EB1C4202EB23429BB243EA0243B9454FEA224E40F8043BE8D256F8242006EB840362B9043B9E421A4602D3C8F81040B2
:406F400005E01268043B002AF8D1013CF3E7284600E0002003B0BDE8F08F0000000000002DE9F04F456A97B08246239CCDE9022345B9102000F070FFCAF82400456085607A
:406F80000560C560DAF82430196859B15A684A60012393408B60504600F0EFFFDAF8243000221A60039BA04A002BBFBF01232360039B23F00043B8BF0393DDF80C80A4BF75
:406FC0000023236028F000431B0D1B0593421DD1229A42F20F731360029B43B9934A944BC8F31300002814BF1846104600E09048249B002B00F04A85C37813B100F1080372
:4070000000E0C31C249A136000F040BDDDE90245002200232046294601F064FD074658B1229A01231360249B002B00F0228581481860013800F02ABD14AB019315AB0093D9
:4070400022462B46504601F0EBF9C8F30A56059056B1C5F3130343F07F51204641F44011A6F2FF3611971DE0159B149E1E4406F23243202B0ADD029A06F21240C3F14003A6
:4070800022FA00F008FA03F3184304E0C3F12000029B03FA00F0FEF7B1FC0123A1F1F871013E11930022644BFEF76AFB58A3D3E90023FEF719FD58A3D3E90023FEF762FB4F
:4070C000044630460D46FEF7A9FC55A3D3E90023FEF70AFD02460B4620462946FEF752FB04460D4601F046FD0022834600232046294601F001FD58B15846FEF78FFC02464E
:407100000B462046294601F0EDFC08B90BF1FF3BBBF1160F0DD8494901EBCB01DDE90223D1E9000101F006FD30B10BF1FF3B002300E00123109300E01090149B9E1B731E64
:40714000089343BFC3F10009002308934FF00009BBF1000F07DB089BCDF834B05B4408930023099306E0CBF1000309930023CBEB09090D93209B092B27D8052BC4BF043B21
:407180002093209BA3F10203CCBF00250125032B20D8DFE803F0060E0204012302E0012308E000230C93219B002B1CDD069398461EE000230C93219B5B4403F1010806931C
:4071C0004346012BB8BF012312E00125002320930C9501E001230C934FF0FF33069398460022122303E00123069398461A462192DAF8244000226260042101F114029A4219
:407200001ED86268013262604900F6E7AFF3008061436F63A787D23FB3C8608B288AC63FFB799F501344D33F0000F07F18AB081021AB0810F5AA08100000F83FC8AB08100C
