:020000041008E2
:4000000000780408EB0208100D00000051030810510308105103081051030810000000000000000000000000000000004D0308104D030810000000004D0308104D030810DA
:400040004D0308104D0308104D0308104D0308104D0308104D0308104D0308104D0308104D0308104D0308104D0308104D0308104D0308104D0308104D0308104D03081000
:400080004D0308104D0308104D0308104D0308104D0308104D0308104D0308104D0308104D0308104D0308104D0308104D0308104D0308104D0308104D0308104D030810C0
:4000C0004D0308104D0308104D0308104D0308104D0308104D0308104D0308104D0308104D0308104D0308104D0308104D0308104D0308104D0308104D0308104D03081080
:400100004D0308104D0308104D0308104D0308104D0308104D0308104D0308104D0308104D0308104D0308104D0308104D0308104D0308104D0308104D0308104D0308103F
:400140004D0308104D0308104D0308104D0308104D0308104D0308104D0308104D0308104D0308104D0308104D0308104D0308104D0308104D0308104D0308104D030810FF
:400180004D0308104D0308104D0308104D0308104D0308104D0308104D0308104D0308104D0308104D0308104D0308104D0308104D0308104D0308104D0308104D030810BF
:4001C0004D0308104D0308104D0308104D0308104D0308104D0308104D0308104D0308104D0308104D0308104D0308104D0308104D0308104D0308104D0308104D0308107F
:400200004D0308104D0308104D0308104D0308104D0308104D0308104D0308104D0308104D0308104D0308104D0308104D0308104D0308104D0308104D0308104D0308103E
:400240004D0308104D0308104D0308104D0308104D0308104D0308104D0308104D0308104D0308104D0308104D0308104D0308104D0308104D0308104D0308104D030810FE
:400280004D0308104D0308104D03081010B5054C237833B9044B13B10448AFF300800123237010BD8449020800000000D4790810084B10B51BB108490848AFF30080084831
:4002C000036803B910BD074B002BFBD0BDE81040184700BF0000000088490208D479081054430208000000007047FFF7FDFF72B6104C114DAC4209DA21686268A368043BD5
:40030000A2BFC858D050FAE70C34F3E70B490C4A00209142BCBF41F8040BFAE709480A490860BFF34F8F00F057F900F031F900F01DF8FEE7D8790810F0790810844902083F
:40034000D84B02080040020808ED00E0FEE7FEE700B504207146084202D0EFF3098001E0EFF30880043000F0B5FDFEE710B582B062B600F05FF901F0EFFA174802F0BAFD11
:40038000164802F0B7FD164B1868002302221946406802F0CFFD4FF4FA740DF10701114802F0B0FD9DF80730752B06D1002CF4DD323C0D4BC3F84C42EFE7642B07D1B4F568
:4003C0007A7FEADA3234084BC3F84C42E5E7074802F090FDE1E700BF9C710810D07108100C4302080C720810000038401072081008B5012000F0E8FC08BD00BF704700BFF2
:400400005C4AD2F8803303F00F0303F1D00152F8212002F00702032A04D0042A05D092B9554914E0554A116811E003F1C002514951F8222002F01F02112A06D0132A04D04F
:400440004FF4FA4103E04E4901E04FF400418BBB484BD3F8902502F00100D3F88825C2F30172D3F8883513F0405F07D0414BD3F88835C3F30173012B02D102E0012300E00F
:40048000002303B108B9032A46D13A48D0F88025C2F31103D0F88425C2F30C02D0F88005C0F300600130B1FBF2F202FB03F2B2FBF0F131E0012B2FD12E4BD3F8402602F0FA
:4004C0000100D3F80026C2F30172D3F8003613F0405F07D0274BD3F80036C3F30173012B02D102E0012300E0002303B108B9032A12D12048D0F8002602F07F02D0F8003677
:40050000C3F30423D0F80006C0F3044002FB01F2B2FBF3F2B2FBF0F1164BD3F88033C3F3011321FA03F215494A601648D0F89030C3F3072301330069000E0130B2FBF0F019
:400540008860B2FBF3F3CB600B6103F5742202F23F220D48A0FB0202C2F387420A7503F2E7330A4AA2FB03239B098B61DB03CB61704700BF0000264000127A008C42020895
:4005800000366E010000214083DE1B43D34D621008B50D4800F0B6FDFFF730FFFFF730FF00221146042000F0D7F9084800F06AFA074B1B6893F8513013B1064800F0D2FA35
:4005C00000F014F908BD00BFD4740810A0490208984B02083872081008B500F0D6FC074AD2F8883043F47003C2F88830BFF34F8FBFF36F8F00F0CDFC08BD00BF00ED00E0C0
:4006000010B504462146034800F0ACFD0028F9D010BD00BF00006640054BD3F80833C3F30803002BF8D0024BD3F84003704700BF0000664008B5084B1B783BB9074A0521AE
:40064000074800F0A9FC0122034B1A70044B20229A609A6108BD00BF204B020874720810000038401F4B98422DD00CD840282ED003D8E8B1102828D02FE0802829D0B0F522
:40068000807F28D029E0184B984228D006D8B0F1204F0DD0154B984212D01EE0144B98420AD00133984209D0023B984215D101E0002070470F4870470F4870470F48704747
:4006C0004FF4A0007047074870470D4870470D4870470D487047034870470C4870474FF4A400704706005200010000F0090000A0040000F0010052000200520003005200A9
:40070000010050000200500005005200FF00520038B5124B1B6893F83130012B04D840F2C3110F4800F0C6FB0C4B1D682A6AB5F8B03013442C46D5F8B420D358002B0BDBFC
:40074000084B1868FFF78EFF6B6801229A6063689B68002BFBD138BD034838BD984B0208D8720810244B0208020050001A4B186128B102230370FF23437000234380174BB3
:400780001B6893F850202AB300B583B0B3F93830ADF80030002301931149684600F04EFBBDF90030002B08DB590903F01F03012202FA03F30B4A42F82130084B1B6893F854
:4007C000513023B102220849012000F077FA03B05DF804FB704700BF244B0208984B0208C543020800E100E07D44020808B50248FFF7BCFF08BD00BF384B020838B50B4B20
:400800001B68D3F8B4301B58002B0DDA0D4604460B0C1B0423B140F2D521054800F04AFBA9B26160002038BD024838BD984B02081873081001008A0038B50368002B01DAC7
:40084000002300E0094B73B90D460446C2600B0C1B0423B140F2BB21054800F02BFBA9B2A160002038BD014838BD00BF01008A001873081038B504460D4619B999210848B9
:4008800000F018FB074B1B68D3F8B4301B59002B03DAE3682B60002038BD034838BD00BF58730810984B020801008A00254B1B6893F8313083423AD900293AD00B6813F090
:4008C0001F0F38D170B50D4604461E4B1B6893F83130984204D340F2C3111B4800F0EAFA184B1B68186AB3F8B03004FB0304174E34602A68D2080021686801F049FC002193
:400900002046FFF77BFF346825B940F293310E4800F0D0FA2A4600212046FFF78DFF60B900210A4B1868FFF769FF40B970BD084870470748704706487047064870BD05487B
:4009400070BD00BF984B0208187308103C4B020803018A0001018A0010B504461346B2B9A9B9124B1B6893F83130984204D340F2C3110F4800F09EFA0C4B1B681A6AB3F8B0
:40098000B03004FB03240B4B1C60002010BD43B149B1084A51609360111D2046FFF786FF10BD054810BD044810BD00BF984B0208187308103C4B020803018A002DE9F041CA
:4009C0001B4B1B68DC68236883422CD90D464609A0EB4610012303FA00F819B900F0D5FA074600E00027124B18680368002B01DA002300E00F4B83B9626852F8263018EAA1
:400A0000030F05D023EA080342F82630002400E0094C0021FFF7F2FE00E0084C25B9384600F0B7FA00E0064C2046BDE8F08100BF3C4B020801008A000201880003018800F6
:400A400004018A000B4B1B68DB681A6882420CD94109A0EB4110012202FA00F05B6853F82130184203D004487047044870470448704700BF3C4B02080101880004018A006D
:400A800000018800024B1B680BB9014B18607047484B02082DE9F8430446884691461D46089F2C4B1B681BB9B5212B4800F002FA284B1B682C2000FB04F01C18EEB21E5041
:400AC000C5F3072363602D0CA560244B1B6893F831309E4204D340F2C311214800F0EAF91E4B1B68196AB3F8B02006FB02162661666893F832309E4204D340F2DF111848BE
:400B000000F0D8F9154B1B681D6A803605EB46156561A668330C1B0423B14FF4FF71104800F0C8F9330C1B0423B140F2FF110C4800F0C0F9B3B243EA0646AE60C4F81C9002
:400B4000C4F820800023A36117B1B7F90030A381BDE8F883484B020898730810984B020818730810F0B58FB0044618B95221274800F0A0F9A369072B03D95621234800F060
:400B800099F9E36A1BB95821204800F093F9236B1BB959211D4800F08DF907AD04F114060FCE0FC537682F6002AD26460FCE0FC533682B60164B1B68B3F93620079B1344FB
:400BC000ADF83030089B0D93A26AE16A0CAD00953B460A98FFF75EFF00210091069B0A460598FFF757FF216B284600F027F9BDF93030002B08DB590903F01F03012202FA42
:400C000003F3044A42F821300FB0F0BD98730810984B020800E100E0F8B506460F461D4614461AB9FD211F4800F044F91E4B1B681BB9FE211B4800F03DF91B4B1B682C217A
:400C400001FB063001FB07314B68012202FA03F31B04466802FA06F60269EAB18F69EFB91268002A01DA002200E0104AC2B92288134323600369DC6001238B614D6204692E
:400C8000330C1B0423B140F2BB21094800F012F9B2B2A2600020F8BD0648F8BD0648F8BD0548F8BD98730810484B020801008A001873081004028A0007028A00F8B505465C
:400CC0000F4616460E4B1B6823B94FF4AF710D4800F0F0F80A4B1B682C2404FB0534236A23B94FF4B171074800F0E4F8E369B34204D9236A43F826700020F8BD0248F8BD62
:400D0000484B0208987308100A028A0070B582B000230193044620B940F2D111284800F0C9F8236923B94FF4E971254800F0C2F8636923B940F2D311214800F0BBF8236A84
:400D400023B94FF4EA711E4800F0B4F86369DD682A0C20D012041A601B682069194B1B68D3F8B430C358002B15DA01A9FFF782FD60B9019803681E0CDBB2E269934206D26E
:400D8000226A52F8233013B1984700E0002631462069FFF733FDADB275B16369ADB21D601B68636A1BB198470023636202E0A36A03B198470023A36163691B6802B070BD54
:400DC00098730810984B020810B50446074B1B6823B940F2B111064800F06CF8034B1B682C2000FB0430FFF791FF10BD484B02089873081038B50D4B9A680D4B9A420FD1D3
:400E00000D46044621B940F237110A4800F052F804F11003064A52F8230042F8235038BD1030054B53F8200038BD00BF00ED00E000400208D87308100000081048B338B5A5
:400E400004460D464368072B03D93221134800F031F8B4F900306268002B08DB5201D2B203F1604303F5614383F8002305E003F00F035201D2B20A49CA540A4B9A680A4B1A
:400E80009A4208D12946B4F90000FFF7B3FF002038BD06487047002038BD00BFD873081014ED00E000ED00E0004002080100560001BEFEE738B50D46044C182201462046FE
:400EC00002F012F9A5610020FFF7F2FFF0480208FEE700BF08B50268254BDA6142681A6282685A62C2689A620269DA6242691A6382695A63C2699A631E4A916AD963D16AC5
:400F00001964516A5964516B9964926BDA64F1EE103A13F0900F27D0026A154B1A65426A5A65826A9A65C26ADA65026B1A66426B5A66826B9A66C26BDA66026C1A67426CA9
:400F40005A67826C9A67C26CDA67026DC3F88020426DC3F88420826DC3F88820C26DC3F88C20026EC3F89020FFF7B2FF08BD00BFF048020800ED00E00230800803D00130BF
:400F80000238FCD100BF00BF7047EFF3108072B6704780F310887047002800F0AC8070B40446002A00F0A98092F828300BB1012500E00025137F0BB1022300E000231D434E
:400FC0001669B60406F4802645EA060395682D0405F440351D431668300600F0E0602843136B556B43EA45031B0503F440130343906B43EA8000052E03D1D3681B029BB2DE
:4010000002E053681B029BB20343081D800123501368062B08D104EB81130120C3F808013F20C3F828011DE0936843B904EB81130020C3F808013120C3F8280112E0012B6C
:4010400008D1506904EB8113C3F808011C20C3F8280107E004EB81130120C3F808011220C3F82801106A04EB8113C3F80C01506AC3F810015069C3F814019069C3F8180171
:40108000136EB3F1FF3F17D0106C00F00F00966C360206F470663043156D2D0405F470250543906D000380B228431B01DBB2034304EB8110C0F82031D36B03F00303566C57
:4010C000360106F030063343D56C2D0205F440752B43506D8001C0B21843D36D9B0003F00C03034304EB8114C4F82431D36AC4F83831002002E002487047014870BC704737
:401100000100B600014B1860704700BF984B020810B4D0F8003303F00F03072B06D900230DE0D0F84043CC54013300E000239342F7D306E0D0F8404321F813400133934205
:40114000F8D35DF8044B704710B51446D0F80833C3F308039A4200D31C462246FFF7D8FF204610BD036813F4006F01D0802200E04022D0F80832C3F30803934203D0C0F834
:401180004012012070470020704700BF10B4D0F8003203F00F03072B06D900230DE0CC5CC0F84042013300E000239342F7D306E031F81340C0F8404201339342F8D35DF88E
:4011C000044B704710B51446036813F4006F01D0802200E04022D0F80832C3F30803D31AA34200D81C462246FFF7D0FF204610BD2DE9F84305460C46036813F4006F02D064
:401200004FF0800801E04FF04008D5F8007207F00F07A26A012A19D9D4F82490E262561EB9F1000F00D026B940F273512548FFF741FE324649462846FFF7C4FFA36A1B1A62
:40124000A362072F00D9400048446062D5F80832C3F30803984533D0A36A012B30D10023A362072F02D8636A1E7801E0636A1E88FFF78BFEC5F840624FF40073C5F8803FEB
:40128000D5F8803FFFF785FED5F8883F23F4007222F0010242F4007623F4EE6323F0030323B140F22A410848FFF704FEC5F8886F236843F002032360236B0BB101209847CD
:4012C000BDE8F8838C750810CC7508102DE9F04105460C46036813F4006F01D0802600E040267608A769D4F81C8017B1B8F1000F04D14FF499613148FFF7DCFD4246394603
:401300002846FFF721FF236A03442362E3691B1AE36173BBA368FBB1E3689E4201D8013E00E05E1E2B6813F4006F01D0802300E040239E4204D34FF420712148FFF7BAFD26
:40134000D5F8043323F0FF03F6B21E43C5F804630123C5F8C83F02E00023C5F8C83F636823F001036360236B33B304209847BDE8F081A169D5F8002302F00F02072A00D93D
:4013800040000844A0619E4216D95C1E2B6813F4006F01D0802300E040239C4204D34FF420710748FFF786FDD5F8043323F0FF02E3B21343C5F80433BDE8F0818C75081020
:4013C000CC750810002800F0A48170B50546002900F0A18116460C460B78022B03D93F21A248FFF767FD637B023BDBB2062B03D940219E48FFF75EFDA37B3BB1022B05D075
:40140000032B03D041219948FFF754FD94F82130012B03D942219548FFF74CFD94F82830012B03D943219148FFF744FD2378012B06D86368083B082B94BF0023012307E0F6
:40144000A37F2BB16368013B062B94BF002301231BB145218548FFF72DFDA368053B042B03D946218148FFF725FD6369FF2B03D947217E48FFF71EFDA369FF2B03D9482153
:401480007A48FFF717FDA37C6BB1237833B9A368092B05D1A37B2BB1012304E0012302E0012300E000231BB14A217048FFF702FD636B23F4366323F00D031BB14C216B48E9
:4014C000FFF7F8FCE36B23F4EE6323F003031BB14D216648FFF7EEFC2378022B01D1A37F13B16268013A00E00022237F13B14FF4803100E00021A368082B02D84FF40063CB
:4015000000E000230B4302F00F02134343F000732B60226B2B6813F4006F01D0802300E040239A4203D362215048FFF7C3FCA26B2B6813F4006F01D0802300E040239A4258
:4015400003D363214948FFF7B5FC626A2B6813F4006F01D0802300E040239A4203D364214248FFF7A7FC23781B0603F040732B64637F0BB1402200E00022A37C13B14FF4DA
:40158000806300E000231343227C12B14FF4807200E000221343627C12B14FF4007200E000221A43E36A013B1B0403F470231343627B013A02F007021343A27B120102F039
:4015C00030021343AB64237B13B14FF4807200E00022E37B23B92378022B03D1012302E0012300E0002313B14FF4007300E000231A43A368013B03F00F031343C5F800334C
:40160000227DA3691B0403F47F031343C5F81033E26AD5F8003303F00F0303339A4201D3102A03D97A211148FFF744FCE37F23B12378012B03D0002302E0002300E001239E
:4016400013B14FF4807200E00022637B013B03F007031A43A37B1B0103F0300313436B64237B2BB14FF4807203E000BF107608100022A368013B03F00F0313432278012AFE
:4016800002D14FF4803200E000221343C5F8003294F83030C5F8043394F8203013B14FF0007200E0002294F82130012B02D14FF0807300E00023134394F82820012A02D1AF
:4016C0004FF4803200E00022134394F8242013432B6594F83830C5F80432636B23F4926323F002031B051B0DC5F8C83FE36B23F08C035B055B0DC5F8883F76B100207060AF
:401700003060B060F0603062F0623063044B736370BD04487047034870BD002070BD00BFEFCDAB000160AA000B694A69934202D34869181A7047CA694869101A184470476B
:401740002DE9F04107460D46036813F4006F02D04FF0800801E04FF040084FEA5808D7F80863C6F308062C6926E00134EB689C4200D100246B699C420FD12B6B0BB1082004
:4017800098476B699C4208D10023C7F8C83F0CB1013C13E0EC68013C10E0D7F84023D7F8003303F00F03072B02D8AB681A5502E0AB6823F81420013E002ED6D12C61EC6868
:4017C00029463846FFF7B0FF201A804519D908B1441E00E000243B6813F4006F01D0802300E040239C4204D34FF420710648FFF761FBD7F8040320F0FF03E0B21843C7F8BA
:401800000403BDE8F08100BFCC75081038B504460D46D0F8003E13F0080F35D0D0F8CC3F13F448730AD04A681A434A60C0F8C03FD0F8C03F0B6B0BB110209847D4F8CC3F06
:4018400013F4006F09D06B6843F400636B604FF40063C4F8C03FD4F8C03FD4F8CC3F13F0010F11D0EB6923B129462046FFF72EFD05E0AB681BB129462046FFF761FF0123B9
:40188000C4F8C03FD4F8C03FD4F8003E13F0040F2ED0D4F88C3F13F4A0630AD02A681A432A60C4F8803FD4F8803F2B6B0BB120209847D4F88C3F13F0010F08D029462046C2
:4018C000FFF796FC0123C4F8803FD4F8803FD4F88C3F13F4007F0BD00022C4F8882F2B6823F001032B60EA622B6B0BB10220984738BD00BF70B539B900240AE015F8010BE3
:40190000FEF77EFE013402E016460D460024B442F4DB204670BD00BF70B561B900240FE0FEF77AFEC0B2287001340A2808D00D2806D0013502E016460D460024B442EFDB77
:40194000204670BD08B502490248FFF75FFF08BD9C4B02080000664008B5114B1B785BB9104A11491148FFF72DFD11491148FFF765FA01220A4B1A700E4BB3F90030002B7B
:4019800008DB590903F01F03012202FA03F30A4A42F82130054A136843F00043136008BD884B02089C4B02085076081000006640451908106C72081000E100E081F0004130
:4019C00002E000BF83F0004330B54FEA41044FEA430594EA050F08BF90EA020F1FBF54EA000C55EA020C7FEA645C7FEA655C00F0E2804FEA5454D4EB5555B8BF6D420CDD55
:401A00002C4480EA020281EA030382EA000083EA010180EA020281EA0303362D88BF30BD11F0004F4FEA01314FF4801C4CEA113102D0404261EB410113F0004F4FEA033351
:401A40004CEA133302D0524263EB430394EA050F00F0A780A4F10104D5F1200E0DDB02FA0EFC22FA05F2801841F1000103FA0EF2801843FA05F359410EE0A5F120050EF1E1
:401A8000200E012A03FA0EFC28BF4CF0020C43FA05F3C01851EBE37101F0004507D54FF0000EDCF1000C7EEB00006EEB0101B1F5801F1BD3B1F5001F0CD349085FEA30005B
:401AC0004FEA3C0C04F101044FEA445212F5800F80F09A80BCF1004F08BF5FEA500C50F1000041EB045141EA050130BD5FEA4C0C404141EB010111F4801FA4F10104E9D1EC
:401B000091F0000F04BF01460020B1FA81F308BF2033A3F10B03B3F120020CDA0C3208DD02F1140CC2F10C0201FA0CF021FA02F10CE002F11402D8BFC2F1200C01FA02F10F
:401B400020FA0CFCDCBF41EA0C019040E41AA2BF01EB0451294330BD6FEA04041F3C1CDA0C340EDC04F11404C4F1200220FA04F001FA02F340EA030021FA04F345EA030177
:401B800030BDC4F10C04C4F1200220FA02F001FA04F340EA0300294630BD21FA04F0294630BD94F0000F83F4801306BF81F480110134013D4EE77FEA645C18BF7FEA655C70
:401BC00029D094EA050F08BF90EA020F05D054EA000C04BF1946104630BD91EA030F1EBF0021002030BD5FEA545C05D14000494128BF41F0004130BD14F580043CBF01F58F
:401C0000801130BD01F0004545F0FE4141F470014FF0000030BD7FEA645C1ABF194610467FEA655C1CBF0B46024650EA013406BF52EA033591EA030F41F4002130BD00BF1E
:401C400090F0000F04BF0021704730B54FF4806404F132044FF000054FF0000150E700BF90F0000F04BF0021704730B54FF4806404F1320410F0004548BF40424FF000011A
:401C80003EE700BF42004FEAE2014FEA31014FEA02701FBF12F07F4393F07F4F81F06051704792F0000F14BF93F07F4F704730B54FF4607401F0004521F0004120E700BF4A
:401CC00050EA010208BF704730B54FF000050AE050EA010208BF704730B511F0004502D5404261EB41014FF4806404F132045FEA915C3FF4DCAE4FF003025FEADC0C18BFB8
:401D000003325FEADC0C18BF033202EBDC02C2F1200300FA03FC20FA02F001FA03FE40EA0E0021FA02F11444C1E600BF70B54FF0FF0C4CF4E06C1CEA11541DBF1CEA1355DB
:401D400094EA0C0F95EA0C0F00F0DEF82C4481EA030621EA4C5123EA4C5350EA013518BF52EA033541F4801143F4801338D0A0FB02CE4FF00005E1FB02E506F00042E0FB5A
:401D800003E54FF00006E1FB03569CF0000F18BF4EF0010EA4F1FF04B6F5007F64F5407404D25FEA4E0E6D4146EB060642EAC62141EA55514FEAC52040EA5E504FEACE2EBE
:401DC000B4F1FD0C88BFBCF5E06F1ED8BEF1004F08BF5FEA500E50F1000041EB045170BD06F0004646EA010140EA020081EA0301B4EB5C04C2BFD4EB0C0541EA045170BD97
:401E000041F480114FF0000E013C00F3AB8014F1360FDEBF002001F0004170BDC4F10004203C35DA0C341BDC04F11404C4F1200500FA05F320FA04F001FA05F240EA02006E
:401E400001F0004221F0004110EBD37021FA04F642EB06015EEA430E08BF20EAD37070BDC4F10C04C4F1200500FA04F320FA05F001FA04F240EA020001F0004110EBD37050
:401E800041F100015EEA430E08BF20EAD37070BDC4F1200500FA05F24EEA020E20FA04F301FA05F243EA020321FA04F001F0004121FA04F220EA020000EBD3705EEA430EA8
:401EC00008BF20EAD37070BD94F0000F0FD101F00046400041EB010111F4801F08BF013CF7D041EA060195F0000F18BF704703F00046520043EB030313F4801F08BF013D5C
:401F0000F7D043EA0603704794EA0C0F0CEA135518BF95EA0C0F0CD050EA410618BF52EA4306D1D181EA030101F000414FF0000070BD50EA410606BF1046194652EA43069D
:401F400019D094EA0C0F02D150EA013613D195EA0C0F05D152EA03361CBF104619460AD181EA030101F0004141F0FE4141F470014FF0000070BD41F0FE4141F4780170BDF9
:401F800070B54FF0FF0C4CF4E06C1CEA11541DBF1CEA135594EA0C0F95EA0C0F00F0A7F8A4EB050481EA030E52EA03354FEA013100F088804FEA03334FF0805545EA1313EC
:401FC00043EA12634FEA022245EA111545EA10654FEA00260EF000419D4208BF964244F1FD0404F5407402D25B084FEA3202B61A65EB03055B084FEA32024FF480104FF438
:40200000002CB6EB020E75EB030E22BFB61A754640EA0C005B084FEA3202B6EB020E75EB030E22BFB61A754640EA5C005B084FEA3202B6EB020E75EB030E22BFB61A75466E
:4020400040EA9C005B084FEA3202B6EB020E75EB030E22BFB61A754640EADC0055EA060E18D04FEA051545EA16754FEA06164FEAC30343EA52734FEAC2025FEA1C1CC0D199
:4020800011F4801F0BD141EA00014FF000004FF0004CB6E711F4801F04BF01430020B4F1FD0C88BFBCF5E06F3FF6AFAEB5EB030C04BFB6EB020C5FEA500C50F1000041EB88
:4020C000045170BD0EF0004E4EEA113114EB5C04C2BFD4EB0C0541EA045170BD41F480114FF0000E013C90E645EA060E8DE60CEA135594EA0C0F08BF95EA0C0F3FF43BAF4A
:4021000094EA0C0F0AD150EA01347FF434AF95EA0C0F7FF425AF104619462CE795EA0C0F06D152EA03353FF4FDAE1046194622E750EA410618BF52EA43067FF4C5AE50EA3F
:4021400041047FF40DAF52EA43057FF4EBAE12E74A0011D212F5001211D20DD56FF47873B3EB62520ED44FEAC12343F0004343EA505323FA02F070474FF00000704750EA7C
:40218000013002D14FF0FF3070474FF00000704702440346934202D003F8011BFAE770472DE9F04788B0002B149F1299109EDDF84CA01D4627F02007BBBF03F100431D46E9
:4021C00000232D231446B8BF1446462F0B7003D0452F03D1013601E0032300E0022307AA049206AA03928DE8480422462B4601F083FF472F804602D1119BDB0728D5462F4B
:4022000008EB060911D198F80030302B0AD1002200232046294604F0C7FE18B9C6F10106CAF80060DAF800309944002200232046294604F0B9FE08B9302202E0CDF81C9036
:4022400006E0079B994503D9591C07911A70F8E7079B159AC8EB03034046136008B0BDE8F08773B503460029B8BF494203F8022BB4BF2D222B220929427019DD0DF107021B
:4022800016460A2591FBF5F405FB14113031092C02F8011D2146F5DC3031541E02F8011CB4421A460AD214F8012B03F8012BF7E730241A46214402F8024B5970101A02B0B5
:4022C00070BD00002DE9F04F91B00C46DDF8688016461F46054603F073F903680893184600F0FAFE00230E93D8F800300990073323F0070303F1080294F818A0D4F800B0E3
:40230000C8F80020D3E90023C4E91223D4E9128929F000430B93CDF828804FF0FF32A74BDDE90A0104F072FEA0B94FF0FF32A34BDDE90A0104F04CFE60B9002200234046FC
:40234000494604F03BFE10B12D2384F843309C4B9C4A0AE042464B464046494604F056FE002800F09281984B984ABAF1470F8CBF90469846032323612BF0040323604FF0F6
:4023800000093DE0BAF1670F00F08A81BAF1470F00F08681236000210DF133020193636805900292009342464B460691CDF810A0CDF80CE02846FFF7F3FE0AF0DF03472B78
:4023C000804600F08481BAF1650F0D9900F28D810139524604F150000D91FFF742FF0E9A8318012A8146236100F37C812268D10700F178819DF8333013B12D2384F8433081
:40240000009733460FAA2146284600F09FF9013002D14FF0FF3096E123685A0501D4236965E0BAF1650F40F2D58000220023D4E9120104F0B9FD78B30123654A31462846B5
:40244000B8470130E5D00E9B0D9A9A420BDB2368D80708D423689B0740F111814FF0000804F1190906E1099B089A31462846B8470130CED04FF0000804F11A090E9B013BAD
:402480009845E7DA01234A4631462846B8470130BFD008F10108F1E70D9B002B29DC01234B4A31462846B8470130B2D00D9B23B90E9B13B92368D907CCD5099B089A314662
:4024C0002846B8470130A4D04FF0000904F11A0A0D9B5B42994509DA0123524631462846B847013095D009F10109F1E70E9B4246A7E00E9AA36D9A42A8BF1A46002A91463D
:4025000006DC4FF0000A29EAE97904F11A0B11E01346314642462846B8470130F1D178E701235A4631462846B84701303FF471AF0AF1010AA36DC9EB03029245F0DB08EB49
:4025400003090D9A0E9B9A420FDB2368DA070CD40E9B0D9A9844C9EB08089B1A9845A8BF9846B8F1000F08DC0FE0099B089A31462846B8470130EBD14BE743464A463146C2
:402580002846B84701303FF444AF4FF0000928EAE87804F11A0A09E00123524631462846B84701303FF435AF09F101090D9A0E9B9B1AC8EB03039945EEDB4BE7FFFFEF7FAC
:4025C000987608109C760810A0760810A4760810CE7908100E9A012A01DCDB0738D50123424631462846B84701303FF412AF099B089A31462846B84701303FF40AAF00220F
:402600000023D4E9120104F0CFFC20B14FF0000804F11A0A0EE00E9B08F10102013B19E00123524631462846B84701303FF4F1AE08F101080E9B013B9845F1DB4B4604F136
:40264000500231462846B84701307FF403AFE0E60123424631462846B8470130EED1D8E601234A4631462846B84701303FF4D1AE08F10108E3680F9A9B1A9845F0DBE068B4
:402680000F9B9842B8BF18465DE06268531C0EA84BF480630DF1340E7FF474AE062201E012B90122626075E6002106910DF133018DE80C00236005904246CDF810A0CDF845
:4026C0000CE002914B462846FFF76AFD80460D9BD81C02DB626893421DDDAAF1020A5FFA8AFA70E60133236184E6BAF1660F14D10029636807DD216113B92268D2071DD5AB
:4027000001330B4419E013B92268D00701D5023313E0012311E04FF0670A0D9B0E9A934205DB22682361D10708D5013305E0002BD4BFC3F102030123134423610D9BA36526
:402740004FF0000956E611B0BDE8F08F2DE9F04791461F460A698B68DDF820809342B8BF1346C9F8003091F8432006460C4612B10133C9F800302368990642BFD9F8003058
:402780000233C9F80030256815F0060510D104F1190A07E00123524639463046C04701301AD00135E368D9F800209B1A9D42F1DB94F843302268003318BF012392060FD59E
:4027C000E1185A1C302081F84300224494F8451082F84310023303E04FF0FF30BDE8F08704F1430239463046C0470130F4D02268D9F80050E36802F00602042A08BF5D1B20
:402800002269A3680CBF25EAE57500259342C4BF9B1AED184FF000091A344D4509D00123224639463046C0470130D5D009F10109F3E70020BDE8F0872DE9F04317460A7EF0
:4028400085B06E2A984606460C460C9B01F1430E00F0AE8011D8632A22D009D8002A00F0BB80582A40F0CA8081F84520834955E0642A1ED0692A1CD0C0E0732A00F0B08036
:4028800009D86F2A2ED0702A40F0B8800A6842F020020A603EE0752A24D0782A3AD0ADE01A6801F14205111D1960136884F84230A8E021681A6811F0800F02D0111D19601D
:4028C00008E011F0400F02F10401196002D0B2F9003000E01368002B3CDA2D225B4284F8432037E021681A6811F0800F02D0111D196007E011F0400F02F10401196001D077
:40290000138800E01368227E5C496F2A14BF0A2208221BE078225A4984F845202268186812F0800F00F104051D6003D1550601D5038800E00368D00744BF42F020022260E4
:402940001BB9226822F0200222601022002084F8430001E049490A226568A560002D08DB206820F0040020602BB9002D7DD175460CE0002B79D07546B3FBF2F002FB103390
:40298000CB5C05F8013D03460028F5D1082A0BD12368DA0708D5236962689A42DEBF302305F8013C05F1FF35C5EB0E0323612EE008681A68496910F0800F03D0101D1860A3
:4029C000136808E010F0400F02F104001860136801D0198000E0196000232361754616E01A68111D1960156862680021284602F057FE08B1401B6060636804E004F142051B
:402A000084F8422001232361002384F84330CDF800803B4603AA21463046FFF797FE013002D14FF0FF3026E023692A4639463046C0470130F5D023689B0710D5002504F191
:402A4000190907E001234A4639463046C0470130E7D00135E368039A9B1A9D42F2DBE068039B9842B8BF184605E00B7884F8423004F142058AE705B0BDE8F083A87608109B
:402A8000B97608102DE9F04F9A468B6816465A1EB2F5AE7F87B083BF6FF4AE729B180193002386BF40F25D138B6001930B68884643F4F06348F81C3B4FF0000B07460C46E8
:402AC00045465A46CDF810B0CDF80CB0D946CDF808B0A168002900F0E58033681B78492B70D016D8392B0DD8312B40D22D2B46D002D82B2B43D0D5E02E2B00F09280302BDF
:402B000023D0CFE0452B00F09580462B77D0412B0CE0652B00F08E800AD8542B75D002D84E2B34D0BEE0592B75D0612B46D0B9E06E2B2CD004D8662B61D0692B42D0B1E0D7
:402B4000742B62D0792B66D0ACE0206810F4807F0DD0019B20F08000206009F10109002B00F08780013B01310193A16081E012EB0B0F40F09780216821F4C07105E02168E5
:402B8000080640F18F8021F0800121606FE06AB9B9F1000F0CD1216801F4E060B0F5E06F06D121F4F0612160012260E0022A5DD0BBF1010F1ED0BBF1040F1AE0012A71D1B0
:402BC000022254E0BBF1000F0ED1B9F1000F6CD1216801F4E060B0F5E06F6AD121F4F06121604FF0010B42E0BBF1030F02D0BBF1050F57D10BF1010B5FFA8BFB37E0BBF18A
:402C0000020F4FD14FF0030B31E0BBF1060F49D14FF0070B2BE0BBF1070F43D14FF0080B25E0216888053DD521F420712160CDF808901CE0216801F4A060B0F5806F04D013
:402C400048052FD5B9F1000F33D088055CBF0298049521F4F06158BFC0EB090041F4C07158BF039021604FF0000900E003222B700135A368013BA360236901332361736823
:402C8000013B002B736003DD33680133336020E7D4F880310592314638469847059A00283FF417AFB9F1000F03D0236823F480732360013A012A0ED845450AD9D4F87C3113
:402CC00015F8011D3246384698472369013B2361F2E70126ADE00BF1FF33062B22D8BBF1020F12D9ABF1030B5FFA8BFBCBEB050B5D4517D0D4F87C3115F8011D3246384688
:402D000098472369013B2361F2E74545E1D9D4F87C3115F8011D3246384698472369013B2361F2E72368DA052CD55B050CD54545CFD9D4F87C3115F8011D32463846984756
:402D40002369013B2361F2E715F8011C2369652903F1FF3305F1FF3B23610DD045290BD0D4F87C31324638469847236915F8021C013BA5F1020B2361D4F87C313246384613
:402D800098475D46266816F0100651D12E70236803F4C063B3F5806F05D1029BC3EB09035A4263B915E0039B9BB104990A2332460131384600F0C8FF039B049DC21A04F26D
:402DC0006F139D4228BF04F5B7751C49284600F05FF900224146384600F0BAF92268DAF8003012F0020F8046894603D01A1DCAF8002006E012F0040503F10402CAF8002094
:402E000003D01B68C3E900890EE01F6802460B4604F0FCF818B1284600F036F903E04046494604F031F93860E3680133E36000E00026304607B0BDE8F08F00BFCA760810DD
:402E400070B50E46054618B183690BB901F0F4FFAB69AC6813B9284601F0EEFF224B9C4201D16C6808E0214B9C4201D1AC6803E01F4B9C4208BFEC68A3891B0701D52369F2
:402E80003BB92146284601F039F810B14FF0FF3070BD013EA36816F8011F013BA36091B1002B04DAA269934206DB0A2904D023685A1C22601970EDE72246284600F0CAFF92
:402EC0000130E7D1E2E7002B08DA22460A21284600F0C0FF0130D9D00A2070BD23680A205A1C2260187070BD307808105078081070780810024B01461868FFF7A1BF00BF07
:402F00000C4302080FB40A4B13B51C6824B1A36913B9204601F090FF05AB049A61680193204603F05FFB02B0BDE8104004B070470C4302082DE9F7431D464F4B1E6804465B
:402F40000F46904626B1B36913B9304601F074FF4A4B9C4201D1746808E0494B9C4201D1B46803E0474B9C4208BFF468B8F1020F04D0B8F1010F79D8002D77DB21463046BA
:402F800001F0DEFE616B41B104F14403994202D0304602F0D9FF002363630023A3616360A3891B0603D52169304602F0CDFFA38923F44A6323F00303B8F1020FA3811ED0D2
:402FC00001AB6A462146304602F0FEFAA3891843A0810DB9009D00E02FBB284602F054FB0746D0B9DDF80090A94502D14FF0FF3006E0484602F048FB074678B9F6E700209C
:40300000A38943F00203A3810023A36004F1470323602361012363612AE0A946A38943F08003A3814D46B36913B9304601F004FFB8F1010F08BFA389276004BF43F00103A3
:40304000A381A389276103F0080080B2656158B113F001034FF000001DBF6D42A060A561A56008BF184603E0A06001E04FF0FF3003B0BDE8F08300BF0C43020830780810A6
:403080005078081070780810004870470000C07F0EB400B59CB04FF402711DABADF81410029006906FF000410A48049107914FF6FF7153F8042BADF816100068019302A900
:4030C00003F048F8029B00221A701CB05DF804EB03B070470C430208034613F8012B002AFBD1181A0138704710B5034642B111F8014B03F8014B013A002CF7D11A4400E0DF
:4031000010BD934202D003F8014BFAE710BD2DE9F0410F46904602F0E5FD04460D46B8F1000F11D0C7F30A53C3F16B03002B0BDD1B0503F17F55002405F5401522462B462A
:40314000FEF7F4FDBDE8F08120462946BDE8F0812DE9F04F9FB0002380460C4615921A934FF0000A4FF0000B1991199B1A780D2A05D8092A13D2002A00F0AF8112E02B2AF5
:4031800004D02D2A04D0202A0CD108E0002200E0012209925A1C19925B782BB99DE101331993E2E700230993199D2B78302B5CD16B78582B01D0782B4CD1099B01931AABAE
:4031C0000093A84A1BAB19A9404601F026FF10F00706044600F08585062E05D1013500231995099300F07DBD1A9A3AB135211CA802F060FE1A99404602F0E2FA062E22D8C0
:40320000DFE806F0040D08181D0D04004FF0000BDA4618E0DDF870A0DDF874B013E01D9B1B9ADDF870A023F4801302F2334243EA025B08E0DFF830B24FF0000A03E06FF024
:40324000004B4FF0FF3A210740F14B854BF0004B00F047BD199B5A1C19925B78302BF9D0002B00F03E85012300E000230893199B0A9300230393059304930A22199D2E78BB
:40328000A6F13003D9B2092911D804990829D5BF0599039902FB013302FB0133D4BF05930393049B0135013304931995E6E7404602F086F90768404602F082F90068FFF70D
:4032C0000BFF39460246284603F020FC074628B100203346049D024601465AE0404602F06FF90068FFF7F8FE199B1A181992049A1B5C002A45D11046302B05D1199B5A1C8C
:40330000199201305B78F7E7A3F13102082A46D8199A0A92024600200546303B00F1010129D00A4405EB000C29460A2661450FD0013101F1FF3EBEF1080F03DC059F7743BE
:403340000597F3E71029DEBF039F77430397EDE72844082800F1010505DC05980A2101FB0033059306E0102DDFBF03980A2101FB003303930021199B581C19905B780846D5
:4033800002E0049D38463A46A3F130010929C4D90121652B01D0452B51D16DB904E0652B40F0AD840022012128B9089B002B00F09480054600E00025199C631C19936378E6
:4033C0002B2B06D02D2B02D00026069606E0012300E000230693A31C1993A378A3F13006092E2BD8302B04D1199B5E1C19965B78F8E7A3F13106082E21D8A3F1300E199B46
:403400004FF00A0C1F46199B5E1C19965B78A3F13009B9F1090F04D80CFB0E3EAEF1300EF1E7F61B082E44F61F6902DCF145A8BFF146069E2EB1C9F1000902E019944FF0E0
:403440000009002D51D1002840F04B84089A002A40F04784002940D14E2B1FD006DC492B09D03AE0E47608100000F07F692B02D06E2B13D031E0A74919A801F0FFFF60B394
:40348000199BA549013B19A8199301F0F7FF10B9199B01331993DFF89CB21AE09F4919A801F0ECFFC8B1199B1B78282B0FD11CAA9B4919A801F0F5FF052808D11D9BDDF803
:4034C00070A043F0FF4B4BF4E00B00F00ABCDFF868B24FF0000A00F004BC159B1994002B00F00A8400230993FDE3049B0598002B08BF2B46102D2C46C2EB0909A8BF102428
:403500000493FEF79DFB092C82468B4613DD854B03EBC40353E91223FEF708FC064603980F46FEF78DFB02460B4630463946FEF74BFA82468B460F2D36DCB9F1000F00F0A9
:40354000D08324DDB9F1160F07DC764D05EBC90952465B46D9E9000114E0C5F12503994522DC704CC5F10F0504EBC501C5EB090552465B46D1E9000104EBC504FEF7D6FBAB
:40358000D4E90023FEF7D2FB82468B46A9E319F1160F09DB634DA5EBC909D9E9002350465946FEF7EDFCEFE72C1B4C44002C56DD14F00F010AD05B4B03EBC10152465B469E
:4035C000D1E90001FEF7B2FB82468B4634F00F0400F0B680B4F59A7F0BDD0024A146059404942223C8F80030DFF848B14FF0000A7AE100234C4E2411504659461F46012C30
:403600000ADDE20704D5D6E90023FEF78FFB0123013764100836F2E70BB182468B46424BABF1547B03EBC70752465B46D7E90001FEF77CFB21F000438B460A461B0D3B4909
:403640001B058B428246C8D8A1F580118B4286BFDFF8E8B04FF0FF3A02F1547B70E06FD0644214F00F020AD02E4B03EBC20350465946D3E90023FEF783FC82468B4624116D
:403680005ED01F2C04DD0024A1460594049424E114F0100F0CBF00236A23254E0393504659460023002C09DDE20704D5D6E90023FEF73CFB012364100836F3E70BB182465A
:4036C0008B46039BEBB1CBF30A53C3F16B03002B594616DD1F2B0EDD342BDEBF203B4FF0FF3202FA03F34FF0000ACCBF4FF05C7B03EA010B05E04FF0FF3202FA03F303EAC0
:403700000A0A002200235046594603F04DFC0028B9D117E09D76081024780810A5760810D0760810D0780810A87808100000A07CF87608100000F07F0000F8FFFFFFEF7F9A
:4037400000230393059B0093049A0A992B46404602F088F8059000283FF43FAFB9F1000FC9F10003A8BF00230E93002429EAE9730F93A146059B4046596801F0ECFF0490C1
:4037800000283FF42EAF059B1A69023203F10C0192000C3001F0D4FF1CAB01931BAB009352465B464046CDE90AAB02F00CFB1A9000283FF416AF0121404602F0DEF881460F
:4037C00000283FF40EAF1B9B03991C9D002BADBF0E9A0F9A0E9FD718B8BFD21AA3EB01032B44B249A8BF0F9A013B8B42C5F1360580F28680C91A1F29A5EB01054FF0010040
:4038000077DC00FA01F31493002306937E19039BB74215441D443B46A8BF3346AB42A8BF2B46002BC2BFF61AED1AFF1A0E9B002B6BD1002E00F382800F9B002B40F08880BA
:40384000002D00F38F80002F00F39680049A1A99404602F0E8F9044600283FF4C2AEC36808930023C360494602F0C1F9002880F29180089B002B40F00D82BAF1000F40F0B9
:403880000982CBF31303002B40F004822BF000431B0D1B05B3F1D66F40F2FC816369002B74D021460122404602F050F94946044602F09DF9002840F3ED812BF00043039ADF
:4038C0001B0D1B05002A00F09480B3F1D66F00F39080B3F15C7F00F3DF8122234FF0000A4FF0000BC8F80030059B002B40F0E581F7E16F4E1490F61A00FA06F3069385E72A
:40390000002306930123149380E749461A46404602F0CEF8814600283FF463AE01461A9A404602F033F8089000283FF45AAE1A99404601F045FF089B1A937AE732461A9956
:40394000404602F003F91A9000287FF475AF48E60F9A0499404602F0ABF8049000287FF46FAF3EE62A460499404602F0EFF8049000287FF468AF34E649463A46404602F017
:40398000E5F8814600287FF461AF2AE62369012B87DC7FE162D1089ACBF3130322B345498B425A462ED1039B514663B1424B1340B3F1D46F07D81B0DC3F16B034FF0FF300E
:4039C00000FA03F301E04FF0FF338B421AD13B498A4202D101333FF404AE374B134003F5801B4FF0000A55E163B9BAF1000F09D163E7A3F580136FEA135B6FEA0B5B4FF0C0
:403A0000FF3A47E1069B13B113EA0B0F02E0149B13EA0A0F00F03E81089B039A5046594653B1FFF774FB02460B46DDE90A01FDF7CBFF82468B462DE1FFF769FB02460B46B3
:403A4000DDE90A01FDF7BEFF0022002382468B4603F0AAFA00287FF440AF1BE14946204602F0FFF900224FF0804306460F4603F0AFFA002841D0089B13B10022104B0FE07D
:403A8000BAF1000F03D1CBF313033BB91CE0BAF1010F03D1BBF1000F3FF41FAF094B0022CDE906230026064F3CE000BF02FCFFFFE2FBFFFFFFFF0F000000F07FFFFFEF7FFF
:403AC0000000F03F0000F0BF0022994B3046394603F074FA40B9304639460022954BFEF725F906460F4601E0924F002607F1004316961793DDE9162312E08E4B30463946B0
:403B00000022FEF713F9089B06460F4623B901F100431090119301E0CDE91067DDE91023CDE906232BF000452D0D834B2D059D422BD1DDE90A23ABF1547B50465946CDE925
:403B40000C2302F0CFF802460B46DDE90601FEF7EDF852465B46FDF737FF21F000431B0D764A1B05934282460CD9754B0D9A9A4203D10C9B01333FF434ADDFF8C4B14FF04B
:403B8000FF3A76E001F1547B3BE0039B3BB3B5F1D46F24D85EA3D3E900233046394603F017FAB8B139463046FEF7D2FA002808BF0120FEF745F8089B06460F4623B901F1DD
:403BC00000431290139301E0CDE91267DDE91223CDE90623079B03F1D6635B1B0793DDE90A01DDE906AB02F07DF802460B4650465946FEF79BF8DDE90A23FDF7E5FE8246DA
:403C00008B46039B002B34D12BF000431B0D1B059D42CDF828B02CD13946304603F00CFAFEF71EF80B46024639463046FDF7CAFE089BCDE9060133B9BAF1000F03D10A9B04
:403C4000C3F313067EB134A3D3E90023DDE9060103F0B4F988BB32A3D3E90023DDE9060103F0CAF904E030A3D3E9002303F0A6F918BB1A99404601F0A3FD0499404601F0D0
:403C80009FFD4946404601F09BFD2146404601F097FD6FE5039B83B12A4B0D9300230C9350465946DDE90C23FEF740F882468B4619B910B92223C8F800301A99404601F071
:403CC0007FFD0499404601F07BFD4946404601F077FD0599404601F073FD2146404601F06FFD159B13B1159A199B1360099B1BB150460BF1004107E05046594604E00025C1
:403D00002A460121FFF747BB1FB0BDE8F08F00BF0000C0FFFFFFDF419535A094FFFFDF3F35E5AF350000E03F9535A094FFFFCF3F0000F03F0000E03F0000E07FFFFF9F7C63
:403D4000FFFFEF7F000050392DE9F04780464048D0F800900F463D4615F8014B09EB0400407800F0080000F0FF0608B12F46F2E72D2C03D1BD1C7C78012603E02B2C04BF68
:403D80007C78BD1C13B1102B0AD15BE0302C57D1287800F0DF0058284DD16C7810230235002E14BF4FF0004C6FF0004C0027BCFBF3FA384603FB1ACC09EB040E9EF801E061
:403DC0001EF0040F01D0303C0BE01EF0030E1BD0BEF1010F0CBF4FF0370E4FF0570ECEEB0404A34210DDB7F1FF3F0AD0504506D801D1644503DC03FB0040012701E04FF018
:403E0000FF3715F8014BD7E77B1C0CD1002E4FF0220314BF4FF000406FF00040C8F800302AB9BDE8F08706B1404272B107B1691E1160BDE8F0873024002BB1D10823AFE765
:403E40000A23ADE7302CA3D0AAE7BDE8F08700BF10430208F8B50F461446064618B183690BB900F0E9FF224B9C4201D1746808E0204B9C4201D1B46803E01F4B9C4208BFE6
:403E8000F468A369A360A3891A0709D523693BB123682069181A63699842FDB20FDB08E02146304600F02AF80028F1D04FF0FF30F8BD2146304600F043FF0028F6D1A36883
:403EC000013BA36023685A1C22601F706269431C934204D0A389DB0707D50A2D05D12146304600F02DFF0028E0D12846F8BD00BF307808105078081070780810324B70B5B1
:403F00001D6806460C4625B1AB6913B9284600F093FF2E4B9C4201D16C6808E02C4B9C4201D1AC6803E02B4B9C4208BFEC68B4F90C309AB215071DD4D00602D4092232609B
:403F40003AE0510712D5616B41B104F14403994202D0304601F0F8FF00236363A38923F02403A3810023636023692360A38943F00803A38123694BB9A38903F42073B3F5FF
:403F8000007F03D02146304601F042FBA28912F0010305D00023A36063695B42A36103E0920758BF6369A36023695BB9B4F90C3003F0800080B230B143F04003A3814FF0C1
:403FC000FF3070BD002070BD0C4302083078081050780810707808102DE9F74F03690C699C42804600F38380013C01F114074FEA840E00F1140657F8245006EB0E030193CF
:40400000013556F82430B3FBF5F507EB0E09002D39D04FF0000A3846B446D34650F8042B93B205FB03A34FEA134A9BB2C3EB0B03120CBCF800B005FB02A213FA8BF34FEA0C
:40404000124A1FFA82FBDCF80020CBEB124202EB23429BB243EA024381454FEA224B4CF8043BDBD256F80E306BB9019B043B9E421A4602D3C8F8104005E01268043B002A2B
:40408000F8D1013CF3E7404601F0B1FD00282CDB013530464FF0000E57F8041BD0F800C08AB2C2EB0E03090C13FA8CF3C1EB1C4202EB23429BB243EA0243B9454FEA224E80
:4040C00040F8043BE8D256F8242006EB840362B9043B9E421A4602D3C8F8104005E01268043B002AF8D1013CF3E7284600E0002003B0BDE8F08F00002DE9F04F456A97B0CE
:404100008246239CCDE9022345B9102001F0BCFACAF82400456085600560C560DAF82430196859B15A684A60012393408B60504601F046FBDAF8243000221A60039BA04A3D
:40414000002BBFBF01232360039B23F00043B8BF0393DDF80C80A4BF0023236028F000431B0D1B0593421DD1229A42F20F731360029B43B9934A944BC8F31300002814BF1B
:404180001846104600E09048249B002B00F04A85C37813B100F1080300E0C31C249A136000F040BDDDE90245002200232046294602F0FAFE074658B1229A01231360249B99
:4041C000002B00F0228581481860013800F02ABD14AB019315AB009322462B46504601F0F2FDC8F30A56059056B1C5F3130343F07F51204641F44011A6F2FF3611971DE0D1
:40420000159B149E1E4406F23243202B0ADD029A06F21240C3F1400322FA00F008FA03F3184304E0C3F12000029B03FA00F0FDF707FD0123A1F1F871013E11930022644BD2
:40424000FDF7C0FB58A3D3E90023FDF76FFD58A3D3E90023FDF7B8FB044630460D46FDF7FFFC55A3D3E90023FDF760FD02460B4620462946FDF7A8FB04460D4602F0DCFE3C
:404280000022834600232046294602F097FE58B15846FDF7E5FC02460B462046294602F083FE08B90BF1FF3BBBF1160F0DD8494901EBCB01DDE90223D1E9000102F09CFE0E
:4042C00030B10BF1FF3B002300E00123109300E01090149B9E1B731E089343BFC3F10009002308934FF00009BBF1000F07DB089BCDF834B05B4408930023099306E0CBF180
:40430000000309930023CBEB09090D93209B092B27D8052BC4BF043B2093209BA3F10203CCBF00250125032B20D8DFE803F0060E0204012302E0012308E000230C93219B0C
:40434000002B1CDD069398461EE000230C93219B5B4403F1010806934346012BB8BF012312E00125002320930C9501E001230C934FF0FF33069398460022122303E0012328
:40438000069398461A462192DAF8244000226260042101F114029A421ED86268013262604900F6E7AFF3008061436F63A787D23FB3C8608B288AC63FFB799F501344D33FB5
:4043C0000000F07F217808102A780810CF7908100000F83FD07808106168504601F0BBF9DAF8243020601B680793B8F10E0F00F25D81002D00F05A819DED027BBBF1000FD5
:404400008DED0E7B31DDA04A0BF00F0302EBC30393ED007B4FEA2B14E2068DED0A7B0CD59A4BDDE90E01D3E90823FDF7A9FD04F00F04CDE90201032600E00226934D6CB15D
:40444000E30708D5DDE90A01D5E90023FDF76EFCCDE90A01013664100835F0E7DDE90A23DDE90201FDF78CFD20E0CBF1000404B3854B864D04F00F0203EBC203D3E90023FB
:40448000DDE90E01FDF752FCCDE9020124110023022654B1E70705D5D5E90023FDF746FC0136012364100835F3E71BB1CDE9020100E00226109BEBB1DDE902450022744B20
:4044C0002046294602F07AFDA0B1B8F1000F11D0069B002B40F3E6800BF1FF330A9300226C4B20462946FDF721FC0136CDE90201069F02E0CDF828B047463046FDF7B0FBEF
:40450000DDE90223FDF712FC0022634BFDF75CFA0446A1F15075CFB90022604BDDE90201FDF750FA22462B46CDE9020102F064FD002840F04182224605F10043DDE902010D
:4045400002F03CFD002840F02E82ABE00C9A4E4B791E002A4AD003EBC103D3E9002300204F49FDF70DFD22462B46FDF72BFA079C05460E46DDE9020102F05EFD1290FDF73C
:404580006FFB02460B46DDE90201FDF71BFA129B303304F8013B2A463346CDE9020102F00DFD002840F02183DDE9022300203849FDF708FA2A46334602F000FD002840F092
:4045C000D280079BE31ABB426CDA0022314B28463146FDF7ABFB002205460E462D4BDDE90201FDF7A3FBCDE90201C3E703EBC10122462B46D1E90001FDF798FB079BCDE950
:404600001201DC191D46DDE9020102F015FD0646FDF726FB303602460B46DDE90201FDF7D1F905F8016BAC42CDE902014FF0000223D11B4BDDE91201FDF7C6F902460B468B
:40464000DDE9020102F0D8FC002840F08C80DDE9122300201249FDF7B5F902460B46DDE9020102F0ABFCE8B114F8013C302B04F1FF3240F0BA821446F6E7064BFDF756FB98
:40468000CDE90201BFE700BFD0780810A87808100000F03F0000244000001C40000014400000E03FDDE90E34CDE90234159B002B7CDBBBF10E0F79DC8F4B03EBCB03D3E94C
:4046C0000067219B002B14DAB8F1000F11DC40F06C810022894B30463946FDF727FBDDE9022302F07FFC45464646002840F05F8166E1079C32463B46DDE90201FDF740FC38
:4047000002F09AFC0546FDF7ABFA32463B46FDF70DFB0B460246DDE90201FDF753F905F1300E04F801EB079BC3EB040EF045CDE902012ED102460B46FDF746F980468946AA
:4047400002460B463046394602F038FC78B942464B463046394602F027FC002800F04782E90704D443E2DDF828B000E01C4614F8012C392A04F1FF3307D1079A9A42F5D196
:40478000079930220BF1010B0A701A7801321A702DE200225A4BFDF7C9FA00220023CDE9020102F001FC0028A4D020E20C9A002A2DD0209A012A0ADC119A12B103F23343AD
:4047C00002E0149BC3F13603099D4C4615E0099B08F1FF35AB42BFBF099B0995EA1A0D9BB7BF9B185D1B0D930025B8F1000FB9BFC8EB090400234C464346089A01211A442E
:4048000050469944089201F0B8F8064602E0099D0C9E4C465CB1089B002B08DDA342089AA8BF2346C3EB0909E41AD31A0893099B002B1DDD0C9BABB185B131462A465046DE
:4048400001F036F9059A01460646504601F09EF805990746504600F0B3FF0597099B5A1B06D000E0099A0599504601F021F905900121504601F081F80D9B05465BB31A4641
:404880000146504601F014F9209B012B054618DC029B83B9039BC3F3130373B9039B23F000473F0D3F054FB1089B013309F101090893012702E0002700E0029F0D9B73B10C
:4048C00000E000272B6905EB8303186901F008F8C0F1200004E0209B012BD9DD0D9F0120089B184410F01F000ED0C0F12003042B08DDC0F11C0008E0D078081000001440C9
:404900000000244006D018461C30089B0344814404440893B9F1000F05DD4A460599504601F014F90590089B002B05DD29461A46504601F00BF90546109BEBB12946059867
:4049400001F055F9002817DA00230A220599504600F04DFF0C9B05900BF1FF3B002B00F05881002331460A22504600F040FF069B002B064637DC33E0B8F1000F2ADC209B78
:40498000022B27DDCDF81880069B83B929460522504600F02CFF01460546059801F027F900280DDC03E03D4600E000252E46219B079C6FEA030B0AE0DDF828B03D463E46B1
:4049C000079B079A5C1C312313700BF1010BB0460026F7E00C9BCDF8188023B9079CB1E0209B022BD0DC002C05DD31462246504601F0ACF806469FB17168504600F0ABFEC6
:404A0000326902320446920006F10C010C3000F097FE01222146504601F098F8804600E0B046029BDDF81C9003F00103089329460598FFF7D1FA3146044600F130070598C6
:404A400001F0D5F8424602902946504601F0EBF8C36802463BB901460990059801F0C7F8099A034600E0012311465046099300F0A7FE099B4BB9209A3AB9089A2AB9392FA1
:404A800028D0029B002B1ADC1BE0029A002A04DB1AD1209AC2B9089AB2B9002B11DD01220599504601F052F82946059001F09FF8002802DC05D1FA0703D5392F0AD004F150
:404AC000310709F101040CE0002B09F101040BDD392F05D1392389F8003009F1010954E0013789F800706DE0079B069A04F8017CE31A9342A1463AD000230A220599504687
:404B000000F075FE464505904FF000034FF00A023146504604D100F06AFE0646804686E700F065FE4146064600230A22504600F05EFE80467BE700230A220599504600F0BA
:404B400056FE059029460598FFF746FA00F1300704F8017B079B069AE31A9342EBDB079B012AACBF9B180133B0469946002601220599504600F0EAFF2946059001F037F822
:404B8000002802DC15D1FB0713D54C4614F8013C392B04F1FF3209D1079B934204D10BF1010B3123079A02E01446EFE70133137008E04C4614F8013C302B04F1FF3201D1B8
:404BC0001446F7E72946504600F0FAFDB8F1000F0DD02EB1464503D03146504600F0F0FD4146504600F0ECFD01E0DDF828B00599504600F0E5FD0023229A23700BF10103D9
:404C00001360249B1BB11C6001E008480AE0079808E0069B002B3FF7E1AE209B022B7FF7DDAEB1E617B0BDE8F08F00BFCE7908108A892DE9F041054610070C4659D44B6850
:404C4000002B02DC0B6C002B17DDE66AAEB102F48052002392B22F682B600AB1606D15E0216A01232846B047411C0FD12B686BB11D2B01D0162B03D12F600020BDE8F08125
:404C8000A38943F04003A381BDE8F081A3895A0705D56368C01A636B0BB1236CC01A00230246E66A216A2846B047431CA38906D129681D293AD8214ACA40D60736D50022A4
:404CC0006260D9042269226004D5421C01D12B6803B96065616B2F600029CED004F14403994202D0284601F02FF900206063BDE8F0810F69002FC0D093070E6808BF4B699E
:404D00000F6018BF0023C7EB06088B6002E00744C0EB0808B8F1000FAFDD43463A46216AA66A2846B0470028F1DCA38943F04003A3814FF0FF30BDE8F08100BF01004020CB
:404D400038B50B6905460C46DBB118B183690BB900F072F80C4B9C4201D16C6808E00B4B9C4201D1AC6803E0094B9C4208BFEC68B4F90C302BB121462846BDE83840FFF71C
:404D800057BF002038BD00BF307808105078081070780810014620B9044B0549186800F0D3B8044B1868FFF7CBBF00BF94760810414D08100C430208014900F0C5B800BF0C
:404DC000414D0810002310B5044603604360836081814366C281036143618361194608225C30FDF7D5F9054B6362054BA362054BE362054B2462236310BD00BF876A081051
:404E0000A96A0810E16A0810056B081070B568234D1E5D430E4605F1740101F0E3F8044640B1002180E842000C30A06005F16802FDF7AEF9204670BD836910B5044633BB5D
:404E40008364C3640365124B124A1B688262984204BF0123836100F01FF86060204600F01BF8A060204600F017F80022E06004216068FFF7A7FF01220921A068FFF7A2FF8B
:404E800002221221E068FFF79DFF0123A36110BD94760810B94D0810F8B51C4B1E68B369074613B93046FFF7C7FF4836B4687368013B04D4B4F90C507DB16834F8E73368B5
:404EC0000BB13668F2E704213846FFF79FFF30600028F6D10C233B60F8BD4FF6FF73E3810123A38165662560A560656025616561A5610822294604F15C00FDF749F9656393
:404F0000A563A564E5642046F8BD00BF947608102DE9F041884600F1480400268CB1A5686768013F0BD4AB89012B06D9B5F90E30013302D02846C04706436835F1E724687B
:404F4000ECE73046BDE8F0812DE9F8438046894600F14804002694B1A5686768013F0CD4AB89012B07D9B5F90E30013303D029464046C84706436835F0E72468EBE7304680
:404F8000BDE8F883F0B506694B11B34200F1140527DA11F01F0105EB860605EB830201D1294616E0141D55F82320C1F1200ECA402B46B44209D2276807FA0EF73A4343F8DE
:404FC000042B54F8042BCA40F3E71A6052B1043308E0B2420B4605D252F8043B41F8043BF7E72B465B1B9B10036103B94361F0BDA0F13003092B01D820380AE0A0F1610381
:40500000052B01D8473804E0A0F14103052B02D82738C0B27047002070472DE9F04F8BB08A4690460693029000F0CAFA036803931846FEF751F8039B019003444FF0000B54
:4050400013F8013C0793DAF8003002331F4613F8010B302802D10BF1010BF7E7FFF7C8FF0446E0B9019A0399384601F04FFD002834D1019BF85CFE18FFF7BAFF80B333466A
:40508000187830281F4603F10103F9D0FFF7B0FFB0FA80F56D0934464FF0010B01E000252C463A46164601323078FFF7A1FF0028F8D1019A0399304601F028FD50B954B954
:4050C000019BF4182246164601323078FFF790FF0028F8D134B1A41BA40003E03E4600E0044601253378502B01D0702B2AD173782B2B08D02D2B03D0711C4FF0000905E069
:405100004FF0010901E04FF00009B11C0878FFF76FFF431EDBB2182B14D8A0F1100211F8010FFFF765FF431EDBB2182B04D80A2303FB0202103AF2E7B9F1000F00D052429D
:40514000144400E03146CAF800102DB1BBF1000F14BF002006207CE1F31B013B2946072B02DD01315B10FAE7029800F0F4FA019B00F1140A4FF00009C3F101030546CDF824
:4051800010A0CB460893B7422FD2731E0593079A16F8013C93420BD0BBF1200F16D1049BC3F8009004334FF000090493CB460DE0059B089A13449F42EED81846019A03993F
:4051C000099301F0A3FC099B68B1E5E716F8010CFFF70EFF00F00F0000FA0BF0059B49EA00090BF1040B1E46CDE7049840F8049BCAEB0000801028614701484600F070FB77
:40520000D8F80060381AB04226DD871B3946284600F06AFEC8B17B1E591103F01F024FF001095AF8211009FA02F20A420ED04B4502DC4FF0020909E0B91E284600F054FE6B
:405240000028F6D04FF0030900E0814639462846FFF798FE3C440CE009DA371A29463A46029800F073FCE41B054600F1140A4FF00009D8F808309C4208DD0298294600F0E8
:405280009FFA149A00231360A320E2E0D8F80400844253DA041BA6422EDCD8F80C30022B1AD0032B1CD0012B1DD1A6421BD1012E0BDC069AD8F80430136001232B61CAF8EA
:4052C0000030149B62201D60C3E0711E284600F00BFE0028EDD106E0159B002BE9D002E0159B002BE5D10298294600F069FA149A002313605020ACE0671EB9F1000F06D1B3
:405300003FB13946284600F0EFFD814601E04FF001097A11012307F01F0703FA07F75AF8223021461F42284618BF49F00209361BFFF728FE0227D8F8044000E00127B9F1AB
:40534000000F00F08180D8F80C30022B0ED0032B10D0012B76D119F0020F73D0DAF8000049EA000919F0010F07D16BE0159BC3F101031593159B002B64D0D5F810A005F15C
:4053800014034FEA8A0903EB090100201A68B2F1FF3F02D001321A6020E043F8040B9942F4D8AB689A4512DB69680298013100F0D2F92A69023205F10C01834692000C3087
:4053C00000F0BEF92946029800F0FAF95D462B695A1C05EB83032A6101225A61022F05F1140211D1D8F80030013B9E4227D17111012306F01F0603FA06F652F821301E42A6
:405400000CBF022701271AE02B699A450ADA01212846FFF7B7FDD8F8083001349C423FF72CAF0BE016F01F0608D09144C6F1200659F8040C00F054FAB042E8DB012747F046
:40544000200701E047F01007149B1D60069B38461C600BB0BDE8F08FC2F10802920070B5C2F120064368056803FA06F42C43D340046040F8043F8842F4D370BD30B5036865
:4054800011F8014B01334CB11A78A2F14105192D98BF2032A242F3D0002030BD0360012030BD2DE9F04F0B68D0F800B05E1102EB860613F01F0385B018BF0436351F1746A3
:4054C00000228246019346F8042CA8462C46009291461BF8011F00293CD0084603920291FFF786FD039A00BB0299202916D8009B9945EEDD444505D2072A03DC41462046D5
:40550000FFF7AAFFBC4223D90023A4F1040844F8043CCDF8009044461A46DAE7292948D10BF10103CAF8003014E00132082A09F1010906DDBC42CCD9002344F8043C012290
:40554000043C216800F00F0040EA01102060C0E70822BEE7B9F1000F2BD0444505D2072A03DC41462046FFF777FFBC420CD93B4654F8042B43F8042BA542F9D2002243F85D
:40558000042B9D42FBD20BE0019B4BB1C3F120024FF0FF33D34056F8042C134046F8043C2B6843B9BD4202D101232B6003E0043DF6E7042000E0052005B0BDE8F08F0000D1
:4055C000004870471443020870B50E46B1F90E10002990B014461D4606DA00232B60B3891A060ED540230EE001AA01F0F3FB0028F3DB029A02F47042A2F500535A425A41E1
:405600002A604FF480630020236010B070BD00008B8973B59E0705460C4610D401AB6A46FFF7D2FF00990646284600F0DBFC68B9B4F90C309A0522D443F00203A38104F19B
:405640004703236023610123636118E00D4BAB62A389206043F08003A381009B6361019B20614BB1B4F90E10284601F0C5FB18B1A38943F00103A381A0893043A08102B0ED
:4056800070BD00BFB94D0810024B0146186800F0A9BC00BF0C430208000000000000000001F0FF01102A2BDB10F0070F08D010F8013B013A8B422DD010F0070F42B3F6D125
:4056C000F0B441EA012141EA014122F007047FF000070023F0E80256083C85EA010586EA010685FA47F5A3FA87F586FA47F6A5FA87F68EB9EED1F0BC01F0FF0102F00702EB
:4057000032B110F8013B013A83EA010313B1F8D10020704701387047002D06BF35460338073815F0010F07D1013015F4807F02BF013015F4C03F0130F0BC0138704700BFAF
:4057400010B5431E0A44914204D011F8014B03F8014FF8E710BD70B5456A04460E463DB91020FFF791FF6062456085600560C560656AEB6843B1636ADB6853F8260078B10E
:40578000026843F8262017E021220421204600F0CDFB636AE860DB68002BECD1002070BD012101FA06F56A1D9200204600F0BEFB0028F3D04660856000230361C36070BD67
:4057C00070B5446A06460D463CB91020FFF75CFF7062446084600460C4603DB1736A6A68DB6853F82210296043F8225070BD2DE9F0410D691F4606460C4601F1140E002328
:40580000DEF8000081B202FB01710F0C000C02FB007089B2013301EB00419D424FEA10474EF8041BECDCD7B1A3689D4212DB616830460131FFF78FFF2269023204F10C010F
:40584000804692000C30FFF77BFF21463046FFF7B7FF444604EB850301355F6125612046BDE8F0812DE9F8430C4615461F4609220833064693FBF2F3002101229A4202DA1E
:4058800052000131FAE73046FFF765FF089B4361092D4FF00103036111DD04F10908C1462C4419F8013B0146303B0A223046FFF79EFFA145F5D108EB0504083C01E00A34E5
:4058C00009252D1B63199F4208DD14F8013B0146303B0A223046FFF78AFFF3E7BDE8F883030C1B0413B90004102300E0002310F07F4F04BF0002083310F0704F04BF000156
:40590000043310F0404F04BF80000233002803DB420003D5581C70471846704720207047036813F007020BD0D90722D49A074BBF5B089B08036003604CBF0120022070472E
:4059400099B209B91B0C102213F0FF0F04BF1B0A0832190704BF1B090432990704BF9B080232D90702D45B0805D00132036010467047002070472020704710B50C4601217F
:40598000FFF7E9FE01224461026110BD2DE9F74F14460A6923699A42B8BF0B468846BCBFA0461C46D8F81070D4F81090D8F80830D8F8041007EB09069E42C8BF0131FFF7F0
:4059C000CAFE00F1140505EB860C2B460022634502D243F8042BFAE704F1140208F1140102EB890301EB87070093009B0192934257D9B2F800B0BBF1000F23D08946AE465C
:405A00004FF0000859F8044BBEF800A0A3B20BFB03A34FEA144ADEF8004043444FEA14480BFB0A8404EB1344F2469BB243EA04434F454FEA14484AF8043B01D9D646E1E724
:405A4000CEF80480019BB3F802A00432BAF1000F21D02B682C4689464FF00008B9F800E0B4F802B00AFB0EBEF044A3469BB243EA08434BF8043B59F8043BB4F804E01B0C8C
:405A80000AFB03E303EB18434F454FEA134801D95C46E3E763600435A7E75CF8043D13B9013E002EF9DC066103B0BDE8F08F00002DE9F843154612F0030206460F4607D0AE
:405AC000013A214C002354F82220FFF790FE0746AD1036D0746A3CB91020FFF7D5FD7062446084600460C460D6F82480D8F808404CB940F271213046FFF73FFF0023C8F82C
:405B00000800044603604FF00008EB070AD5394622463046FFF73AFF394681463046FFF74FFE4F466D100CD0206808B10446ECE7224621463046FFF729FF2060C0F80080A6
:405B4000F4E73846BDE8F883987808102DE9F0470C464FEA621A26694968A368564407469146751CAB4202DA01315B00FAE73846FFF7F1FD0023804600F114011A46534516
:405B800003DA41F823200133F9E72AEAEA73206901EB830319F01F0904F1140101EB800E14D0C9F1200C0022086800FA09F002439A4643F8042B51F8042B8E4522FA0CF214
:405BC000F2D8CAF8042042B1B51C06E0043B51F8042B43F8042F8E45F9D8013D3846C8F810502146FFF7ECFD4046BDE8F08703690A699B1A10B511D19200143014318318CD
:405C00000A4453F8044D52F8041D8C4202D007D3012010BD9842F4D3002010BD184610BD4FF0FF3010BD2DE9F8430C460746114620461546FFF7DBFF061E08D131463846E9
:405C4000FFF789FD012303614661BDE8F883BCBF23462C4638466168BABF1D4601260026FFF779FD2B69C660266905F11409143404EB860709EB830800F114054FF0000C33
:405C800054F8043B59F8042B1CFA83F11FFA82FE120CCEEB0101C2EB134303EB214389B24FEA234CC84541EA0343A64645F8043BE6D8BE450ED25EF8041B1CFA81F21314F9
:405CC00003EB114392B242EA03424FEA234C45F8042BEEE755F8043D0BB9013EFAE70661BDE8F883104B0B40A3F15073002B02DD0020194670475B421B15132B4FF0000044
:405D00004FF0000104DC4FF4002242FA03F17047143B1E2B4FF00102DABFC3F11F0302FA03F31346184670470000F07FF8B5056900F1140606EB85052F1F55F8044C2046ED
:405D4000FFF7CEFDC0F120030A280B6014DCC0F10B0E24FA0EF1BE4241F07F5334BF55F8081C0021153004FA00F021FA0EF143F4401340EA010223E0BE423ABFA5F10807ED
:405D800055F8081C00210B3815D08440C0F1200544F07F5444F44014B74221FA05FE44EA0E038CBF57F8044C002401FA00F0EC4040EA040204E044F07F5343F440130A468D
:405DC00010461946F8BD2DE9F34101211C46089E099D9046FFF7BFFCC4F31303C4F30A5407460CB143F480130193B8F1000F19D002A840F8088DFFF793FD009B48B1019A81
:405E0000C0F1200102FA01F10B43C2407B61019200E07B61019BBB61002B14BF02210121396107E001A8FFF77BFD019B7B6101213961203034B1A4F2334404443460C0F191
:405E4000350009E007EB8103A0F2324030601869FFF746FDC0EB41102860384602B0BDE8F0812DE9F743884669468146FFF75EFF0D46044601A94046FFF758FFD9F8103064
:405E8000D8F810200F469A1A9DE80A00C91A01EB4213002BC8BF05EB03550646D8BFA7EB035732463B4620462946FCF769F803B0BDE8F083013910B549111469013102F175
:405EC000140300EB810103EB8404A342024604D253F8042B40F8042BF7E700238A4202D242F8043BFAE710BD00F1140200694B11984210B50CDB0CDD11F01F0109D052F87D
:405F0000234024FA01F000FA01F18C420CD100E0034602EB8303934204D953F8041D0029F9D001E0002010BD012010BD38B502FB01F4214600F056F8054618B122460021CF
:405F4000FCF726F9284638BD38B50546002946D051F8043C0C1F002BB8BFE41800F089FF1F4A1368114613B96360146032E0A3420ED92268A018834204BF18685B6863607F
:405F800004BF121822600C6024E0A24203D813465A68002AF9D118681918A1420BD12168014458188242196014D1106852685A60014419600EE002D90C232B600AE02168C4
:405FC0006018824204BF10685268626004BF091821605C602846BDE8384000F04BBF38BD904B020870B5CD1C25F0030508350C2D38BF0C25002D064601DBA94202D90C231B
:40600000336046E000F035FF234B1C681A462146A1B10B685B1B0ED40B2B03D90B60CC18CD501EE08C420DBF63684B686360136018BF0C4615E00C464968E9E7174C236804
:406040001BB9304600F0DEFC20602946304600F0D9FC431C18D0C41C24F00304A0420DD12560304600F006FF04F10B00231D20F00700C31A0ED05A42E25070BD211A304632
:4060800000F0C0FC0130EBD10C233360304600F0F1FE002070BD00BF904B02088C4B02082DE9F0478E689E4282460C46914698463ED88A8912F4906F3AD0256809696F1AAC
:4060C0006569022305EB450595FBF3F57B1C43449D4238BF1D4653050FD52946FFF782FF064698B13A462169FFF72AFBA38923F4906343F08003A38113E02A4600F0BBFEAC
:40610000064670B921695046FFF71EFF0C23CAF80030A38943F04003A3814FF0FF30BDE8F087266165613E44ED1B2660A5604646464528BF464632464946206800F07EFE5F
:40614000A3689B1BA36023681E4426600020BDE8F08700002DE9F04F9DB0804603938B891C060D4616460DD50B695BB94021FFF739FF2860286118B90C23C8F80030CDE022
:4061800040236B610023099320238DF82930DFF89CB130238DF82A3037463C4614F8013B1BB9B7EB060910D003E0252BF9D02746F3E74B46324629464046FFF771FF0130F6
:4061C00000F0A780099B4B4409933B78002B00F0A08000234FF0FF3204930793059206938DF853301A930126052221784E48FFF757FA671C049B38B14B4A801A06FA00F034
:40620000184304903C46EFE7D90644BF20228DF853201A0744BF2B228DF8532022782A2A03D0079A00210A200BE0039A111D12680391002A10DA524243F002000792049017
:406240000BE0274601343B78303B092B03D800FB02320121F5E701B107923B782E2B1ED17B782A2B0AD1039B1A1D1B680392002BB8BF4FF0FF330237059310E00023059352
:40628000781C19460A24074601303A78303A092A03D804FB01210123F5E703B10591032239782248FFF7FCF940B14023CBEB000003FA00F0049B18430490013739781C48AD
:4062C0008DF8281006227E1CFFF7EAF988B1194B33B9039B073323F007030833039314E003AB00932A46144B04A94046FBF7EAFF07E003AB00932A460F4B04A94046FCF7CD
:406300009BFAB0F1FF3F824603D0099B5344099342E7AB895B0601D4099801E04FF0FF301DB0BDE8F08F00BF987908109E790810A2790810C5220810A16008102DE9F04F4C
:40634000ADF5257DDFF8989201930023469347939F4BA2930DF10C089E4BDFF87CB2CDF8208107460D46A393CA461478002C00F02781D9F8003023445B7803F0080303F087
:40638000FF01F3B16B68002B10DD2B68DAF800001978014449780C0710D547990131479169680133013969602B60EBE7A39B0092294638469847009A0028E6D0561C32460D
:4063C000D3E7252C02F1010652D14391459153782A2B02BF1023961C43930A223178A1F13003092B344606F1010605D8459B02FB0313303B4593F1E703227748FFF750F9DB
:4064000040B10123CBEB000003FA00F0439B034343933446661C2478672C16D8652C7FD2472C07D8452C7BD2002C00F0CB80252C1ED077E05B2C51D002D8582C3ED071E03D
:40644000632C57D0642C3FD06CE0702C32D007D86E2C55D03AD8692C64D1002344933BE0752C31D0782C29D0732C5BD102233FE06B68002B0DDD2B681A78944240F0A080CD
:4064800001336A682B60479B013A01336A60479395E7A39B2946384698470028EBD04698002800F08F80AB8913F0400F18BF4FF0FF3089E0439B43F020034393439B43F495
:4064C00000734393102302E00A2300E008236E2C449301DD04230BE0032309E03146404600F0A0FA439B43F0400343930646012349931BE0439B43F0400343930023F7E773
:40650000439AD0063FF55BAF12F0010F019A479B02F104010191126814BF138013604EE70523E5E7032349930A2344936B68002B03DD439B590611D518E0A39B29463846AB
:4065400098470028F5D0AAE7479A013247926A68013A002A6A6013DD01332B602B68DAF800101A780A4452781207EDD4499B022B0DDC01AB2A4643A9384600F05BF819E06C
:40658000A39B2946384698470028E7D087E7042B06DC01AB2A4643A9384600F0AFF809E00E4B002B3FF40BAF01AB2A4643A93846FCF768FA012803D002287FF400AF6EE784
:4065C000469801E04FF0FF300DF5257DBDE8F08FAD6C0810F56808109E790810852A0810104302082DE9F0410C4616461F46054618B183690BB9FEF71FFC0B4B9C4201D179
:406600006C6808E0094B9C4201D1AC6803E0084B9C4208BFEC683B46324621462846BDE8F041FFF78BBE00BF3078081050780810707808102DE9F84315468A6880460C465F
:4066400032B98A69002A0CBF01224FF0FF328A602268DFF8A490D1065FBF1A68111D196017680026A06900BB2368DA065EBF2B681B783B702A686B6802F101022A60A26866
:4066800003F1FF3302F1FF326B6006F1010658BF0137A260E2B1002BE4DCD4F880312946404698470028DDD012E0012806D12B681A7863699B5C002BD6D119E0022807D12B
:4066C0002B68D9F800201B7813445B781B07CBD5236813F0100305D1E2680132E260A26902B13B7023691E4426610020BDE8F883002EEDD1BDE8F883104302082DE9F04F85
:406700009A46734B0C468346164693E8070087B003ABA76883E807006E4BA1696E4A032918BF1A467B1EB3F5AE7F84BF40F25D13A3602368009243F4506388BF6FF4AE7554
:4067400004F11C0923608CBF7F1900274B464FF000080193316803AB022253F828000978FEF79EFF019B002833D0B8F1010F0BD162682AB908226260226842F4007222606C
:40678000226822F4A0620CE0B8F1020F0AD1226802F4C061B1F5007F1BD11021616042F480722260A268511EA16092B13268511C316012781A705D1C7368013B002B736071
:4067C00006DCD4F88031314658469847002840D12B4608F10108B8F1030FBAD162680AB90A22626062683D4960690193891A00F019F9019B4FF000081D46A3685BB331688F
:4068000060690A78805C30B3302A226808D1100506D508F101084FB10133013FA36005E022F4106222600B782B7001357368013B002B736003DD33680133336005E0D4F8DD
:40684000803131465846984728B9A368013BA360D3E74FF000082368D9050CD54D4508D915F8011CD4F87C313246584698476F1E3D464D4527D0226812F010021BD12A7035
:406880006368009E49465846B0472268DAF8003012F0200F07D1D20705D51A1DCAF800201B68188004E01A1DCAF800201B681860E3680133E3602369C9EB050545441D44E1
:4068C0002561002000E0012007B0BDE8F08F00BFAC790810396B0810493D0810C8790810838903F00903092B01D1FEF753BA002070470000F8B50C46054618B183690BB9BA
:40690000FEF79AFA3A4B9C4201D16C6808E0394B9C4201D1AC6803E0374B9C4208BFEC68B4F90C200023636093B29E065BD458071AD4D90605D4092342F040022B60A2810D
:4069400051E01A070BD521462846FEF7F9F9002849D1A389A06023F00803A381A061A38943F00403A38110E0616B71B104F14403994202D02846FFF7E7FA236C6360002070
:40698000606313B1E36B2360F8BD23691BB921462846FEF73DFEB4F90C70BEB2B3070FD00123A381154B1649186806F00906FEF7AFFA092EA78103D121462846FEF738F9DB
:4069C00022692260666A6369216A2846B047002860600BDCA38917BF002243F0200343F040036260A3814FF0FF30F8BD0020F8BD307808105078081070780810947608109F
:406A0000E168081038B5064C002305460846236000F0AAFB431C02D1236803B12B6038BDD44B020870B50B785E2B13BF4A1C8A1C4B78002108BF0121441E00F1FF0504F899
:406A4000011FAC42FBD10BB9501E70BD81F00104C45411460D782D2D01F1010206D05D2D0FD00DB12B46F3E7084670BD4E785D2EF8D0B342F6DC023101339E42C454FBDC4B
:406A8000E8E7104670BD10B50C46B1F90E1000F019FA0028ABBF636DA3891B1823F48053ACBF6365A38110BD2DE9F0411F468B89DB0505460C46164605D502230022B1F96F
:406AC0000E1000F0A9F9A389B4F90E1023F48053A38132463B462846BDE8F04100F058B910B50C46B1F90E1000F096F9431CA38915BF606523F4805343F48053A38118BF32
:406B0000A38110BDB1F90E1000F054B930B582B1451E013915F8013F11F8014FA34206D1EC431444E04201D0002BF3D11C46181B30BD104630BD00002DE9F04780463C48C3
:406B4000D0F800900E46354615F8014B09EB0400407800F0080000F0FF0708B12E46F2E72D2C03D1B51C7478012703E02B2C04BF7478B51C13B1102B0AD153E0302C4FD19C
:406B8000287800F0DF00582845D16C78102302354FF0FF3C0026BCFBF3FC03FB0CFA6FEA0A0A304609EB040E9EF801E01EF0040F01D0303C0BE01EF0030E1AD0BEF1010FC7
:406BC0000CBF4FF0370E4FF0570ECEEB0404A3420FDD002E08DB604506D801D1544503DC03FB0040012601E04FF0FF3615F8014BD8E7002E07DA2223C8F800304FF0FF30AE
:406C00002AB9BDE8F08707B1404272B106B1691E1160BDE8F0873024002BB9D10823B7E70A23B5E7302CABD0B2E7BDE8F08700BF104302082DE9F0410C46496B04F1440361
:406C400099421CD14FF48061FFF7CCF918B94FF0FF30BDE8F0814FF48063A36394F84630606380F8FF3394F8453080F8FE3394F8443080F8FD3300F2FD30206012E0A66B89
:406C800077003A4600F0F7F805460028DFD000EB0608014632464046FEF752FDC4F800806563A7630020BDE8F0810000F8B54D1C06460F46144602D14FF0FF30F8BD18B146
:406CC00083690BB9FEF7B8F82E4B9C4201D1746808E02D4B9C4201D1B46803E02B4B9C4208BFF468B4F90C3023F02003A3819BB2590713D4DA06DFD51B070BD5214630466A
:406D0000FEF71EF80028D7D1A389A06023F00803A381A061A38943F00403A381636B6268FDB28BB1A36B9A4207DA23685A1E226003F8017C6368013320E021463046FFF762
:406D400079FF0028F1D0B7E72169236851B1994208D213F8011C8D4204D1013B0132236062600CE0E36304F1440363630323A3632346226403F8467F2360012363602846E1
:406D8000F8BD00BF30780810507808107078081038B5074C054608461146002222601A46FAF7A8FD431C02D1236803B12B6038BDD44B020838B5064C00230546084623605D
:406DC00000F0B2F9431C02D1236803B12B6038BDD44B020838B5074C0023054608461146236000F0A9F9431C02D1236803B12B6038BD00BFD44B020838B5064C00230546F0
:406E00000846236000F0A0F9431C02D1236803B12B6038BDD44B020838B5074C054608461146002222601A4600F096F9431C02D1236803B12B6038BDD44B0208884210B582
:406E400001EB020301D8421E0BE09842FBD28118D21AD34204D013F8014D01F8014DF8E710BD994204D011F8014B02F8014FF8E710BD70477047F8B5074615460E4621B9B1
:406E80001146BDE8F840FFF7ADB81AB9FFF75CF82846F8BD00F028F885420ED929463846FFF7A0F8044650B131462A46FEF748FC31463846FFF748F801E03046F8BD2046C2
:406EC000F8BD000038B5074C054608461146002222601A46FAF720FD431C02D1236803B12B6038BDD44B020851F8040C0028BEBF091851F8043CC018043870474FF0FF3C94
:406F000006E000BF4FF0010C02E000BF4FF0010C4DF804CD4FEA410C7FEA6C5C4FEA430C18BF7FEA6C5C1BD001B050EA410C0CBF52EA430C91EA030F02BF90EA020F0020A4
:406F4000704710F1000F91EA030F58BF994208BF90422CBFD8176FEAE37040F0010070474FEA410C7FEA6C5C02D150EA013C07D14FEA430C7FEA6C5CD6D152EA033CD3D06D
:406F80005DF8040B704700BF8446104662468C461946634600E000BF01B5FFF7B7FF002848BF10F1000F01BD4DF808EDFFF7F4FF0CBF012000205DF808FB00BF4DF808EDD7
:406FC000FFF7EAFF34BF012000205DF808FB00BF4DF808EDFFF7E0FF94BF012000205DF808FB00BF4DF808EDFFF7CEFF94BF012000205DF808FB00BF4DF808EDFFF7C4FF12
:4070000034BF012000205DF808FB00BF4FEA410C7FEA6C5C02D150EA013C0AD14FEA430C7FEA6C5C02D152EA033C02D14FF0000070474FF0010070474FEA410212F50012CD
:4070400015D211D56FF47873B3EB625212D94FEAC12343F0004343EA505311F0004F23FA02F018BF404270474FF00000704750EA013005D111F0004008BF6FF00040704751
:407080004FF00000704700BF4FEA4102B2F1E04324BFB3F5001CDCF1FE5C0DD901F0004C4FEAC0024CEA5070B2F1004F40EB830008BF20F00100704711F0804F21D113F102
:4070C0003872BCBF01F00040704741F480114FEA5252C2F11802C2F1200C10FA0CF320FA02F018BF40F001004FEAC1234FEAD32303FA0CFC40EA0C0023FA02F34FEA4303FF
:40710000CCE77FEA625307D150EA01331EBF4FF0FE4040F44000704701F0004040F0FE4040F40000704700BF024B58221A604FF0FF307047D44B0208024B58221A604FF05B
:40714000FF307047D44B0208024B58221A600020704700BFD44B0208024B58221A604FF0FF307047D44B0208044A05491368002B08BF0B461844106018467047944B02084D
:40718000D84B0208F8B500BFF8BC08BC9E467047F8B500BFF8BC08BC9E467047435345313231204C616220322E32204C4544204272696768746E65737320776974682055D5
:4071C00041525420616E642050574D200D0000002050726573732027752720746F20696E637265617365206272696768746E65737320616E642027642720746F20646573BA
:40720000637265617365642E200D0000202563002A2A4552524F523A20506C6561736520656E74657220612076616C6964206F7074696F6E2E200D000300000001000000DB
