:020000041008E2
:4000000000780408EB0208100D00000051030810510308105103081051030810000000000000000000000000000000004D0308104D030810000000004D0308104D030810DA
:400040004D0308104D0308104D0308104D0308104D0308104D0308104D0308104D0308104D0308104D0308104D0308104D0308104D0308104D0308104D0308104D03081000
:400080004D0308104D0308104D0308104D0308104D0308104D0308104D0308104D0308104D0308104D0308104D0308104D0308104D0308104D0308104D0308104D030810C0
:4000C0004D0308104D0308104D0308104D0308104D0308104D0308104D0308104D0308104D0308104D0308104D0308104D0308104D0308104D0308104D0308104D03081080
:400100004D0308104D0308104D0308104D0308104D0308104D0308104D0308104D0308104D0308104D0308104D0308104D0308104D0308104D0308104D0308104D0308103F
:400140004D0308104D0308104D0308104D0308104D0308104D0308104D0308104D0308104D0308104D0308104D0308104D0308104D0308104D0308104D0308104D030810FF
:400180004D0308104D0308104D0308104D0308104D0308104D0308104D0308104D0308104D0308104D0308104D0308104D0308104D0308104D0308104D0308104D030810BF
:4001C0004D0308104D0308104D0308104D0308104D0308104D0308104D0308104D0308104D0308104D0308104D0308104D0308104D0308104D0308104D0308104D0308107F
:400200004D0308104D0308104D0308104D0308104D0308104D0308104D0308104D0308104D0308104D0308104D0308104D0308104D0308104D0308104D0308104D0308103E
:400240004D0308104D0308104D0308104D0308104D0308104D0308104D0308104D0308104D0308104D0308104D0308104D0308104D0308104D0308104D0308104D030810FE
:400280004D0308104D0308104D03081010B5054C237833B9044B13B10448AFF300800123237010BDA06C0208000000007CA70810084B10B51BB108490848AFF3008008481C
:4002C000036803B910BD074B002BFBD0BDE81040184700BF00000000A46C02087CA70810CC470208000000007047FFF7FDFF72B6104C114DAC4209DA21686268A368043B44
:40030000A2BFC858D050FAE70C34F3E70B490C4A00209142BCBF41F8040BFAE709480A490860BFF34F8F00F0A7FA00F081FA00F089F9FEE74CCE0A1064CE0A10A06C02085B
:40034000DC7E02080040020808ED00E0FEE7FEE700B504207146084202D0EFF3098001E0EFF30880043001F021FEFEE72DE9F04385B004AF954B1A7844F20B0398424DD0C7
:400380000C4606D8B0F5805F12D0B0F5804F17D017E145F20203984200F00C8145F2090398424AD045F20103984240F00A81F7E0874806F0CDFA0021084603F08FF900E18C
:4003C0000B78042B00F0FD800122824B1A7000230AE06268D15C804AD25C914202D000217C4A11700133DBB2052BF2D9794B1B78002B00F0E680794806F038FA606841795C
:400400000279C378847845780078029001950094734806F02BFA03F0C5F9D2E0002A40F0D0806C4B1B78002B00F0CB800021694B1970694803F018FAC3E06D46694806F075
:4004400087FAA388083323F00703ADEB030D04AE002304E02268D25CF2540133DBB29AB2A1888A42F6D930685F4B186030685F4B1860584B5B68072B44D8DFE803F0040C56
:40048000141C242C343C584A1168594A11600133504A536036E0544A1168564A116001334C4A53602EE0504A1168534A11600133484A536026E04C4A1168504A11600133E5
:4004C000444A53601EE0494A11684D4A11600133404A536016E0454A11684A4A116001333C4A53600EE0414A1168474A11600133384A536006E03D4B1A68444B1A60002250
:40050000344B5A603A4B186805F00AF980468946394B186805F004F9CDE90201354B186805F0FEF8CDE9000142464B46384806F09DF9324B186805F0F3F802460B46354887
:4005400006F094F92E4B1B68012B03D1324806F0FFF902E0314806F0FBF92A4B1B68012B03D12F4806F0F4F902E02E4806F0F0F9254B1B68012B03D12B4806F0E9F902E0A6
:400580002A4806F0E5F9214B1B68012B03D1284806F0DEF902E0274806F0DAF9AD4610E0254806F0D5F92288244B1A800122094B1A7206E0224806F0CBF90021084603F079
:4005C0008DF80437BD46BDE8F08300BF3F7E020828890810BC6C02088C4202084C8908107089081094890810C07D0208B47D0208B87D0208FC7D0208D47D0208D07D02089E
:40060000D87D0208B07D0208F87D0208DC7D0208A0890810B8890810CC890810EC8908100C8A0810308A0810588A08107C8A0810A48A0810C88A0810F08A0810C47D020889
:40064000188B081008B562B600F04EF90B4804F0E7FE2BF083FF0A4B1B7A002BF9D00948094B1B884380064C6268084B03EB42031B89038010F0F4FEE060EAE76D030810AD
:40068000BC6C0208BC7D0208C47D02088C42020808B5012000F0C0FE08BD00BF704700BF5C4AD2F8803303F00F0303F1D00152F8212002F00702032A04D0042A05D092B95A
:4006C000554914E0554A116811E003F1C002514951F8222002F01F02112A06D0132A04D04FF4FA4103E04E4901E04FF400418BBB484BD3F8902502F00100D3F88825C2F379
:400700000172D3F8883513F0405F07D0414BD3F88835C3F30173012B02D102E0012300E0002303B108B9032A46D13A48D0F88025C2F31103D0F88425C2F30C02D0F880050D
:40074000C0F300600130B1FBF2F202FB03F2B2FBF0F131E0012B2FD12E4BD3F8402602F00100D3F80026C2F30172D3F8003613F0405F07D0274BD3F80036C3F30173012BEF
:4007800002D102E0012300E0002303B108B9032A12D12048D0F8002602F07F02D0F80036C3F30423D0F80006C0F3044002FB01F2B2FBF3F2B2FBF0F1164BD3F88033C3F3CA
:4007C000011321FA03F215494A601648D0F89030C3F3072301330069000E0130B2FBF0F08860B2FBF3F3CB600B6103F5742202F23F220D48A0FB0202C2F387420A7503F2C3
:40080000E7330A4AA2FB03239B098B61DB03CB61704700BF0000264000127A00A442020800366E010000214083DE1B43D34D621008B50D4801F0ECFFFFF730FFFFF730FF06
:4008400000221146042000F06BFB084800F042FC074B1B6893F8513013B1064800F0AAFC00F03EF908BD00BF14900810CC6C0208387E0208488B081008B501F0F2FB074A3E
:40088000D2F8883043F47003C2F88830BFF34F8FBFF36F8F01F0E9FB08BD00BF00ED00E010B504462146034800F010FE0028F9D010BD00BF00006640054BD3F80833C3F346
:4008C0000803002BF8D0024BD3F84003704700BF0000664008B50249024801F04BF908BD007E02080000664008B5114B1B785BB9104A1149114800F019FF1149114801F090
:40090000F7FA01220A4B1A700E4BB3F90030002B08DB590903F01F03012202FA03F30A4A42F82130054A136843F00043136008BD4C6E0208007E02088C8B0810000066407D
:40094000D50808107C8B081000E100E0C0F30800B0FA80F0400970471F4B98422DD00CD840282ED003D8E8B1102828D02FE0802829D0B0F5807F28D029E0184B984228D014
:4009800006D8B0F1204F0DD0154B984212D01EE0144B98420AD00133984209D0023B984215D101E0002070470F4870470F4870470F4870474FF4A0007047074870470D4884
:4009C00070470D4870470D487047034870470C4870474FF4A400704706005200010000F0090000A0040000F0010052000200520003005200010050000200500005005200A1
:400A0000FF00520038B5124B1B6893F83130012B04D840F2C3110F4801F0B0FA0C4B1D682A6AB5F8B03013442C46D5F8B420D358002B0BDB084B1868FFF78EFF6B680122BD
:400A40009A6063689B68002BFBD138BD034838BD387E0208CC8B0810506E0208020050001A4B186128B102230370FF23437000234380174B1B6893F850202AB300B583B08A
:400A8000B3F93830ADF80030002301931149684601F02EFABDF90030002B08DB590903F01F03012202FA03F30B4A42F82130084B1B6893F8513023B102220849012000F0D9
:400AC00025FC03B05DF804FB704700BF506E0208387E02083D48020800E100E0F548020808B50248FFF7BCFF08BD00BF646E020838B505460C46FFF729FF002833D0002C22
:400B000033D0FFF7CDFD1A4B1A4A1A6000225A609D60DC60184B1B6893F85220EAB11968D3F88430CA58CB58C3F30721120E531C01FB0333114901FB03F3114A12681149BD
:400B4000A1FB02218909B3FBF1F101F5195108314FF4807007F0E0FE38BD00214FF4807007F0DAFE38BD084838BD074838BD00BF506E020800010005387E0208C0EA210144
:400B8000A8420208D34D62100600520008B5FFF739FF08BD10B50446FFF7D8FE00283AD0FFF77EFD4FF0E0521C4B1A601C4B1B7813F0FF0F04D0194A136843F4807313607D
:400BC000164B5C6000229A60DA60164B1B6893F85420DAB11968D3F88430CA58CB58C3F30721120E531C01FB03330F4901FB03F30E4A12680E49A1FB02218909B3FBF1F1DC
:400C000001F69801002007F087FE10BD0021084607F082FE10BD074810BD00BF506E02080B000016387E020860F59000A8420208D34D62100600520038B505460C46FFF741
:400C400085FE00283DD0002C3DD0FFF729FD4FF0C0621E4B1A601E4B1B7813F0FF0F04D01A4A136843F480731360184B4FF480725A609D60DC60174B1B6893F85320DAB1CD
:400C80001968D3F88430CA58CB58C3F30721120E531C01FB0333104901FB03F30F4A12680F49A1FB02218909B3FBF1F101F56171002007F031FE38BD0021084607F02CFE66
:400CC00038BD084838BD074838BD00BF506E02080B000016387E0208808D5B00A8420208D34D621006005200002861D0F8B5054600295FD00C460B6833F0FF0303D09921A8
:400D00002D4801F03BF9236933F0FF0303D09A21294801F033F9A3685B0D5B051BB19B21254801F02BF9636823F4FF7323F001031BB19C21204801F021F9E36913F0604F0A
:400D400003D09D211C4801F019F9236A13F0604F03D09E21184801F011F9184A11688B69EB1ADB0949691B01C81826682E60166896F87D60E768AF51166896F87E6027691B
:400D8000AF51166896F87F606769AF51166896F87C60A768AF516668AE61126892F88020A669AE50E269CA50236A43600020F8BD034870470248F8BD0C8C0810387E020818
:400DC00001005A0038B50B4B1B68D3F8B4301B58002B0DDA0D4604460B0C1B0423B140F2D521054801F0CAF8A9B26160002038BD024838BD387E02088C8C081001008A00E4
:400E000038B50368002B01DA002300E0094B73B90D460446C2600B0C1B0423B140F2BB21054801F0ABF8A9B2A160002038BD014838BD00BF01008A008C8C081038B50446B9
:400E40000D4619B99921084801F098F8074B1B68D3F8B4301B59002B03DAE3682B60002038BD034838BD00BFCC8C0810387E020801008A00254B1B6893F8313083423AD966
:400E800000293AD00B6813F01F0F38D170B50D4604461E4B1B6893F83130984204D340F2C3111B4801F06AF8184B1B68186AB3F8B03004FB0304174E34602A68D2080021CC
:400EC000686805F059F800212046FFF77BFF346825B940F293310E4801F050F82A4600212046FFF78DFF60B900210A4B1868FFF769FF40B970BD084870470748704706487F
:400F00007047064870BD054870BD00BF387E02088C8C0810686E020803018A0001018A0010B504461346B2B9A9B9124B1B6893F83130984204D340F2C3110F4801F01EF846
:400F40000C4B1B681A6AB3F8B03004FB03240B4B1C60002010BD43B149B1084A51609360111D2046FFF786FF10BD054810BD044810BD00BF387E02088C8C0810686E020821
:400F800003018A002DE9F0411B4B1B68DC68236883422CD90D464609A0EB4610012303FA00F819B901F05DF8074600E00027124B18680368002B01DA002300E00F4B83B9EB
:400FC000626852F8263018EA030F05D148EA030342F82630002400E0094C0021FFF7F2FE00E0084C25B9384601F03FF800E0064C2046BDE8F08100BF686E020801008A00E5
:40100000020188000301880004018A002DE9F0411B4B1B68DC68236883422CD90D464609A0EB4610012303FA00F819B901F019F8074600E00027124B18680368002B01DA2F
:40104000002300E00F4B83B9626852F8263018EA030F05D023EA080342F82630002400E0094C0021FFF7AEFE00E0084C25B9384600F0FBFF00E0064C2046BDE8F08100BFD9
:40108000686E020801008A00020188000301880004018A000B4B1B68DB681A6882420CD94109A0EB4110012202FA00F05B6853F82130184203D004487047044870470448C5
:4010C000704700BF686E02080101880004018A0000018800024B1B680BB9014B18607047746E02082DE9F8430446884691461D46089F2C4B1B681BB9B5212B4800F03EFF6F
:40110000284B1B682C2000FB04F01C18EEB21E50C5F3072363602D0CA560244B1B6893F831309E4204D340F2C311214800F026FF1E4B1B68196AB3F8B02006FB02162661B6
:40114000666893F832309E4204D340F2DF11184800F014FF154B1B681D6A803605EB46156561A668330C1B0423B14FF4FF71104800F004FF330C1B0423B140F2FF110C4841
:4011800000F0FCFEB3B243EA0646AE60C4F81C90C4F820800023A36117B1B7F90030A381BDE8F883746E02080C8D0810387E02088C8C0810F0B58FB0044618B95221274814
:4011C00000F0DCFEA369072B03D95621234800F0D5FEE36A1BB95821204800F0CFFE236B1BB959211D4800F0C9FE07AD04F114060FCE0FC537682F6002AD26460FCE0FC541
:4012000033682B60164B1B68B3F93620079B1344ADF83030089B0D93A26AE16A0CAD00953B460A98FFF75EFF00210091069B0A460598FFF757FF216B284600F059FEBDF9C3
:401240003030002B08DB590903F01F03012202FA03F3044A42F821300FB0F0BD0C8D0810387E020800E100E0F8B506460F461D4614461AB9FD211F4800F080FE1E4B1B6840
:401280001BB9FE211B4800F079FE1B4B1B682C2101FB063001FB07314B68012202FA03F31B04466802FA06F60269EAB18F69EFB91268002A01DA002200E0104AC2B92288A2
:4012C000134323600369DC6001238B614D620469330C1B0423B140F2BB21094800F04EFEB2B2A2600020F8BD0648F8BD0648F8BD0548F8BD0C8D0810746E020801008A0009
:401300008C8C081004028A0007028A00F8B505460F4616460E4B1B6823B94FF4AF710D4800F02CFE0A4B1B682C2404FB0534236A23B94FF4B171074800F020FEE369B3425B
:4013400004D9236A43F826700020F8BD0248F8BD746E02080C8D08100A028A0070B582B000230193044620B940F2D111284800F005FE236923B94FF4E971254800F0FEFD26
:40138000636923B940F2D311214800F0F7FD236A23B94FF4EA711E4800F0F0FD6369DD682A0C20D012041A601B682069194B1B68D3F8B430C358002B15DA01A9FFF73EFD5F
:4013C00060B9019803681E0CDBB2E269934206D2226A52F8233013B1984700E0002631462069FFF7EFFCADB275B16369ADB21D601B68636A1BB198470023636202E0A36A6F
:4014000003B198470023A36163691B6802B070BD0C8D0810387E020810B50446074B1B6823B940F2B111064800F0A8FD034B1B682C2000FB0430FFF791FF10BD746E020831
:401440000C8D081010B50446094B1B689B6CC34013F0010F03D1BE21064800F08FFD044B1B681B691034A402185900F00F0010BD387E02084C8D081010B4D0F8003303F05B
:401480000F03072B06D900230DE0D0F84043CC54013300E000239342F7D306E0D0F8404321F8134001339342F8D35DF8044B704710B51446D0F80833C3F308039A4200D35A
:4014C0001C462246FFF7D8FF204610BD036813F4006F01D0802200E04022D0F80832C3F30803934203D0C0F84012012070470020704700BF10B4D0F8003203F00F03072BB4
:4015000006D900230DE0CC5CC0F84042013300E000239342F7D306E031F81340C0F8404201339342F8D35DF8044B704710B51446036813F4006F01D0802200E04022D0F83C
:401540000832C3F30803D31AA34200D81C462246FFF7D0FF204610BD2DE9F84305460C46036813F4006F02D04FF0800801E04FF04008D5F8007207F00F07A26A012A19D9BF
:40158000D4F82490E262561EB9F1000F00D026B940F27351254800F0F1FC324649462846FFF7C4FFA36A1B1AA362072F00D9400048446062D5F80832C3F30803984533D091
:4015C000A36A012B30D10023A362072F02D8636A1E7801E0636A1E8800F043FDC5F840624FF40073C5F8803FD5F8803F00F03DFDD5F8883F23F4007222F0010242F400766D
:4016000023F4EE6323F0030323B140F22A41084800F0B4FCC5F8886F236843F002032360236B0BB101209847BDE8F8838C8D0810CC8D08102DE9F04105460C46036813F46C
:40164000006F01D0802600E040267608A769D4F81C8017B1B8F1000F04D14FF49961314800F08CFC424639462846FFF721FF236A03442362E3691B1AE36173BBA368FBB137
:40168000E3689E4201D8013E00E05E1E2B6813F4006F01D0802300E040239E4204D34FF42071214800F06AFCD5F8043323F0FF03F6B21E43C5F804630123C5F8C83F02E071
:4016C0000023C5F8C83F636823F001036360236B33B304209847BDE8F081A169D5F8002302F00F02072A00D940000844A0619E4216D95C1E2B6813F4006F01D0802300E097
:4017000040239C4204D34FF42071074800F036FCD5F8043323F0FF02E3B21343C5F80433BDE8F0818C8D0810CC8D0810002800F0A48170B50546002900F0A18116460C4607
:401740000B78022B03D93F21A24800F017FC637B023BDBB2062B03D940219E4800F00EFCA37B3BB1022B05D0032B03D04121994800F004FC94F82130012B03D94221954835
:4017800000F0FCFB94F82830012B03D94321914800F0F4FB2378012B06D86368083B082B94BF0023012307E0A37F2BB16368013B062B94BF002301231BB14521854800F014
:4017C000DDFBA368053B042B03D94621814800F0D5FB6369FF2B03D947217E4800F0CEFBA369FF2B03D948217A4800F0C7FBA37C6BB1237833B9A368092B05D1A37B2BB152
:40180000012304E0012302E0012300E000231BB14A21704800F0B2FB636B23F4366323F00D031BB14C216B4800F0A8FBE36B23F4EE6323F003031BB14D21664800F09EFB87
:401840002378022B01D1A37F13B16268013A00E00022237F13B14FF4803100E00021A368082B02D84FF4006300E000230B4302F00F02134343F000732B60226B2B6813F4C6
:40188000006F01D0802300E040239A4203D36221504800F073FBA26B2B6813F4006F01D0802300E040239A4203D36321494800F065FB626A2B6813F4006F01D0802300E0CA
:4018C00040239A4203D36421424800F057FB23781B0603F040732B64637F0BB1402200E00022A37C13B14FF4806300E000231343227C12B14FF4807200E000221343627C61
:4019000012B14FF4007200E000221A43E36A013B1B0403F470231343627B013A02F007021343A27B120102F030021343AB64237B13B14FF4807200E00022E37B23B92378B8
:40194000022B03D1012302E0012300E0002313B14FF4007300E000231A43A368013B03F00F031343C5F80033227DA3691B0403F47F031343C5F81033E26AD5F8003303F0F5
:401980000F0303339A4201D3102A03D97A21114800F0F4FAE37F23B12378012B03D0002302E0002300E0012313B14FF4807200E00022637B013B03F007031A43A37B1B01A2
:4019C00003F0300313436B64237B2BB14FF4807203E000BF108E08100022A368013B03F00F0313432278012A02D14FF4803200E000221343C5F8003294F83030C5F804331D
:401A000094F8203013B14FF0007200E0002294F82130012B02D14FF0807300E00023134394F82820012A02D14FF4803200E00022134394F8242013432B6594F83830C5F866
:401A40000432636B23F4926323F002031B051B0DC5F8C83FE36B23F08C035B055B0DC5F8883F76B1002070603060B060F0603062F0623063044B736370BD044870470348D8
:401A800070BD002070BD00BFEFCDAB000160AA000B694A69934202D34869181A7047CA694869101A184470472DE9F04107460D46036813F4006F02D04FF0800801E04FF06E
:401AC00040084FEA5808D7F80863C6F308062C6926E00134EB689C4200D100246B699C420FD12B6B0BB1082098476B699C4208D10023C7F8C83F0CB1013C13E0EC68013C31
:401B000010E0D7F84023D7F8003303F00F03072B02D8AB681A5502E0AB6823F81420013E002ED6D12C61EC6829463846FFF7B0FF201A804519D908B1441E00E000243B6870
:401B400013F4006F01D0802300E040239C4204D34FF42071064800F011FAD7F8040320F0FF03E0B21843C7F80403BDE8F08100BFCC8D081038B504460D46D0F8003E13F0F2
:401B8000080F35D0D0F8CC3F13F448730AD04A681A434A60C0F8C03FD0F8C03F0B6B0BB110209847D4F8CC3F13F4006F09D06B6843F400636B604FF40063C4F8C03FD4F897
:401BC000C03FD4F8CC3F13F0010F11D0EB6923B129462046FFF72EFD05E0AB681BB129462046FFF761FF0123C4F8C03FD4F8C03FD4F8003E13F0040F2ED0D4F88C3F13F4A8
:401C0000A0630AD02A681A432A60C4F8803FD4F8803F2B6B0BB120209847D4F88C3F13F0010F08D029462046FFF796FC0123C4F8803FD4F8803FD4F88C3F13F4007F0BD0D6
:401C40000022C4F8882F2B6823F001032B60EA622B6B0BB10220984738BD00BF10B504460D4B1B6893F83C30834204D84FF4A1710A4800F083F904F1D003094A52F823002A
:401C800000F00700042806D1C03452F8240000F01F0040F4807010BD387E0208508E081000002640B0F5C26F80F09B80B2F5C26F80F09980B1F1807F80F09780F0B40124F9
:401CC0004C4B1C70FF2805D800F00F000F26374607231DE0B0F5A06F05D200F00F030F260027384614E0C0F30325B0F5C06F07D20001C4B245EA0403FF260027384607E0A4
:401D0000030203F470632B4340F60F7600273846FF2A09D81201D2B2104343F4E02347F0F00746F4702620E0B2F5A06F06D2120402F47022134346F4702616E0140A24044C
:401D400004F470241C43B2F5C06F06D2130503F47003234346F47F0607E0120602F07063234346F0706646F47026234A1268156AB2F8B020C2EBC202AA58002AF5DA1D4A6A
:401D8000527822B11D4AD2F81C25002A1DDA41F61F741B4A146043F63D54043A1460A2F58272D2F8184524EA07073843C2F81805D2F8140520EA06063343C2F814350D4BEA
:401DC0005960C2F81C15002000E00E480A4B1A68116AB2F8B030C3EBC3030B4400225A6005E0084870470748704706487047F0BC704700BF786E0208387E0208000026403F
:401E00000801264001004A0070B505460022214B1A70214B1B681A6AB3F8B030C3EBC303D418D358002BF4DA1C4B1A6841F61F739A4207D11A4B1A6843F63D539A4203D019
:401E4000002602E0002600E00126164BD3F8202522F07F4000226260D6B1D0B165B90D4B5E684408002502460023E1FB06452046294603F0DBFE70BD064B5A68540800255E
:401E80000023E1FB00452046294603F0CFFE70BD002070BD786E0208387E020808012640040126400000264038B50D4B9A680D4B9A420FD10D46044621B940F237110A4841
:401EC00000F05CF804F11003064A52F8230042F8235038BD1030054B53F8200038BD00BF00ED00E000400208D88E08100000081048B338B504460D464368072B03D932214A
:401F0000134800F03BF8B4F900306268002B08DB5201D2B203F1604303F5614383F8002305E003F00F035201D2B20A49CA540A4B9A680A4B9A4208D12946B4F90000FFF721
:401F4000B3FF002038BD06487047002038BD00BFD88E081014ED00E000ED00E0004002080100560008B5034B1B7800FB03F000F06FF808BDB842020801BEFEE738B50D4664
:401F8000044C18220146204604F0F2FCA5610020FFF7F2FF684D0208024B1B685B6801229A607047387E0208FEE700BF08B50268254BDA6142681A6282685A62C2689A62AD
:401FC0000269DA6242691A6382695A63C2699A631E4A916AD963D16A1964516A5964516B9964926BDA64F1EE103A13F0900F27D0026A154B1A65426A5A65826A9A65C26AF0
:40200000DA65026B1A66426B5A66826B9A66C26BDA66026C1A67426C5A67826C9A67C26CDA67026DC3F88020426DC3F88420826DC3F88820C26DC3F88C20026EC3F8902056
:40204000FFF7B2FF08BD00BF684D020800ED00E00230800803D001300238FCD100BF00BF7047EFF3108072B6704780F3108870474FF0B0539B899BB223B14FF0B0539B89AF
:402080009BB201E04FF48073B3F5807F15D1174A13681868D3F89810435823F00F0343F00203435013681968D3F89C208B5823F00F0343F002038B50704710B40B490B68F5
:4020C0001C68D3F898000A4B1B6823F440732258134343F4407323500B681A68D3F89C3004490968D1505DF8044B7047387E020848180016441800164FF0B0539B899BB209
:4021000023B14FF0B0539B899BB201E04FF48073B3F5807F15D1164A13681868D3F89810435823F00F0343F00303435013681968D3F89C208B5823F00F0343F003038B507B
:40214000704730B40A4803681D68D3F8984009490B6823F440732A59134343F440732B5103681A68D3F89C300968D15030BC7047387E0208201800164FF0B0539B899BB297
:4021800023B14FF0B0539B899BB201E04FF48073B3F5807F0BD10D4B1B681968D3F898208B5823F4E04343F4C0438B507047074B1B681868D3F89810054B1B6823F44073D1
:4021C0004258134343F4407343507047387E0208181800164FF0B0539B899BB223B14FF0B0539B899BB201E04FF48073B3F5807F0BD1114B1B681968D3F898208B5823F404
:40220000E04343F480438B50704730B40A4803681D68D3F8984009490B6823F440732A59134343F440732B5103681A68D3F89C300968D15030BC7047387E02084C18001665
:4022400008B54FF0B0539B899BB223B14FF0B0539B899BB201E04FF48073B3F5807F17D10E20FFF7EFF84FF0B0535B7813F0FF0F04D04FF0B0535B78DBB200E02123222BA9
:4022800002D818B9012008BD012008BD002008BD012008BD10B50446012804D940F262710F48FFF76BFE1CB90E4B5869C00F00E000200D4B1B6893F844307BB1012C0DD13D
:4022C000084B9B6913F0804F05D1064B9B69002B03DA012010BD012010BD002010BD00BF1C8F081000002640387E020838B5154B1B6893F8443023B30D460446072804D9C3
:4023000040F2CC711048FFF739FE0E4B1B6893F8443023B10D4B9B6903F0070300E00023DBB29C420DD00948826922F0070104F007020A43826125B19C4202D9C820FFF766
:4023400011FE38BD387E02081C8F08100000264010B30246C3680BB303680BB330B40579114B03EB85035C682346002103E0934205D019465B69002BF9D1012000E000200B
:4023800080B124B9084B03EB85056A6000E04A6111610023536105E000207047002070470020704730BC7047846E020850B310B402460479164B03EB840359680B4602E047
:4023C000934204D05B69002BFAD1002000E00120D0B18A420ED14B6933B10D4A02EB8404636000221A610FE0094B03EB84040023636009E01A69596951615A6922B11B69D0
:40240000136101E0002070475DF8044B704700BF846E020830B583B004460D46022808D9042806D0032804D040F6B2112848FFF7A5FD6B1EDBB2012B08D9042D06D0082D39
:4024400004D040F6B3112248FFF798FD214800EB84004468042D12D0012D1AD111E0A3681D420AD1E3681A6800925B6801932368294668469847174B9C61646902E0002048
:4024800000E0002014B3144B9842E8D1012DE6D11CE0022D01D104E01C466369002BFBD103E00C4B9C6904B1246900200CE0A3681D4208D1E3681A6800925B680193236867
:4024C0002946684698472469002CF0D103B030BD1C8F0810846E0208FF00420070B50546012804D94FF4E0711D48FFF747FD1D4B5B682BB101210020FFF78CFF044600E029
:4025000000242CBBFFF7ADFD0646164B5B681BB104210020FFF77EFF134A136923F004031361012D01D030BF07E020BF0D4B1B7803B120BF01220B4B1A703046FFF795FD62
:40254000084B5B684BB108210020FFF763FF04E002210020FFF75EFF044C204670BD00BF1C8F0810846E020800ED00E0FF00420008B5FFF776FD074B5A6807490A4042F4B5
:4025800068525A605A68114059605B68FFF76DFD08BD00BF00002640FF00FC0FF8B50546012804D940F64C213948FFF7E7FC4FF0B0535B7813F0FF0F04D04FF0B0535B78BA
:4025C000DBB200E021239CB24FF0B0539B899BB223B14FF0B0539F89BFB201E04FF480770E20FEF72FFF98B9B7F5807F12D1222C12D8284B1B6858684FF21801435823F039
:4026000080722B0603F0807313434350002604E0214E02E0204E00E01F4EB7F5807F01D1222C02D8B7F5807F2FD01A4B1B6893F83130012B04D840F2C3111848FFF79EFC71
:40264000144B1B681C6AB3F8B0301C44B7F5807F02D125B1124A05E01DB1124A02E0124A00E0124A01212046FEF7CAFB68B9094B1B68D3F8B4301B59002BF8DBE36803F035
:402680007F43B3F1204F00D100263046F8BD00BF1C8F0810387E020804004200CC8B0810010100300300000C010000300100000C70B50446022806D0052804D040F2027198
:4026C0001E48FFF75BFCFFF7BBFDA0B3FFF7C9FC0646022C07D10120FFF760FF054678B9FFF7C6FC0CE0164A536923F0070343F0030353613420FFF735FCFFF76BFD00255F
:40270000ADB90F494B6923F0070204F0070313434B61022C02D1FFF72FFD08E09120FFF721FCFFF7E9FC0020FFF738FF05463046FFF79BFC00E0034D284670BD1C8F081038
:402740000000264003004200F8B50446012804D94FF402612A48FFF711FCFFF771FD00284AD0FFF77EFC07468CB9002147F63073244AD1504FF0B05393F84067F6B2012021
:40278000FFF70CFF0546D8B9FFF772FC18E01E4B19681C4A47F63073D1504FF0B05393F84167F6B24FF61C71535823F01F0343F00B0353500320FFF7D5FBFFF70BFD0025D0
:4027C000B5B910494FF61C728B5823F01F0306F01F061E438E5014B9FFF7CEFC08E00720FFF7C0FBFFF788FC0020FFF7D7FE05463846FFF73AFC00E0044D2846F8BD00BF13
:402800001C8F0810000026401018001603004200014B1860704700BF387E020838B50D4640F4004000040E4BD8614FF47A7403E0013C0120FFF796FB094B1B6C13F0010FC1
:4028400001D1002CF4D144B1054B1A6C42F001021A64DB6A2B80002038BD024838BD00BF00003C400400160010B50F4B03EA004001430E4AD1614FF47A7403E0013C0120F2
:40288000FFF770FB094B1B6C13F0010F01D1002CF4D134B1054A136C43F001031364002010BD034810BD00BF0000FF7F00003C400400160070B582B005460A244FF4C051A9
:4028C00041F60260FFF7D0FF034630B90DF1060141F60260FFF7A2FF03460CB1013C00E0714B23B9BDF80620B2F5C05FE6D13BBB0DF1060141F60360FFF790FF0346F8B9EC
:40290000BDF8062002F4806292B2CAB90A244FF4806141F60360FFF7A7FF034630B90DF1060141F60360FFF779FF03460CB1013C00E05D4B23B9BDF80620B2F5806FE6D187
:4029400033B90DF1060141F60960FFF767FF0346002B43D1BDF8063023F03F039BB2AA78012A12D1E978012904D88EB2C6F1020294B201E00024022643F07003ADF80630CF
:402980004A4BCB404A4A136012E0E97821B98EB2C6F1010294B201E00024012623F0400343F01003ADF80630424BCB40404A1360BDF80610314389B2ADF8061041F60960F6
:4029C000FFF752FF0346EA78961B06F00306A20092B23243ADF8062037494A664FF0B052527812F0FF0F04D04FF0B0525278D2B200E02122212A53D0304A128892B2002A4E
:402A00004ED033B90DF1060141F60760FFF706FF034643BBBDF8063023F060039BB2ADF8063026490A88C2F3811243EA421323F428639AB2ADF806200B889BB2DB0103F4E7
:402A4000F063134323F4C0539BB2ADF806300988C1F3012143EAC121ADF8061041F60760FFF702FF034633B90DF1060141F60660FFF7D4FE03469BB9BDF8061021F0C001BC
:402A80008BB2ADF806300D4A1188C1F3011143EA8111ADF8061041F60660FFF7E5FE0346184602B070BD00BF040016000048E801A44202080024F40000F03D40161800160F
:402AC00038B50D4641F2010141EA400141F60860FFF7CAFE044630B946F6370141F60F60FFF7C2FE04466801FFF73CFA204638BD024A136F43F010031367704700F03D40A9
:402B000070B59CB0134C13AD26460FCE0FC50FCE0FC533682B600AAD04F124060FCE0FC50FCE0FC533682B6001AD48340FCC0FC50FCC0FC523682B6013A90748FEF7D4F849
:402B40000AA90648FEF7D0F801A90548FEF7CCF81CB070BDCC900810000132408001324000023240F8B5002800F0E7800546774B5B6813F4003F01D0FFF7FAFC744C03E0FE
:402B8000013C0120FFF7EEF9724BDB6E0BB1002CF6D1704BD3F8A03013F0010F06D06D4BD3F8B43013F0010F40F0C980694BDB6E002B40F0C680FFF7A3FF674901F5F833EC
:402BC000664AC3F8A4202A7842F42022C3F8A8204FF00112C3F8AC20D1F8003113F0010F40F0B1805B4B1B6F13F0080F0AD15C4B1B685C4A934207D95B4AA2FB03231B0D88
:402C0000013B02E0012300E00023534A12681BB1564941EA433300E0554B13434E4A13604A4B5B6913F0804F13D001210320FFF75DFB464B5B69C3F380734E4A126892F810
:402C400044206AB163B1414A936943F08043936106E0404AD2F8C43043F00303C2F8C4303C4CD4F8A07047F4403343F03003C4F8A0304020FFF776F9D4F8B03013F0010FB3
:402C80000BD10123C4F8B0304020FFF76BF90323C4F8B0304020FFF765F927F4803727F0100747F4003646F020062A4BC3F8A0604FF4FA6403E0013C0120FFF753F944F2F1
:402CC00010032D4AD35813F0100F01D1002CF2D10CB1002400E0294C1CBB1E4A936E43F0080393660120FFF7D5FA18B947F4003646F0280626F4802343F00103154AC2F8F6
:402D0000A030134E03E0013E0120FFF72BF9114BD3F8B43013F0010F01D1002EF3D106B9164C1CB92846FFF7C5FD044664B929786878FFF7C5FE044606E0114C04E0114C98
:402D400002E0104C00E0104C2046F8BD00002640F07E0E0000F03D4000003C4006000001AC42020800093D0083DE1B43041A0080040A0080387E0208000032400400160077
:402D8000010016000300160002001600014B1868704700BFA442020810B5002405E02046FEF75CFF032804D00134042CF7D9002010BD012010BD00BF074BD3F8003503F002
:402DC0000303012B03D0032B03D101207047012070470020704700BF0000264038B5012902D0082942D047E0284B1B78012B45D00320FEF74FF9264B984241D0FFF7CCFF09
:402E000001283FD0022007F039FE0546FFF729F9204B186029F0A4FB0446062815D0022D09D1022016F052F9032C01D0052C0ED178B1194C12E0012016F048F9022C0AD033
:402E400058B9FFF74BFB144C08E0002406E0124C04E0002402E0104C00E00F4C0E4B9C4211D10C4B1868FFF700F90CE0094B1868FFF7FBF8002406E0074C04E0064C02E0D7
:402E8000054C00E0044C204638BD00BF407E020801018800C06E0208FF00420008B50248FFF784FA08BD00BFC442020800282FD010B5184A5060C36A03B193600024164B46
:402EC0001C70164B1C70164B1C60164B1C605C609C604FF6FF72144B1A8044222146134803F04AF807E004EB041293000F4A1344FF221A640134002CF5D000240C4B1C70E0
:402F000000F0A2FB0B4B1C700B4B1C70204610BD0A487047C06E0208707E0208747E0208C87E0208787E02083C7E0208847E0208717E02083E7E0208447E02080100160016
:402F400070B59AB03F4D15AC28686968AA68EB680FC4286920604C22002102A803F00CF8394B029315AB049341F64C63ADF8143005238DF81630354B5B681B69069340F2F7
:402F8000CE5307931B23ADF82030ADF8223003238DF8243004238DF8253006238DF8263010228DF8272001238DF828308DF829207222ADF84C208DF850302548FFF7C8F98D
:402FC00007F055FD08A807F0BDFD0346002836D1204B03931D4B5B68996B89B10B460DF12A0220311E685D689C68D868166055609460D060103310328B42F3D11B8813804F
:4030000002A807F047FD0346B0B90122124B1A700023124A1370124A13700C4B5B681A6A00929B6ADB88ADF804302623ADF8063068460FF0FDFE034600210A4A1160184644
:403040001AB070BD38910810494A0810C06E0208C4420208FC4D0208407E02084C7E02083F7E0208C87E0208014B9867704700BF00F03D4008B51CF06DFF034B1B680BB18F
:4030800000B1984708BD00BFCC6E020848B108B5B1F5FD7F07D20A46044902F062FF002008BD03487047024808BD00BF07080016010016002DE9F04FADF5077DB1F1805F2A
:4030C00003D38D189D4CA54210D9B1F1A05F03D38D189B4CA54209D99A4CA14240F20F818D1804F20124A54200F20E81049317460E468046944B5B6913F0804F10D0924BDD
:403100005C6904F00704022C24D10520FFF7D0FA00908E4B9842F8D002940123039323E04FF61C73884AD35803F01F034FF0B05292F84027D2B2D31A18BF012303937BB917
:403140000120FFF701FB814B9842F9D000900523029309E00294012303930023009303E00523029300230093794B009A9A4204D140F2D5117748FEF701FF06F17046730A36
:4031800001935C0200210320FDF7FCFE0028F9D10546824683E0B44213D3BD4211D218F805200DF1180E0EF8032041B904F180521278D2B218F805E0724500D001210135A0
:4031C00006E004F1805212780DF1180E0EF803200134013301E000210B46B3F5007FDAD3002959D0009B002B56D1049B002B48D14FF0C80B05955D46DDF804B00BF5002998
:403200004FEA49294846FDF7C5FC8246013D0120FEF7A8FE0AF4A403B3F5A40F01D1002DECD1059D4C4B9A4505D1FDF7AFFC4B4B9842FAD08246BAF1000F17D14FF0C80BDF
:403240005B46A3461C4606A94846FDF7F5FC8246013C0120FEF786FE0AF4A403B3F5A40F03D1002CEFD15C4600E05C463A4B9A4511D1FDF78BFC394B9842FAD082460120EB
:403280000AE0019B03F5002006A94002FDF730FC8246012000E00120019B01330193009B23B9BAF1000F01D1BD4294D308B1FEF773FE00210320FDF7A9FE0028F9D1009B1D
:4032C00033BB214B5B6913F0804F09D0029B022B06D10220FFF7ECF900901C4B9842F8D0194B1B6813F4000F12D1039B83B90020FFF72AFA0090154B9842F8D008E000233D
:403300000093DFF86CA003E000230093DFF860A0009B63B9124B9A450BD004339A4508D0BAF1000F01D1002004E00E4802E00E4800E00E480DF5077DBDE8F08F00001010CD
:4033400000800014FF0700160000264004004200030042004C9208100100500002005000020052001300160012001600010016000600520048B108B5B1F5FD7F07D20A46FE
:4033800001230449FFF796FE08BD03487047024808BD00BF070800160100160070B5C0B006460C4615464FF480720849684602F0D8FD05E016F8012B6A401DF80250013C4B
:4033C000002CF7D1284640B070BD00BF4C91081008B50022FFF7E2FF08BD00BF002070470288AE2303FB02F3A3F26F33024AA2FB0323DB080B807047CDCCCCCCB0F90020D6
:4034000042F64B0303FB02F3044A82FB0302DB17C3EB2233C3F1BD030B807047AD8BDB680020704708B515F081FC08BD08B5FEF799FD08BD084B1B685B6BB3F90030002B92
:4034400008DB590903F01F03012202FA03F3034A42F82130704700BFC46E020800E100E00A4B1B685B6BB3F90030002B0DDB5A0903F01F03012101FA03F32032044941F8A2
:403480002230BFF34F8FBFF36F8F7047C46E020800E100E0024BD3F8000500F00300704700002640024BD3F81C05C00F704700BF0000264008B5FEF7A7FC08BD70B504462C
:4034C0000D4616460320FDF7E5FD054B984205D0324629462046FEF7E5FB70BD014870BD0101880003004A00431A002BB8BF5B4293422BD310B4194BD3F83C35C3F30903F4
:40350000884207D9411A01EB5201B1FBF2F29A1A0FD50AE0091A01EB5201B1FBF2F21A4440F2FE318A4202D803E0002201E040F2FF320A4CD4F83C1521F47F7121F0030108
:40354000C2F309000143C4F83C1502E00023D81A7047981A5DF8044B704700BF0000264008B5034B1A684FF40041FFF7BDFF08BDDC42020810B5FFF7C3FA0220FFF774FDAB
:403580000A4C23680A49586BFEF7B2FC23685B6BB3F90030002B08DB590903F01F03012202FA03F3034A42F8213010BDC46E02087530081000E100E00420704708B5FEF7BE
:4035C00050FD08BD08B5FEF750FD08BD08B5FEF785FF08BD08B50021FEF788FE08BD00BF704700BF704700BF0020704700487047110016000048704711001600004870470F
:40360000110016000048704711001600004870471100160000487047110016000048704711001600004870471100160000487047110016000048704711001600004870475A
:4036400011001600704700BF08B5002335E003EB43018A001D498A5AAAB903EB0312910020311B4A11440022C1F80620C1F80A20C1F80E204A8203EB43018A0013490A44B3
:403680004FF4C051918003EB43018A000F490A44D2888AB903EB03118A0002F130010C4A0A4400215160118103EB43018A0007490A4441F6010151810133002BC7D0054846
:4036C00001F064FE044801F073FE08BD787E0208847E02087844020870440208F8B502284FD82A4B1B78002B4DD1294B1970D0B9284F3C68A36801EB4105AA009D18E6689A
:40370000162303FB01F31E44B6882E81A5681544E468E45A6C803C68A5682A44E46823445B8893801CE001281AD11A4F3C68A36801EB4105AA009D18E668162303FB01F339
:403740001E44B6892E81A5681544E4681C4424896C803C68A5682A44E46823445B8993800D4B18700B4B1B68986801EB41018B0018440BF05DF8034630B90121034A117045
:4037800002E0064B00E0064B1846F8BD3F7E02084D7E0208C46E0208717E020801001600FF00160008B5074B1B78022B07D10BF06DF8034620B90321024A117000E0024B4E
:4037C000184608BD3F7E0208FF00160010B50A4B1B78032B0DD10AF0C9FF0446074B5B7813B1064807F096FD24B90222024B1A7000E0034C204610BD407E0208487E020872
:40380000FF00160030B585B00546002422E0144B33F81430ADF804309DF8053013B9114AD35C00E00023012B13D90023029303930B4B13F814308DF80F3002A80CF0A6FB08
:4038400038B90622294602A802F07CFB08B9012003E00134002CDAD0002005B030BD00BF3C7E02084C7E020870B504460D46FFF7C9FF002859D1002C59D00022134606E03C
:403880002D49C95C012901D90132D2B20133002BF6D0012A4DD0294B1968886805EB4502930018444688264A1680868856808079107388680344DB791371C868162303FB90
:4038C00005F52844C389D381CB682B441B8A1382CB682B445B8A5382CB681D44AB8A93820023D3824FF6FF7111831E21154A517004E0E15C124A1A4451710133052BF8D9BA
:40390000A2790F4BDA720F4807F0E4FC044640B90B480AF03DFF044660B903220A4B1A7008E0084807F0F6FC04E0084C02E0084C00E0084C204670BD4C7E0208C46E0208FF
:40394000507E0208487E0208407E0208FF001600010016000200160070B504460FF082FA054620BB134B1968086A228902EB82029300143B03445A6812F0007F17D0E67B62
:403980001B695A68CB69D21A06EB4606B318A28821680948184402F0E4FAE37B074AD35C012B04D1064A137843F002031370284670BD00BFC46E02086C7E0208447E02089E
:4039C0003E7E020830B587B002891A4B1B685B699B889A4229D1044601AB07C883E807000022ADF81020A289ADF8122040228DF814201846FFF7B0FF054680B923681B78C5
:403A000003F002039BB22BB10B4B1B6821460B48984704E0084B1B68214609489847094A137803F0FE03137000E00025284607B030BD00BFC46E0208C86E020805000100F5
:403A400006000100707E02084288531E9BB2222B1AD84178D1B910B40F4B1868046A02EB82029300143B23445A6812F0007F0FD01B695A68C369D31A01EB41011944074B19
:403A80005B5A1380002004E0012070470120704700205DF8044B7047C46E02086C7E020870B582B0ADF80400C5B2FF2D1AD122E004EB0413244A02EB83031A6C234B13F8E9
:403AC00012309D420CD104EB04161F4B03EB860644220021304602F04FFAFF2333642146013401E00024FF210CB9FF29E0D0FF2914D0002013E044220021134802F03CFA63
:403B0000002307E003EB03110F4A02EB8102FF2111640133002BF5D0002000E00C4800230EE00A4A12F813109DF80420914206D1064AFF2102F8131002EB430251700133FA
:403B4000002BEED002B070BD847E02083C7E02080700160082B0ADF80400012000230EE003EB03118A0008490A44116C074A12F811109DF80420914200D1184601330BB9AC
:403B80000128EDD002B07047847E02083C7E020870B504460088FFF7DDFF237E012B37D100EB001293001B4A13445A6802EB4202510000EB400293000B44174A13449A88CF
:403BC00041F601039A4223D1228942F605239A4219D100EB001293000E4A1344DB8E6BB9E688114603011D18AA0015460A44D68622792B460B4483F8342004E0074B1B688D
:403C0000214607489847074A137803F0FE03137070BD00BF847E0208787E0208C86E02080D000100707E020810B504460088FFF791FF00EB00129300114A13445B68012B10
:403C40001DD1A28842F602139A4213D100EB001293000B4A13441B8F3BB9628800EB0010830007490B441A8704E0064B1B68214605489847054A137803F0FE03137010BD34
:403C8000847E0208C86E02080E000100707E020810B504460068FFF75DFF00EB00129300174A13445B68012B29D1A3683BB1020102449300124A13449A6801329A6000EB17
:403CC000001293000E4A13449B689BB90201024493000B4A1344DA8E013262805A6802EB4202510000EB400083000B44054A13445B88A380044A137803F0FE03137010BD0A
:403D0000847E0208787E0208707E020810B50446C068FFF71FFF90B900EB00139A00084B1A44D28E23899A4209D1064B1B68214605489847054A137803F0FE03137010BD5B
:403D4000847E0208C86E020807000100707E020810B504460088FFF7FDFE237E012B40F0BE8000EB001293005D4A13445B68002B40F0B580238942F60322934257D008D86E
:403D800042F60122934228D03CD8B3F5285F0FD0A0E042F6A622934273D042F6C922934200F0848042F60422934240F0938053E000EB001293004A4A1344DB8C3BB9E2884C
:403DC00000EB0010830046490B44DA8482E0454B1B682146444898477CE000EB001293003F4A13441B8D3BB9E28800EB001083003B490B441A856DE03A4B1B6821463A48C2
:403E0000984767E000EB00129300354A13445B8D3BB9E28800EB0010830031490B445A8558E0304B1B6821462F48984752E000EB001293002A4A13449B8D3BB9E28800EB99
:403E40000010830026490B449A8543E0254B1B682146254898473DE000EB00129300204A1344DB8D3BB9E28800EB001083001C490B44DA852EE01B4B1B6821461A489847A5
:403E800028E000EB00129300154A13441B8E3BB9E28800EB0010830011490B441A8619E0104B1B6821461048984713E000EB001293000B4A13445B8E3BB9E28800EB001000
:403EC000830007490B445A8604E0064B1B68214605489847054A137803F0FE03137010BD847E0208C86E02080D000100707E020830B583B004460378032B4FD14378807827
:403F000043EA0020FFF726FE0546002846D100EB00129300294AD35C002B3FD0B4F80130ADF800309DF8013013B9254AD35C00E00023033B032B1AD8DFE803F002080E14FB
:403F4000204B1B68611C2048984710E01D4B1B68611C1E4898470AE01A4B1B68611C1C48984704E0174B1B68611C1A48984705EB0515AB000021114AD154B4F80130ADF801
:403F800004309DF805301BB902210D4AD15405E023B940F286311048FDF7F0FF2378042B0AD10E4B1A78E3789A4205D10C4B1B78032B01D1FFF70AFC03B030BD847E02087C
:403FC0004C7E0208C86E020808000100090001000A0001000B00010094920810487E0208407E020800B583B00023ADF804308389ADF800300389ADF8023012238DF8043097
:40400000084B1B7813F0010F09D129B18DF8051068460EF051F802E0C0680EF06DF803B05DF804FB707E020810B4044688B10023194606E0114A52F82320944200D1012178
:4040400001330E4A127A934206D20029F2D0002003E000210A4800E0002058B951B9074B1B7A012B05D8054A42F823400133137200E004485DF8044B704700BFCC7E0208D0
:40408000010016000300160070B506460D460020044606E0084B53F824302946304698470134054B1B7A9C4204D2044B1B7813F0010FEFD170BD00BFCC7E0208707E02084B
:4040C00083792BB100207047C25C32B9013300E00023052BF8D9002070470120704700BF2DE9F04385B0044600230193029303930389ADF804308068FFF72CFD0546238955
:40410000ADF80030C3F3072313B9554AD35C00E00023032B40F0A080002D40F09D8005EB0513504A12F82330002B00F09580A788062F02D0142F40F08980B4F806800026FC
:404140007CE0494A137843F00103137023689A190292995B05EB0513424A02EB83035B8F99425CD305EB051302EB83039B8F994257D8062F4AD140E001228DF80C2009EB63
:40418000490205EB4501890001EB420237490A449088029A918888422CD109EB490005EB450E4FEA8E0E0EEB4000DFF8C0E03EF8000058B909EB490305EB4501890001EB2C
:4041C000430311684EF80310012313E0B9F1000F0AD1062209FB02200C2202FB0502234802449288914205D0214B1B6801A921489847012309F1010902E04FF000094B4645
:40420000B9F1010F0ED8002BB6D00BE002238DF80C3001A91848FFF737FF002302E0002300E000234BB9104B1B7813F0010F04D00F4B1B6801A9114898473E44464580D303
:40424000094A137803F0FE03137005E0084B1B6804F108010A48984705B0BDE8F08300BF4C7E0208847E0208707E0208787E0208C86E02080C0001002F010100120001000A
:40428000080001002DE9F04F8BB006468068FFF761FC002840F0F580804600EB00137A4A12F82330002B00F0EC80B588F78834683389ADF80430C3F3072313B9734AD35C20
:4042C00000E00023052B51D13389ADF80C30002644E06F4A137843F0010313702378627843EA0223ADF80E30A3788DF81030E378227943EA0223ADF8123004F10508152D87
:404300000FD102238DF824300DF1140E234653F8050F59689A68DB68AEE80F0004F115080CE0072D0AD101238DF824306379A27943EA0223ADF8143004F10708152D01D0B9
:40434000072D09D103A8FFF703FD03A8FFF720FC03A95048FFF798FE2E444446BE42B8D34B4A137803F0FE0313708AE03389ADF80830C3F3072313B9444AD35C00E0002374
:40438000042B7ED13389ADF80C304FF0000AD1466DE03F4A137843F0010313702378627843EA0223ADF80E30A378E27843EA0223ADF810302379627943EA0223ADF8123061
:4043C00004F1060B062D1AD13389ADF8003002238DF8243068460DF051F808EB08142A4B03EB84040C340DF10C0EBEE80F000FC49EE8070003C422804FF0010A31E0082DB6
:404400002FD101238DF82430A379E07943EA0020ADF8140004F1080B002120E001EB410308EB4802920002EB43031B4A13449B88834213D101EB410308EB4802920002EB35
:404440004303154AD35A4BB901EB410108EB48039B0003EB41010498505002E001310129DCD903A90D48FFF70FFEA9445C46B94502D2BAF1000F8CD0054A137803F0FE03B7
:4044800013700BB0BDE8F08F847E02084C7E0208707E020831010100787E020830010100F0B589B004468068FFF754FB0023ADF80A302389ADF80430C3F3072313B9284A63
:4044C000D35C00E00023062B48D1002846D100EB0010244B13F82030002B3FD0A688A37A8DF81C302289ADF80820012B01D1042700E012272468002529E01B4A137843F04F
:40450000010313702378627843EA0223ADF80A309DF81C30022B0BD10DF10C0E234653F8020F59689A68DB68AEE80F00123406E0A378E27843EA0223ADF80C30043402A826
:40454000FFF772FB02A90948FFF79EFD3D44B542D3D3054A137803F0FE03137009B0F0BD4C7E0208847E0208707E02083201010030B589B0ADF804000D460198FFF7EAFADD
:404580000446002305930693BDF80430ADF814300795464A137843F0010313700023ADF81630ADF8183045B904EB0413404A02EB830300225A609A60012505A8FFF768FB1C
:4045C00005A93C48FFF760FDBDF8163013B1BDF818305BB904EB0413354A02EB83035A6801325A6000229A60079201E001230793BDF8161004EB04132D4A02EB83035B8FB6
:4046000099420DD904EB0412294800EB8202928F914205D8BDF81820934201D8914207D904EB0413224A02EB83035B68012BB0D904EB04131E4A02EB83035B68012B16D89A
:40464000DDF816000390BDF80430ADF8103003A80CF050FE38B3184B1B6801A91748984704EB0414A3000021114AD1541BE0BDF80430ADF80C30C3F307231BB90721104AFA
:40468000D15405E023B940F286310E48FDF776FC094B1B6801A90C48984704EB0414A4000022034B1A5509B030BD00BF707E0208847E020833010100C86E02080B00010047
:4046C0004C7E0208949208101300010030B589B0ADF804000D460198FFF73CFA044645B100EB00133E4A02EB83035A6801325A600EE000EB00133A4A02EB830300225A600E
:4047000006E004EB0412364901EB82020133536004EB0413324A02EB83035B68012B17D803EB430204EB4401890001EB42022D49885A04EB04122A4901EB8202528F9042D2
:40474000DFD304EB041201EB8202928F9042D8D8012B23D800220392049205920692079203EB430304EB4402920002EB43031D4AD0580290BDF80430ADF81D3002A80CF063
:40478000DDFD50B3184B1B6801A91848984704EB0414A3000021124AD1541EE0144B1B7813F0100F04D0104B1B6801A911489847BDF80430ADF80830C3F307231BB90621BA
:4047C0000D4AD15405E023B940F286310B48FDF7D5FB00210198FFF7CBFE09B030BD00BF847E0208787E0208C86E02080A000100707E0208110001004C7E0208949208102B
:4048000030B589B0ADF804000D460198FFF7A2F9044645B100EB00133E4A02EB83035A6801325A600FE000EB00133A4A02EB830300225A60DA8106E004EB0412354901EBDC
:4048400082020133536004EB0413324A02EB83035B68012B17D803EB430204EB4401890001EB42022C49885A04EB0412294901EB8202528F9042DFD304EB041201EB8202C2
:40488000928F9042D8D8012B23D800220392049205920692079203EB430304EB4402920002EB43031C4AD0580290BDF80430ADF81D3002A80CF08AFD50B3184B1B6801A930
:4048C0001748984704EB0414A3000021114AD1541EE0144B1B7813F0100F04D00F4B1B6801A911489847BDF80430ADF80830C3F307231BB905210D4AD15405E023B940F27B
:4049000086310B48FDF73AFB00210198FFF7DEFE09B030BD847E0208787E0208C86E020809000100707E0208100001004C7E02089492081000B585B0ADF804000198FFF77F
:4049400009F900285AD100EB00132E4A12F82330002B53D0BDF80430ADF80830C3F3072313B9294AD35C00E00023033B032B45D8DFE803F00227313B244B1B7813F0100FAE
:4049800004D0234B1B6801A922489847BDF80430ADF80C30C3F307231BB904211A4AD15405E023B940F286311B48FDF7E7FA00210198FFF725FF154A137803F0FE031370FC
:4049C0001CE001210198FFF71BFF104A137803F0FE03137012E001210198FFF777FE0B4A137803F0FE03137008E001210198FFF7BFFD064A137803F0FE03137005B05DF874
:404A000004FB00BF847E02084C7E0208707E0208C86E02080F0001009492081010B504460088FFF797F858B900EB00139A00054B9B5C2BB163790A2B02D12088FFF77AFF6F
:404A400010BD00BF847E020870B58EB004460D46C94A137843F00103137045F20303984200F0928370D8B0F5804F00F0978336D841F20403984200F0578417D841F2010351
:404A8000984200F0518105D8B0F5805F00F0C98000F04FBC41F20203984200F04D8141F20303984200F0978100F043BC43F20103984200F0008106D842F20403984200F084
:404AC000098100F036BC43F21203984200F0F38043F21903984200F09B8000F02ABC44F20B03984200F04E8218D844F20703984200F0FD8106D844F20403984200F07F817C
:404B000000F017BC44F20803984200F0378244F20A03984200F0E88100F00BBCB0F5A04F00F09E8305D844F21003984200F0DF81FFE345F20103984200F0628245F20203C5
:404B4000984200F0EF82F4E345F20F03984200F060832ED845F20A03984200F0738316D845F20603984200F0698305D845F20503984200F05F83DCE345F20703984200F0AD
:404B80006B8345F20903984200F08883D1E345F20C03984200F00583C0F0838345F20D03984200F0818345F20E03984200F02E83BFE345F21403984200F0318311D845F287
:404BC0001103984200F07383C0F0268345F21203984200F04D8345F21303984200F04B83A7E345F21703984200F01C8305D845F21603984200F05E839BE345F218039842F7
:404C000000F0238346F20103984200F0F68190E3084606F0DBF8584A137803F0FE03137087E3564B1E683046FFF74AFA18B130460AF096FD2DE0524B1A68936A1B791BB39B
:404C40004FF0B05191F8043603F03F0391F8050600F03F0043EA801391F8030600F01F0043EA003391F8001601F07F0143EA4143126B1370424A1168096BC3F307204870A9
:404C80001268126B1B0C93703D4B1B68186B0AF067FD3B4B1B68986A02300BF08FF9394A07AB1068516803C307A80AF07DFD0222354B1A703DE30023334A1370334A137067
:404CC000334A137043F212039C4240F03283FEF7E5F82EE32F4B1B6813F0010F40F029830023ADF81C308DF81E30254E33689B6A93F900308DF81C3007A80AF06FFD3368A1
:404D00009B6A93F901308DF81C3001238DF81D30FF238DF81E3007A80AF060FD1D4A136843F00103136004E30846FFF7E1F829462046FFF7A9F9FCE24978174B1B88ADF8A9
:404D40001C3000232FE0154A32F81320ADF810209DF8112012B91248825C00E00022012A20D90E4A12F8132091421BD10B4A32F81330ADF81C3018E0707E0208E042020812
:404D8000C46E020888920810407E02083F7E0208E46E0208C87E0208909208103C7E02084C7E02080133002BCDD09DF81D30FF2B05D104D140F2CA31A948FDF7DFF8BDF827
:404DC0001C30ADF82830ADF82430C3F307232978A44AD154ADE20B78002B40F0AA820B7A3BB9A14B0322DA8028229A809F4A1A604B609F4A137803F0FE03137099E24979C6
:404E00009C4B1B88ADF81C30002319E09A4A32F81320ADF814209DF8152012B99748825C00E00022012A0AD9934A12F81320914205D1914A32F81330ADF81C3002E001334D
:404E4000002BE3D09DF81D30FF2B05D104D140F2CA318348FDF792F8BDF81C30ADF82C30ADF81C30C3F307236978854AD154EB78002B40F05E8269797E4B1B88ADF81C30A2
:404E8000002319E07C4A32F81320ADF818209DF8192012B97948825C00E00022012A0AD9754A12F81320914205D1734A32F81330ADF81C3002E00133002BE3D09DF81D30F8
:404EC000FF2B05D104D140F2CA316548FDF756F8BDF81C30ADF83030ADF81C30C3F307230121684AD15424E2FFF7CEF821E2AB7E002B3FD1644B5B7813B1634806F00AFADD
:404F0000E97E5C4B1B88ADF81830002319E05A4A32F81320ADF81C209DF81D2012B95748825C00E00022012A0AD9534A12F81320914205D1504A32F81330ADF8183002E052
:404F40000133002BE3D09DF81930FF2B05D104D140F2CA314248FDF711F8BDF81830ADF83430ADF81830C3F30723FF2B02D0297E464AD1540222464B1A70DAE10222444BE0
:404F80001A70D6E1FFF780F8394B1B7813F0010F00F0CF813F4B1B78012B03D102223D4B1A70C6E1032B03D100223A4B1A70C0E1022B40F0BE810022364B1A70364B1B683D
:404FC000DA68364B1978162303FB01239A79002A00F0AF819B88002B00F0AB81304B1B78002B40F0A6810120FEF778FB002840F0A0810122274B1A709BE1FFF745F898E162
:405000000B88ADF800309DF8013013B91B4AD35C00E00023012B13D129786B78164A12F8132091420CD11BB90721144AD15444E0002B42D140F286310948FCF79FFF3CE036
:405040002B78687843EA0020FEF72AFD2B88ADF804309DF805302BBB0221084AD15427E094920810747E0208EC6E0208486C0208707E0208909208103C7E02084C7E020841
:40508000447E0208E46E0208487E0208E86E0208407E02083F7E0208C46E02084D7E0208717E020823B940F28631AA48FCF766FF6A782988A84B23F812106B780021A74A38
:4050C000D15403EB4301A64E8819A64B1B681B692A7802EB420202F5B962134433F8062F9B788A538370687800EB400002213044FEF76EF96B7803EB430333449B789842D4
:405100000BD0994B1B680021984898476B7803EB4303981900229A53827029462046FEF7B3FF06E10B88ADF808309DF8093013B98F4AD25C00E00022072A0BD11BB901210B
:405140008B4AD15417E0B3B940F286318148FCF715FF10E01BB90021854AD15405E023B940F286317B48FCF709FF2B78687843EA0020FEF795FC6B7800217E4AD154294622
:405180002046FEF781FFD4E00B88ADF81C301723ADF81E3007A80CF09BFFCAE0FEF774FFC7E00846FEF70EFC014620B929462046FEF76AFF01462846FEF714FF6E4B1B7808
:4051C00013F0110F04D0684B1B682946204698472A89694B1B7813F0010F11D0531E9BB2222B0DD912238DF82030ADF81E20AB89ADF81C3001238DF8213007A80CF05CFFDD
:405200005D4A137803F0FE03137092E0FEF73CFF8FE0FEF739FF8CE0FEF736FF89E0FEF733FF86E00846FEF70FFC29462046FEF72BFF7EE00846FEF753FF7AE00846FFF728
:4052400021F876E0FEF720FF73E00B78487843EA0020FFF76FFB6CE00846FFF721F968E00846FFF7DBFB29462046FEF70DFF60E0FEF70AFF5DE00846FEF748FD29462046AE
:40528000FEF702FF3C4B1B7813F0010F51D1AB890EA820F81C3D0CF021F84AE0FEF7F4FE47E0FEF7F1FE44E0FEF7EEFE41E0FEF7EBFE3EE00B78487843EA0020FEF74AFC30
:4052C00006462B88ADF80C309DF80D3013B9284AD35C00E00023042B2BD156BB06EB0613264A12F8233023B306EB0612234B03EB82031B8AADF81C302B88ADF81E3007A8CE
:405300000CF0AEF850B1184B1B6829461C489847442303FB06F60022184B9A55164A137803F0FE03137004E0164A137843F001031370114B1B7813F0110F09D00E4A1378A4
:4053400003F0FE031370084B1B682946204698470EB070BD949208103C7E0208747E02086C7E0208C46E0208C86E0208040001004C7E0208E46E0208707E0208847E02089A
:40538000090001003E7E02080020704730B108B5034A10600348FEF747FE08BD02487047F86E020889530810010016000020704730B108B5034A10600348FEF735FE08BDBB
:4053C00002487047FC6E0208AD5308100100160070B539B900240AE015F8010BFBF760FA013402E016460D460024B442F4DB204670BD00BF70B561B900240FE0FBF75CFAE4
:40540000C0B2287001340A2808D00D2806D0013502E016460D460024B442EFDB204670BD08B518B1094AD062002000E0084858B9084B1B782BB90548FDF738FD0122054BBB
:405440001A7008B9FDF77CFD08BD00BFE442020801001600006F020881F0004102E000BF83F0004330B54FEA41044FEA430594EA050F08BF90EA020F1FBF54EA000C55EAF8
:40548000020C7FEA645C7FEA655C00F0E2804FEA5454D4EB5555B8BF6D420CDD2C4480EA020281EA030382EA000083EA010180EA020281EA0303362D88BF30BD11F0004FF0
:4054C0004FEA01314FF4801C4CEA113102D0404261EB410113F0004F4FEA03334CEA133302D0524263EB430394EA050F00F0A780A4F10104D5F1200E0DDB02FA0EFC22FA90
:4055000005F2801841F1000103FA0EF2801843FA05F359410EE0A5F120050EF1200E012A03FA0EFC28BF4CF0020C43FA05F3C01851EBE37101F0004507D54FF0000EDCF143
:40554000000C7EEB00006EEB0101B1F5801F1BD3B1F5001F0CD349085FEA30004FEA3C0C04F101044FEA445212F5800F80F09A80BCF1004F08BF5FEA500C50F1000041EB7B
:40558000045141EA050130BD5FEA4C0C404141EB010111F4801FA4F10104E9D191F0000F04BF01460020B1FA81F308BF2033A3F10B03B3F120020CDA0C3208DD02F1140CB9
:4055C000C2F10C0201FA0CF021FA02F10CE002F11402D8BFC2F1200C01FA02F120FA0CFCDCBF41EA0C019040E41AA2BF01EB0451294330BD6FEA04041F3C1CDA0C340EDCF2
:4056000004F11404C4F1200220FA04F001FA02F340EA030021FA04F345EA030130BDC4F10C04C4F1200220FA02F001FA04F340EA0300294630BD21FA04F0294630BD94F017
:40564000000F83F4801306BF81F480110134013D4EE77FEA645C18BF7FEA655C29D094EA050F08BF90EA020F05D054EA000C04BF1946104630BD91EA030F1EBF0021002068
:4056800030BD5FEA545C05D14000494128BF41F0004130BD14F580043CBF01F5801130BD01F0004545F0FE4141F470014FF0000030BD7FEA645C1ABF194610467FEA655CC5
:4056C0001CBF0B46024650EA013406BF52EA033591EA030F41F4002130BD00BF90F0000F04BF0021704730B54FF4806404F132044FF000054FF0000150E700BF90F0000F95
:4057000004BF0021704730B54FF4806404F1320410F0004548BF40424FF000013EE700BF42004FEAE2014FEA31014FEA02701FBF12F07F4393F07F4F81F06051704792F0E3
:40574000000F14BF93F07F4F704730B54FF4607401F0004521F0004120E700BF50EA010208BF704730B54FF000050AE050EA010208BF704730B511F0004502D5404261EB9C
:4057800041014FF4806404F132045FEA915C3FF4DCAE4FF003025FEADC0C18BF03325FEADC0C18BF033202EBDC02C2F1200300FA03FC20FA02F001FA03FE40EA0E0021FAAF
:4057C00002F11444C1E600BF70B54FF0FF0C4CF4E06C1CEA11541DBF1CEA135594EA0C0F95EA0C0F00F0DEF82C4481EA030621EA4C5123EA4C5350EA013518BF52EA03355C
:4058000041F4801143F4801338D0A0FB02CE4FF00005E1FB02E506F00042E0FB03E54FF00006E1FB03569CF0000F18BF4EF0010EA4F1FF04B6F5007F64F5407404D25FEA3C
:405840004E0E6D4146EB060642EAC62141EA55514FEAC52040EA5E504FEACE2EB4F1FD0C88BFBCF5E06F1ED8BEF1004F08BF5FEA500E50F1000041EB045170BD06F0004650
:4058800046EA010140EA020081EA0301B4EB5C04C2BFD4EB0C0541EA045170BD41F480114FF0000E013C00F3AB8014F1360FDEBF002001F0004170BDC4F10004203C35DA26
:4058C0000C341BDC04F11404C4F1200500FA05F320FA04F001FA05F240EA020001F0004221F0004110EBD37021FA04F642EB06015EEA430E08BF20EAD37070BDC4F10C04C1
:40590000C4F1200500FA04F320FA05F001FA04F240EA020001F0004110EBD37041F100015EEA430E08BF20EAD37070BDC4F1200500FA05F24EEA020E20FA04F301FA05F2DD
:4059400043EA020321FA04F001F0004121FA04F220EA020000EBD3705EEA430E08BF20EAD37070BD94F0000F0FD101F00046400041EB010111F4801F08BF013CF7D041EADD
:40598000060195F0000F18BF704703F00046520043EB030313F4801F08BF013DF7D043EA0603704794EA0C0F0CEA135518BF95EA0C0F0CD050EA410618BF52EA4306D1D1DD
:4059C00081EA030101F000414FF0000070BD50EA410606BF1046194652EA430619D094EA0C0F02D150EA013613D195EA0C0F05D152EA03361CBF104619460AD181EA0301B1
:405A000001F0004141F0FE4141F470014FF0000070BD41F0FE4141F4780170BD70B54FF0FF0C4CF4E06C1CEA11541DBF1CEA135594EA0C0F95EA0C0F00F0A7F8A4EB05045D
:405A400081EA030E52EA03354FEA013100F088804FEA03334FF0805545EA131343EA12634FEA022245EA111545EA10654FEA00260EF000419D4208BF964244F1FD0404F5B8
:405A8000407402D25B084FEA3202B61A65EB03055B084FEA32024FF480104FF4002CB6EB020E75EB030E22BFB61A754640EA0C005B084FEA3202B6EB020E75EB030E22BFBD
:405AC000B61A754640EA5C005B084FEA3202B6EB020E75EB030E22BFB61A754640EA9C005B084FEA3202B6EB020E75EB030E22BFB61A754640EADC0055EA060E18D04FEA99
:405B0000051545EA16754FEA06164FEAC30343EA52734FEAC2025FEA1C1CC0D111F4801F0BD141EA00014FF000004FF0004CB6E711F4801F04BF01430020B4F1FD0C88BF69
:405B4000BCF5E06F3FF6AFAEB5EB030C04BFB6EB020C5FEA500C50F1000041EB045170BD0EF0004E4EEA113114EB5C04C2BFD4EB0C0541EA045170BD41F480114FF0000EA8
:405B8000013C90E645EA060E8DE60CEA135594EA0C0F08BF95EA0C0F3FF43BAF94EA0C0F0AD150EA01347FF434AF95EA0C0F7FF425AF104619462CE795EA0C0F06D152EA78
:405BC00003353FF4FDAE1046194622E750EA410618BF52EA43067FF4C5AE50EA41047FF40DAF52EA43057FF4EBAE12E74A0011D212F5001211D20DD56FF47873B3EB62522C
:405C00000ED44FEAC12343F0004343EA505323FA02F070474FF00000704750EA013002D14FF0FF3070474FF00000704753B94AB9002908BF00281CBF4FF0FF314FF0FF302B
:405C400000F07EB9ADF1080C6DE904CE00F006F8DDF804E0DDE9022304B070472DE9F0478C460E460446089D002B50D18A4217466CD9B2FA82FEBEF1000F0BD0CEF1200462
:405C800020FA04F401FA0EF644EA060C02FA0EF700FA0EF44FEA1749220CBCFBF9F01FFA87F809FB10C642EA064600FB08F3B34209D9F61900F1FF3280F02281B34240F20D
:405CC0001F8102383E44F61AA2B2B6FBF9F309FB136642EA064403FB08F8A04509D9E41903F1FF3280F00A81A04540F20781023B3C44C8EB040443EA00400021002D62D06E
:405D000024FA0EF400232C606B60BDE8F0878B4207D9002D55D0002185E841000846BDE8F087B3FA83F1002940F09080B34202D3824200F2F880841A66EB03060120B446E0
:405D4000002D40D085E81010BDE8F08712B90127B7FBF2F7B7FA87FEBEF1000F35D1F31B4FEA17481FFA87FC0121B3FBF8F0220C08FB103642EA06460CFB00F3B34207D9FD
:405D8000F61900F1FF3202D2B34200F2CE801046F61AA2B2B6FBF8F308FB136642EA06440CFB03FCA44507D9E41903F1FF3202D2A44500F2B5801346CCEB040443EA004007
:405DC0009CE729462846BDE8F087CEF1200106FA0EF307FA0EF720FA01F94FEA1748CE4049EA0309B6FBF8FA4FEA194408FB1A661FFA87FC44EA06430AFB0CF29A4200FA9F
:405E00000EF40AD9DB190AF1FF3180F087809A4240F28480AAF1020A3B449B1A1FFA89F9B3FBF8F108FB113349EA034301FB0CF69E4207D9DB1901F1FF326BD29E4269D9D4
:405E400002393B449B1B41EA0A418EE7C1F1200E22FA0EF48B40234320FA0EF706FA01F44FEA134C26FA0EF63C43B6FBFCF9270C0CFB19661FFA83F847EA064609FB08F7D6
:405E8000B74202FA01F200FA01FA08D9F61809F1FF3041D2B7423FD9A9F102091E44F61BA0B2B6FBFCF40CFB146640EA064704FB08F8B84507D9FF1804F1FF3028D2B845B8
:405EC00026D9023C1F4444EA0940C8EB0707A0FB02894F4544464E4614D329D065B3BAEB040367EB060707FA0EFECB40CF404EEA030385E888000021BDE8F0871346F8E621
:405F00001046E0E6B8EB020469EB03060138E5E70446D8E7114695E78146C0E78A467CE7023B3C4448E708460AE702383E442FE7C245E7D33E46D1E72946BDE8F08700BF79
:405F4000704700BF10B501390244904207D010F8013B11F8014FA342F7D0181B10BD002010BD10B5431E0A44914204D011F8014B03F8014FF8E710BD02440346934202D0EA
:405F800003F8011BFAE770472DE9F04788B0002B149F1299109EDDF84CA01D4627F02007BBBF03F100431D4600232D231446B8BF1446462F0B7003D0452F03D1013601E03F
:405FC000032300E0022307AA049206AA03928DE8480422462B4600F033FE472F804602D1119BDB0728D5462F08EB060911D198F80030302B0AD1002200232046294602F03A
:40600000E1FB18B9C6F10106CAF80060DAF800309944002200232046294602F0D3FB08B9302202E0CDF81C9006E0079B994503D9591C07911A70F8E7079B159AC8EB0303F2
:406040004046136008B0BDE8F08773B503460029B8BF494203F8022BB4BF2D222B220929427019DD0DF1070216460A2591FBF5F405FB14113031092C02F8011D2146F5DC94
:406080003031541E02F8011CB4421A460AD214F8012B03F8012BF7E730241A46214402F8024B5970101A02B070BD00002DE9F04F91B00C46DDF8688016461F46054601F0B3
:4060C000D7FC03680893184600F04AFC00230E93D8F800300990073323F0070303F1080294F818A0D4F800B0C8F80020D3E90023C4E91223D4E9128929F000430B93CDF809
:4061000028804FF0FF32A74BDDE90A0102F08CFBA0B94FF0FF32A34BDDE90A0102F066FB60B9002200234046494602F055FB10B12D2384F843309C4B9C4A0AE042464B46AB
:406140004046494602F070FB002800F09281984B984ABAF1470F8CBF90469846032323612BF0040323604FF000093DE0BAF1670F00F08A81BAF1470F00F086812360002151
:406180000DF133020193636805900292009342464B460691CDF810A0CDF80CE02846FFF7F3FE0AF0DF03472B804600F08481BAF1650F0D9900F28D810139524604F1500081
:4061C0000D91FFF742FF0E9A8318012A8146236100F37C812268D10700F178819DF8333013B12D2384F84330009733460FAA2146284600F09FF9013002D14FF0FF3096E1CB
:4062000023685A0501D4236965E0BAF1650F40F2D58000220023D4E9120102F0D3FA78B30123654A31462846B8470130E5D00E9B0D9A9A420BDB2368D80708D423689B0707
:4062400040F111814FF0000804F1190906E1099B089A31462846B8470130CED04FF0000804F11A090E9B013B9845E7DA01234A4631462846B8470130BFD008F10108F1E709
:406280000D9B002B29DC01234B4A31462846B8470130B2D00D9B23B90E9B13B92368D907CCD5099B089A31462846B8470130A4D04FF0000904F11A0A0D9B5B42994509DA7B
:4062C0000123524631462846B847013095D009F10109F1E70E9B4246A7E00E9AA36D9A42A8BF1A46002A914606DC4FF0000A29EAE97904F11A0B11E0134631464246284607
:40630000B8470130F1D178E701235A4631462846B84701303FF471AF0AF1010AA36DC9EB03029245F0DB08EB03090D9A0E9B9A420FDB2368DA070CD40E9B0D9A9844C9EB2E
:4063400008089B1A9845A8BF9846B8F1000F08DC0FE0099B089A31462846B8470130EBD14BE743464A4631462846B84701303FF444AF4FF0000928EAE87804F11A0A09E052
:406380000123524631462846B84701303FF435AF09F101090D9A0E9B9B1AC8EB03039945EEDB4BE7FFFFEF7FBCA50810C0A50810C4A50810C8A50810CCA508100E9A012A96
:4063C00001DCDB0738D50123424631462846B84701303FF412AF099B089A31462846B84701303FF40AAF00220023D4E9120102F0E9F920B14FF0000804F11A0A0EE00E9B24
:4064000008F10102013B19E00123524631462846B84701303FF4F1AE08F101080E9B013B9845F1DB4B4604F1500231462846B84701307FF403AFE0E601234246314628468F
:40644000B8470130EED1D8E601234A4631462846B84701303FF4D1AE08F10108E3680F9A9B1A9845F0DBE0680F9B9842B8BF18465DE06268531C0EA84BF480630DF1340E72
:406480007FF474AE062201E012B90122626075E6002106910DF133018DE80C00236005904246CDF810A0CDF80CE002914B462846FFF76AFD80460D9BD81C02DB6268934235
:4064C0001DDDAAF1020A5FFA8AFA70E60133236184E6BAF1660F14D10029636807DD216113B92268D2071DD501330B4419E013B92268D00701D5023313E0012311E04FF02B
:40650000670A0D9B0E9A934205DB22682361D10708D5013305E0002BD4BFC3F102030123134423610D9BA3654FF0000956E611B0BDE8F08F2DE9F04791461F460A698B688B
:40654000DDF820809342B8BF1346C9F8003091F8432006460C4612B10133C9F800302368990642BFD9F800300233C9F80030256815F0060510D104F1190A07E00123524613
:4065800039463046C04701301AD00135E368D9F800209B1A9D42F1DB94F843302268003318BF012392060FD5E1185A1C302081F84300224494F8451082F84310023303E018
:4065C0004FF0FF30BDE8F08704F1430239463046C0470130F4D02268D9F80050E36802F00602042A08BF5D1B2269A3680CBF25EAE57500259342C4BF9B1AED184FF0000940
:406600001A344D4509D00123224639463046C0470130D5D009F10109F3E70020BDE8F0872DE9F04317460A7E85B06E2A984606460C460C9B01F1430E00F0AE8011D8632A34
:4066400022D009D8002A00F0BB80582A40F0CA8081F84520834955E0642A1ED0692A1CD0C0E0732A00F0B08009D86F2A2ED0702A40F0B8800A6842F020020A603EE0752A58
:4066800024D0782A3AD0ADE01A6801F14205111D1960136884F84230A8E021681A6811F0800F02D0111D196008E011F0400F02F10401196002D0B2F9003000E01368002B6A
:4066C0003CDA2D225B4284F8432037E021681A6811F0800F02D0111D196007E011F0400F02F10401196001D0138800E01368227E5C496F2A14BF0A2208221BE078225A49E0
:4067000084F845202268186812F0800F00F104051D6003D1550601D5038800E00368D00744BF42F0200222601BB9226822F0200222601022002084F8430001E049490A2217
:406740006568A560002D08DB206820F0040020602BB9002D7DD175460CE0002B79D07546B3FBF2F002FB1033CB5C05F8013D03460028F5D1082A0BD12368DA0708D523699A
:4067800062689A42DEBF302305F8013C05F1FF35C5EB0E0323612EE008681A68496910F0800F03D0101D1860136808E010F0400F02F104001860136801D0198000E0196082
:4067C00000232361754616E01A68111D1960156862680021284601F0BBF908B1401B6060636804E004F1420584F8422001232361002384F84330CDF800803B4603AA21466C
:406800003046FFF797FE013002D14FF0FF3026E023692A4639463046C0470130F5D023689B0710D5002504F1190907E001234A4639463046C0470130E7D00135E368039A06
:406840009B1A9D42F2DBE068039B9842B8BF184605E00B7884F8423004F142058AE705B0BDE8F083CEA50810DFA508100FB40A4B13B51C6824B1A36913B9204601F06EF85D
:4068800005AB049AA1680193204601F06BFD02B0BDE8104004B070478847020870B50E46054618B183690BB901F058F8AB69AC6813B9284601F052F8224B9C4201D16C6837
:4068C00008E0214B9C4201D1AC6803E01F4B9C4208BFEC68A3891B0701D523693BB92146284600F0ADF810B14FF0FF3070BD013EA36816F8011F013BA36091B1002B04DACE
:40690000A269934206DB0A2904D023685A1C22601970EDE72246284600F03EF80130E7D1E2E7002B08DA22460A21284600F034F80130D9D00A2070BD23680A205A1C2260F9
:40694000187070BD00A6081020A6081040A60810024B01461868FFF7A1BF00BF88470208034613F8012B002AFBD1181A0138704710B5034642B111F8014B03F8014B013A56
:40698000002CF7D11A4400E010BD934202D003F8014BFAE710BD0000F8B50F461446064618B183690BB900F0D9FF224B9C4201D1746808E0204B9C4201D1B46803E01F4BEE
:4069C0009C4208BFF468A369A360A3891A0709D523693BB123682069181A63699842FDB20FDB08E02146304600F02AF80028F1D04FF0FF30F8BD2146304600F045FF002843
:406A0000F6D1A368013BA36023685A1C22601F706269431C934204D0A389DB0707D50A2D05D12146304600F02FFF0028E0D12846F8BD00BF00A6081020A6081040A6081019
:406A4000324B70B51D6806460C4625B1AB6913B9284600F083FF2E4B9C4201D16C6808E02C4B9C4201D1AC6803E02B4B9C4208BFEC68B4F90C309AB215071DD4D00602D45B
:406A8000092232603AE0510712D5616B41B104F14403994202D0304601F08EFB00236363A38923F02403A3810023636023692360A38943F00803A38123694BB9A38903F480
:406AC0002073B3F5007F03D02146304600F0F8FFA28912F0010305D00023A36063695B42A36103E0920758BF6369A36023695BB9B4F90C3003F0800080B230B143F04003C5
:406B0000A3814FF0FF3070BD002070BD8847020800A6081020A6081040A608102DE9F74F03690C699C42804600F38380013C01F114074FEA840E00F1140657F8245006EB2B
:406B40000E030193013556F82430B3FBF5F507EB0E09002D39D04FF0000A3846B446D34650F8042B93B205FB03A34FEA134A9BB2C3EB0B03120CBCF800B005FB02A213FAB3
:406B80008BF34FEA124A1FFA82FBDCF80020CBEB124202EB23429BB243EA024381454FEA224B4CF8043BDBD256F80E306BB9019B043B9E421A4602D3C8F8104005E0126872
:406BC000043B002AF8D1013CF3E7404601F01DFA00282CDB013530464FF0000E57F8041BD0F800C08AB2C2EB0E03090C13FA8CF3C1EB1C4202EB23429BB243EA0243B945EC
:406C00004FEA224E40F8043BE8D256F8242006EB840362B9043B9E421A4602D3C8F8104005E01268043B002AF8D1013CF3E7284600E0002003B0BDE8F08F00000000000004
:406C40002DE9F04F456A97B08246239CCDE9022345B9102000F070FFCAF82400456085600560C560DAF82430196859B15A684A60012393408B60504600F0EFFFDAF8243047
:406C800000221A60039BA04A002BBFBF01232360039B23F00043B8BF0393DDF80C80A4BF0023236028F000431B0D1B0593421DD1229A42F20F731360029B43B9934A944B55
:406CC000C8F31300002814BF1846104600E09048249B002B00F04A85C37813B100F1080300E0C31C249A136000F040BDDDE90245002200232046294601F064FD074658B10F
:406D0000229A01231360249B002B00F0228581481860013800F02ABD14AB019315AB009322462B46504601F0EBF9C8F30A56059056B1C5F3130343F07F51204641F44011D0
:406D4000A6F2FF3611971DE0159B149E1E4406F23243202B0ADD029A06F21240C3F1400322FA00F008FA03F3184304E0C3F12000029B03FA00F0FEF7B1FC0123A1F1F871FF
:406D8000013E11930022644BFEF76AFB58A3D3E90023FEF719FD58A3D3E90023FEF762FB044630460D46FEF7A9FC55A3D3E90023FEF70AFD02460B4620462946FEF752FB84
:406DC00004460D4601F046FD0022834600232046294601F001FD58B15846FEF78FFC02460B462046294601F0EDFC08B90BF1FF3BBBF1160F0DD8494901EBCB01DDE902239F
:406E0000D1E9000101F006FD30B10BF1FF3B002300E00123109300E01090149B9E1B731E089343BFC3F10009002308934FF00009BBF1000F07DB089BCDF834B05B440893C6
:406E40000023099306E0CBF1000309930023CBEB09090D93209B092B27D8052BC4BF043B2093209BA3F10203CCBF00250125032B20D8DFE803F0060E0204012302E00123A6
:406E800008E000230C93219B002B1CDD069398461EE000230C93219B5B4403F1010806934346012BB8BF012312E00125002320930C9501E001230C934FF0FF3306939846B5
:406EC0000022122303E00123069398461A462192DAF8244000226260042101F114029A421ED86268013262604900F6E7AFF3008061436F63A787D23FB3C8608B288AC63FB8
:406F0000FB799F501344D33F0000F07FF0A50810F9A50810CDA508100000F83FA0A608106168504600F064FEDAF8243020601B680793B8F10E0F00F25D81002D00F05A8192
:406F40009DED027BBBF1000F8DED0E7B31DDA04A0BF00F0302EBC30393ED007B4FEA2B14E2068DED0A7B0CD59A4BDDE90E01D3E90823FEF753FD04F00F04CDE9020103268A
:406F800000E00226934D6CB1E30708D5DDE90A01D5E90023FEF718FCCDE90A01013664100835F0E7DDE90A23DDE90201FEF736FD20E0CBF1000404B3854B864D04F00F02C7
:406FC00003EBC203D3E90023DDE90E01FEF7FCFBCDE9020124110023022654B1E70705D5D5E90023FEF7F0FB0136012364100835F3E71BB1CDE9020100E00226109BEBB1BD
:40700000DDE902450022744B2046294601F0E4FBA0B1B8F1000F11D0069B002B40F3E6800BF1FF330A9300226C4B20462946FEF7CBFB0136CDE90201069F02E0CDF828B026
:4070400047463046FEF75AFBDDE90223FEF7BCFB0022634BFEF706FA0446A1F15075CFB90022604BDDE90201FEF7FAF922462B46CDE9020101F0CEFB002840F041822246F1
:4070800005F10043DDE9020101F0A6FB002840F02E82ABE00C9A4E4B791E002A4AD003EBC103D3E9002300204F49FEF7B7FC22462B46FEF7D5F9079C05460E46DDE90201F7
:4070C00001F0C8FB1290FEF719FB02460B46DDE90201FEF7C5F9129B303304F8013B2A463346CDE9020101F077FB002840F02183DDE9022300203849FEF7B2F92A463346BE
:4071000001F06AFB002840F0D280079BE31ABB426CDA0022314B28463146FEF755FB002205460E462D4BDDE90201FEF74DFBCDE90201C3E703EBC10122462B46D1E90001BF
:40714000FEF742FB079BCDE91201DC191D46DDE9020101F07FFB0646FEF7D0FA303602460B46DDE90201FEF77BF905F8016BAC42CDE902014FF0000223D11B4BDDE9120126
:40718000FEF770F902460B46DDE9020101F042FB002840F08C80DDE9122300201249FEF75FF902460B46DDE9020101F015FBE8B114F8013C302B04F1FF3240F0BA8214462E
:4071C000F6E7064BFEF700FBCDE90201BFE700BFA0A6081078A608100000F03F0000244000001C40000014400000E03FDDE90E34CDE90234159B002B7CDBBBF10E0F79DC19
:407200008F4B03EBCB03D3E90067219B002B14DAB8F1000F11DC40F06C810022894B30463946FEF7D1FADDE9022301F0E9FA45464646002840F05F8166E1079C32463B4662
