:020000041008E2
:4000000000780408EB0208100D00000051030810510308105103081051030810000000000000000000000000000000004D0308104D030810000000004D0308104D030810DA
:400040004D0308104D0308104D0308104D0308104D0308104D0308104D0308104D0308104D0308104D0308104D0308104D0308104D0308104D0308104D0308104D03081000
:400080004D0308104D0308104D0308104D0308104D0308104D0308104D0308104D0308104D0308104D0308104D0308104D0308104D0308104D0308104D0308104D030810C0
:4000C0004D0308104D0308104D0308104D0308104D0308104D0308104D0308104D0308104D0308104D0308104D0308104D0308104D0308104D0308104D0308104D03081080
:400100004D0308104D0308104D0308104D0308104D0308104D0308104D0308104D0308104D0308104D0308104D0308104D0308104D0308104D0308104D0308104D0308103F
:400140004D0308104D0308104D0308104D0308104D0308104D0308104D0308104D0308104D0308104D0308104D0308104D0308104D0308104D0308104D0308104D030810FF
:400180004D0308104D0308104D0308104D0308104D0308104D0308104D0308104D0308104D0308104D0308104D0308104D0308104D0308104D0308104D0308104D030810BF
:4001C0004D0308104D0308104D0308104D0308104D0308104D0308104D0308104D0308104D0308104D0308104D0308104D0308104D0308104D0308104D0308104D0308107F
:400200004D0308104D0308104D0308104D0308104D0308104D0308104D0308104D0308104D0308104D0308104D0308104D0308104D0308104D0308104D0308104D0308103E
:400240004D0308104D0308104D0308104D0308104D0308104D0308104D0308104D0308104D0308104D0308104D0308104D0308104D0308104D0308104D0308104D030810FE
:400280004D0308104D0308104D03081010B5054C237833B9044B13B10448AFF300800123237010BD8C49020800000000EC8C0810084B10B51BB108490848AFF300800848FE
:4002C000036803B910BD074B002BFBD0BDE81040184700BF0000000090490208EC8C081058430208000000007047FFF7FDFF72B6104C114DAC4209DA21686268A368043B9E
:40030000A2BFC858D050FAE70C34F3E70B490C4A00209142BCBF41F8040BFAE709480A490860BFF34F8F00F0BDF900F097F900F01DF8FEE7F08C0810088D08108C49020814
:40034000344C02080040020808ED00E0FEE7FEE700B504207146084202D0EFF3098001E0EFF30880043002F0E5FBFEE72DE9F04387B000F08FFB494803F04EFF02F074FC90
:400380004749484800F008FB032000F0BDFA464800F054FBDB229821342000F0A3FA434B1868002302221946406803F055FF4FF00009C8464F464E464D460DF117013C48AD
:4003C00003F032FF9DF81730612B03D1012000F05DFA4FE0622B0AD126B9012000F01EFA012647E0002000F019FA002642E0632B0AD127B9012000F02DFA01273AE00020FA
:4004000000F028FA002735E0642B0ED1B8F1000F05D1012000F0E8F94FF001082AE0002000F0E2F94FF0000824E0652B0ED1B9F1000F05D1022000F067FA4FF0010919E045
:40044000032000F061FA4FF0000913E06C2B03D1002000F037FA0DE0722B03D1012000F031FA07E07A2B02D100F08CFA02E0114803F0D2FE0121002000F066FA6C1CA4B24A
:400480002A460D4901A803F095FF01A800F0D6FA4FF47A7002F01AFB25468EE7BC840810E44B020800006740DC84081010430208EC840810F08408101085081008B501201D
:4004C00000F0CCFE08BD00BF704700BF5C4AD2F8803303F00F0303F1D00152F8212002F00702032A04D0042A05D092B9554914E0554A116811E003F1C002514951F8222010
:4005000002F01F02112A06D0132A04D04FF4FA4103E04E4901E04FF400418BBB484BD3F8902502F00100D3F88825C2F30172D3F8883513F0405F07D0414BD3F88835C3F372
:400540000173012B02D102E0012300E0002303B108B9032A46D13A48D0F88025C2F31103D0F88425C2F30C02D0F88005C0F300600130B1FBF2F202FB03F2B2FBF0F131E0A8
:40058000012B2FD12E4BD3F8402602F00100D3F80026C2F30172D3F8003613F0405F07D0274BD3F80036C3F30173012B02D102E0012300E0002303B108B9032A12D120484D
:4005C000D0F8002602F07F02D0F80036C3F30423D0F80006C0F3044002FB01F2B2FBF3F2B2FBF0F1164BD3F88033C3F3011321FA03F215494A601648D0F89030C3F3072363
:4006000001330069000E0130B2FBF0F08860B2FBF3F3CB600B6103F5742202F23F220D48A0FB0202C2F387420A7503F2E7330A4AA2FB03239B098B61DB03CB61704700BF35
:400640000000264000127A008C42020800366E010000214083DE1B43D34D621008B50D4802F0CAFAFFF730FFFFF730FF00221146042000F0BBFB084800F04EFC074B1B68A5
:4006800093F8513013B1064800F0B6FC00F0F8FA08BD00BFD8880810A8490208E04B02081485081008B502F0A0FA074AD2F8883043F47003C2F88830BFF34F8FBFF36F8F43
:4006C00002F097FA08BD00BF00ED00E010B504462146034800F002FE0028F9D010BD00BF00006640054BD3F80833C3F30803002BF8D0024BD3F84003704700BF00006640D1
:4007000070B582B006460D460E4B19780E4B009300231A460D4801F057FC002409E00A4B0022315D094801F0F9FC052002F0CEF90134AC42F3DB044A0021044801F0BCFC55
:4007400002B070BDAC420208E44B02080000674000B583B000238DF8063080238DF804308DF80500022101A8FFF7CAFF03B05DF804FB00BFF0B583B007460E460E4B597822
:400780000E4C0F4D009500231A46204601F01CFC2B4600223946204601F0C0FC2B4600223146204601F0BAFC2A460021204601F083FC03B0F0BD00BFAC420208000067409B
:4007C000E44B020800B583B000238DF8063040238DF804308DF80500022101A8FFF790FF03B05DF804FB00BF08B5012809D10A4B187840F00400187040F00800FFF7A8FF07
:4008000008E0054B187800F0FB00187040F00800FFF79EFF012008BDA14B020808B501280AD10B4B187840F00100187040F00800FFF78EFF012008BD054B187800F0FE0007
:40084000187040F00800FFF783FF002008BD00BFA14B020808B501280AD10B4B187840F00200187040F00800FFF772FF012008BD054B187800F0FD00187040F00800FFF73D
:4008800067FF002008BD00BFA14B020808B501280AD10B4B187840F00100187040F00400FFF756FF012008BD054B187800F0FE00187040F00400FFF74BFF002008BD00BF05
:4008C000A04B020808B520B91820FFF741FF012008BD012804D11C20FFF73AFF012008BD002008BD38B50D46144601460420FFF741FF29460320FFF73DFF21460220FFF767
:4009000039FF012038BD00BF10B5044620B9FF2211461046FFF7E6FF012C04D100221146FF20FFF7DFFF022C04D10022FF211046FFF7D8FF032C04D1FF2200210846FFF7B9
:40094000D1FF012010BD00BF0F2819D8012917D800B583B011B940F0800001E040F0C00000238DF8063080238DF804308DF80500022101A8FFF7C4FE002003B05DF804FB17
:400980000020704708B50120FFF7E2FE022002F09DF8002008BD00BF10B504460A46234901F01CF900283FD1236843F0004323601F4C237843F008032370322002F086F839
:4009C000207840F02000FFF7C3FE052002F07EF8207840F02000FFF7BBFE052002F076F8207840F02000FFF7B3FE0422114B1A700120FFF7F9FEFFF7C5FF02220E4B1A7045
:400A00000620FFF7A5FE00210846FFF7B3FEFF210820FFF7AFFE20210120FFF7ABFE0020FFF772FF012010BD002010BD90890810A44B0208A14B0208A04B020870B506460D
:400A400003F0DCFC0546C3B2102B12D90120FFF71DFF002403E0305DFFF7B4FE0134EBB29C42F8D3012070BD305DFFF7ABFE013400E00024EBB29C42F6D3002070BD00BFD8
:400A800008B50249024801F04FFF08BDA84B02080000664008B5114B1B785BB9104A1149114801F01DFD1149114801F0D5FF01220A4B1A700E4BB3F90030002B08DB590946
:400AC00003F01F03012202FA03F30A4A42F82130054A136843F00043136008BD284B0208A84B02085885081000006640810A08105085081000E100E01F4B98422DD00CD8EA
:400B000040282ED003D8E8B1102828D02FE0802829D0B0F5807F28D029E0184B984228D006D8B0F1204F0DD0154B984212D01EE0144B98420AD00133984209D0023B98422B
:400B400015D101E0002070470F4870470F4870470F4870474FF4A0007047074870470D4870470D4870470D487047034870470C4870474FF4A400704706005200010000F0F5
:400B8000090000A0040000F0010052000200520003005200010050000200500005005200FF00520038B5124B1B6893F83130012B04D840F2C3110F4801F0ACFF0C4B1D68BB
:400BC0002A6AB5F8B03013442C46D5F8B420D358002B0BDB084B1868FFF78EFF6B6801229A6063689B68002BFBD138BD034838BDE04B0208988508102C4B020802005000B1
:400C00001A4B186128B102230370FF23437000234380174B1B6893F850202AB300B583B0B3F93830ADF80030002301931149684601F012FFBDF90030002B08DB590903F012
:400C40001F03012202FA03F30B4A42F82130084B1B6893F8513023B102220849012000F077FA03B05DF804FB704700BF2C4B0208E04B0208C943020800E100E081440208D7
:400C800008B50248FFF7BCFF08BD00BF404B020838B50B4B1B68D3F8B4301B58002B0DDA0D4604460B0C1B0423B140F2D521054801F030FFA9B26160002038BD024838BDBD
:400CC000E04B0208D885081001008A0038B50368002B01DA002300E0094B73B90D460446C2600B0C1B0423B140F2BB21054801F011FFA9B2A160002038BD014838BD00BF4B
:400D000001008A00D885081038B504460D4619B99921084801F0FEFE074B1B68D3F8B4301B59002B03DAE3682B60002038BD034838BD00BF18860810E04B020801008A0000
:400D4000254B1B6893F8313083423AD900293AD00B6813F01F0F38D170B50D4604461E4B1B6893F83130984204D340F2C3111B4801F0D0FE184B1B68186AB3F8B03004FB77
:400D80000304174E34602A68D2080021686802F091FB00212046FFF77BFF346825B940F293310E4801F0B6FE2A4600212046FFF78DFF60B900210A4B1868FFF769FF40B917
:400DC00070BD084870470748704706487047064870BD054870BD00BFE04B0208D8850810444B020803018A0001018A0010B504461346B2B9A9B9124B1B6893F831309842C8
:400E000004D340F2C3110F4801F084FE0C4B1B681A6AB3F8B03004FB03240B4B1C60002010BD43B149B1084A51609360111D2046FFF786FF10BD054810BD044810BD00BF8B
:400E4000E04B0208D8850810444B020803018A002DE9F0411B4B1B68DC68236883422CD90D464609A0EB4610012303FA00F819B901F0BBFE074600E00027124B1868036824
:400E8000002B01DA002300E00F4B83B9626852F8263018EA030F05D023EA080342F82630002400E0094C0021FFF7F2FE00E0084C25B9384601F09DFE00E0064C2046BDE8DF
:400EC000F08100BF444B020801008A00020188000301880004018A000B4B1B68DB681A6882420CD94109A0EB4110012202FA00F05B6853F82130184203D0044870470448A1
:400F000070470448704700BF444B02080101880004018A0000018800024B1B680BB9014B18607047504B02082DE9F8430446884691461D46089F2C4B1B681BB9B5212B48E8
:400F400001F0E8FD284B1B682C2000FB04F01C18EEB21E50C5F3072363602D0CA560244B1B6893F831309E4204D340F2C311214801F0D0FD1E4B1B68196AB3F8B02006FB98
:400F800002162661666893F832309E4204D340F2DF11184801F0BEFD154B1B681D6A803605EB46156561A668330C1B0423B14FF4FF71104801F0AEFD330C1B0423B140F276
:400FC000FF110C4801F0A6FDB3B243EA0646AE60C4F81C90C4F820800023A36117B1B7F90030A381BDE8F883504B020858860810E04B0208D8850810F0B58FB0044618B9F2
:401000005221274801F086FDA369072B03D95621234801F07FFDE36A1BB95821204801F079FD236B1BB959211D4801F073FD07AD04F114060FCE0FC537682F6002AD264629
:401040000FCE0FC533682B60164B1B68B3F93620079B1344ADF83030089B0D93A26AE16A0CAD00953B460A98FFF75EFF00210091069B0A460598FFF757FF216B284601F0E0
:40108000EBFCBDF93030002B08DB590903F01F03012202FA03F3044A42F821300FB0F0BD58860810E04B020800E100E0F8B506460F461D4614461AB9FD211F4801F02AFDED
:4010C0001E4B1B681BB9FE211B4801F023FD1B4B1B682C2101FB063001FB07314B68012202FA03F31B04466802FA06F60269EAB18F69EFB91268002A01DA002200E0104AF3
:40110000C2B92288134323600369DC6001238B614D620469330C1B0423B140F2BB21094801F0F8FCB2B2A2600020F8BD0648F8BD0648F8BD0548F8BD58860810504B020889
:4011400001008A00D885081004028A0007028A00F8B505460F4616460E4B1B6823B94FF4AF710D4801F0D6FC0A4B1B682C2404FB0534236A23B94FF4B171074801F0CAFC3C
:40118000E369B34204D9236A43F826700020F8BD0248F8BD504B0208588608100A028A0070B582B000230193044620B940F2D111284801F0AFFC236923B94FF4E9712548EB
:4011C00001F0A8FC636923B940F2D311214801F0A1FC236A23B94FF4EA711E4801F09AFC6369DD682A0C20D012041A601B682069194B1B68D3F8B430C358002B15DA01A969
:40120000FFF782FD60B9019803681E0CDBB2E269934206D2226A52F8233013B1984700E0002631462069FFF733FDADB275B16369ADB21D601B68636A1BB198470023636265
:4012400002E0A36A03B198470023A36163691B6802B070BD58860810E04B020810B50446074B1B6823B940F2B111064801F052FC034B1B682C2000FB0430FFF791FF10BD8C
:40128000504B02085886081010B4D0F8003303F00F03072B06D900230DE0D0F84043CC54013300E000239342F7D306E0D0F8404321F8134001339342F8D35DF8044B7047A1
:4012C00010B51446D0F80833C3F308039A4200D31C462246FFF7D8FF204610BD036813F4006F01D0802200E04022D0F80832C3F30803934203D0C0F840120120704700208F
:40130000704700BF10B4D0F8003203F00F03072B06D900230DE0CC5CC0F84042013300E000239342F7D306E031F81340C0F8404201339342F8D35DF8044B704710B5144631
:40134000036813F4006F01D0802200E04022D0F80832C3F30803D31AA34200D81C462246FFF7D0FF204610BD02E0C0F84012013A002AFAD1704700BF10B51446036813F485
:40138000006F01D0802200E04022D0F80832C3F30803D31AA34200D81C462246FFF7E4FF204610BD10B54A6841F201039A4231D1D0F80833C3F30803B3B10B6A43F0400327
:4013C0000B620B7873B1D0F8043343F48033C0F80433D0F8043323F48033C0F80433D0F8043301E0D0F840330B6A43F020030B620B6A23F010030B62036E23F4204303669A
:401400000023C0F8C83F0123C0F8C03FD0F8C03F202221E0D0F80832C3F30802D0F80832C3F3C03313440A6BD21A4A630A6A12F0080F05D1CA6A1A44CA628A6AD31A8B6224
:401440000B6A43F004030B620B6A23F001030B620023C0F8883F1022D0F84C4F40F201131C420DD0036823F00043036000238366C366036843F000430360036842F0400223
:401480004FF080534B604B6C0BB11046984710BDD0F80C3F13F0020F1DD00222C0F8002FD0F8002FD0F8002F12F0040F02D04FF4001001E04FF480108A6802438A604A682C
:4014C000B2F5B81F07D00A7B12B14FF4C01201E04FF4B0124A6013F4807F03D08A6842F400028A6013F0010F03D08A6842F480028A6040F21112134202D04FF4C0134B6006
:40150000704700BF0023C0F8C83FC0F8883F836E23B140F21713C0F8083F704740F21313C0F8083F182383664FF4B8134B60704738B5D0F80C4F036E23F4807303660023FB
:40154000C0F8C83FC0F8883FC0F8083F40F21713C0F8003FD0F8003F8B6823F480338B604B7B13B18B69CB610BE08D69D0F80822C2F30802D0F80832C3F3C0331344EB1AE9
:40158000CB6140F201131C421BD0036E9B0F032B05D114F4827F14BF0123002300E001235BB1036823F00043036000238366C366036843F00043036003684FF080534B6059
:4015C0001BE00B7893B1D0F8043343F48033C0F80433D0F8043323F48033C0F80433D0F804330123C0F8C03FD0F8C03F0B7B0BB10B4B01E04FF080534B604A6C72B14B7B23
:4016000013B14FF4802001E04FF400308B6813F0F87301D04FF400231843904738BD00BF000010100346002940DB11F0C00F06D0002181664FF0805050602F4844E011F477
:40164000807F36D111F0010F0ED050682B49884232D1196E11F0804F0CBF012100214FF08050506026482FE011F0020F06D050682249884223D10021224825E011F0100F62
:4016800005D04FF080515160002108461CE050681A49884216D1517B11B14FF4881101E04FF4A0115160002108460DE0012116480AE00121154807E00121114804E00021C1
:4016C000134801E00021084679B1196821F00041196000219966D966196841F0004119601B684FF080535360704740F21712C3F8002FD3F8003F70470820AA000000131004
:401700000620AA000420AA000320AA000720AA000520AA00036853B110B50446012001F0EDF92368013B23601BB1002010BD002070474FF0004010BD70B505460C4691F8B7
:40174000243013F0FF0F0ED1CB6A63B94B6C0BB108209847E36AB3FA83F35B0984F824300123C5F8883F94F8243013F0FF0F16D063783BB12B6813F4006F01D0802202E012
:40178000402200E00122FF212846FFF7F5FD236B18442063236A43F00803236270BDE26A012A11D963780BB1013A00E00122A16A2846FFF7C3FD236B03442363E36A1B1A22
:4017C000E362A36A1844A062D5F80832C3F30803802B23D0E36A012B20D101F006FAA36A1B78C5F840324026C5F8806FD5F8803F01F0FFF9236B013323630023E362A36A65
:401800000133A362C5F8886F63783BB1236A43F002032362636C0BB10420984770BD00BF38B54B68B3F5A81F03D14FF4C0134B6038BD4B68B3F5A01F4DD10C4605464A690F
:40184000012A11D94B780BB1013A00E0012221692846FFF773FDA3690344A36163691B1A6361236903442361D5F80832C3F30803802B14D06369012B11D101F0B6F9236968
:401880001B78C5F840324023C5F8803FD5F8803F01F0AFF9A3690133A361002363616369CBB9237B33B14023C5F8883F4FF4A813636005E00023C5F8883F4FF4B013636068
:4018C000637843B1A36843F40033A360636C13B14FF48030984738BD70B504460D468A6C82B3036813F4803F06D0D0F84C3F13F0400F03D0022002E0002000E00020236E26
:4019000013F4006F06D1D4F84C3F13F0800300D001231843C0B190470123C4F8C03FD4F8C03F024648B91023C4F8403FD4F8403F40F2D113C4F8483F07E040F2C113C4F838
:40194000483F02E0002200E00022D4F8043243F48033C4F80432D4F8043223F48033C4F80432D4F804320AB9012300E00223E366002A59D1666E06F010066B6C23B10EB169
:40198000012000E0022098477EB141F202036B602B6A43F001032B626B6B2B63002385F824300123C4F8883F70BD41F201036B602B6A43F010032B620123C4F8C83F2B787A
:4019C000BBB1EB6BBBB1236E43F400532366ED6B802D05D9A5F18003802B0ED8813D0DE0013D236E43F4004323660023C4F8C83F04E0002502E0002500E03F25236813F43F
:401A0000006F01D0802300E040239D4204D34FF42071064801F07EF8D4F8043323F0FF03EDB21D43C4F8045370BD00BF9886081038B54B68B3F5881F03D0B3F5901F1AD0F2
:401A400038BD0B69D0F840231A708B6901338B614B69013B4B612BB10B6901330B610423836638BD0B7B13B14FF4C01301E04FF4B0134B6038BD0C4605464A690969FFF704
:401A80001FFCA3690344A36163691B1A6361226910442061012B24D82B6E23F480732B666369012B16D12B6813F4006F01D0802300E0402323B94FF42071184801F02AF871
:401AC000D5F8043323F0FF03C5F804334FF48813636038BD0023C5F8C83F4FF4B013636038BD402B01D89C1E00E03F242B6813F4006F01D0802300E040239C4204D34FF4A5
:401B00002071064801F006F8D5F8043323F0FF02E3B21343C5F8043338BD00BF9886081038B5CB6B002B50D00B78002B3FD00C460546D0F80423D2B20132896BFFF7C0FBE3
:401B4000236C03442364E36B1B1AE363A26B1044A063802B06D9A3F18002802A0FD8A3F181040DE02B6E43F400432B66E36B0BB15C1E00E000240023C5F8C83F00E03F244E
:401B80002B6813F4006F01D0802300E040239C4204D34FF42071104800F0BCFFD5F8043323F0FF02E3B21343C5F8043338BD0123C3668A6B0B6CD0F84003D0540B6C01335A
:401BC0000B64CB6B013BCB6338BD0223C3660023C0F8C83F38BD00BF98860810F8B50B78012B03D00C7A1CB9002702E0002700E00127002800F0A780002900F0A680002A5D
:401C000000F0A58016460C460546013BDBB2022B03D94F214F4800F07DFF637803B163791BB150214B4800F075FF94F90330002B03DA5121474800F06DFF237913F0010FDE
:401C400003D05221434800F065FF2369102B03D95321404800F05EFFE368102B03D954213C4800F057FF637913B14FF4803100E00021E27912B14FF4807300E000230B4378
:401C800043F400632B60A37913B94FF4006300E000232269013A02F00F021A43E368013B1B01DBB21343227843EA82732B6617B140F2073301E040F20713C5F800330FB164
:401CC000254B00E0254B2B6763780BB17F2300E00023C5F80433E3785B00DBB2227943EA0243C5F810331E4BC5F80032A3780BB1402300E00123C5F804320023C5F8C83EA3
:401D0000C5F8883EC5F8C83FC5F8883FC5F8083F2378022B02D040F2D11300E00023C5F8483F63783370A37873704FF0805373600020B060B06130623064F0633063F062DD
:401D40007064B064F8BD0748F8BD0648F8BD0548F8BD00BFDC86081003002A0013102A00070101000120AA0038B505460C4621B940F2C321194800F0CDFE2B6E9B0F012B31
:401D800017D1174B2344174A93421ED9A4F5BD13A3F5D66302F5611202F56162934216D9A4F57104A4F533440F4B9C4211D80F4838BD84B1286EC0F303102B6E03F00F0369
:401DC00018440230B4FBF0F038BD094838BD094838BD002038BD002038BD00BFDC86081020AD88FF405B730040555C0440420F00801A0600A08601002DE9F84307468846C7
:401E0000914622B940F21221624800F083FE08F1FF34614B9C4204D940F213215D4800F079FE3B6E9B0F012B0DD149463846FFF79BFF0546D7F8003323F40073C7F80033A8
:401E4000564B3B67A2E0544B9C421FD8544B984509D8A9F5BD13A3F5D663524A934218D90021012328E0504B984507D84F4B4B444F4A934213D9002101231DE04D4B4B449B
:401E80004D4A934212D90021012315E00021012312E0002141F288352E460B460CE000214FF461754FF4C8660B4605E001214FF4BE754FF41B760023002B66D13F4BB3FB8E
:401EC000F9F3B6FBF3F404FB03F2964200D90134102C00D910240F2C8CBF00220122B5FBF3F606FB03F39D4200D90136102E00D91026A519B9FBF5F50FE022B10F2C09D86A
:401F00000134002206E00F2E04D801360F2C8CBF00220122A519B9FBF5F5454502D9A3191F2BEAD941B1D7F8003343F40073C7F80033234B3B6707E0D7F8003323F40073AC
:401F4000C7F80033154B3B67E31F092B04D940F283511C4800F0DEFD3B6E23F0F003013C2401E4B223433B66731F0B2B04D94FF4B461144800F0CEFD3B6E23F00F03013E56
:401F800006F00F061E433E6600E000252846BDE8F88300BFDC8608103F420F0013102A00A0860100502D1900801A060020AD88FFA0432100807E25FFC02BAF0000CA9A3B58
:401FC00003002A001C8708102DE9F04182B005460C4617469846089E11F0800F04D04FF4D961314800F096FD304B984504D940F2C9612D4800F08EFD012F04D940F2CA613A
:40200000294800F087FD0023C5F8483F7368B3F1805F41D14FF47A7303FB08F30193244B7360012F14BF00230123737340F21713C5F8003FD5F8003F0423C5F8C03FD5F8A1
:40204000C03FD5F8043243F48033C5F80432D5F8043223F48033C5F80432D5F804326400E4B23C43C5F840420223AB66D5F8004F24F0F804E405E40DD5F8403F03F0C003C8
:402080001C4301A8FFF746FB54EA0001EED032462846FFF7C7FA00E0064840F2D113C5F8483F02B0BDE8F081DC86081037894100000013100220AA0070B582B005460C4699
:4020C0001646134B994204D940F28C71114800F021FD736813F4801F17D04FF47A7303FB04F401941823AB66D5F8004F24F0EE04E405E40D01A8FFF70DFB54EA0001F3D0C4
:4021000032462846FFF78EFA00E0034802B070BD37894100DC8608100220AA00F0B583B005460F4614461E46134B9A4204D940F63201124800F0EEFC7368B3F5A01F17D1D6
:402140004FF47A7303FB04F40194C5F84072D5F8004F24F0F804E405E40D01A8FFF7DAFA54EA0001F3D032462846FFF75BFA00E0034803B0F0BD00BF37894100DC860810C4
:402180000220AA0070B504460E46D0F88C3E13F0010F07D04FF480534B600123C0F8803ED0F8803ED4F84C5F40F201131D420FD0336A15F4807F02D04FF4807200E080220A
:4021C000134333620023C4F8C83F45F010050EE015F0100F0BD0D4F80833C3F3080333B1F36B23B10123C4F8C43FC4F8C83FD4F8CC3F13F0010F08D031462046FFF790FC32
:402200000123C4F8C03FD4F8C03F15F0100F0AD031462046FFF7C6F81023C4F8403FD4F8403FD4F84C5F15F0C00F0DD031462046FFF752FB0123C4F8803ED4F8803EC02359
:40224000C4F8403FD4F8403FD4F88C3F13F0410F08D031462046FFF76FFA0123C4F8803FD4F8803F70BD00BF70B506460D46D0F8004E14F0020F0AD0836E2BB10023836622
:402280008B6843F080738B604FF4C0136B6014F0010F05D029463046FFF7FAF824F0040414F0080F08D029463046FFF7C1FB0123C6F8C03FD6F8C03F14F0040F08D02946D1
:4022C0003046FFF7ADFA0123C6F8803FD6F8803F6B68B3F5C01F03D129463046FFF728F96B68B3F5B01F03D129463046FFF70AF970BD00BF08B54B6813F4801F02D0FFF7AD
:40230000B3FF08BDFFF73EFF08BD00BF2DE9F84305460C46036813F4006F02D04FF0800801E04FF04008D5F8007207F00F07A26A012A19D9D4F82490E262561EB9F1000F39
:4023400000D026B940F27351254800F0E3FB324649462846FEF7F2FFA36A1B1AA362072F00D9400048446062D5F80832C3F30803984533D0A36A012B30D10023A362072FFE
:4023800002D8636A1E7801E0636A1E8800F02DFCC5F840624FF40073C5F8803FD5F8803F00F027FCD5F8883F23F4007222F0010242F4007623F4EE6323F0030323B140F2DE
:4023C0002A41084800F0A6FBC5F8886F236843F002032360236B0BB101209847BDE8F8835C870810988608102DE9F04105460C46036813F4006F01D0802600E040267608FC
:40240000A769D4F81C8017B1B8F1000F04D14FF49961314800F07EFB424639462846FEF74FFF236A03442362E3691B1AE36173BBA368FBB1E3689E4201D8013E00E05E1E56
:402440002B6813F4006F01D0802300E040239E4204D34FF42071214800F05CFBD5F8043323F0FF03F6B21E43C5F804630123C5F8C83F02E00023C5F8C83F636823F0010388
:402480006360236B33B304209847BDE8F081A169D5F8002302F00F02072A00D940000844A0619E4216D95C1E2B6813F4006F01D0802300E040239C4204D34FF42071074857
:4024C00000F028FBD5F8043323F0FF02E3B21343C5F80433BDE8F0815C87081098860810002800F0A48170B50546002900F0A18116460C460B78022B03D93F21A24800F02F
:4025000009FB637B023BDBB2062B03D940219E4800F000FBA37B3BB1022B05D0032B03D04121994800F0F6FA94F82130012B03D94221954800F0EEFA94F82830012B03D997
:402540004321914800F0E6FA2378012B06D86368083B082B94BF0023012307E0A37F2BB16368013B062B94BF002301231BB14521854800F0CFFAA368053B042B03D94621A2
:40258000814800F0C7FA6369FF2B03D947217E4800F0C0FAA369FF2B03D948217A4800F0B9FAA37C6BB1237833B9A368092B05D1A37B2BB1012304E0012302E0012300E034
:4025C00000231BB14A21704800F0A4FA636B23F4366323F00D031BB14C216B4800F09AFAE36B23F4EE6323F003031BB14D21664800F090FA2378022B01D1A37F13B16268AF
:40260000013A00E00022237F13B14FF4803100E00021A368082B02D84FF4006300E000230B4302F00F02134343F000732B60226B2B6813F4006F01D0802300E040239A4240
:4026400003D36221504800F065FAA26B2B6813F4006F01D0802300E040239A4203D36321494800F057FA626A2B6813F4006F01D0802300E040239A4203D36421424800F008
:4026800049FA23781B0603F040732B64637F0BB1402200E00022A37C13B14FF4806300E000231343227C12B14FF4807200E000221343627C12B14FF4007200E000221A43DF
:4026C000E36A013B1B0403F470231343627B013A02F007021343A27B120102F030021343AB64237B13B14FF4807200E00022E37B23B92378022B03D1012302E0012300E0B7
:40270000002313B14FF4007300E000231A43A368013B03F00F031343C5F80033227DA3691B0403F47F031343C5F81033E26AD5F8003303F00F0303339A4201D3102A03D924
:402740007A21114800F0E6F9E37F23B12378012B03D0002302E0002300E0012313B14FF4807200E00022637B013B03F007031A43A37B1B0103F0300313436B64237B2BB12C
:402780004FF4807203E000BF9C8708100022A368013B03F00F0313432278012A02D14FF4803200E000221343C5F8003294F83030C5F8043394F8203013B14FF0007200E05E
:4027C000002294F82130012B02D14FF0807300E00023134394F82820012A02D14FF4803200E00022134394F8242013432B6594F83830C5F80432636B23F4926323F00203A2
:402800001B051B0DC5F8C83FE36B23F08C035B055B0DC5F8883F76B1002070603060B060F0603062F0623063044B736370BD04487047034870BD002070BD00BFEFCDAB0092
:402840000160AA000B694A69934202D34869181A7047CA694869101A184470472DE9F04107460D46036813F4006F02D04FF0800801E04FF040084FEA5808D7F80863C6F36C
:4028800008062C6926E00134EB689C4200D100246B699C420FD12B6B0BB1082098476B699C4208D10023C7F8C83F0CB1013C13E0EC68013C10E0D7F84023D7F8003303F020
:4028C0000F03072B02D8AB681A5502E0AB6823F81420013E002ED6D12C61EC6829463846FFF7B0FF201A804519D908B1441E00E000243B6813F4006F01D0802300E040238D
:402900009C4204D34FF42071064800F003F9D7F8040320F0FF03E0B21843C7F80403BDE8F08100BF9886081038B504460D46D0F8003E13F0080F35D0D0F8CC3F13F44873EA
:402940000AD04A681A434A60C0F8C03FD0F8C03F0B6B0BB110209847D4F8CC3F13F4006F09D06B6843F400636B604FF40063C4F8C03FD4F8C03FD4F8CC3F13F0010F11D0B0
:40298000EB6923B129462046FFF72EFD05E0AB681BB129462046FFF761FF0123C4F8C03FD4F8C03FD4F8003E13F0040F2ED0D4F88C3F13F4A0630AD02A681A432A60C4F892
:4029C000803FD4F8803F2B6B0BB120209847D4F88C3F13F0010F08D029462046FFF796FC0123C4F8803FD4F8803FD4F88C3F13F4007F0BD00022C4F8882F2B6823F00103DC
:402A00002B60EA622B6B0BB10220984738BD00BF38B50D4B9A680D4B9A420FD10D46044621B940F237110A4800F074F804F11003064A52F8230042F8235038BD1030054BC7
:402A400053F8200038BD00BF00ED00E000400208DC8708100000081048B338B504460D464368072B03D93221134800F053F8B4F900306268002B08DB5201D2B203F1604343
:402A800003F5614383F8002305E003F00F035201D2B20A49CA540A4B9A680A4B9A4208D12946B4F90000FFF7B3FF002038BD06487047002038BD00BFDC87081014ED00E03B
:402AC00000ED00E0004002080100560010B5044605E0084B186800F07FF8A4F50044B4F5004FF6D8044B186800FB04F000F074F810BD00BFA8420208A442020808B5034B02
:402B00001B7800FB03F000F067F808BDA042020801BEFEE738B50D46044C18220146204601F074FCA5610020FFF7F2FFF8480208FEE700BF08B50268254BDA6142681A62A5
:402B400082685A62C2689A620269DA6242691A6382695A63C2699A631E4A916AD963D16A1964516A5964516B9964926BDA64F1EE103A13F0900F27D0026A154B1A65426A6E
:402B80005A65826A9A65C26ADA65026B1A66426B5A66826B9A66C26BDA66026C1A67426C5A67826C9A67C26CDA67026DC3F88020426DC3F88420826DC3F88820C26DC3F87C
:402BC0008C20026EC3F89020FFF7B2FF08BD00BFF848020800ED00E00230800803D001300238FCD100BF00BF7047EFF3108072B6704780F310887047014B1860704700BFC5
:402C0000E04B020870B539B900240AE015F8010BFDF75CFD013402E016460D460024B442F4DB204670BD00BF70B561B900240FE0FDF758FDC0B2287001340A2808D00D28BA
:402C400006D0013502E016460D460024B442EFDB204670BD08B502490248FFF74BFB08BDE44B02080000674010B5144B1B788BB9134C144A14492046FEF7B0FF134A144934
:402C80002046FFF7B9F813491348FFF7E5FE01220A4B1A70104BB3F90030002B08DB590903F01F03012202FA03F30C4A42F82130034A136843F00043136010BD904B020860
:402CC00000006740E44B02089089081084D71700A0860100552C08104885081000E100E081F0004102E000BF83F0004330B54FEA41044FEA430594EA050F08BF90EA020F1A
:402D00001FBF54EA000C55EA020C7FEA645C7FEA655C00F0E2804FEA5454D4EB5555B8BF6D420CDD2C4480EA020281EA030382EA000083EA010180EA020281EA0303362DB4
:402D400088BF30BD11F0004F4FEA01314FF4801C4CEA113102D0404261EB410113F0004F4FEA03334CEA133302D0524263EB430394EA050F00F0A780A4F10104D5F1200EBD
:402D80000DDB02FA0EFC22FA05F2801841F1000103FA0EF2801843FA05F359410EE0A5F120050EF1200E012A03FA0EFC28BF4CF0020C43FA05F3C01851EBE37101F00045D7
:402DC00007D54FF0000EDCF1000C7EEB00006EEB0101B1F5801F1BD3B1F5001F0CD349085FEA30004FEA3C0C04F101044FEA445212F5800F80F09A80BCF1004F08BF5FEAF6
:402E0000500C50F1000041EB045141EA050130BD5FEA4C0C404141EB010111F4801FA4F10104E9D191F0000F04BF01460020B1FA81F308BF2033A3F10B03B3F120020CDACD
:402E40000C3208DD02F1140CC2F10C0201FA0CF021FA02F10CE002F11402D8BFC2F1200C01FA02F120FA0CFCDCBF41EA0C019040E41AA2BF01EB0451294330BD6FEA0404DE
:402E80001F3C1CDA0C340EDC04F11404C4F1200220FA04F001FA02F340EA030021FA04F345EA030130BDC4F10C04C4F1200220FA02F001FA04F340EA0300294630BD21FA18
:402EC00004F0294630BD94F0000F83F4801306BF81F480110134013D4EE77FEA645C18BF7FEA655C29D094EA050F08BF90EA020F05D054EA000C04BF1946104630BD91EA6C
:402F0000030F1EBF0021002030BD5FEA545C05D14000494128BF41F0004130BD14F580043CBF01F5801130BD01F0004545F0FE4141F470014FF0000030BD7FEA645C1ABF1B
:402F4000194610467FEA655C1CBF0B46024650EA013406BF52EA033591EA030F41F4002130BD00BF90F0000F04BF0021704730B54FF4806404F132044FF000054FF00001E2
:402F800050E700BF90F0000F04BF0021704730B54FF4806404F1320410F0004548BF40424FF000013EE700BF42004FEAE2014FEA31014FEA02701FBF12F07F4393F07F4F61
:402FC00081F06051704792F0000F14BF93F07F4F704730B54FF4607401F0004521F0004120E700BF50EA010208BF704730B54FF000050AE050EA010208BF704730B511F0D3
:40300000004502D5404261EB41014FF4806404F132045FEA915C3FF4DCAE4FF003025FEADC0C18BF03325FEADC0C18BF033202EBDC02C2F1200300FA03FC20FA02F001FAC0
:4030400003FE40EA0E0021FA02F11444C1E600BF70B54FF0FF0C4CF4E06C1CEA11541DBF1CEA135594EA0C0F95EA0C0F00F0DEF82C4481EA030621EA4C5123EA4C5350EA30
:40308000013518BF52EA033541F4801143F4801338D0A0FB02CE4FF00005E1FB02E506F00042E0FB03E54FF00006E1FB03569CF0000F18BF4EF0010EA4F1FF04B6F5007F8F
:4030C00064F5407404D25FEA4E0E6D4146EB060642EAC62141EA55514FEAC52040EA5E504FEACE2EB4F1FD0C88BFBCF5E06F1ED8BEF1004F08BF5FEA500E50F1000041EB8A
:40310000045170BD06F0004646EA010140EA020081EA0301B4EB5C04C2BFD4EB0C0541EA045170BD41F480114FF0000E013C00F3AB8014F1360FDEBF002001F0004170BD33
:40314000C4F10004203C35DA0C341BDC04F11404C4F1200500FA05F320FA04F001FA05F240EA020001F0004221F0004110EBD37021FA04F642EB06015EEA430E08BF20EA79
:40318000D37070BDC4F10C04C4F1200500FA04F320FA05F001FA04F240EA020001F0004110EBD37041F100015EEA430E08BF20EAD37070BDC4F1200500FA05F24EEA020E53
:4031C00020FA04F301FA05F243EA020321FA04F001F0004121FA04F220EA020000EBD3705EEA430E08BF20EAD37070BD94F0000F0FD101F00046400041EB010111F4801F78
:4032000008BF013CF7D041EA060195F0000F18BF704703F00046520043EB030313F4801F08BF013DF7D043EA0603704794EA0C0F0CEA135518BF95EA0C0F0CD050EA41068C
:4032400018BF52EA4306D1D181EA030101F000414FF0000070BD50EA410606BF1046194652EA430619D094EA0C0F02D150EA013613D195EA0C0F05D152EA03361CBF104603
:4032800019460AD181EA030101F0004141F0FE4141F470014FF0000070BD41F0FE4141F4780170BD70B54FF0FF0C4CF4E06C1CEA11541DBF1CEA135594EA0C0F95EA0C0F83
:4032C00000F0A7F8A4EB050481EA030E52EA03354FEA013100F088804FEA03334FF0805545EA131343EA12634FEA022245EA111545EA10654FEA00260EF000419D4208BF40
:40330000964244F1FD0404F5407402D25B084FEA3202B61A65EB03055B084FEA32024FF480104FF4002CB6EB020E75EB030E22BFB61A754640EA0C005B084FEA3202B6EBBF
:40334000020E75EB030E22BFB61A754640EA5C005B084FEA3202B6EB020E75EB030E22BFB61A754640EA9C005B084FEA3202B6EB020E75EB030E22BFB61A754640EADC0052
:4033800055EA060E18D04FEA051545EA16754FEA06164FEAC30343EA52734FEAC2025FEA1C1CC0D111F4801F0BD141EA00014FF000004FF0004CB6E711F4801F04BF0143B2
:4033C0000020B4F1FD0C88BFBCF5E06F3FF6AFAEB5EB030C04BFB6EB020C5FEA500C50F1000041EB045170BD0EF0004E4EEA113114EB5C04C2BFD4EB0C0541EA045170BD4E
:4034000041F480114FF0000E013C90E645EA060E8DE60CEA135594EA0C0F08BF95EA0C0F3FF43BAF94EA0C0F0AD150EA01347FF434AF95EA0C0F7FF425AF104619462CE7B9
:4034400095EA0C0F06D152EA03353FF4FDAE1046194622E750EA410618BF52EA43067FF4C5AE50EA41047FF40DAF52EA43057FF4EBAE12E74A0011D212F5001211D20DD5C6
:403480006FF47873B3EB62520ED44FEAC12343F0004343EA505323FA02F070474FF00000704750EA013002D14FF0FF3070474FF00000704702440346934202D003F8011BC5
:4034C000FAE770472DE9F04788B0002B149F1299109EDDF84CA01D4627F02007BBBF03F100431D4600232D231446B8BF1446462F0B7003D0452F03D1013601E0032300E03B
:40350000022307AA049206AA03928DE8480422462B4601F085FF472F804602D1119BDB0728D5462F08EB060911D198F80030302B0AD1002200232046294604F0C5FE18B940
:40354000C6F10106CAF80060DAF800309944002200232046294604F0B7FE08B9302202E0CDF81C9006E0079B994503D9591C07911A70F8E7079B159AC8EB030340461360A8
:4035800008B0BDE8F08773B503460029B8BF494203F8022BB4BF2D222B220929427019DD0DF1070216460A2591FBF5F405FB14113031092C02F8011D2146F5DC3031541EA5
:4035C00002F8011CB4421A460AD214F8012B03F8012BF7E730241A46214402F8024B5970101A02B070BD00002DE9F04F91B00C46DDF8688016461F46054603F075F9036896
:403600000893184600F0FAFE00230E93D8F800300990073323F0070303F1080294F818A0D4F800B0C8F80020D3E90023C4E91223D4E9128929F000430B93CDF828804FF098
:40364000FF32A74BDDE90A0104F070FEA0B94FF0FF32A34BDDE90A0104F04AFE60B9002200234046494604F039FE10B12D2384F843309C4B9C4A0AE042464B4640464946AD
:4036800004F054FE002800F09281984B984ABAF1470F8CBF90469846032323612BF0040323604FF000093DE0BAF1670F00F08A81BAF1470F00F08681236000210DF1330235
:4036C0000193636805900292009342464B460691CDF810A0CDF80CE02846FFF7F3FE0AF0DF03472B804600F08481BAF1650F0D9900F28D810139524604F150000D91FFF70B
:4037000042FF0E9A8318012A8146236100F37C812268D10700F178819DF8333013B12D2384F84330009733460FAA2146284600F09FF9013002D14FF0FF3096E123685A055F
:4037400001D4236965E0BAF1650F40F2D58000220023D4E9120104F0B7FD78B30123654A31462846B8470130E5D00E9B0D9A9A420BDB2368D80708D423689B0740F1118130
:403780004FF0000804F1190906E1099B089A31462846B8470130CED04FF0000804F11A090E9B013B9845E7DA01234A4631462846B8470130BFD008F10108F1E70D9B002BE4
:4037C00029DC01234B4A31462846B8470130B2D00D9B23B90E9B13B92368D907CCD5099B089A31462846B8470130A4D04FF0000904F11A0A0D9B5B42994509DA012352467D
:4038000031462846B847013095D009F10109F1E70E9B4246A7E00E9AA36D9A42A8BF1A46002A914606DC4FF0000A29EAE97904F11A0B11E01346314642462846B84701307D
:40384000F1D178E701235A4631462846B84701303FF471AF0AF1010AA36DC9EB03029245F0DB08EB03090D9A0E9B9A420FDB2368DA070CD40E9B0D9A9844C9EB08089B1A84
:403880009845A8BF9846B8F1000F08DC0FE0099B089A31462846B8470130EBD14BE743464A4631462846B84701303FF444AF4FF0000928EAE87804F11A0A09E00123524646
:4038C00031462846B84701303FF435AF09F101090D9A0E9B9B1AC8EB03039945EEDB4BE7FFFFEF7FAC890810B0890810B4890810B8890810E68C08100E9A012A01DCDB072D
:4039000038D50123424631462846B84701303FF412AF099B089A31462846B84701303FF40AAF00220023D4E9120104F0CDFC20B14FF0000804F11A0A0EE00E9B08F10102E8
:40394000013B19E00123524631462846B84701303FF4F1AE08F101080E9B013B9845F1DB4B4604F1500231462846B84701307FF403AFE0E60123424631462846B847013046
:40398000EED1D8E601234A4631462846B84701303FF4D1AE08F10108E3680F9A9B1A9845F0DBE0680F9B9842B8BF18465DE06268531C0EA84BF480630DF1340E7FF474AEF8
:4039C000062201E012B90122626075E6002106910DF133018DE80C00236005904246CDF810A0CDF80CE002914B462846FFF76AFD80460D9BD81C02DB626893421DDDAAF120
:403A0000020A5FFA8AFA70E60133236184E6BAF1660F14D10029636807DD216113B92268D2071DD501330B4419E013B92268D00701D5023313E0012311E04FF0670A0D9B91
:403A40000E9A934205DB22682361D10708D5013305E0002BD4BFC3F102030123134423610D9BA3654FF0000956E611B0BDE8F08F2DE9F04791461F460A698B68DDF820801A
:403A80009342B8BF1346C9F8003091F8432006460C4612B10133C9F800302368990642BFD9F800300233C9F80030256815F0060510D104F1190A07E001235246394630467E
:403AC000C04701301AD00135E368D9F800209B1A9D42F1DB94F843302268003318BF012392060FD5E1185A1C302081F84300224494F8451082F84310023303E04FF0FF308A
:403B0000BDE8F08704F1430239463046C0470130F4D02268D9F80050E36802F00602042A08BF5D1B2269A3680CBF25EAE57500259342C4BF9B1AED184FF000091A344D45B8
:403B400009D00123224639463046C0470130D5D009F10109F3E70020BDE8F0872DE9F04317460A7E85B06E2A984606460C460C9B01F1430E00F0AE8011D8632A22D009D82C
:403B8000002A00F0BB80582A40F0CA8081F84520834955E0642A1ED0692A1CD0C0E0732A00F0B08009D86F2A2ED0702A40F0B8800A6842F020020A603EE0752A24D0782A80
:403BC0003AD0ADE01A6801F14205111D1960136884F84230A8E021681A6811F0800F02D0111D196008E011F0400F02F10401196002D0B2F9003000E01368002B3CDA2D2286
:403C00005B4284F8432037E021681A6811F0800F02D0111D196007E011F0400F02F10401196001D0138800E01368227E5C496F2A14BF0A2208221BE078225A4984F845204E
:403C40002268186812F0800F00F104051D6003D1550601D5038800E00368D00744BF42F0200222601BB9226822F0200222601022002084F8430001E049490A226568A56011
:403C8000002D08DB206820F0040020602BB9002D7DD175460CE0002B79D07546B3FBF2F002FB1033CB5C05F8013D03460028F5D1082A0BD12368DA0708D5236962689A42B1
:403CC000DEBF302305F8013C05F1FF35C5EB0E0323612EE008681A68496910F0800F03D0101D1860136808E010F0400F02F104001860136801D0198000E01960002323616C
:403D0000754616E01A68111D1960156862680021284602F055FE08B1401B6060636804E004F1420584F8422001232361002384F84330CDF800803B4603AA21463046FFF7F1
:403D400097FE013002D14FF0FF3026E023692A4639463046C0470130F5D023689B0710D5002504F1190907E001234A4639463046C0470130E7D00135E368039A9B1A9D42C9
:403D8000F2DBE068039B9842B8BF184605E00B7884F8423004F142058AE705B0BDE8F083BC890810CD8908102DE9F04F9A468B6816465A1EB2F5AE7F87B083BF6FF4AE723A
:403DC0009B180193002386BF40F25D138B6001930B68884643F4F06348F81C3B4FF0000B07460C4645465A46CDF810B0CDF80CB0D946CDF808B0A168002900F0E5803368B9
:403E00001B78492B70D016D8392B0DD8312B40D22D2B46D002D82B2B43D0D5E02E2B00F09280302B23D0CFE0452B00F09580462B77D0412B0CE0652B00F08E800AD8542B64
:403E400075D002D84E2B34D0BEE0592B75D0612B46D0B9E06E2B2CD004D8662B61D0692B42D0B1E0742B62D0792B66D0ACE0206810F4807F0DD0019B20F08000206009F155
:403E80000109002B00F08780013B01310193A16081E012EB0B0F40F09780216821F4C07105E02168080640F18F8021F0800121606FE06AB9B9F1000F0CD1216801F4E060B0
:403EC000B0F5E06F06D121F4F0612160012260E0022A5DD0BBF1010F1ED0BBF1040F1AE0012A71D1022254E0BBF1000F0ED1B9F1000F6CD1216801F4E060B0F5E06F6AD1AF
:403F000021F4F06121604FF0010B42E0BBF1030F02D0BBF1050F57D10BF1010B5FFA8BFB37E0BBF1020F4FD14FF0030B31E0BBF1060F49D14FF0070B2BE0BBF1070F43D16F
:403F40004FF0080B25E0216888053DD521F420712160CDF808901CE0216801F4A060B0F5806F04D048052FD5B9F1000F33D088055CBF0298049521F4F06158BFC0EB090043
:403F800041F4C07158BF039021604FF0000900E003222B700135A368013BA3602369013323617368013B002B736003DD33680133336020E7D4F8803105923146384698477E
:403FC000059A00283FF417AFB9F1000F03D0236823F480732360013A012A0ED845450AD9D4F87C3115F8011D3246384698472369013B2361F2E70126ADE00BF1FF33062BF3
:4040000022D8BBF1020F12D9ABF1030B5FFA8BFBCBEB050B5D4517D0D4F87C3115F8011D3246384698472369013B2361F2E74545E1D9D4F87C3115F8011D324638469847AB
:404040002369013B2361F2E72368DA052CD55B050CD54545CFD9D4F87C3115F8011D3246384698472369013B2361F2E715F8011C2369652903F1FF3305F1FF3B23610DD0A4
:4040800045290BD0D4F87C31324638469847236915F8021C013BA5F1020B2361D4F87C313246384698475D46266816F0100651D12E70236803F4C063B3F5806F05D1029B45
:4040C000C3EB09035A4263B915E0039B9BB104990A2332460131384600F0CAFF039B049DC21A04F26F139D4228BF04F5B7751C49284600F05FF900224146384600F0BCF95F
:404100002268DAF8003012F0020F8046894603D01A1DCAF8002006E012F0040503F10402CAF8002003D01B68C3E900890EE01F6802460B4604F0FAF818B1284600F036F9BD
:4041400003E04046494604F02FF93860E3680133E36000E00026304607B0BDE8F08F00BFDE89081070B50E46054618B183690BB901F0F6FFAB69AC6813B9284601F0F0FFD7
:40418000224B9C4201D16C6808E0214B9C4201D1AC6803E01F4B9C4208BFEC68A3891B0701D523693BB92146284601F03BF810B14FF0FF3070BD013EA36816F8011F013B03
:4041C000A36091B1002B04DAA269934206DB0A2904D023685A1C22601970EDE72246284600F0CCFF0130E7D1E2E7002B08DA22460A21284600F0C2FF0130D9D00A2070BD96
:4042000023680A205A1C2260187070BD488B0810688B0810888B0810024B01461868FFF7A1BF00BF104302080FB40A4B13B51C6824B1A36913B9204601F092FF05AB049A2E
:4042400061680193204603F05DFB02B0BDE8104004B07047104302082DE9F7431D464F4B1E6804460F46904626B1B36913B9304601F076FF4A4B9C4201D1746808E0494B41
:404280009C4201D1B46803E0474B9C4208BFF468B8F1020F04D0B8F1010F79D8002D77DB2146304601F0E0FE616B41B104F14403994202D0304602F0D7FF00236363002308
:4042C000A3616360A3891B0603D52169304602F0CBFFA38923F44A6323F00303B8F1020FA3811ED001AB6A462146304602F000FBA3891843A0810DB9009D00E02FBB2846D8
:4043000002F056FB0746D0B9DDF80090A94502D14FF0FF3006E0484602F04AFB074678B9F6E70020A38943F00203A3810023A36004F1470323602361012363612AE0A946D5
:40434000A38943F08003A3814D46B36913B9304601F006FFB8F1010F08BFA389276004BF43F00103A381A389276103F0080080B2656158B113F001034FF000001DBF6D427E
:40438000A060A561A56008BF184603E0A06001E04FF0FF3003B0BDE8F08300BF10430208488B0810688B0810888B0810004870470000C07F0EB400B59CB04FF402711DAB14
:4043C000ADF81410029006906FF000410A48049107914FF6FF7153F8042BADF816100068019302A903F046F8029B00221A701CB05DF804EB03B0704710430208034613F867
:40440000012B002AFBD1181A0138704710B5034642B111F8014B03F8014B013A002CF7D11A4400E010BD934202D003F8014BFAE710BD2DE9F0410F46904602F0E3FD044637
:404440000D46B8F1000F11D0C7F30A53C3F16B03002B0BDD1B0503F17F55002405F5401522462B46FEF7F4FDBDE8F08120462946BDE8F081000000002DE9F04F9FB0002322
:4044800080460C4615921A934FF0000A4FF0000B1991199B1A780D2A05D8092A13D2002A00F0AF8112E02B2A04D02D2A04D0202A0CD108E0002200E0012209925A1C199261
:4044C0005B782BB99DE101331993E2E700230993199D2B78302B5CD16B78582B01D0782B4CD1099B01931AAB0093A84A1BAB19A9404601F026FF10F00706044600F0858550
:40450000062E05D1013500231995099300F07DBD1A9A3AB135211CA802F05CFE1A99404602F0DEFA062E22D8DFE806F0040D08181D0D04004FF0000BDA4618E0DDF870A00B
:40454000DDF874B013E01D9B1B9ADDF870A023F4801302F2334243EA025B08E0DFF830B24FF0000A03E06FF0004B4FF0FF3A210740F14B854BF0004B00F047BD199B5A1CA4
:4045800019925B78302BF9D0002B00F03E85012300E000230893199B0A9300230393059304930A22199D2E78A6F13003D9B2092911D804990829D5BF0599039902FB0133BB
:4045C00002FB0133D4BF05930393049B0135013304931995E6E7404602F086F90768404602F082F90068FFF709FF39460246284603F01CFC074628B100203346049D024607
:4046000001465AE0404602F06FF90068FFF7F6FE199B1A181992049A1B5C002A45D11046302B05D1199B5A1C199201305B78F7E7A3F13102082A46D8199A0A9202460020D5
:404640000546303B00F1010129D00A4405EB000C29460A2661450FD0013101F1FF3EBEF1080F03DC059F77430597F3E71029DEBF039F77430397EDE72844082800F101051D
:4046800005DC05980A2101FB0033059306E0102DDFBF03980A2101FB003303930021199B581C19905B78084602E0049D38463A46A3F130010929C4D90121652B01D0452B23
:4046C00051D16DB904E0652B40F0AD840022012128B9089B002B00F09480054600E00025199C631C199363782B2B06D02D2B02D00026069606E0012300E000230693A31C1E
:404700001993A378A3F13006092E2BD8302B04D1199B5E1C19965B78F8E7A3F13106082E21D8A3F1300E199B4FF00A0C1F46199B5E1C19965B78A3F13009B9F1090F04D89A
:404740000CFB0E3EAEF1300EF1E7F61B082E44F61F6902DCF145A8BFF146069E2EB1C9F1000902E019944FF00009002D51D1002840F04B84089A002A40F04784002940D1E2
:404780004E2B1FD006DC492B09D03AE0F88908100000F07F692B02D06E2B13D031E0A74919A801F0FFFF60B3199BA549013B19A8199301F0F7FF10B9199B01331993DFF834
:4047C0009CB21AE09F4919A801F0ECFFC8B1199B1B78282B0FD11CAA9B4919A801F0F5FF052808D11D9BDDF870A043F0FF4B4BF4E00B00F00ABCDFF868B24FF0000A00F07F
:4048000004BC159B1994002B00F00A8400230993FDE3049B0598002B08BF2B46102D2C46C2EB0909A8BF10240493FEF79BFB092C82468B4613DD854B03EBC40353E9122395
:40484000FEF706FC064603980F46FEF78BFB02460B4630463946FEF749FA82468B460F2D36DCB9F1000F00F0D08324DDB9F1160F07DC764D05EBC90952465B46D9E90001AD
:4048800014E0C5F12503994522DC704CC5F10F0504EBC501C5EB090552465B46D1E9000104EBC504FEF7D4FBD4E90023FEF7D0FB82468B46A9E319F1160F09DB634DA5EBC9
:4048C000C909D9E9002350465946FEF7EBFCEFE72C1B4C44002C56DD14F00F010AD05B4B03EBC10152465B46D1E90001FEF7B0FB82468B4634F00F0400F0B680B4F59A7F54
:404900000BDD0024A146059404942223C8F80030DFF848B14FF0000A7AE100234C4E2411504659461F46012C0ADDE20704D5D6E90023FEF78DFB0123013764100836F2E702
:404940000BB182468B46424BABF1547B03EBC70752465B46D7E90001FEF77AFB21F000438B460A461B0D3B491B058B428246C8D8A1F580118B4286BFDFF8E8B04FF0FF3A34
:4049800002F1547B70E06FD0644214F00F020AD02E4B03EBC20350465946D3E90023FEF781FC82468B4624115ED01F2C04DD0024A1460594049424E114F0100F0CBF0023E5
:4049C0006A23254E0393504659460023002C09DDE20704D5D6E90023FEF73AFB012364100836F3E70BB182468B46039BEBB1CBF30A53C3F16B03002B594616DD1F2B0EDD7B
:404A0000342BDEBF203B4FF0FF3202FA03F34FF0000ACCBF4FF05C7B03EA010B05E04FF0FF3202FA03F303EA0A0A002200235046594603F049FC0028B9D117E0B1890810E5
:404A40003C8B0810B9890810E4890810E88B0810C08B08100000A07C108A08100000F07F0000F8FFFFFFEF7F00230393059B0093049A0A992B46404602F084F8059000289B
:404A80003FF43FAFB9F1000FC9F10003A8BF00230E93002429EAE9730F93A146059B4046596801F0E8FF049000283FF42EAF059B1A69023203F10C0192000C3001F0D0FFA7
:404AC0001CAB01931BAB009352465B464046CDE90AAB02F008FB1A9000283FF416AF0121404602F0DAF8814600283FF40EAF1B9B03991C9D002BADBF0E9A0F9A0E9FD7183F
:404B0000B8BFD21AA3EB01032B44B249A8BF0F9A013B8B42C5F1360580F28680C91A1F29A5EB01054FF0010077DC00FA01F31493002306937E19039BB74215441D443B4686
:404B4000A8BF3346AB42A8BF2B46002BC2BFF61AED1AFF1A0E9B002B6BD1002E00F382800F9B002B40F08880002D00F38F80002F00F39680049A1A99404602F0E4F904461D
:404B800000283FF4C2AEC36808930023C360494602F0BDF9002880F29180089B002B40F00D82BAF1000F40F00982CBF31303002B40F004822BF000431B0D1B05B3F1D66FF6
:404BC00040F2FC816369002B74D021460122404602F04CF94946044602F099F9002840F3ED812BF00043039A1B0D1B05002A00F09480B3F1D66F00F39080B3F15C7F00F38F
:404C0000DF8122234FF0000A4FF0000BC8F80030059B002B40F0E581F7E16F4E1490F61A00FA06F3069385E7002306930123149380E749461A46404602F0CAF881460028A4
:404C40003FF463AE01461A9A404602F02FF8089000283FF45AAE1A99404601F041FF089B1A937AE732461A99404602F0FFF81A9000287FF475AF48E60F9A0499404602F051
:404C8000A7F8049000287FF46FAF3EE62A460499404602F0EBF8049000287FF468AF34E649463A46404602F0E1F8814600287FF461AF2AE62369012B87DC7FE162D1089AEA
:404CC000CBF3130322B345498B425A462ED1039B514663B1424B1340B3F1D46F07D81B0DC3F16B034FF0FF3000FA03F301E04FF0FF338B421AD13B498A4202D101333FF4E6
:404D000004AE374B134003F5801B4FF0000A55E163B9BAF1000F09D163E7A3F580136FEA135B6FEA0B5B4FF0FF3A47E1069B13B113EA0B0F02E0149B13EA0A0F00F03E81BD
:404D4000089B039A5046594653B1FFF772FB02460B46DDE90A01FDF7C9FF82468B462DE1FFF767FB02460B46DDE90A01FDF7BCFF0022002382468B4603F0A6FA00287FF40D
:404D800040AF1BE14946204602F0FBF900224FF0804306460F4603F0ABFA002841D0089B13B10022104B0FE0BAF1000F03D1CBF313033BB91CE0BAF1010F03D1BBF1000F28
:404DC0003FF41FAF094B0022CDE906230026064F3CE000BF02FCFFFFE2FBFFFFFFFF0F000000F07FFFFFEF7F0000F03F0000F0BF0022994B3046394603F070FA40B93046A3
:404E000039460022954BFEF723F906460F4601E0924F002607F1004316961793DDE9162312E08E4B304639460022FEF711F9089B06460F4623B901F100431090119301E06C
:404E4000CDE91067DDE91023CDE906232BF000452D0D834B2D059D422BD1DDE90A23ABF1547B50465946CDE90C2302F0CBF802460B46DDE90601FEF7EBF852465B46FDF720
:404E800035FF21F000431B0D764A1B05934282460CD9754B0D9A9A4203D10C9B01333FF434ADDFF8C4B14FF0FF3A76E001F1547B3BE0039B3BB3B5F1D46F24D85EA3D3E9B6
:404EC00000233046394603F013FAB8B139463046FEF7D0FA002808BF0120FEF743F8089B06460F4623B901F100431290139301E0CDE91267DDE91223CDE90623079B03F120
:404F0000D6635B1B0793DDE90A01DDE906AB02F079F802460B4650465946FEF799F8DDE90A23FDF7E3FE82468B46039B002B34D12BF000431B0D1B059D42CDF828B02CD1DB
:404F40003946304603F008FAFEF71CF80B46024639463046FDF7C8FE089BCDE9060133B9BAF1000F03D10A9BC3F313067EB134A3D3E90023DDE9060103F0B0F988BB32A342
:404F8000D3E90023DDE9060103F0C6F904E030A3D3E9002303F0A2F918BB1A99404601F09FFD0499404601F09BFD4946404601F097FD2146404601F093FD6FE5039B83B1FC
:404FC0002A4B0D9300230C9350465946DDE90C23FEF73EF882468B4619B910B92223C8F800301A99404601F07BFD0499404601F077FD4946404601F073FD0599404601F067
:405000006FFD2146404601F06BFD159B13B1159A199B1360099B1BB150460BF1004107E05046594604E000252A460121FFF747BB1FB0BDE8F08F00BF0000C0FFFFFFDF41F3
:405040009535A094FFFFDF3F35E5AF350000E03F9535A094FFFFCF3F0000F03F0000E03F0000E07FFFFF9F7CFFFFEF7F000050392DE9F04780464048D0F800900F463D4669
:4050800015F8014B09EB0400407800F0080000F0FF0608B12F46F2E72D2C03D1BD1C7C78012603E02B2C04BF7C78BD1C13B1102B0AD15BE0302C57D1287800F0DF00582880
:4050C0004DD16C7810230235002E14BF4FF0004C6FF0004C0027BCFBF3FA384603FB1ACC09EB040E9EF801E01EF0040F01D0303C0BE01EF0030E1BD0BEF1010F0CBF4FF047
:40510000370E4FF0570ECEEB0404A34210DDB7F1FF3F0AD0504506D801D1644503DC03FB0040012701E04FF0FF3715F8014BD7E77B1C0CD1002E4FF0220314BF4FF000403B
:405140006FF00040C8F800302AB9BDE8F08706B1404272B107B1691E1160BDE8F0873024002BB1D10823AFE70A23ADE7302CA3D0AAE7BDE8F08700BF14430208F8B50F4658
:405180001446064618B183690BB900F0E9FF224B9C4201D1746808E0204B9C4201D1B46803E01F4B9C4208BFF468A369A360A3891A0709D523693BB123682069181A6369CE
:4051C0009842FDB20FDB08E02146304600F02AF80028F1D04FF0FF30F8BD2146304600F043FF0028F6D1A368013BA36023685A1C22601F706269431C934204D0A389DB071E
:4052000007D50A2D05D12146304600F02DFF0028E0D12846F8BD00BF488B0810688B0810888B0810324B70B51D6806460C4625B1AB6913B9284600F093FF2E4B9C4201D11C
:405240006C6808E02C4B9C4201D1AC6803E02B4B9C4208BFEC68B4F90C309AB215071DD4D00602D4092232603AE0510712D5616B41B104F14403994202D0304601F0F4FFE0
:4052800000236363A38923F02403A3810023636023692360A38943F00803A38123694BB9A38903F42073B3F5007F03D02146304601F042FBA28912F0010305D00023A36081
:4052C00063695B42A36103E0920758BF6369A36023695BB9B4F90C3003F0800080B230B143F04003A3814FF0FF3070BD002070BD10430208488B0810688B0810888B0810D0
:405300002DE9F74F03690C699C42804600F38380013C01F114074FEA840E00F1140657F8245006EB0E030193013556F82430B3FBF5F507EB0E09002D39D04FF0000A3846A7
:40534000B446D34650F8042B93B205FB03A34FEA134A9BB2C3EB0B03120CBCF800B005FB02A213FA8BF34FEA124A1FFA82FBDCF80020CBEB124202EB23429BB243EA02432E
:4053800081454FEA224B4CF8043BDBD256F80E306BB9019B043B9E421A4602D3C8F8104005E01268043B002AF8D1013CF3E7404601F0ADFD00282CDB013530464FF0000EB0
:4053C00057F8041BD0F800C08AB2C2EB0E03090C13FA8CF3C1EB1C4202EB23429BB243EA0243B9454FEA224E40F8043BE8D256F8242006EB840362B9043B9E421A4602D3B0
:40540000C8F8104005E01268043B002AF8D1013CF3E7284600E0002003B0BDE8F08F00002DE9F04F456A97B08246239CCDE9022345B9102001F0BCFACAF82400456085607D
:405440000560C560DAF82430196859B15A684A60012393408B60504601F042FBDAF8243000221A60039BA04A002BBFBF01232360039B23F00043B8BF0393DDF80C80A4BF80
:405480000023236028F000431B0D1B0593421DD1229A42F20F731360029B43B9934A944BC8F31300002814BF1846104600E09048249B002B00F04A85C37813B100F10803CD
:4054C00000E0C31C249A136000F040BDDDE90245002200232046294602F0F6FE074658B1229A01231360249B002B00F0228581481860013800F02ABD14AB019315AB0093A1
:4055000022462B46504601F0EEFDC8F30A56059056B1C5F3130343F07F51204641F44011A6F2FF3611971DE0159B149E1E4406F23243202B0ADD029A06F21240C3F14003FA
:4055400022FA00F008FA03F3184304E0C3F12000029B03FA00F0FDF705FD0123A1F1F871013E11930022644BFDF7BEFB58A3D3E90023FDF76DFD58A3D3E90023FDF7B6FB5D
:40558000044630460D46FDF7FDFC55A3D3E90023FDF75EFD02460B4620462946FDF7A6FB04460D4602F0D8FE0022834600232046294602F093FE58B15846FDF7E3FC024635
:4055C0000B462046294602F07FFE08B90BF1FF3BBBF1160F0DD8494901EBCB01DDE90223D1E9000102F098FE30B10BF1FF3B002300E00123109300E01090149B9E1B731E97
:40560000089343BFC3F10009002308934FF00009BBF1000F07DB089BCDF834B05B4408930023099306E0CBF1000309930023CBEB09090D93209B092B27D8052BC4BF043B7C
:405640002093209BA3F10203CCBF00250125032B20D8DFE803F0060E0204012302E0012308E000230C93219B002B1CDD069398461EE000230C93219B5B4403F10108069377
:405680004346012BB8BF012312E00125002320930C9501E001230C934FF0FF33069398460022122303E00123069398461A462192DAF8244000226260042101F114029A4274
:4056C0001ED86268013262604900F6E7AFF3008061436F63A787D23FB3C8608B288AC63FFB799F501344D33F0000F07F398B0810428B0810E78C08100000F83FE88B081092
:405700006168504601F0B7F9DAF8243020601B680793B8F10E0F00F25D81002D00F05A819DED027BBBF1000F8DED0E7B31DDA04A0BF00F0302EBC30393ED007B4FEA2B1428
:40574000E2068DED0A7B0CD59A4BDDE90E01D3E90823FDF7A7FD04F00F04CDE90201032600E00226934D6CB1E30708D5DDE90A01D5E90023FDF76CFCCDE90A0101366410F9
:405780000835F0E7DDE90A23DDE90201FDF78AFD20E0CBF1000404B3854B864D04F00F0203EBC203D3E90023DDE90E01FDF750FCCDE9020124110023022654B1E70705D5D2
:4057C000D5E90023FDF744FC0136012364100835F3E71BB1CDE9020100E00226109BEBB1DDE902450022744B2046294602F076FDA0B1B8F1000F11D0069B002B40F3E68063
:405800000BF1FF330A9300226C4B20462946FDF71FFC0136CDE90201069F02E0CDF828B047463046FDF7AEFBDDE90223FDF710FC0022634BFDF75AFA0446A1F15075CFB900
:405840000022604BDDE90201FDF74EFA22462B46CDE9020102F060FD002840F04182224605F10043DDE9020102F038FD002840F02E82ABE00C9A4E4B791E002A4AD003EB2E
:40588000C103D3E9002300204F49FDF70BFD22462B46FDF729FA079C05460E46DDE9020102F05AFD1290FDF76DFB02460B46DDE90201FDF719FA129B303304F8013B2A462E
:4058C0003346CDE9020102F009FD002840F02183DDE9022300203849FDF706FA2A46334602F0FCFC002840F0D280079BE31ABB426CDA0022314B28463146FDF7A9FB002266
:4059000005460E462D4BDDE90201FDF7A1FBCDE90201C3E703EBC10122462B46D1E90001FDF796FB079BCDE91201DC191D46DDE9020102F011FD0646FDF724FB3036024632
:405940000B46DDE90201FDF7CFF905F8016BAC42CDE902014FF0000223D11B4BDDE91201FDF7C4F902460B46DDE9020102F0D4FC002840F08C80DDE9122300201249FDF72A
:40598000B3F902460B46DDE9020102F0A7FCE8B114F8013C302B04F1FF3240F0BA821446F6E7064BFDF754FBCDE90201BFE700BFE88B0810C08B08100000F03F000024400B
:4059C00000001C40000014400000E03FDDE90E34CDE90234159B002B7CDBBBF10E0F79DC8F4B03EBCB03D3E90067219B002B14DAB8F1000F11DC40F06C810022894B3046D8
:405A00003946FDF725FBDDE9022302F07BFC45464646002840F05F8166E1079C32463B46DDE90201FDF73EFC02F096FC0546FDF7A9FA32463B46FDF70BFB0B460246DDE99E
:405A40000201FDF751F905F1300E04F801EB079BC3EB040EF045CDE902012ED102460B46FDF744F98046894602460B463046394602F034FC78B942464B463046394602F03A
:405A800023FC002800F04782E90704D443E2DDF828B000E01C4614F8012C392A04F1FF3307D1079A9A42F5D1079930220BF1010B0A701A7801321A702DE200225A4BFDF79F
:405AC000C7FA00220023CDE9020102F0FDFB0028A4D020E20C9A002A2DD0209A012A0ADC119A12B103F2334302E0149BC3F13603099D4C4615E0099B08F1FF35AB42BFBF07
:405B0000099B0995EA1A0D9BB7BF9B185D1B0D930025B8F1000FB9BFC8EB090400234C464346089A01211A4450469944089201F0B4F8064602E0099D0C9E4C465CB1089B57
:405B4000002B08DDA342089AA8BF2346C3EB0909E41AD31A0893099B002B1DDD0C9BABB185B131462A46504601F032F9059A01460646504601F09AF805990746504600F021
:405B8000AFFF0597099B5A1B06D000E0099A0599504601F01DF905900121504601F07DF80D9B05465BB31A460146504601F010F9209B012B054618DC029B83B9039BC3F3B0
:405BC000130373B9039B23F000473F0D3F054FB1089B013309F101090893012702E0002700E0029F0D9B73B100E000272B6905EB8303186901F004F8C0F1200004E0209BF8
:405C0000012BD9DD0D9F0120089B184410F01F000ED0C0F12003042B08DDC0F11C0008E0E88B0810000014400000244006D018461C30089B0344814404440893B9F1000F0E
:405C400005DD4A460599504601F010F90590089B002B05DD29461A46504601F007F90546109BEBB12946059801F051F9002817DA00230A220599504600F049FF0C9B059000
:405C80000BF1FF3B002B00F05881002331460A22504600F03CFF069B002B064637DC33E0B8F1000F2ADC209B022B27DDCDF81880069B83B929460522504600F028FF014687
:405CC0000546059801F023F900280DDC03E03D4600E000252E46219B079C6FEA030B0AE0DDF828B03D463E46079B079A5C1C312313700BF1010BB0460026F7E00C9BCDF862
:405D0000188023B9079CB1E0209B022BD0DC002C05DD31462246504601F0A8F806469FB17168504600F0A7FE326902320446920006F10C010C3000F093FE012221465046E7
:405D400001F094F8804600E0B046029BDDF81C9003F00103089329460598FFF7D1FA3146044600F13007059801F0D1F8424602902946504601F0E7F8C36802463BB90146B0
:405D80000990059801F0C3F8099A034600E0012311465046099300F0A3FE099B4BB9209A3AB9089A2AB9392F28D0029B002B1ADC1BE0029A002A04DB1AD1209AC2B9089A9D
:405DC000B2B9002B11DD01220599504601F04EF82946059001F09BF8002802DC05D1FA0703D5392F0AD004F1310709F101040CE0002B09F101040BDD392F05D1392389F8CD
:405E0000003009F1010954E0013789F800706DE0079B069A04F8017CE31A9342A1463AD000230A220599504600F071FE464505904FF000034FF00A023146504604D100F0A5
:405E400066FE0646804686E700F061FE4146064600230A22504600F05AFE80467BE700230A220599504600F052FE059029460598FFF746FA00F1300704F8017B079B069A4C
:405E8000E31A9342EBDB079B012AACBF9B180133B0469946002601220599504600F0E6FF2946059001F033F8002802DC15D1FB0713D54C4614F8013C392B04F1FF3209D1CF
:405EC000079B934204D10BF1010B3123079A02E01446EFE70133137008E04C4614F8013C302B04F1FF3201D11446F7E72946504600F0F6FDB8F1000F0DD02EB1464503D088
:405F00003146504600F0ECFD4146504600F0E8FD01E0DDF828B00599504600F0E1FD0023229A23700BF101031360249B1BB11C6001E008480AE0079808E0069B002B3FF769
:405F4000E1AE209B022B7FF7DDAEB1E617B0BDE8F08F00BFE68C08108A892DE9F041054610070C4659D44B68002B02DC0B6C002B17DDE66AAEB102F48052002392B22F68DC
:405F80002B600AB1606D15E0216A01232846B047411C0FD12B686BB11D2B01D0162B03D12F600020BDE8F081A38943F04003A381BDE8F081A3895A0705D56368C01A636B30
:405FC0000BB1236CC01A00230246E66A216A2846B047431CA38906D129681D293AD8214ACA40D60736D500226260D9042269226004D5421C01D12B6803B96065616B2F60E3
:406000000029CED004F14403994202D0284601F02BF900206063BDE8F0810F69002FC0D093070E6808BF4B690F6018BF0023C7EB06088B6002E00744C0EB0808B8F1000FBE
:40604000AFDD43463A46216AA66A2846B0470028F1DCA38943F04003A3814FF0FF30BDE8F08100BF0100402038B50B6905460C46DBB118B183690BB900F072F80C4B9C429A
:4060800001D16C6808E00B4B9C4201D1AC6803E0094B9C4208BFEC68B4F90C302BB121462846BDE83840FFF757BF002038BD00BF488B0810688B0810888B0810014620B930
:4060C000044B0549186800F0D3B8044B1868FFF7CBBF00BFA88908106960081010430208014900F0C5B800BF69600810002310B5044603604360836081814366C2810361AF
:4061000043618361194608225C30FDF7D3F9054B6362054BA362054BE362054B2462236310BD00BFA77D0810C97D0810017E0810257E081070B568234D1E5D430E4605F12A
:40614000740101F0DFF8044640B1002180E842000C30A06005F16802FDF7ACF9204670BD836910B5044633BB8364C3640365124B124A1B688262984204BF0123836100F000
:406180001FF86060204600F01BF8A060204600F017F80022E06004216068FFF7A7FF01220921A068FFF7A2FF02221221E068FFF79DFF0123A36110BDA8890810E16008109B
:4061C000F8B51C4B1E68B369074613B93046FFF7C7FF4836B4687368013B04D4B4F90C507DB16834F8E733680BB13668F2E704213846FFF79FFF30600028F6D10C233B6015
:40620000F8BD4FF6FF73E3810123A38165662560A560656025616561A5610822294604F15C00FDF747F96563A563A564E5642046F8BD00BFA88908102DE9F041884600F171
:40624000480400268CB1A5686768013F0BD4AB89012B06D9B5F90E30013302D02846C04706436835F1E72468ECE73046BDE8F0812DE9F8438046894600F14804002694B197
:40628000A5686768013F0CD4AB89012B07D9B5F90E30013303D029464046C84706436835F0E72468EBE73046BDE8F883F0B506694B11B34200F1140527DA11F01F0105EB79
:4062C000860605EB830201D1294616E0141D55F82320C1F1200ECA402B46B44209D2276807FA0EF73A4343F8042B54F8042BCA40F3E71A6052B1043308E0B2420B4605D2E6
:4063000052F8043B41F8043BF7E72B465B1B9B10036103B94361F0BDA0F13003092B01D820380AE0A0F16103052B01D8473804E0A0F14103052B02D82738C0B27047002080
:4063400070472DE9F04F8BB08A4690460693029000F0CAFA036803931846FEF74FF8039B019003444FF0000B13F8013C0793DAF8003002331F4613F8010B302802D10BF13A
:40638000010BF7E7FFF7C8FF0446E0B9019A0399384601F04BFD002834D1019BF85CFE18FFF7BAFF80B33346187830281F4603F10103F9D0FFF7B0FFB0FA80F56D09344615
:4063C0004FF0010B01E000252C463A46164601323078FFF7A1FF0028F8D1019A0399304601F024FD50B954B9019BF4182246164601323078FFF790FF0028F8D134B1A41B66
:40640000A40003E03E4600E0044601253378502B01D0702B2AD173782B2B08D02D2B03D0711C4FF0000905E04FF0010901E04FF00009B11C0878FFF76FFF431EDBB2182B22
:4064400014D8A0F1100211F8010FFFF765FF431EDBB2182B04D80A2303FB0202103AF2E7B9F1000F00D05242144400E03146CAF800102DB1BBF1000F14BF002006207CE10E
:40648000F31B013B2946072B02DD01315B10FAE7029800F0F0FA019B00F1140A4FF00009C3F101030546CDF810A0CB460893B7422FD2731E0593079A16F8013C93420BD04A
:4064C000BBF1200F16D1049BC3F8009004334FF000090493CB460DE0059B089A13449F42EED81846019A0399099301F09FFC099B68B1E5E716F8010CFFF70EFF00F00F0039
:4065000000FA0BF0059B49EA00090BF1040B1E46CDE7049840F8049BCAEB0000801028614701484600F06CFBD8F80060381AB04226DD871B3946284600F066FEC8B17B1E8D
:40654000591103F01F024FF001095AF8211009FA02F20A420ED04B4502DC4FF0020909E0B91E284600F050FE0028F6D04FF0030900E0814639462846FFF798FE3C440CE0C7
:4065800009DA371A29463A46029800F06FFCE41B054600F1140A4FF00009D8F808309C4208DD0298294600F09BFA149A00231360A320E2E0D8F80400844253DA041BA64232
:4065C0002EDCD8F80C30022B1AD0032B1CD0012B1DD1A6421BD1012E0BDC069AD8F80430136001232B61CAF80030149B62201D60C3E0711E284600F007FE0028EDD106E088
:40660000159B002BE9D002E0159B002BE5D10298294600F065FA149A002313605020ACE0671EB9F1000F06D13FB13946284600F0EBFD814601E04FF001097A11012307F05A
:406640001F0703FA07F75AF8223021461F42284618BF49F00209361BFFF728FE0227D8F8044000E00127B9F1000F00F08180D8F80C30022B0ED0032B10D0012B76D119F007
:40668000020F73D0DAF8000049EA000919F0010F07D16BE0159BC3F101031593159B002B64D0D5F810A005F114034FEA8A0903EB090100201A68B2F1FF3F02D001321A60CD
:4066C00020E043F8040B9942F4D8AB689A4512DB69680298013100F0CEF92A69023205F10C01834692000C3000F0BAF92946029800F0F6F95D462B695A1C05EB83032A61DC
:4067000001225A61022F05F1140211D1D8F80030013B9E4227D17111012306F01F0603FA06F652F821301E420CBF022701271AE02B699A450ADA01212846FFF7B7FDD8F81C
:40674000083001349C423FF72CAF0BE016F01F0608D09144C6F1200659F8040C00F050FAB042E8DB012747F0200701E047F01007149B1D60069B38461C600BB0BDE8F08F72
:40678000C2F10802920070B5C2F120064368056803FA06F42C43D340046040F8043F8842F4D370BD30B5036811F8014B01334CB11A78A2F14105192D98BF2032A242F3D087
:4067C000002030BD0360012030BD2DE9F04F0B68D0F800B05E1102EB860613F01F0385B018BF0436351F174600228246019346F8042CA8462C46009291461BF8011F0029C6
:406800003CD0084603920291FFF786FD039A00BB0299202916D8009B9945EEDD444505D2072A03DC41462046FFF7AAFFBC4223D90023A4F1040844F8043CCDF800904446DA
:406840001A46DAE7292948D10BF10103CAF8003014E00132082A09F1010906DDBC42CCD9002344F8043C0122043C216800F00F0040EA01102060C0E70822BEE7B9F1000F43
:406880002BD0444505D2072A03DC41462046FFF777FFBC420CD93B4654F8042B43F8042BA542F9D2002243F8042B9D42FBD20BE0019B4BB1C3F120024FF0FF33D34056F8B6
:4068C000042C134046F8043C2B6843B9BD4202D101232B6003E0043DF6E7042000E0052005B0BDE8F08F0000004870471843020870B50E46B1F90E10002990B014461D46B9
:4069000006DA00232B60B3891A060ED540230EE001AA01F0EFFB0028F3DB029A02F47042A2F500535A425A412A604FF480630020236010B070BD00008B8973B59E070546EC
:406940000C4610D401AB6A46FFF7D2FF00990646284600F0D7FC68B9B4F90C309A0522D443F00203A38104F14703236023610123636118E00D4BAB62A389206043F08003C0
:40698000A381009B6361019B20614BB1B4F90E10284601F0C1FB18B1A38943F00103A381A0893043A08102B070BD00BFE1600810024B0146186800F0A5BC00BF10430208D0
:4069C00001F0FF01102A2BDB10F0070F08D010F8013B013A8B422DD010F0070F42B3F6D1F0B441EA012141EA014122F007047FF000070023F0E80256083C85EA010586EAF0
:406A0000010685FA47F5A3FA87F586FA47F6A5FA87F68EB9EED1F0BC01F0FF0102F0070232B110F8013B013A83EA010313B1F8D10020704701387047002D06BF3546033835
:406A4000073815F0010F07D1013015F4807F02BF013015F4C03F0130F0BC0138704700BF10B5431E0A44914204D011F8014B03F8014FF8E710BD70B5456A04460E463DB95C
:406A80001020FFF795FF6062456085600560C560656AEB6843B1636ADB6853F8260078B1026843F8262017E021220421204600F0CDFB636AE860DB68002BECD1002070BD91
:406AC000012101FA06F56A1D9200204600F0BEFB0028F3D04660856000230361C36070BD70B5446A06460D463CB91020FFF760FF7062446084600460C4603DB1736A6A689E
:406B0000DB6853F82210296043F8225070BD2DE9F0410D691F4606460C4601F1140E0023DEF8000081B202FB01710F0C000C02FB007089B2013301EB00419D424FEA104724
:406B40004EF8041BECDCD7B1A3689D4212DB616830460131FFF78FFF2269023204F10C01804692000C30FFF77BFF21463046FFF7B7FF444604EB850301355F612561204663
:406B8000BDE8F0812DE9F8430C4615461F4609220833064693FBF2F3002101229A4202DA52000131FAE73046FFF765FF089B4361092D4FF00103036111DD04F10908C146E7
:406BC0002C4419F8013B0146303B0A223046FFF79EFFA145F5D108EB0504083C01E00A3409252D1B63199F4208DD14F8013B0146303B0A223046FFF78AFFF3E7BDE8F88319
:406C0000030C1B0413B90004102300E0002310F07F4F04BF0002083310F0704F04BF0001043310F0404F04BF80000233002803DB420003D5581C704718467047202070473A
:406C4000036813F007020BD0D90722D49A074BBF5B089B08036003604CBF01200220704799B209B91B0C102213F0FF0F04BF1B0A0832190704BF1B090432990704BF9B0894
:406C80000232D90702D45B0805D00132036010467047002070472020704710B50C460121FFF7E9FE01224461026110BD2DE9F74F14460A6923699A42B8BF0B468846BCBF91
:406CC000A0461C46D8F81070D4F81090D8F80830D8F8041007EB09069E42C8BF0131FFF7CAFE00F1140505EB860C2B460022634502D243F8042BFAE704F1140208F114014D
:406D000002EB890301EB87070093009B0192934257D9B2F800B0BBF1000F23D08946AE464FF0000859F8044BBEF800A0A3B20BFB03A34FEA144ADEF8004043444FEA1448C8
:406D40000BFB0A8404EB1344F2469BB243EA04434F454FEA14484AF8043B01D9D646E1E7CEF80480019BB3F802A00432BAF1000F21D02B682C4689464FF00008B9F800E018
:406D8000B4F802B00AFB0EBEF044A3469BB243EA08434BF8043B59F8043BB4F804E01B0C0AFB03E303EB18434F454FEA134801D95C46E3E763600435A7E75CF8043D13B96C
:406DC000013E002EF9DC066103B0BDE8F08F00002DE9F843154612F0030206460F4607D0013A214C002354F82220FFF790FE0746AD1036D0746A3CB91020FFF7D9FD70625A
:406E0000446084600460C460D6F82480D8F808404CB940F271213046FFF73FFF0023C8F80800044603604FF00008EB070AD5394622463046FFF73AFF394681463046FFF757
:406E40004FFE4F466D100CD0206808B10446ECE7224621463046FFF729FF2060C0F80080F4E73846BDE8F883B08B08102DE9F0470C464FEA621A26694968A368564407460C
:406E80009146751CAB4202DA01315B00FAE73846FFF7F1FD0023804600F114011A46534503DA41F823200133F9E72AEAEA73206901EB830319F01F0904F1140101EB800E5C
:406EC00014D0C9F1200C0022086800FA09F002439A4643F8042B51F8042B8E4522FA0CF2F2D8CAF8042042B1B51C06E0043B51F8042B43F8042F8E45F9D8013D3846C8F8B0
:406F000010502146FFF7ECFD4046BDE8F08703690A699B1A10B511D192001430143183180A4453F8044D52F8041D8C4202D007D3012010BD9842F4D3002010BD184610BDA2
:406F40004FF0FF3010BD2DE9F8430C460746114620461546FFF7DBFF061E08D131463846FFF789FD012303614661BDE8F883BCBF23462C4638466168BABF1D46012600267B
:406F8000FFF779FD2B69C660266905F11409143404EB860709EB830800F114054FF0000C54F8043B59F8042B1CFA83F11FFA82FE120CCEEB0101C2EB134303EB214389B2DA
:406FC0004FEA234CC84541EA0343A64645F8043BE6D8BE450ED25EF8041B1CFA81F2131403EB114392B242EA03424FEA234C45F8042BEEE755F8043D0BB9013EFAE7066184
:40700000BDE8F883104B0B40A3F15073002B02DD0020194670475B421B15132B4FF000004FF0000104DC4FF4002242FA03F17047143B1E2B4FF00102DABFC3F11F0302FAF8
:4070400003F31346184670470000F07FF8B5056900F1140606EB85052F1F55F8044C2046FFF7CEFDC0F120030A280B6014DCC0F10B0E24FA0EF1BE4241F07F5334BF55F8FF
:40708000081C0021153004FA00F021FA0EF143F4401340EA010223E0BE423ABFA5F1080755F8081C00210B3815D08440C0F1200544F07F5444F44014B74221FA05FE44EABA
:4070C0000E038CBF57F8044C002401FA00F0EC4040EA040204E044F07F5343F440130A4610461946F8BD2DE9F34101211C46089E099D9046FFF7BFFCC4F31303C4F30A5479
:4071000007460CB143F480130193B8F1000F19D002A840F8088DFFF793FD009B48B1019AC0F1200102FA01F10B43C2407B61019200E07B61019BBB61002B14BF02210121E4
:40714000396107E001A8FFF77BFD019B7B6101213961203034B1A4F2334404443460C0F1350009E007EB8103A0F2324030601869FFF746FDC0EB41102860384602B0BDE839
:40718000F0812DE9F743884669468146FFF75EFF0D46044601A94046FFF758FFD9F81030D8F810200F469A1A9DE80A00C91A01EB4213002BC8BF05EB03550646D8BFA7EB21
:4071C000035732463B4620462946FCF76BF803B0BDE8F083013910B549111469013102F1140300EB810103EB8404A342024604D253F8042B40F8042BF7E700238A4202D2CC
:4072000042F8043BFAE710BD00F1140200694B11984210B50CDB0CDD11F01F0109D052F8234024FA01F000FA01F18C420CD100E0034602EB8303934204D953F8041D0029BC
