:020000041008E2
:4000000000780408EB0208100D0000005103081051030810510308105103081000000000000000000000000000000000F12208104D0308100000000091230810F5230810EB
:400040004D0308104D0308104D0308104D0308104D0308104D0308104D0308104D0308104D0308104D0308104D0308104D0308104D0308104D0308104D0308104D03081000
:400080004D0308104D0308104D0308104D0308104D0308104D0308104D0308104D0308104D0308104D0308104D0308104D0308104D0308104D0308104D0308104D030810C0
:4000C0004D0308104D0308104D0308104D0308104D0308104D0308104D0308104D0308104D0308104D0308104D0308104D0308104D0308104D0308104D0308104D03081080
:400100004D0308104D0308104D0308104D0308104D0308104D0308104D0308104D0308104D0308104D0308104D0308104D0308104D0308104D0308104D0308104D0308103F
:400140004D0308104D0308104D0308104D0308104D0308104D0308104D0308104D0308104D0308104D0308104D0308104D0308104D0308104D0308104D0308104D030810FF
:400180004D0308104D0308104D0308104D0308104D0308104D0308104D0308104D0308104D0308104D0308104D0308104D0308104D0308104D0308104D0308104D030810BF
:4001C0004D0308104D0308104D0308104D0308104D0308104D0308104D0308104D0308104D0308104D0308104D0308104D0308104D0308104D0308104D0308104D0308107F
:400200004D0308104D0308104D0308104D0308104D0308104D0308104D0308104D0308104D0308104D0308104D0308104D0308104D0308104D0308104D0308104D0308103E
:400240004D0308104D0308104D0308104D0308104D0308104D0308104D0308104D0308104D0308104D0308104D0308104D0308104D0308104D0308104D0308104D030810FE
:400280004D0308104D0308104D03081010B5054C237833B9044B13B10448AFF300800123237010BDEC48020800000000DC290810084B10B51BB108490848AFF30080084812
:4002C000036803B910BD074B002BFBD0BDE81040184700BF00000000F0480208DC290810B8420208000000007047FFF7FDFF72B6104C114DAC4209DA21686268A368043B53
:40030000A2BFC858D050FAE70C34F3E70B490C4A00209142BCBF41F8040BFAE709480A490860BFF34F8F00F059F900F033F900F03DF8FEE7E0290810F8290810EC48020844
:40034000B87402080040020808ED00E0FEE7FEE700B504207146084202D0EFF3098001E0EFF30880043000F085FDFEE708B5064C082565604FF4FA7001F022FCA5604FF46C
:40038000FA7001F01DFCF2E70003324008B5064C0225A5604FF4FA7001F012FC65604FF4FA7001F00DFCF2E78003324030B583B062B6002401940125009523464FF4C872D0
:4003C0000849094801F086FA0194009523464FF4C8720649064801F07DFA01F0ADFA204603B030BD742608106D030810802608108D03081008B5012000F0B6FC08BD00BF93
:40040000704700BF5C4AD2F8803303F00F0303F1D00152F8212002F00702032A04D0042A05D092B9554914E0554A116811E003F1C002514951F8222002F01F02112A06D0EA
:40044000132A04D04FF4FA4103E04E4901E04FF400418BBB484BD3F8902502F00100D3F88825C2F30172D3F8883513F0405F07D0414BD3F88835C3F30173012B02D102E002
:40048000012300E0002303B108B9032A46D13A48D0F88025C2F31103D0F88425C2F30C02D0F88005C0F300600130B1FBF2F202FB03F2B2FBF0F131E0012B2FD12E4BD3F84E
:4004C000402602F00100D3F80026C2F30172D3F8003613F0405F07D0274BD3F80036C3F30173012B02D102E0012300E0002303B108B9032A12D12048D0F8002602F07F021D
:40050000D0F80036C3F30423D0F80006C0F3044002FB01F2B2FBF3F2B2FBF0F1164BD3F88033C3F3011321FA03F215494A601648D0F89030C3F3072301330069000E0130A8
:40054000B2FBF0F08860B2FBF3F3CB600B6103F5742202F23F220D48A0FB0202C2F387420A7503F2E7330A4AA2FB03239B098B61DB03CB61704700BF0000264000127A00E0
:400580008C42020800366E010000214083DE1B43D34D621008B50D4800F0CEFCFFF730FFFFF730FF00221146042000F0A5F9084800F038FA074B1B6893F8513013B1064866
:4005C00000F0A0FA00F0E2F808BD00BFBC28081008490208647402088C26081008B500F0A4FC074AD2F8883043F47003C2F88830BFF34F8FBFF36F8F00F09BFC08BD00BF99
:4006000000ED00E01F4B98422DD00CD840282ED003D8E8B1102828D02FE0802829D0B0F5807F28D029E0184B984228D006D8B0F1204F0DD0154B984212D01EE0144B984216
:400640000AD00133984209D0023B984215D101E0002070470F4870470F4870470F4870474FF4A0007047074870470D4870470D4870470D487047034870470C4870474FF4C6
:40068000A400704706005200010000F0090000A0040000F0010052000200520003005200010050000200500005005200FF00520038B5124B1B6893F83130012B04D840F2BF
:4006C000C3110F4800F0C6FB0C4B1D682A6AB5F8B03013442C46D5F8B420D358002B0BDB084B1868FFF78EFF6B6801229A6063689B68002BFBD138BD034838BD6474020859
:40070000C0260810884A0208020050001A4B186128B102230370FF23437000234380174B1B6893F850202AB300B583B0B3F93830ADF80030002301931149684600F04EFBFD
:40074000BDF90030002B08DB590903F01F03012202FA03F30B4A42F82130084B1B6893F8513023B102220849012000F077FA03B05DF804FB704700BF884A02086474020831
:400780002943020800E100E0E143020808B50248FFF7BCFF08BD00BF9C4A020838B50B4B1B68D3F8B4301B58002B0DDA0D4604460B0C1B0423B140F2D521054800F04AFB5D
:4007C000A9B26160002038BD024838BD647402080027081001008A0038B50368002B01DA002300E0094B73B90D460446C2600B0C1B0423B140F2BB21054800F02BFBA9B267
:40080000A160002038BD014838BD00BF01008A000027081038B504460D4619B99921084800F018FB074B1B68D3F8B4301B59002B03DAE3682B60002038BD034838BD00BF88
:40084000402708106474020801008A00254B1B6893F8313083423AD900293AD00B6813F01F0F38D170B50D4604461E4B1B6893F83130984204D340F2C3111B4800F0EAFA6D
:40088000184B1B68186AB3F8B03004FB0304174E34602A68D2080021686801F0C4FE00212046FFF77BFF346825B940F293310E4800F0D0FA2A4600212046FFF78DFF60B92D
:4008C00000210A4B1868FFF769FF40B970BD084870470748704706487047064870BD054870BD00BF6474020800270810A04A020803018A0001018A0010B504461346B2B9B6
:40090000A9B9124B1B6893F83130984204D340F2C3110F4800F09EFA0C4B1B681A6AB3F8B03004FB03240B4B1C60002010BD43B149B1084A51609360111D2046FFF786FF32
:4009400010BD054810BD044810BD00BF6474020800270810A04A020803018A002DE9F0411B4B1B68DC68236883422CD90D464609A0EB4610012303FA00F819B900F0D5FA1F
:40098000074600E00027124B18680368002B01DA002300E00F4B83B9626852F8263018EA030F05D023EA080342F82630002400E0094C0021FFF7F2FE00E0084C25B9384611
:4009C00000F0B7FA00E0064C2046BDE8F08100BFA04A020801008A00020188000301880004018A000B4B1B68DB681A6882420CD94109A0EB4110012202FA00F05B6853F83A
:400A00002130184203D004487047044870470448704700BFA04A02080101880004018A0000018800024B1B680BB9014B18607047AC4A02082DE9F8430446884691461D4628
:400A4000089F2C4B1B681BB9B5212B4800F002FA284B1B682C2000FB04F01C18EEB21E50C5F3072363602D0CA560244B1B6893F831309E4204D340F2C311214800F0EAF99F
:400A80001E4B1B68196AB3F8B02006FB02162661666893F832309E4204D340F2DF11184800F0D8F9154B1B681D6A803605EB46156561A668330C1B0423B14FF4FF7110487B
:400AC00000F0C8F9330C1B0423B140F2FF110C4800F0C0F9B3B243EA0646AE60C4F81C90C4F820800023A36117B1B7F90030A381BDE8F883AC4A0208802708106474020870
:400B000000270810F0B58FB0044618B95221274800F0A0F9A369072B03D95621234800F099F9E36A1BB95821204800F093F9236B1BB959211D4800F08DF907AD04F1140696
:400B40000FCE0FC537682F6002AD26460FCE0FC533682B60164B1B68B3F93620079B1344ADF83030089B0D93A26AE16A0CAD00953B460A98FFF75EFF00210091069B0A46BF
:400B80000598FFF757FF216B284600F027F9BDF93030002B08DB590903F01F03012202FA03F3044A42F821300FB0F0BD802708106474020800E100E0F8B506460F461D463A
:400BC00014461AB9FD211F4800F044F91E4B1B681BB9FE211B4800F03DF91B4B1B682C2101FB063001FB07314B68012202FA03F31B04466802FA06F60269EAB18F69EFB9DF
:400C00001268002A01DA002200E0104AC2B92288134323600369DC6001238B614D620469330C1B0423B140F2BB21094800F012F9B2B2A2600020F8BD0648F8BD0648F8BD3A
:400C40000548F8BD80270810AC4A020801008A000027081004028A0007028A00F8B505460F4616460E4B1B6823B94FF4AF710D4800F0F0F80A4B1B682C2404FB0534236AE8
:400C800023B94FF4B171074800F0E4F8E369B34204D9236A43F826700020F8BD0248F8BDAC4A0208802708100A028A0070B582B000230193044620B940F2D111284800F08E
:400CC000C9F8236923B94FF4E971254800F0C2F8636923B940F2D311214800F0BBF8236A23B94FF4EA711E4800F0B4F86369DD682A0C20D012041A601B682069194B1B688A
:400D0000D3F8B430C358002B15DA01A9FFF782FD60B9019803681E0CDBB2E269934206D2226A52F8233013B1984700E0002631462069FFF733FDADB275B16369ADB21D60BF
:400D40001B68636A1BB198470023636202E0A36A03B198470023A36163691B6802B070BD802708106474020810B50446074B1B6823B940F2B111064800F06CF8034B1B68F1
:400D80002C2000FB0430FFF791FF10BDAC4A02088027081038B50D4B9A680D4B9A420FD10D46044621B940F237110A4800F052F804F11003064A52F8230042F8235038BD67
:400DC0001030054B53F8200038BD00BF00ED00E000400208C02708100000081048B338B504460D464368072B03D93221134800F031F8B4F900306268002B08DB5201D2B285
:400E000003F1604303F5614383F8002305E003F00F035201D2B20A49CA540A4B9A680A4B9A4208D12946B4F90000FFF7B3FF002038BD06487047002038BD00BFC02708109D
:400E400014ED00E000ED00E0004002080100560001BEFEE738B50D46044C18220146204601F0E9FBA5610020FFF7F2FF58480208FEE700BF08B50268254BDA6142681A62E0
:400E800082685A62C2689A620269DA6242691A6382695A63C2699A631E4A916AD963D16A1964516A5964516B9964926BDA64F1EE103A13F0900F27D0026A154B1A65426A4B
:400EC0005A65826A9A65C26ADA65026B1A66426B5A66826B9A66C26BDA66026C1A67426C5A67826C9A67C26CDA67026DC3F88020426DC3F88420826DC3F88820C26DC3F859
:400F00008C20026EC3F89020FFF7B2FF08BD00BF5848020800ED00E00230800803D001300238FCD100BF00BF7047EFF3108072B6704780F310887047014B1860704700BF41
:400F40006474020800F1080343604FF0FF328260C360036100230360704700BF00230361704700BF43684B609A688A609A68516099600861036801330360704730B40D68B5
:400F8000B5F1FF3F01D1026907E000F1080200E01A4653681C68A542FAD253684B6099608A605160086103680133036030BC704703694268816891608268416851605A68FE
:400FC000904201D182685A60002202611A68013A1A601868704700BF10B5044601F09AF9A26BE36B9A4201D1012400E0002401F0B3F9204610BD00BF10B5044601F08AF920
:40100000A36B0BB9012400E0002401F0A5F9204610BD00BF70B504461646856B026CFAB166B9806801F0F4FAA268236C1344A3606268934214D32368A36011E0C06801F069
:40104000E7FA236C5B42E2681A44E26021688A4202D262681344E360022E01D105B1013D0135A563002070BD026C72B110B50346C4681444C4604068844201D31868D8602A
:401080000846D96801F0C4FA10BD704738B5054601F040F995F8454064B20AE06B6A53B105F1240000F050FE08B100F0DBFE013C64B2002CF2DCFF2385F8453001F04CF9B0
:4010C00001F028F995F8444064B20AE02B6953B105F1100000F038FE08B100F0C3FE013C64B2002CF2DCFF2385F8443001F034F938BD00BF38B540B94FF03F0383F31188F7
:40110000BFF36F8FBFF34F8FFEE704460D4601F001F92168E26B236C03FB021060600020A063A160013A02FB0313E360FF2384F8443084F845307DB92369ABB104F11000F2
:4011400000F002FE80B14FF08052094B1A60BFF34F8FBFF36F8F07E004F11000FFF7F2FE04F12400FFF7EEFE01F0F6F8012038BD04ED00E010B5029B0C4609B91B6000E0CB
:401180001A60D8631C6401211846FFF7B3FF10BD40B94FF03F0383F31188BFF36F8FBFF34F8FFEE7F0B583B0034611B101FB00F000E000201D4617460C46483001F0ECF928
:4011C000064638B100903B4600F1480221462846FFF7D0FF304603B0F0BD00BFF0B585B0019240B94FF03F0383F31188BFF36F8FBFF34F8FFEE7044619B9026C1AB90122A4
:4012000002E0012200E0002242B94FF03F0383F31188BFF36F8FBFF34F8FFEE7022B03D1E26B012A02D102E0012200E0002242B94FF03F0383F31188BFF36F8FBFF34F8FD9
:40124000FEE71D460E4600F015FE18B9019B1BB9012302E0012300E0002343B94FF03F0383F31188BFF36F8FBFF34F8FFEE7002701F050F8A26BE36B9A4201D3022D21D124
:401280002A4631462046FFF7C5FE636A6BB104F1240000F059FD88B14FF08052324B1A60BFF34F8FBFF36F8F08E038B14FF080522D4B1A60BFF34F8FBFF36F8F01F04CF816
:4012C00001204EE0019B1BB901F046F8002048E01FB902A800F07CFD012701F03DF800F069FB01F017F894F844305BB2B3F1FF3F02D1002384F8443094F845305BB2B3F1A4
:40130000FF3F02D1002384F8453001F025F801A902A800F067FDF0B92046FFF75DFEA0B1019904F1100000F0D7FC2046FFF7AEFE00F0CEFB00289BD14FF080520A4B1A608A
:40134000BFF34F8FBFF36F8F92E72046FFF79EFE00F0BEFB8CE72046FFF798FE00F0B8FB002005B0F0BD00BF04ED00E02DE9F84340B94FF03F0383F31188BFF36F8FBFF3BD
:401380004F8FFEE7044619B9006C18B9012002E0012000E0002040B94FF03F0383F31188BFF36F8FBFF34F8FFEE7022B03D1E06B012802D102E0012000E0002040B94FF0BC
:4013C0003F0383F31188BFF36F8FBFF34F8FFEE71F469046894601F0A1F8EFF311864FF03F0383F31188BFF36F8FBFF34F8FA26BE36B9A4201D3022F1ED194F845506DB22F
:401400003A4649462046FFF705FEB5F1FF3F0DD1636A9BB104F1240000F096FC80B1B8F1000F0FD00120C8F800000CE06B1C5BB284F84530012006E0002004E0012002E0A0
:40144000012000E0012086F31188BDE8F88300BFF0B585B0019240B94FF03F0383F31188BFF36F8FBFF34F8FFEE7044619B9036C1BB9012302E0012300E0002343B94FF077
:401480003F0383F31188BFF36F8FBFF34F8FFEE70E4600F0EFFC18B9019B1BB9012302E0012300E0002343B94FF03F0383F31188BFF36F8FBFF34F8FFEE7002700F02AFF28
:4014C000A56BC5B131462046FFF7CEFD013DA563236963B104F1100000F036FC38B14FF08052304B1A60BFF34F8FBFF36F8F00F033FF012053E0019B1BB900F02DFF00206A
:401500004DE01FB902A800F063FC012700F024FF00F050FA00F0FEFE94F844305BB2B3F1FF3F02D1002384F8443094F845305BB2B3F1FF3F02D1002384F8453000F00CFFA5
:4015400001A902A800F04EFCF0B92046FFF754FDA0B1019904F1240000F0BEFB2046FFF795FD00F0B5FA0028A8D14FF080520D4B1A60BFF34F8FBFF36F8F9FE72046FFF7A7
:4015800085FD00F0A5FA99E72046FFF77FFD00F09FFA2046FFF730FD00288FD0002005B0F0BD00BF04ED00E000230BE0074A52F8332032B9054A42F8331002EBC3035860F9
:4015C00070470133092BF1D9704700BF6874020870B504460D46164600F09CFE94F844305BB2B3F1FF3F02D1002384F8443094F845305BB2B3F1FF3F02D1002384F8453052
:4016000000F0AAFEA36B2BB93246294604F1240000F07CFB2046FFF739FD70BD094B9B6A1B680BB9012300E0002323B14FF0FF32044BDA627047034B9A6AD268D26852682D
:40164000DA627047EC4A020810B50446006B00F0D3FF204600F0D0FF10BD00BF2DE9F0478246894615469846089F099E0A9C9200A521206B00F0D7FF236B05F18042013A0F
:4016800003EB820525F00705002308E019F80310E21882F8341019F8032012B101330F2BF4D9002384F84330062F00D90627E762201DFFF753FC04F11800FFF74FFC246190
:4016C000C7F10703A3616462002306E003F1100204EB8202002151600133042BF6D90023A36584F85C3042465146284600F0E4FD206006B13460BDE8F08700BF70B5002458
:4017000007E004EB8402930010481844FFF71AFC0134062CF5D90E4C04F1BC063046FFF711FC04F1D0052846FFF70CFC04F11400FFF708FC04F1E400FFF704FC2046FFF7D7
:4017400001FCA662C4F8F85070BD00BF1C4B0208EC4A020838B5044600F0DCFD264BD3F8FC200132C3F8FC20D3F800314BB9224BC3F80041D3F8FC30012B10D1FFF7BEFF41
:401780000DE01D4BD3F804314BB91B4BD3F80031DA6AE36A9A4202D8174BC3F80041164AD2F808310133C2F80831E36AD2F80C21934202D9104AC2F80C310F4D05F1300078
:4017C00003EB83039A00211D1044FFF7CBFB00F0C3FDD5F804316BB1D5F80031DA6AE36A9A4207D24FF08052044B1A60BFF34F8FBFF36F8F38BD00BFEC4A020804ED00E09C
:4018000038B517E000F086FD0D4CD4F8F030DD68281DFFF7CDFBD4F8FC30013BC4F8FC30D4F81031013BC4F8103100F095FD2846FFF70AFF024BD3F81031002BE2D138BD47
:40184000EC4A020808B5FFF7DBFF064B1B6B012BF9D94FF08052044B1A60BFF34F8FBFF36F8FF0E7EC4A020804ED00E070B504460E46174BD3F81451D3F800010430FFF779
:4018800097FBB4F1FF3F07D136B11148D0F800110431FFF767FB70BD2C440D4BD3F800315C60A54208D90A4BD3F8F800D3F800110431FFF763FB70BD054DA86AD5F80011D4
:4018C0000431FFF75BFBEB6A9C4200D2EC6270BDEC4A02082DE9F04385B006460F4615469846900000F058FE60B18146602000F053FE044610B1C0F8309004E0484600F0FB
:401900007BFE00E000248CB10023039302940D9B01930C9B009343462A4639463046FFF79DFE2046FFF716FF012001E04FF0FF3005B0BDE8F08300BF00B583B0194B01935C
:4019400000230093802218491848FFF7C3FF012801D100F0F5FA012814D14FF03F0383F31188BFF36F8FBFF34F8F114B4FF0FF32DA620122C3F804210022C3F8142100F0D1
:401980006BFD0BE0B0F1FF3F08D14FF03F0383F31188BFF36F8FBFF34F8FFEE703B05DF804FB00BF084C02087429081045180810EC4A0208034AD2F818310133C2F8183142
:4019C000704700BFEC4A0208014BD3F814017047EC4A02082DE9F0413C4BD3F81831002B65D13A4BD3F814410134C3F81441CCB99B6A1B6843B14FF03F0383F31188BFF39E
:401A00006F8FBFF34F8FFEE7304B9A6AD3F8F8109962C3F8F820D3F820210132C3F82021FFF7FCFD294BDB6A9C4203D2002645E0012600E00026254B9B6A1B680BB9012325
:401A400000E0002323B14FF0FF32204BDA6235E01E4B9B6ADB68DD686B689C4202D21B4AD3622BE005F104084046FFF7A1FAAB6A1BB105F11800FFF79BFAEB6A134AD2F834
:401A80000C21934202D9114AC2F80C310F4F07F1300003EB83039A0041461044FFF762FAEA6AD7F80031DB6A9A42C1D2C3E7074AD2F824310133C2F824310026034BD3F892
:401AC000283103B101263046BDE8F081EC4A0208394BD3F8183143B94FF03F0383F31188BFF36F8FBFF34F8FFEE770B500F012FC314BD3F81821013AC3F81821D3F81831B7
:401B0000002B52D12C4BD3F8FC303BBB00244FE0294D2B6ADC6804F11800FFF749FA261D3046FFF745FAE36AD5F80C21934201D9C5F80C31204D05F1300003EB83039A008C
:401B400031461044FFF70EFAE26AD5F80031DB6A9A4204D30122C5F8282100E00024164B5B69002BD4D10CB1FFF758FD124BD3F8244164B1FFF72EFF18B101220E4BC3F86B
:401B80002821013CF6D100220B4BC3F824210A4BD3F828315BB14FF08052084B1A60BFF34F8FBFF36F8F012402E0002400E0002400F0D2FB204670BDEC4A020804ED00E02D
:401BC00010B5B0B10446104BD3F8183143B14FF03F0383F31188BFF36F8FBFF34F8FFEE7FFF7E8FE00212046FFF740FEFFF770FF00E0002038B94FF08052044B1A60BFF3E4
:401C00004F8FBFF36F8F10BDEC4A020804ED00E0304BD3F8183123B101222E4BC3F82821704710B52B4B0022C3F82821D3F800311B6B1A68B2F1A53F0BD15A68B2F1A53F6D
:401C400007D19A68B2F1A53F03D1DB68B3F1A53F07D0204BD3F80001D3F80011343100F089FC1C4BD3F80C310AE043B94FF03F0383F31188BFF36F8FBFF34F8FFEE7013B5A
:401C800003EB83018A0013490A44126B002AECD008469900CC18A2000244546B64685463303019448A0008320244944206D1606803EB83018A0007490A445063054903EB61
:401CC000830082000A44526BD268C1F80021C1F80C3110BDEC4A020840B94FF03F0383F31188BFF36F8FBFF34F8FFEE710B50C46054BD3F800111831FFF740F901212046CC
:401D0000FFF7B4FD10BD00BFEC4A020838B540B94FF03F0383F31188BFF36F8FBFF34F8FFEE70C461546074AD2F800111831FFF719F90DB14FF0FF3429462046FFF796FDDD
:401D400038BD00BFEC4A020838B5C368DC6844B94FF03F0383F31188BFF36F8FBFF34F8FFEE704F118052846FFF722F9154BD3F81831ABB9251D2846FFF71AF9E36A114A97
:401D8000D2F80C21934202D90E4AC2F80C3103EB83039A0029460C481044FFF7E3F803E029460A48FFF7DEF8E26A064BD3F80031DB6A9A4204D90120024BC3F8280138BDE9
:401DC000002038BDEC4A02081C4B0208004B0208034BD3F820210260D3F8143143607047EC4A0208F8B540B94FF03F0383F31188BFF36F8FBFF34F8FFEE7054641B94FF083
:401E00003F0383F31188BFF36F8FBFF34F8FFEE70C4600F07FFA124BD3F814016968421A2368B3F1FF3F14D02F680D4ED6F82061B74201D088420ED29A4206D29B1A236015
:401E40002846FFF7C5FF002406E000232360012402E0002400E0012400F07EFA2046F8BDEC4A02080122024BC3F82821704700BFEC4A0208064BD3F804312BB1044BD3F826
:401E800018311BB9022070470120704700207047EC4A0208064B1A681368B3FA83F35B09036013B9D368186870470020704700BF184C020808B54160006191420AD8D21A63
:401EC00083699A4211D2011D0A4B5868FFF756F8002008BD9A4201D2994208D2011D054B1868FFF74BF8002008BD012008BD012008BD00BF184C020870B500F00BFA0E4BFF
:401F00009B68B3B90C4C04F10C063046FFF71AF804F120052846FFF715F82660656000220C210A20FFF734F9A06010B10349FFF73BFB00F011FA70BD184C02087C29081057
:401F400000B583B0FFF7D8FF0D4B9B6853B10D4B019303230093002380220B490B48FFF7B9FC00E0002040B94FF03F0383F31188BFF36F8FBFF34F8FFEE703B05DF804FBDC
:401F8000184C02084C4C0208842908102522081040B94FF03F0383F31188BFF36F8FBFF34F8FFEE730B585B015460446124A9068F0B11A46019102950394052913DCFFF758
:401FC00059FF022807D10023089A01A90A488068FFF704F90DE000231A4601A906488068FFF7FCF805E0002301A9FFF7BFF900E0002005B030BD00BF184C020870B582B02B
:4020000029E0DB681E68DC68251D2846FEF7D0FF636A20469847E369012B1CD1A36933449E4207D2636024612946104B1868FEF7A5FF10E0002100910B4632462046FFF771
:40204000A7FF40B94FF03F0383F31188BFF36F8FBFF34F8FFEE7054B1B681A68002AD0D1024A51681160536002B070BD184C020838B50546FFF7A8FC0446074B9B6B984228
:4020800004D2FFF7BBFF01232B6001E000232B60014B9C63204638BD184C020870B582B005460E46134B1B68DB68DC68201DFEF77FFFE369012B18D1A1692B463246294479
:4020C0002046FFF7F7FE80B1002100910B462A462046FFF75DFF40B94FF03F0383F31188BFF36F8FBFF34F8FFEE7636A2046984702B070BD184C020870B582B006460C4631
:40210000FFF758FC01A8FFF7B3FF019B1BBB054644B9B04206D3FFF7DBFC29463046FFF7BDFF1AE02CB10E4B5B681C68B4FA84F464092246711B0A4B9868FFF749FAFFF799
:40214000C7FC50B94FF08052064B1A60BFF34F8FBFF36F8F01E0FFF7BBFC02B070BD00BF184C020804ED00E030B587B04DE0039B002B4ADB059C636913B1201DFEF718FF5B
:4021800002A8FFF775FF039B092B3ED8DFE803F00505053D273A05053D270499A5690B46024629442046FFF785FE70B3636A20469847E369012B28D1A269002100910B460A
:4021C000049802442046FFF7E3FEF0B94FF03F0383F31188BFF36F8FBFF34F8FFEE70499A16141B94FF03F0383F31188BFF36F8FBFF34F8FFEE70346024601442046FFF7E2
:4022000059FE02E0204600F0F7F9002203A9044B9868FFF71DF90028A9D107B030BD00BF184C020800B583B001A8FFF733FE0199FFF762FFFFF798FFF6E700BF82B000235C
:4022400001930D4B1B68B3F1FF3F08D04FF03F0383F31188BFF36F8FBFF34F8FFEE74FF03F0383F31188BFF36F8FBFF34F8F019B002BFCD002B07047AC4202080848006804
:40228000006880F308884FF0000080F3148862B661B6BFF34F8FBFF36F8F00DF00BF000008ED00E0DFF80C00016841F4700101607047000088ED00E04FF0807340F8043C7A
:4022C00021F0010140F8081C054B40F80C3C40F8202C6FF0020340F8243C4438704700BF3D220810000000000000000000000000074B19680868B0E8F04F80F30988BFF3E6
:402300006F8F4FF0000080F311887047AFF30080EC4B02084FF03F0383F31188BFF36F8FBFF34F8F0A4A136801331360012B0DD1084B1B6813F0FF0F08D04FF03F0383F334
:402340001188BFF36F8FBFF34F8FFEE7704700BFAC42020804ED00E0094B1B6843B94FF03F0383F31188BFF36F8FBFF34F8FFEE7013B034A13600BB983F31188704700BF93
:40238000AC420208000000000000000000000000EFF30980BFF36F8F154B1A681EF0100F08BF20ED108A20E9F04F10602DE909004FF03F0080F31188BFF34F8FBFF36F8FEC
:4023C000FFF726FC4FF0000080F3118809BC19680868B0E8F04F1EF0100F08BFB0EC108A80F30988BFF36F8F704700BFAFF30080EC4B020808B54FF03F0383F31188BFF337
:402400006F8FBFF34F8FFFF7E5FA18B14FF08052024B1A60002383F3118808BD04ED00E0084A0023136008490B60084B1B680849A1FB03139B09013B06490B60072313601C
:40244000704700BF10E000E018E000E098420208D34D621014E000E010B582B02A4B1A78D2B20192FF221A701B78DBB28DF803309DF80330254A03F03F0313700723536090
:4024800009E0224A5368013B53609DF803305B00DBB28DF803309DF8033013F0800FF0D11A4B5B68042B08D04FF03F0383F31188BFF36F8FBFF34F8FFEE71B0203F4E0635F
:4024C000124A5360019BDBB20F4A1370104B1A6842F47F021A601A6842F07F421A60FFF79FFF00240B4B1C60FFF7DCFE0A4A136843F040431360FFF7C1FEFFF789FBFFF754
:402500009DFE204602B010BD00E400E0544C020820ED00E0AC42020834EF00E0EFF305830F2B0FD9104A9B5CDBB2104A1278934208D24FF03F0383F31188BFF36F8FBFF3D6
:402540004F8FFEE70A4B1B6803F4E063074A5268934208D94FF03F0383F31188BFF36F8FBFF34F8FFEE77047F0E300E0544C02080CED00E008B54FF03F0383F31188BFF324
:402580006F8FBFF34F8F4FF441710248FEF762FCFEE700BF8C29081038B5044610F0070F02D020F007040834FFF704FA104B1B682BB90F4A02F10C0323F0070313600D4B1B
:4025C000D3F814361C4442F2F772944208D8A34208D2074A15681D44064BC3F8144602E0002500E00025FFF773FA284638BD00BF5C4C02084C6E020840B14FF03F0383F3D0
:402600001188BFF36F8FBFF34F8FFEE7704700BF10B5431E0A44914204D011F8014B03F8014FF8E710BD02440346934202D003F8011BFAE7704710B5034642B111F8014BC4
:4026400003F8014B013A002CF7D11A4400E010BD934202D003F8014BFAE710BDF8B500BFF8BC08BC9E467047F8B500BFF8BC08BC9E4670475245445F5441534B00000000D2
:40268000475245454E5F5441534B00000300000001000000010000000000000005036000040000000100000000000000010000000604600008000000684A0208F503081066
:4026C00047656E6572617465645F536F757263655C50536F43365C70646C5C647269766572732F7065726970686572616C2F6970632F63795F6970635F6472762E680000F0
:4027000047656E6572617465645F536F757263655C50536F43365C70646C5C647269766572735C7065726970686572616C5C6970635C63795F6970635F6472762E68000028
:4027400047656E6572617465645F536F757263655C50536F43365C70646C5C647269766572735C7065726970686572616C5C6970635C63795F6970635F6472762E630000ED
:4027800047656E6572617465645F536F757263655C50536F43365C70646C5C647269766572735C7065726970686572616C5C6970635C63795F6970635F706970652E63004B
:4027C00047656E6572617465645F536F757263655C50536F43365C70646C5C647269766572735C7065726970686572616C5C737973696E745C63795F737973696E742E633C
:40280000000000000000204000002440000000400000000000002340000030400000314000009F40000022400000104002020202020202020210101D800017007500FF0362
:402840000602063604102000000000007FC0000000040000000000000019324B647D00804000080B100000000000FF012002001F00800004FF081018001000140018001CF7
:402880004044484C50000000081000000800000004000000041000000012000004210000002100000016000040114002C41300138013A013200000001C00000000002140AA
:4028C00000002540000001400000344000002440000031400000324000001F410000234000001140010101010101010101101010800019005500F0000501053B04101C01D5
:40290000010000000FC000000004000001010101011D3A57789600082000101208000000001F00000010000F002000023F06080E00080009000A000B24282C3034000000F3
:40294000100000009000000088000000080000008000000004F0000000F00000400200002005A000D00100018001A001200000001000000049444C4500000000546D7251F6
:4029800000000000546D72205376630047656E6572617465645F536F757263655C50536F43365C70646C5C72746F735C4672656552544F535C31302E302E315C536F7572ED
:4029C00063655C706F727461626C655C4743435C434D34465C706F72742E63000000000000000810004002088C020000002A08108C420208CC050000EC480208CC2B000009
:402A00000048E80100127A0000093D0000127A0000127A0008000000401F00000000A00FAAAAAAAAB10208108D0208100000000080B2C10050B3164B1B681A6AB3F8B03062
:402A4000C3EBC303D358002BF5DA3E22114B1A6041F61E7204331A60A3F584730622C3F8182521F07F41C3F81C15D3F81C35084B1A68116AB2F8B030C3EBC3030B440022C8
:402A80005A60054BD3F81C35002BFADA704700BF647402080401264000002640F8B5274B1B6893F83130052B04D840F2C311244800F074FA214F3A68166AB2F8B03003EB54
:402AC00083031E4452684FF26003D458A4B200F055FA05463B681968D3F890208A58013C032C27D8032A0CD1164A127812F0FF0F07D10822B2601968D3F890208A58032A75
:402B0000F9D01968D3F884208B588858C0F307221B0E581C02FB00000B4B03FB00F00B4B1B680B4AA2FB03239B09B0FBF3F08230FFF77EFF284600F019FAF8BD647402080F
:402B4000C02608100B00001640420F0090420208D34D62104378FF2B23D110B500F00EFA0446104B1B6893F83130042B04D840F2C3110D4800F012FA0A4B1A68136AB2F82D
:402B8000B02003EB8203DB685A68136843F001031360136813F0010FFBD1204600F0E6F910BD704764740208C02608102DE9F04707468846554B1B6893F83130012B04D836
:402BC00040F2C311524800F0E9F9504B1B681C6AB3F8B0201444D3F8B420161993F85030002B79D04B4B1B7813F0FF0F02D04FF0000901E04FF00109B9F1000F38D0434BD2
:402C00001B6893F83130052B04D840F2C311404800F0C4F93D4B1A68116AB2F8B03003EB83030B44D2F8B420D358002B22DB002000F08CF9384B98421ED00023374A12691C
:402C40000121184600F0A2F918B1354D17E0013500E00025002000F079F92F4B984202D0304B9D42F3D92F4B9D4207D92C4D06E0002504E02A4D02E0294D00E00025002D5C
:402C800041D100F07BF98246274BD3F81C35002B10DA224A0121204600F060F960B94046FFF7C6FE57B13368002BFCDB00F086F9054604E01A4D02E0194D00E01B4DB9F1B9
:402CC000000F05D00121002000F070F90028F9D1504600F04BF916E000F050F980460F4A0121204600F03AF938B947B13368002BFCDB00F063F9054602E0094D00E00B4D13
:402D0000404600F033F92846BDE8F08764740208C02608100B00001601018800884A020805005200EF4902000000264001005000F0B47F4B1A6855684FF0B0535B7813F0F3
:402D4000FF0F04D04FF0B0535B78DBB200E02123212B55D1116AB2F8B030C3EBC303CC18CB58002BF6DAE36843F00103E360146AB2F8B030C3EBC3031C44E36813F0020FBE
:402D80002DD0E3689EB21368D2F884105958090A090401F47F01D2F88870DB591B0A41EA03633343E3601168D2F884208B5823F47F4343F410638B505D4A13681C68D3F85E
:402DC0008810635823F47F4343F41063635013681A68D3F884105158D3F88830D358544B1A68116AB2F8B030C3EBC3030B4400215960116AB2F8B030C3EBC3030B445B6849
:402E00004B4B19680C68D1F894301C44494A136943F004031361012801D030BF07E020BF454B1B7803B120BF0122434B1A70236803F00303022BE9D00A6AB1F8B030C3EBA8
:402E4000C303D018D358002BF6DA4FF0B0535B7813F0FF0F04D04FF0B0535B78DBB200E02123212B30D1C36813F0020F1FD00C68D1F88410635823F47F42C3681B0C1B0270
:402E800003F47F4313436350294B19680C68D1F88800235823F47F420D6AB1F8B030C3EBC3032B44DB681B0E42EA03232350204B1A68136AB2F8B020C2EBC2021344DA6841
:402EC00022F00102DA6026E0D5F80C311BBB1B490E681B4BD3F818451A4A106841F61E770F600621C3F818153E2111604422C3F81C25134BD3F81C35002BFADA4FF0AA3348
:402F0000C5F80C310D4B1E60A3F58473C3F8184503F582731860064B1A68116AB2F8B030C3EBC3030B4400225A60F0BC704700BF6474020800ED00E0B04A020808012640FA
:402F400000002640040126400000000001B40248844601BC604700BFE509081001B40248844601BC604700BFD907081001B40248844601BC604700BF330F081001B4024865
:402F8000844601BC604700BF2B0F081001B40248844601BC604700BFB90B081001B40248844601BC604700BF550E081001B40248844601BC604700BF5D09081001B402483A
:402FC000844601BC604700BFB10608100000000000000000000000000000000000000000000000000000000000000000000000000000000000000000000000000000000015
:0200000490303A
:020000005A871D
:0200000490501A
:0C0000000005E2F021002101E3027B87F3
:00000001FF