:020000041008E2
:4000000000780408EB0208100D00000051030810510308105103081051030810000000000000000000000000000000004D0308104D030810000000004D0308104D030810DA
:400040004D0308104D0308104D0308104D0308104D0308104D0308104D0308104D0308104D0308104D0308104D0308104D0308104D0308104D0308104D0308104D03081000
:400080004D0308104D0308104D0308104D0308104D0308104D0308104D0308104D0308104D0308104D0308104D0308104D0308104D0308104D0308104D0308104D030810C0
:4000C0004D0308104D0308104D0308104D0308104D0308104D0308104D0308104D0308104D0308104D0308104D0308104D0308104D0308104D0308104D0308104D03081080
:400100004D0308104D0308104D0308104D0308104D0308104D0308104D0308104D0308104D0308104D0308104D0308104D0308104D0308104D0308104D0308104D0308103F
:400140004D0308104D0308104D0308104D0308104D0308104D0308104D0308104D0308104D0308104D0308104D0308104D0308104D0308104D0308104D0308104D030810FF
:400180004D0308104D0308104D0308104D0308104D0308104D0308104D0308104D0308104D0308104D0308104D0308104D0308104D0308104D0308104D0308104D030810BF
:4001C0004D0308104D0308104D0308104D0308104D0308104D0308104D0308104D0308104D0308104D0308104D0308104D0308104D0308104D0308104D0308104D0308107F
:400200004D0308104D0308104D0308104D0308104D0308104D0308104D0308104D0308104D0308104D0308104D0308104D0308104D0308104D0308104D0308104D0308103E
:400240004D0308104D0308104D0308104D0308104D0308104D0308104D0308104D0308104D0308104D0308104D0308104D0308104D0308104D0308104D0308104D030810FE
:400280004D0308104D0308104D03081010B5054C237833B9044B13B10448AFF300800123237010BD8449020800000000346B0810084B10B51BB108490848AFF300800848DF
:4002C000036803B910BD074B002BFBD0BDE81040184700BF0000000088490208346B081054430208000000007047FFF7FDFF72B6104C114DAC4209DA21686268A368043B83
:40030000A2BFC858D050FAE70C34F3E70B490C4A00209142BCBF41F8040BFAE709480A490860BFF34F8F00F095F900F06FF900F01DF8FEE7386B0810506B0810844902081F
:40034000404C02080040020808ED00E0FEE7FEE700B504207146084202D0EFF3098001E0EFF30880043002F07DFDFEE770B586B062B600F063FC02F00FFE00F07FF9304975
:40038000304800F0A5FB032000F05AFB032000F09BF903A800F0C8F903982B4E30602B4D049B2B602A4C059B236002F095FF02460B46284803F0C0FE049802F08DFF024649
:4003C0000B46254803F0B8FE059802F085FF02460B46224803F0B0FE0021084600F050FB306802F079FF02460B461D4901A803F0BBFE01A800F0DCFB286802F06DFF024639
:400400000B46184901A803F0AFFE0021082000F037FB01A800F0CCFB206802F05DFF02460B46114901A803F09FFE0121002000F027FB01A800F0BCFB322002F0DFFCA8E7A2
:40044000F04B020800006740984B0208A84B0208A44B0208AC640810B4640810BC640810C4640810CC640810D464081008B5012000F0C8FF08BD00BF704700BF5C4AD2F846
:40048000803303F00F0303F1D00152F8212002F00702032A04D0042A05D092B9554914E0554A116811E003F1C002514951F8222002F01F02112A06D0132A04D04FF4FA41C1
:4004C00003E04E4901E04FF400418BBB484BD3F8902502F00100D3F88825C2F30172D3F8883513F0405F07D0414BD3F88835C3F30173012B02D102E0012300E0002303B136
:4005000008B9032A46D13A48D0F88025C2F31103D0F88425C2F30C02D0F88005C0F300600130B1FBF2F202FB03F2B2FBF0F131E0012B2FD12E4BD3F8402602F00100D3F884
:400540000026C2F30172D3F8003613F0405F07D0274BD3F80036C3F30173012B02D102E0012300E0002303B108B9032A12D12048D0F8002602F07F02D0F80036C3F30423E5
:40058000D0F80006C0F3044002FB01F2B2FBF3F2B2FBF0F1164BD3F88033C3F3011321FA03F215494A601648D0F89030C3F3072301330069000E0130B2FBF0F08860B2FBE1
:4005C000F3F3CB600B6103F5742202F23F220D48A0FB0202C2F387420A7503F2E7330A4AA2FB03239B098B61DB03CB61704700BF0000264000127A008C42020800366E0105
:400600000000214083DE1B43D34D621008B50D4802F08AFCFFF730FFFFF730FF00221146042000F0B7FC084800F04AFD074B1B6893F8513013B1064800F0B2FD00F0F4FBFC
:4006400008BD00BFA0680810A0490208EC4B0208DC64081008B502F060FC074AD2F8883043F47003C2F88830BFF34F8FBFF36F8F02F057FC08BD00BF00ED00E008B500229B
:400680002E21532000F00AF914221D21532000F005F932222121532000F000F900222221532000F0FBF800222321532000F0F6F807222A21532000F0F1F808222D215320A1
:4006C00000F0ECF808BD00BF30B583B0C4B26B4608223121532000F06FF8E2B23121532000F0DCF803B030BDF8B507460E4615460C4C234606223221532000F05DF86278E9
:40070000237843EA02231BB23B60E278A37843EA02231BB233606279237943EA02231BB22B60F8BD9C4B020810B584B00446002303604360836001AA02A903A8FFF7D4FF5D
:40074000039802F0B7FD18A3D3E9002302F018FE17A3D3E9002302F013FE03F023F82060029802F0A7FD10A3D3E9002302F008FE0FA3D3E9002302F003FE03F013F8606070
:40078000019802F097FD08A3D3E9002302F0F8FD07A3D3E9002302F0F3FD03F003F8A06004B010BDAFF30080FCA9F1D24D62703F00000040019D23402DE9F04383B0804664
:4007C000894615461E461B4C1B4F00970A2300220146204601F0CCFC3B460A224946204601F034FE00970A2301224146204601F037FD00240BE0104B00930A2332190021FA
:400800000C4801F0C9FD0134E4B2013DEDB2012DF1D1084D084F00970A2332190121284601F0BAFD3A460021284601F083FD03B0BDE8F08300006740F04B02082DE9F041A4
:4008400082B0884614461E46124D134F00970A2300220146284601F08BFC3B460A224146284601F0F3FD002509E00B4B0A22715D084801F0EBFD0135EDB2013CE4B2002C08
:40088000F3D1054A0021034801F054FD02B0BDE8F08100BF00006740F04B020800B583B002AB03F8012D0122FFF7C8FF03B05DF804FB00BF08B50249024801F0B3FE08BDE7
:4008C000F04B02080000674070B582B006460D460E4B19780E4B009300231A460D4801F047FC002409E00A4B0022315D094801F0ADFD052002F082FA0134AC42F3DB044A64
:400900000021044801F016FD02B070BDAC420208F04B02080000674000B583B000238DF8063080238DF804308DF80500022101A8FFF7CAFF03B05DF804FB00BFF0B583B0AE
:4009400007460E460E4B59780E4C0F4D009500231A46204601F00CFC2B4600223946204601F074FD2B4600223146204601F06EFD2A460021204601F0DDFC03B0F0BD00BFF9
:40098000AC42020800006740F04B020800B583B000238DF8063040238DF804308DF80500022101A8FFF790FF03B05DF804FB00BF08B5012809D10A4B187840F0040018706F
:4009C00040F00800FFF7A8FF08E0054B187800F0FB00187040F00800FFF79EFF012008BDAD4B020808B501280AD10B4B187840F00100187040F00400FFF78EFF012008BD37
:400A0000054B187800F0FE00187040F00400FFF783FF002008BD00BFAC4B020838B50D46144601460420FFF789FF29460320FFF785FF21460220FFF781FF012038BD00BFAC
:400A400010B5044620B9FF2211461046FFF7E6FF012C04D100221146FF20FFF7DFFF022C04D10022FF211046FFF7D8FF032C04D1FF2200210846FFF7D1FF012010BD00BF08
:400A80000F2819D8012917D800B583B011B940F0800001E040F0C00000238DF8063080238DF804308DF80500022101A8FFF70CFF002003B05DF804FB0020704708B5012055
:400AC000FFF72AFF022002F099F9002008BD00BF38B505460A462F4901F054F904462E492E4802F051F9002C4FD100284FD12B4BB3F90030002B08DB590903F01F0301224E
:400B000002FA03F3264A42F821302B6843F000432B60244C237843F008032370322002F06DF9207840F02000FFF7F6FE052002F065F9207840F02000FFF7EEFE052002F086
:400B40005DF9207840F02000FFF7E6FE0422164B1A700120FFF72CFFFFF7B0FF0222134B1A700620FFF7D8FE00210846FFF7E6FEFF210820FFF7E2FE20210120FFF7DEFECC
:400B80000020FFF75DFF012038BD002038BD002038BD00BF58690810B50808101065081000E100E0B04B0208AD4B0208AC4B020870B5064603F0FCFA0546C3B2102B12D980
:400BC0000120FFF70FFF002403E0305DFFF7DEFE0134EBB29C42F8D3012070BD305DFFF7D5FE013400E00024EBB29C42F6D3002070BD00BF10B504462146034800F042FCD3
:400C00000028F9D010BD00BF00006640054BD3F80833C3F30803002BF8D0024BD3F84003704700BF0000664008B50249024802F013F808BDB44B02080000664008B5114B34
:400C40001B785BB9104A1149114801F0E1FD1149114802F099F801220A4B1A700E4BB3F90030002B08DB590903F01F03012202FA03F30A4A42F82130054A136843F00043CB
:400C8000136008BD204B0208B44B02082065081000006640290C08101865081000E100E01F4B98422DD00CD840282ED003D8E8B1102828D02FE0802829D0B0F5807F28D01D
:400CC00029E0184B984228D006D8B0F1204F0DD0154B984212D01EE0144B98420AD00133984209D0023B984215D101E0002070470F4870470F4870470F4870474FF4A00015
:400D00007047074870470D4870470D4870470D487047034870470C4870474FF4A400704706005200010000F0090000A0040000F001005200020052000300520001005000F4
:400D40000200500005005200FF00520038B5124B1B6893F83130012B04D840F2C3110F4802F070F80C4B1D682A6AB5F8B03013442C46D5F8B420D358002B0BDB084B18688B
:400D8000FFF78EFF6B6801229A6063689B68002BFBD138BD034838BDEC4B020860650810244B0208020050001A4B186128B102230370FF23437000234380174B1B6893F863
:400DC00050202AB300B583B0B3F93830ADF80030002301931149684601F0D6FFBDF90030002B08DB590903F01F03012202FA03F30B4A42F82130084B1B6893F8513023B13A
:400E000002220849012000F077FA03B05DF804FB704700BF244B0208EC4B0208C543020800E100E07D44020808B50248FFF7BCFF08BD00BF384B020838B50B4B1B68D3F88C
:400E4000B4301B58002B0DDA0D4604460B0C1B0423B140F2D521054801F0F4FFA9B26160002038BD024838BDEC4B0208A065081001008A0038B50368002B01DA002300E04F
:400E8000094B73B90D460446C2600B0C1B0423B140F2BB21054801F0D5FFA9B2A160002038BD014838BD00BF01008A00A065081038B504460D4619B99921084801F0C2FF9B
:400EC000074B1B68D3F8B4301B59002B03DAE3682B60002038BD034838BD00BFE0650810EC4B020801008A00254B1B6893F8313083423AD900293AD00B6813F01F0F38D148
:400F000070B50D4604461E4B1B6893F83130984204D340F2C3111B4801F094FF184B1B68186AB3F8B03004FB0304174E34602A68D2080021686802F085FC00212046FFF73A
:400F40007BFF346825B940F293310E4801F07AFF2A4600212046FFF78DFF60B900210A4B1868FFF769FF40B970BD084870470748704706487047064870BD054870BD00BFF5
:400F8000EC4B0208A06508103C4B020803018A0001018A0010B504461346B2B9A9B9124B1B6893F83130984204D340F2C3110F4801F048FF0C4B1B681A6AB3F8B03004FBF9
:400FC00003240B4B1C60002010BD43B149B1084A51609360111D2046FFF786FF10BD054810BD044810BD00BFEC4B0208A06508103C4B020803018A002DE9F0411B4B1B68AC
:40100000DC68236883422CD90D464609A0EB4610012303FA00F819B901F07FFF074600E00027124B18680368002B01DA002300E00F4B83B9626852F8263018EA030F05D0AC
:4010400023EA080342F82630002400E0094C0021FFF7F2FE00E0084C25B9384601F061FF00E0064C2046BDE8F08100BF3C4B020801008A00020188000301880004018A0058
:401080000B4B1B68DB681A6882420CD94109A0EB4110012202FA00F05B6853F82130184203D004487047044870470448704700BF3C4B02080101880004018A00000188002D
:4010C000024B1B680BB9014B18607047484B02082DE9F8430446884691461D46089F2C4B1B681BB9B5212B4801F0ACFE284B1B682C2000FB04F01C18EEB21E50C5F30723F3
:4011000063602D0CA560244B1B6893F831309E4204D340F2C311214801F094FE1E4B1B68196AB3F8B02006FB02162661666893F832309E4204D340F2DF11184801F082FE38
:40114000154B1B681D6A803605EB46156561A668330C1B0423B14FF4FF71104801F072FE330C1B0423B140F2FF110C4801F06AFEB3B243EA0646AE60C4F81C90C4F82080C1
:401180000023A36117B1B7F90030A381BDE8F883484B020820660810EC4B0208A0650810F0B58FB0044618B95221274801F04AFEA369072B03D95621234801F043FEE36AEE
:4011C0001BB95821204801F03DFE236B1BB959211D4801F037FE07AD04F114060FCE0FC537682F6002AD26460FCE0FC533682B60164B1B68B3F93620079B1344ADF830302F
:40120000089B0D93A26AE16A0CAD00953B460A98FFF75EFF00210091069B0A460598FFF757FF216B284601F0AFFDBDF93030002B08DB590903F01F03012202FA03F3044A2F
:4012400042F821300FB0F0BD20660810EC4B020800E100E0F8B506460F461D4614461AB9FD211F4801F0EEFD1E4B1B681BB9FE211B4801F0E7FD1B4B1B682C2101FB063019
:4012800001FB07314B68012202FA03F31B04466802FA06F60269EAB18F69EFB91268002A01DA002200E0104AC2B92288134323600369DC6001238B614D620469330C1B04BC
:4012C00023B140F2BB21094801F0BCFDB2B2A2600020F8BD0648F8BD0648F8BD0548F8BD20660810484B020801008A00A065081004028A0007028A00F8B505460F4616461F
:401300000E4B1B6823B94FF4AF710D4801F09AFD0A4B1B682C2404FB0534236A23B94FF4B171074801F08EFDE369B34204D9236A43F826700020F8BD0248F8BD484B0208CF
:40134000206608100A028A0070B582B000230193044620B940F2D111284801F073FD236923B94FF4E971254801F06CFD636923B940F2D311214801F065FD236A23B94FF431
:40138000EA711E4801F05EFD6369DD682A0C20D012041A601B682069194B1B68D3F8B430C358002B15DA01A9FFF782FD60B9019803681E0CDBB2E269934206D2226A52F8C1
:4013C000233013B1984700E0002631462069FFF733FDADB275B16369ADB21D601B68636A1BB198470023636202E0A36A03B198470023A36163691B6802B070BD2066081046
:40140000EC4B020810B50446074B1B6823B940F2B111064801F016FD034B1B682C2000FB0430FFF791FF10BD484B02082066081010B4D0F8003303F00F03072B06D9002393
:401440000DE0D0F84043CC54013300E000239342F7D306E0D0F8404321F8134001339342F8D35DF8044B704710B51446D0F80833C3F308039A4200D31C462246FFF7D8FF49
:40148000204610BD036813F4006F01D0802200E04022D0F80832C3F30803934203D0C0F84012012070470020704700BF10B4D0F8003203F00F03072B06D900230DE0CC5C74
:4014C000C0F84042013300E000239342F7D306E031F81340C0F8404201339342F8D35DF8044B704710B51446036813F4006F01D0802200E04022D0F80832C3F30803D31AAC
:40150000A34200D81C462246FFF7D0FF204610BD02E0C0F84012013A002AFAD1704700BF10B51446036813F4006F01D0802200E04022D0F80832C3F30803D31AA34200D878
:401540001C462246FFF7E4FF204610BD10B54A6841F201039A4231D1D0F80833C3F30803B3B10B6A43F040030B620B7873B1D0F8043343F48033C0F80433D0F8043323F4F4
:401580008033C0F80433D0F8043301E0D0F840330B6A43F020030B620B6A23F010030B62036E23F4204303660023C0F8C83F0123C0F8C03FD0F8C03F202221E0D0F8083211
:4015C000C3F30802D0F80832C3F3C03313440A6BD21A4A630A6A12F0080F05D1CA6A1A44CA628A6AD31A8B620B6A43F004030B620B6A23F001030B620023C0F8883F102243
:40160000D0F84C4F40F201131C420DD0036823F00043036000238366C366036843F000430360036842F040024FF080534B604B6C0BB11046984710BDD0F80C3F13F0020FF1
:401640001DD00222C0F8002FD0F8002FD0F8002F12F0040F02D04FF4001001E04FF480108A6802438A604A68B2F5B81F07D00A7B12B14FF4C01201E04FF4B0124A6013F47A
:40168000807F03D08A6842F400028A6013F0010F03D08A6842F480028A6040F21112134202D04FF4C0134B60704700BF0023C0F8C83FC0F8883F836E23B140F21713C0F8DD
:4016C000083F704740F21313C0F8083F182383664FF4B8134B60704738B5D0F80C4F036E23F4807303660023C0F8C83FC0F8883FC0F8083F40F21713C0F8003FD0F8003F53
:401700008B6823F480338B604B7B13B18B69CB610BE08D69D0F80822C2F30802D0F80832C3F3C0331344EB1ACB6140F201131C421BD0036E9B0F032B05D114F4827F14BF08
:401740000123002300E001235BB1036823F00043036000238366C366036843F00043036003684FF080534B601BE00B7893B1D0F8043343F48033C0F80433D0F8043323F49D
:401780008033C0F80433D0F804330123C0F8C03FD0F8C03F0B7B0BB10B4B01E04FF080534B604A6C72B14B7B13B14FF4802001E04FF400308B6813F0F87301D04FF400237E
:4017C0001843904738BD00BF000010100346002940DB11F0C00F06D0002181664FF0805050602F4844E011F4807F36D111F0010F0ED050682B49884232D1196E11F0804F04
:401800000CBF012100214FF08050506026482FE011F0020F06D050682249884223D10021224825E011F0100F05D04FF080515160002108461CE050681A49884216D1517B4C
:4018400011B14FF4881101E04FF4A0115160002108460DE0012116480AE00121154807E00121114804E00021134801E00021084679B1196821F00041196000219966D96618
:40188000196841F0004119601B684FF080535360704740F21712C3F8002FD3F8003F70470820AA00000013100620AA000420AA000320AA000720AA000520AA00036853B148
:4018C00010B50446012001F0B1FA2368013B23601BB1002010BD002070474FF0004010BD70B505460C4691F8243013F0FF0F0ED1CB6A63B94B6C0BB108209847E36AB3FAA2
:4019000083F35B0984F824300123C5F8883F94F8243013F0FF0F16D063783BB12B6813F4006F01D0802202E0402200E00122FF212846FFF7F5FD236B18442063236A43F051
:401940000803236270BDE26A012A11D963780BB1013A00E00122A16A2846FFF7C3FD236B03442363E36A1B1AE362A36A1844A062D5F80832C3F30803802B23D0E36A012BD9
:4019800020D101F0CAFAA36A1B78C5F840324026C5F8806FD5F8803F01F0C3FA236B013323630023E362A36A0133A362C5F8886F63783BB1236A43F002032362636C0BB120
:4019C0000420984770BD00BF38B54B68B3F5A81F03D14FF4C0134B6038BD4B68B3F5A01F4DD10C4605464A69012A11D94B780BB1013A00E0012221692846FFF773FDA3699B
:401A00000344A36163691B1A6361236903442361D5F80832C3F30803802B14D06369012B11D101F07AFA23691B78C5F840324023C5F8803FD5F8803F01F073FAA369013352
:401A4000A361002363616369CBB9237B33B14023C5F8883F4FF4A813636005E00023C5F8883F4FF4B0136360637843B1A36843F40033A360636C13B14FF48030984738BD0B
:401A800070B504460D468A6C82B3036813F4803F06D0D0F84C3F13F0400F03D0022002E0002000E00020236E13F4006F06D1D4F84C3F13F0800300D001231843C0B1904744
:401AC0000123C4F8C03FD4F8C03F024648B91023C4F8403FD4F8403F40F2D113C4F8483F07E040F2C113C4F8483F02E0002200E00022D4F8043243F48033C4F80432D4F801
:401B0000043223F48033C4F80432D4F804320AB9012300E00223E366002A59D1666E06F010066B6C23B10EB1012000E0022098477EB141F202036B602B6A43F001032B6251
:401B40006B6B2B63002385F824300123C4F8883F70BD41F201036B602B6A43F010032B620123C4F8C83F2B78BBB1EB6BBBB1236E43F400532366ED6B802D05D9A5F1800377
:401B8000802B0ED8813D0DE0013D236E43F4004323660023C4F8C83F04E0002502E0002500E03F25236813F4006F01D0802300E040239D4204D34FF42071064801F042F921
:401BC000D4F8043323F0FF03EDB21D43C4F8045370BD00BF6066081038B54B68B3F5881F03D0B3F5901F1AD038BD0B69D0F840231A708B6901338B614B69013B4B612BB144
:401C00000B6901330B610423836638BD0B7B13B14FF4C01301E04FF4B0134B6038BD0C4605464A690969FFF71FFCA3690344A36163691B1A6361226910442061012B24D82D
:401C40002B6E23F480732B666369012B16D12B6813F4006F01D0802300E0402323B94FF42071184801F0EEF8D5F8043323F0FF03C5F804334FF48813636038BD0023C5F827
:401C8000C83F4FF4B013636038BD402B01D89C1E00E03F242B6813F4006F01D0802300E040239C4204D34FF42071064801F0CAF8D5F8043323F0FF02E3B21343C5F80433DD
:401CC00038BD00BF6066081038B5CB6B002B50D00B78002B3FD00C460546D0F80423D2B20132896BFFF7C0FB236C03442364E36B1B1AE363A26B1044A063802B06D9A3F197
:401D00008002802A0FD8A3F181040DE02B6E43F400432B66E36B0BB15C1E00E000240023C5F8C83F00E03F242B6813F4006F01D0802300E040239C4204D34FF42071104893
:401D400001F080F8D5F8043323F0FF02E3B21343C5F8043338BD0123C3668A6B0B6CD0F84003D0540B6C01330B64CB6B013BCB6338BD0223C3660023C0F8C83F38BD00BF93
:401D800060660810F8B50B78012B03D00C7A1CB9002702E0002700E00127002800F0A780002900F0A680002A00F0A58016460C460546013BDBB2022B03D94F214F4801F003
:401DC00041F8637803B163791BB150214B4801F039F894F90330002B03DA5121474801F031F8237913F0010F03D05221434801F029F82369102B03D95321404801F022F82E
:401E0000E368102B03D954213C4801F01BF8637913B14FF4803100E00021E27912B14FF4807300E000230B4343F400632B60A37913B94FF4006300E000232269013A02F09B
:401E40000F021A43E368013B1B01DBB21343227843EA82732B6617B140F2073301E040F20713C5F800330FB1254B00E0254B2B6763780BB17F2300E00023C5F80433E37833
:401E80005B00DBB2227943EA0243C5F810331E4BC5F80032A3780BB1402300E00123C5F804320023C5F8C83EC5F8883EC5F8C83FC5F8883FC5F8083F2378022B02D040F223
:401EC000D11300E00023C5F8483F63783370A37873704FF0805373600020B060B06130623064F0633063F0627064B064F8BD0748F8BD0648F8BD0548F8BD00BFA466081030
:401F000003002A0013102A00070101000120AA0038B505460C4621B940F2C321194800F091FF2B6E9B0F012B17D1174B2344174A93421ED9A4F5BD13A3F5D66302F5611207
:401F400002F56162934216D9A4F57104A4F533440F4B9C4211D80F4838BD84B1286EC0F303102B6E03F00F0318440230B4FBF0F038BD094838BD094838BD002038BD002056
:401F800038BD00BFA466081020AD88FF405B730040555C0440420F00801A0600A08601002DE9F84307468846914622B940F21221624800F047FF08F1FF34614B9C4204D9A6
:401FC00040F213215D4800F03DFF3B6E9B0F012B0DD149463846FFF79BFF0546D7F8003323F40073C7F80033564B3B67A2E0544B9C421FD8544B984509D8A9F5BD13A3F54B
:40200000D663524A934218D90021012328E0504B984507D84F4B4B444F4A934213D9002101231DE04D4B4B444D4A934212D90021012315E00021012312E0002141F288359C
:402040002E460B460CE000214FF461754FF4C8660B4605E001214FF4BE754FF41B760023002B66D13F4BB3FBF9F3B6FBF3F404FB03F2964200D90134102C00D910240F2CC3
:402080008CBF00220122B5FBF3F606FB03F39D4200D90136102E00D91026A519B9FBF5F50FE022B10F2C09D80134002206E00F2E04D801360F2C8CBF00220122A519B9FBC0
:4020C000F5F5454502D9A3191F2BEAD941B1D7F8003343F40073C7F80033234B3B6707E0D7F8003323F40073C7F80033154B3B67E31F092B04D940F283511C4800F0A2FEB4
:402100003B6E23F0F003013C2401E4B223433B66731F0B2B04D94FF4B461144800F092FE3B6E23F00F03013E06F00F061E433E6600E000252846BDE8F88300BFA466081087
:402140003F420F0013102A00A0860100502D1900801A060020AD88FFA0432100807E25FFC02BAF0000CA9A3B03002A00E46608102DE9F04182B005460C4617469846089EEC
:4021800011F0800F04D04FF4D961314800F05AFE304B984504D940F2C9612D4800F052FE012F04D940F2CA61294800F04BFE0023C5F8483F7368B3F1805F41D14FF47A731C
:4021C00003FB08F30193244B7360012F14BF00230123737340F21713C5F8003FD5F8003F0423C5F8C03FD5F8C03FD5F8043243F48033C5F80432D5F8043223F48033C5F863
:402200000432D5F804326400E4B23C43C5F840420223AB66D5F8004F24F0F804E405E40DD5F8403F03F0C0031C4301A8FFF746FB54EA0001EED032462846FFF7C7FA00E0B6
:40224000064840F2D113C5F8483F02B0BDE8F081A466081037894100000013100220AA002DE9F04182B005460F4614469846089E11F0800F04D040F229712A4800F0E2FD74
:40228000294B984504D940F22A71264800F0DAFD012C04D940F22B71224800F0D3FD736813F4801F39D04FF47A7303FB08F301931E4B7360012C14BF0023012373736B6E63
:4022C00013F0200F01D0092300E00123AB666B6E13F0200F05D0002009E001A8FFF7EEFA00E0002018B9AB6E13F0010FF5D170B97F00FFB23C43C5F84042D5F8000F40F242
:402300000714044001A8FFF7D9FA2043F5D0324601462846FFF75AFA00E0054802B0BDE8F08100BFA466081037894100000013100220AA0070B582B005460C461646134BB9
:40234000994204D940F28C71114800F07BFD736813F4801F17D04FF47A7303FB04F401941823AB66D5F8004F24F0EE04E405E40D01A8FFF7A3FA54EA0001F3D03246284626
:40238000FFF724FA00E0034802B070BD37894100A46608100220AA002DE9F04383B0074688461C460A9D914622B94FF4FB61244800F048FD234B9C4204D940F2D971204871
:4023C00000F040FDB8F1010F04D940F2DA711C4800F038FD6B68B3F5881F2BD14FF47A7303FB04F40194D7F8C06F06F00406D7F8001F40F201140C4001A8FFF75FFA44EA96
:4024000000010EB90029EED046B1D7F8403389F800300523C7F8C03FD7F8C03F2A463846FFF7D4F9034630B9B8F1000F03D10422BA6600E0044B184603B0BDE8F08300BF83
:40244000A4660810378941000220AA00F0B583B005460F4614461E46134B9A4204D940F63201124800F0EEFC7368B3F5A01F17D14FF47A7303FB04F40194C5F84072D5F862
:40248000004F24F0F804E405E40D01A8FFF716FA54EA0001F3D032462846FFF797F900E0034803B0F0BD00BF37894100A46608100220AA0070B504460E46D0F88C3E13F035
:4024C000010F07D04FF480534B600123C0F8803ED0F8803ED4F84C5F40F201131D420FD0336A15F4807F02D04FF4807200E08022134333620023C4F8C83F45F010050EE0E2
:4025000015F0100F0BD0D4F80833C3F3080333B1F36B23B10123C4F8C43FC4F8C83FD4F8CC3F13F0010F08D031462046FFF7CCFB0123C4F8C03FD4F8C03F15F0100F0AD014
:4025400031462046FFF702F81023C4F8403FD4F8403FD4F84C5F15F0C00F0DD031462046FFF78EFA0123C4F8803ED4F8803EC023C4F8403FD4F8403FD4F88C3F13F0410FD7
:4025800008D031462046FFF7ABF90123C4F8803FD4F8803F70BD00BF70B506460D46D0F8004E14F0020F0AD0836E2BB1002383668B6843F080738B604FF4C0136B6014F02B
:4025C000010F05D029463046FFF736F824F0040414F0080F08D029463046FFF7FDFA0123C6F8C03FD6F8C03F14F0040F08D029463046FFF7E9F90123C6F8803FD6F8803F84
:402600006B68B3F5C01F03D129463046FFF764F86B68B3F5B01F03D129463046FFF746F870BD00BF08B54B6813F4801F02D0FFF7B3FF08BDFFF73EFF08BD00BF2DE9F843B5
:4026400005460C46036813F4006F02D04FF0800801E04FF04008D5F8007207F00F07A26A012A19D9D4F82490E262561EB9F1000F00D026B940F27351254800F0E3FB32461D
:4026800049462846FEF72EFFA36A1B1AA362072F00D9400048446062D5F80832C3F30803984533D0A36A012B30D10023A362072F02D8636A1E7801E0636A1E8800F02DFC2D
:4026C000C5F840624FF40073C5F8803FD5F8803F00F027FCD5F8883F23F4007222F0010242F4007623F4EE6323F0030323B140F22A41084800F0A6FBC5F8886F236843F087
:4027000002032360236B0BB101209847BDE8F88324670810606608102DE9F04105460C46036813F4006F01D0802600E040267608A769D4F81C8017B1B8F1000F04D14FF416
:402740009961314800F07EFB424639462846FEF78BFE236A03442362E3691B1AE36173BBA368FBB1E3689E4201D8013E00E05E1E2B6813F4006F01D0802300E040239E4248
:4027800004D34FF42071214800F05CFBD5F8043323F0FF03F6B21E43C5F804630123C5F8C83F02E00023C5F8C83F636823F001036360236B33B304209847BDE8F081A1698B
:4027C000D5F8002302F00F02072A00D940000844A0619E4216D95C1E2B6813F4006F01D0802300E040239C4204D34FF42071074800F028FBD5F8043323F0FF02E3B2134358
:40280000C5F80433BDE8F0812467081060660810002800F0A48170B50546002900F0A18116460C460B78022B03D93F21A24800F009FB637B023BDBB2062B03D940219E48B1
:4028400000F000FBA37B3BB1022B05D0032B03D04121994800F0F6FA94F82130012B03D94221954800F0EEFA94F82830012B03D94321914800F0E6FA2378012B06D86368D7
:40288000083B082B94BF0023012307E0A37F2BB16368013B062B94BF002301231BB14521854800F0CFFAA368053B042B03D94621814800F0C7FA6369FF2B03D947217E4862
:4028C00000F0C0FAA369FF2B03D948217A4800F0B9FAA37C6BB1237833B9A368092B05D1A37B2BB1012304E0012302E0012300E000231BB14A21704800F0A4FA636B23F4E6
:40290000366323F00D031BB14C216B4800F09AFAE36B23F4EE6323F003031BB14D21664800F090FA2378022B01D1A37F13B16268013A00E00022237F13B14FF4803100E079
:402940000021A368082B02D84FF4006300E000230B4302F00F02134343F000732B60226B2B6813F4006F01D0802300E040239A4203D36221504800F065FAA26B2B6813F48D
:40298000006F01D0802300E040239A4203D36321494800F057FA626A2B6813F4006F01D0802300E040239A4203D36421424800F049FA23781B0603F040732B64637F0BB1DA
:4029C000402200E00022A37C13B14FF4806300E000231343227C12B14FF4807200E000221343627C12B14FF4007200E000221A43E36A013B1B0403F470231343627B013ACE
:402A000002F007021343A27B120102F030021343AB64237B13B14FF4807200E00022E37B23B92378022B03D1012302E0012300E0002313B14FF4007300E000231A43A3680B
:402A4000013B03F00F031343C5F80033227DA3691B0403F47F031343C5F81033E26AD5F8003303F00F0303339A4201D3102A03D97A21114800F0E6F9E37F23B12378012B29
:402A800003D0002302E0002300E0012313B14FF4807200E00022637B013B03F007031A43A37B1B0103F0300313436B64237B2BB14FF4807203E000BF646708100022A368C2
:402AC000013B03F00F0313432278012A02D14FF4803200E000221343C5F8003294F83030C5F8043394F8203013B14FF0007200E0002294F82130012B02D14FF0807300E04A
:402B00000023134394F82820012A02D14FF4803200E00022134394F8242013432B6594F83830C5F80432636B23F4926323F002031B051B0DC5F8C83FE36B23F08C035B0512
:402B40005B0DC5F8883F76B1002070603060B060F0603062F0623063044B736370BD04487047034870BD002070BD00BFEFCDAB000160AA000B694A69934202D34869181AEC
:402B80007047CA694869101A184470472DE9F04107460D46036813F4006F02D04FF0800801E04FF040084FEA5808D7F80863C6F308062C6926E00134EB689C4200D10024E4
:402BC0006B699C420FD12B6B0BB1082098476B699C4208D10023C7F8C83F0CB1013C13E0EC68013C10E0D7F84023D7F8003303F00F03072B02D8AB681A5502E0AB6823F831
:402C00001420013E002ED6D12C61EC6829463846FFF7B0FF201A804519D908B1441E00E000243B6813F4006F01D0802300E040239C4204D34FF42071064800F003F9D7F867
:402C4000040320F0FF03E0B21843C7F80403BDE8F08100BF6066081038B504460D46D0F8003E13F0080F35D0D0F8CC3F13F448730AD04A681A434A60C0F8C03FD0F8C03F80
:402C80000B6B0BB110209847D4F8CC3F13F4006F09D06B6843F400636B604FF40063C4F8C03FD4F8C03FD4F8CC3F13F0010F11D0EB6923B129462046FFF72EFD05E0AB6868
:402CC0001BB129462046FFF761FF0123C4F8C03FD4F8C03FD4F8003E13F0040F2ED0D4F88C3F13F4A0630AD02A681A432A60C4F8803FD4F8803F2B6B0BB120209847D4F8DE
:402D00008C3F13F0010F08D029462046FFF796FC0123C4F8803FD4F8803FD4F88C3F13F4007F0BD00022C4F8882F2B6823F001032B60EA622B6B0BB10220984738BD00BF41
:402D400038B50D4B9A680D4B9A420FD10D46044621B940F237110A4800F074F804F11003064A52F8230042F8235038BD1030054B53F8200038BD00BF00ED00E0004002082C
:402D8000A46708100000081048B338B504460D464368072B03D93221134800F053F8B4F900306268002B08DB5201D2B203F1604303F5614383F8002305E003F00F03520117
:402DC000D2B20A49CA540A4B9A680A4B9A4208D12946B4F90000FFF7B3FF002038BD06487047002038BD00BFA467081014ED00E000ED00E0004002080100560010B504464A
:402E000005E0084B186800F07FF8A4F50044B4F5004FF6D8044B186800FB04F000F074F810BD00BFA8420208A442020808B5034B1B7800FB03F000F067F808BDA0420208BA
:402E400001BEFEE738B50D46044C18220146204601F0B6F9A5610020FFF7F2FFF0480208FEE700BF08B50268254BDA6142681A6282685A62C2689A620269DA6242691A6311
:402E800082695A63C2699A631E4A916AD963D16A1964516A5964516B9964926BDA64F1EE103A13F0900F27D0026A154B1A65426A5A65826A9A65C26ADA65026B1A66426B17
:402EC0005A66826B9A66C26BDA66026C1A67426C5A67826C9A67C26CDA67026DC3F88020426DC3F88420826DC3F88820C26DC3F88C20026EC3F89020FFF7B2FF08BD00BF36
:402F0000F048020800ED00E00230800803D001300238FCD100BF00BF7047EFF3108072B6704780F310887047014B1860704700BFEC4B020870B539B900240AE015F8010BBC
:402F4000FDF758FE013402E016460D460024B442F4DB204670BD00BF70B561B900240FE0FDF754FEC0B2287001340A2808D00D2806D0013502E016460D460024B442EFDB6F
:402F8000204670BD08B502490248FFF74BFB08BDF04B02080000674010B5144B1B788BB9134C144A14492046FEF7ECFE134A14492046FEF7F5FF13491348FFF7E5FE012229
:402FC0000A4B1A70104BB3F90030002B08DB590903F01F03012202FA03F30C4A42F82130034A136843F00043136010BD884B020800006740F04B02085869081084D71700AE
:40300000A0860100852F08101065081000E100E081F0004102E000BF83F0004330B54FEA41044FEA430594EA050F08BF90EA020F1FBF54EA000C55EA020C7FEA645C7FEA77
:40304000655C00F0E2804FEA5454D4EB5555B8BF6D420CDD2C4480EA020281EA030382EA000083EA010180EA020281EA0303362D88BF30BD11F0004F4FEA01314FF4801CAA
:403080004CEA113102D0404261EB410113F0004F4FEA03334CEA133302D0524263EB430394EA050F00F0A780A4F10104D5F1200E0DDB02FA0EFC22FA05F2801841F100017C
:4030C00003FA0EF2801843FA05F359410EE0A5F120050EF1200E012A03FA0EFC28BF4CF0020C43FA05F3C01851EBE37101F0004507D54FF0000EDCF1000C7EEB00006EEB9C
:403100000101B1F5801F1BD3B1F5001F0CD349085FEA30004FEA3C0C04F101044FEA445212F5800F80F09A80BCF1004F08BF5FEA500C50F1000041EB045141EA050130BD3A
:403140005FEA4C0C404141EB010111F4801FA4F10104E9D191F0000F04BF01460020B1FA81F308BF2033A3F10B03B3F120020CDA0C3208DD02F1140CC2F10C0201FA0CF0D8
:4031800021FA02F10CE002F11402D8BFC2F1200C01FA02F120FA0CFCDCBF41EA0C019040E41AA2BF01EB0451294330BD6FEA04041F3C1CDA0C340EDC04F11404C4F120022A
:4031C00020FA04F001FA02F340EA030021FA04F345EA030130BDC4F10C04C4F1200220FA02F001FA04F340EA0300294630BD21FA04F0294630BD94F0000F83F4801306BF82
:4032000081F480110134013D4EE77FEA645C18BF7FEA655C29D094EA050F08BF90EA020F05D054EA000C04BF1946104630BD91EA030F1EBF0021002030BD5FEA545C05D1EE
:403240004000494128BF41F0004130BD14F580043CBF01F5801130BD01F0004545F0FE4141F470014FF0000030BD7FEA645C1ABF194610467FEA655C1CBF0B46024650EA37
:40328000013406BF52EA033591EA030F41F4002130BD00BF90F0000F04BF0021704730B54FF4806404F132044FF000054FF0000150E700BF90F0000F04BF0021704730B527
:4032C0004FF4806404F1320410F0004548BF40424FF000013EE700BF42004FEAE2014FEA31014FEA02701FBF12F07F4393F07F4F81F06051704792F0000F14BF93F07F4F95
:40330000704730B54FF4607401F0004521F0004120E700BF50EA010208BF704730B54FF000050AE050EA010208BF704730B511F0004502D5404261EB41014FF4806404F1D5
:4033400032045FEA915C3FF4DCAE4FF003025FEADC0C18BF03325FEADC0C18BF033202EBDC02C2F1200300FA03FC20FA02F001FA03FE40EA0E0021FA02F11444C1E600BFC0
:4033800070B54FF0FF0C4CF4E06C1CEA11541DBF1CEA135594EA0C0F95EA0C0F00F0DEF82C4481EA030621EA4C5123EA4C5350EA013518BF52EA033541F4801143F48013E1
:4033C00038D0A0FB02CE4FF00005E1FB02E506F00042E0FB03E54FF00006E1FB03569CF0000F18BF4EF0010EA4F1FF04B6F5007F64F5407404D25FEA4E0E6D4146EB0606EA
:4034000042EAC62141EA55514FEAC52040EA5E504FEACE2EB4F1FD0C88BFBCF5E06F1ED8BEF1004F08BF5FEA500E50F1000041EB045170BD06F0004646EA010140EA02009D
:4034400081EA0301B4EB5C04C2BFD4EB0C0541EA045170BD41F480114FF0000E013C00F3AB8014F1360FDEBF002001F0004170BDC4F10004203C35DA0C341BDC04F11404A4
:40348000C4F1200500FA05F320FA04F001FA05F240EA020001F0004221F0004110EBD37021FA04F642EB06015EEA430E08BF20EAD37070BDC4F10C04C4F1200500FA04F39E
:4034C00020FA05F001FA04F240EA020001F0004110EBD37041F100015EEA430E08BF20EAD37070BDC4F1200500FA05F24EEA020E20FA04F301FA05F243EA020321FA04F0CC
:4035000001F0004121FA04F220EA020000EBD3705EEA430E08BF20EAD37070BD94F0000F0FD101F00046400041EB010111F4801F08BF013CF7D041EA060195F0000F18BF10
:40354000704703F00046520043EB030313F4801F08BF013DF7D043EA0603704794EA0C0F0CEA135518BF95EA0C0F0CD050EA410618BF52EA4306D1D181EA030101F0004112
:403580004FF0000070BD50EA410606BF1046194652EA430619D094EA0C0F02D150EA013613D195EA0C0F05D152EA03361CBF104619460AD181EA030101F0004141F0FE4114
:4035C00041F470014FF0000070BD41F0FE4141F4780170BD70B54FF0FF0C4CF4E06C1CEA11541DBF1CEA135594EA0C0F95EA0C0F00F0A7F8A4EB050481EA030E52EA033574
:403600004FEA013100F088804FEA03334FF0805545EA131343EA12634FEA022245EA111545EA10654FEA00260EF000419D4208BF964244F1FD0404F5407402D25B084FEAE8
:403640003202B61A65EB03055B084FEA32024FF480104FF4002CB6EB020E75EB030E22BFB61A754640EA0C005B084FEA3202B6EB020E75EB030E22BFB61A754640EA5C0034
:403680005B084FEA3202B6EB020E75EB030E22BFB61A754640EA9C005B084FEA3202B6EB020E75EB030E22BFB61A754640EADC0055EA060E18D04FEA051545EA16754FEA01
:4036C00006164FEAC30343EA52734FEAC2025FEA1C1CC0D111F4801F0BD141EA00014FF000004FF0004CB6E711F4801F04BF01430020B4F1FD0C88BFBCF5E06F3FF6AFAE49
:40370000B5EB030C04BFB6EB020C5FEA500C50F1000041EB045170BD0EF0004E4EEA113114EB5C04C2BFD4EB0C0541EA045170BD41F480114FF0000E013C90E645EA060EA8
:403740008DE60CEA135594EA0C0F08BF95EA0C0F3FF43BAF94EA0C0F0AD150EA01347FF434AF95EA0C0F7FF425AF104619462CE795EA0C0F06D152EA03353FF4FDAE104666
:40378000194622E750EA410618BF52EA43067FF4C5AE50EA41047FF40DAF52EA43057FF4EBAE12E74FEA4102B2F1E04324BFB3F5001CDCF1FE5C0DD901F0004C4FEAC00279
:4037C0004CEA5070B2F1004F40EB830008BF20F00100704711F0804F21D113F13872BCBF01F00040704741F480114FEA5252C2F11802C2F1200C10FA0CF320FA02F018BF96
:4038000040F001004FEAC1234FEAD32303FA0CFC40EA0C0023FA02F34FEA4303CCE77FEA625307D150EA01331EBF4FF0FE4040F44000704701F0004040F0FE4040F40000D0
:40384000704700BF02440346934202D003F8011BFAE770472DE9F04788B0002B149F1299109EDDF84CA01D4627F02007BBBF03F100431D4600232D231446B8BF1446462FA8
:403880000B7003D0452F03D1013601E0032300E0022307AA049206AA03928DE8480422462B4600F031FD472F804602D1119BDB0728D5462F08EB060911D198F80030302BDD
:4038C0000AD1002200232046294602F045FD18B9C6F10106CAF80060DAF800309944002200232046294602F037FD08B9302202E0CDF81C9006E0079B994503D9591C07911A
:403900001A70F8E7079B159AC8EB03034046136008B0BDE8F08773B503460029B8BF494203F8022BB4BF2D222B220929427019DD0DF1070216460A2591FBF5F405FB14116E
:403940003031092C02F8011D2146F5DC3031541E02F8011CB4421A460AD214F8012B03F8012BF7E730241A46214402F8024B5970101A02B070BD00002DE9F04F91B00C46EE
:40398000DDF8688016461F46054601F023FB03680893184600F00CFC00230E93D8F800300990073323F0070303F1080294F818A0D4F800B0C8F80020D3E90023C4E91223C0
:4039C000D4E9128929F000430B93CDF828804FF0FF32A74BDDE90A0102F0F0FCA0B94FF0FF32A34BDDE90A0102F0CAFC60B9002200234046494602F0B9FC10B12D2384F810
:403A000043309C4B9C4A0AE042464B464046494602F0D4FC002800F09281984B984ABAF1470F8CBF90469846032323612BF0040323604FF000093DE0BAF1670F00F08A81AC
:403A4000BAF1470F00F08681236000210DF133020193636805900292009342464B460691CDF810A0CDF80CE02846FFF7F3FE0AF0DF03472B804600F08481BAF1650F0D9963
:403A800000F28D810139524604F150000D91FFF742FF0E9A8318012A8146236100F37C812268D10700F178819DF8333013B12D2384F84330009733460FAA2146284600F09C
:403AC0009FF9013002D14FF0FF3096E123685A0501D4236965E0BAF1650F40F2D58000220023D4E9120102F037FC78B30123654A31462846B8470130E5D00E9B0D9A9A42E1
:403B00000BDB2368D80708D423689B0740F111814FF0000804F1190906E1099B089A31462846B8470130CED04FF0000804F11A090E9B013B9845E7DA01234A4631462846B0
:403B4000B8470130BFD008F10108F1E70D9B002B29DC01234B4A31462846B8470130B2D00D9B23B90E9B13B92368D907CCD5099B089A31462846B8470130A4D04FF0000968
:403B800004F11A0A0D9B5B42994509DA0123524631462846B847013095D009F10109F1E70E9B4246A7E00E9AA36D9A42A8BF1A46002A914606DC4FF0000A29EAE97904F12B
:403BC0001A0B11E01346314642462846B8470130F1D178E701235A4631462846B84701303FF471AF0AF1010AA36DC9EB03029245F0DB08EB03090D9A0E9B9A420FDB23685B
:403C0000DA070CD40E9B0D9A9844C9EB08089B1A9845A8BF9846B8F1000F08DC0FE0099B089A31462846B8470130EBD14BE743464A4631462846B84701303FF444AF4FF095
:403C4000000928EAE87804F11A0A09E00123524631462846B84701303FF435AF09F101090D9A0E9B9B1AC8EB03039945EEDB4BE7FFFFEF7F74690810786908107C690810ED
:403C800080690810846908100E9A012A01DCDB0738D50123424631462846B84701303FF412AF099B089A31462846B84701303FF40AAF00220023D4E9120102F04DFB20B143
:403CC0004FF0000804F11A0A0EE00E9B08F10102013B19E00123524631462846B84701303FF4F1AE08F101080E9B013B9845F1DB4B4604F1500231462846B84701307FF409
:403D000003AFE0E60123424631462846B8470130EED1D8E601234A4631462846B84701303FF4D1AE08F10108E3680F9A9B1A9845F0DBE0680F9B9842B8BF18465DE0626857
:403D4000531C0EA84BF480630DF1340E7FF474AE062201E012B90122626075E6002106910DF133018DE80C00236005904246CDF810A0CDF80CE002914B462846FFF76AFDF3
:403D800080460D9BD81C02DB626893421DDDAAF1020A5FFA8AFA70E60133236184E6BAF1660F14D10029636807DD216113B92268D2071DD501330B4419E013B92268D00706
:403DC00001D5023313E0012311E04FF0670A0D9B0E9A934205DB22682361D10708D5013305E0002BD4BFC3F102030123134423610D9BA3654FF0000956E611B0BDE8F08F90
:403E00002DE9F04791461F460A698B68DDF820809342B8BF1346C9F8003091F8432006460C4612B10133C9F800302368990642BFD9F800300233C9F80030256815F0060527
:403E400010D104F1190A07E00123524639463046C04701301AD00135E368D9F800209B1A9D42F1DB94F843302268003318BF012392060FD5E1185A1C302081F843002244A9
:403E800094F8451082F84310023303E04FF0FF30BDE8F08704F1430239463046C0470130F4D02268D9F80050E36802F00602042A08BF5D1B2269A3680CBF25EAE57500253B
:403EC0009342C4BF9B1AED184FF000091A344D4509D00123224639463046C0470130D5D009F10109F3E70020BDE8F0872DE9F04317460A7E85B06E2A984606460C460C9B19
:403F000001F1430E00F0AE8011D8632A22D009D8002A00F0BB80582A40F0CA8081F84520834955E0642A1ED0692A1CD0C0E0732A00F0B08009D86F2A2ED0702A40F0B880D5
:403F40000A6842F020020A603EE0752A24D0782A3AD0ADE01A6801F14205111D1960136884F84230A8E021681A6811F0800F02D0111D196008E011F0400F02F10401196017
:403F800002D0B2F9003000E01368002B3CDA2D225B4284F8432037E021681A6811F0800F02D0111D196007E011F0400F02F10401196001D0138800E01368227E5C496F2A75
:403FC00014BF0A2208221BE078225A4984F845202268186812F0800F00F104051D6003D1550601D5038800E00368D00744BF42F0200222601BB9226822F02002226010229C
:40400000002084F8430001E049490A226568A560002D08DB206820F0040020602BB9002D7DD175460CE0002B79D07546B3FBF2F002FB1033CB5C05F8013D03460028F5D166
:40404000082A0BD12368DA0708D5236962689A42DEBF302305F8013C05F1FF35C5EB0E0323612EE008681A68496910F0800F03D0101D1860136808E010F0400F02F10400BC
:404080001860136801D0198000E0196000232361754616E01A68111D1960156862680021284600F0A5FF08B1401B6060636804E004F1420584F8422001232361002384F87B
:4040C0004330CDF800803B4603AA21463046FFF797FE013002D14FF0FF3026E023692A4639463046C0470130F5D023689B0710D5002504F1190907E001234A46394630462E
:40410000C0470130E7D00135E368039A9B1A9D42F2DBE068039B9842B8BF184605E00B7884F8423004F142058AE705B0BDE8F08386690810976908100FB40A4B13B51C6829
:4041400024B1A36913B9204600F0BAFE05AB049AA1680193204601F0AFFC02B0BDE8104004B07047104302080EB400B59CB04FF402711DABADF81410029006906FF0004156
:404180000A48049107914FF6FF7153F8042BADF816100068019302A901F070FB029B00221A701CB05DF804EB03B0704710430208034613F8012B002AFBD1181A01387047CB
:4041C00010B5034642B111F8014B03F8014B013A002CF7D11A4400E010BD934202D003F8014BFAE710BD2DE9F74F03690C699C42804600F38380013C01F114074FEA840E60
:4042000000F1140657F8245006EB0E030193013556F82430B3FBF5F507EB0E09002D39D04FF0000A3846B446D34650F8042B93B205FB03A34FEA134A9BB2C3EB0B03120C72
:40424000BCF800B005FB02A213FA8BF34FEA124A1FFA82FBDCF80020CBEB124202EB23429BB243EA024381454FEA224B4CF8043BDBD256F80E306BB9019B043B9E421A460A
:4042800002D3C8F8104005E01268043B002AF8D1013CF3E7404601F014F900282CDB013530464FF0000E57F8041BD0F800C08AB2C2EB0E03090C13FA8CF3C1EB1C4202EB3D
:4042C00023429BB243EA0243B9454FEA224E40F8043BE8D256F8242006EB840362B9043B9E421A4602D3C8F8104005E01268043B002AF8D1013CF3E7284600E0002003B070
:40430000BDE8F08F000000002DE9F04F456A97B08246239CCDE9022345B9102000F05EFECAF82400456085600560C560DAF82430196859B15A684A60012393408B605046A3
:4043400000F0E6FEDAF8243000221A60039BA04A002BBFBF01232360039B23F00043B8BF0393DDF80C80A4BF0023236028F000431B0D1B0593421DD1229A42F20F73136019
:40438000029B43B9934A944BC8F31300002814BF1846104600E09048249B002B00F04A85C37813B100F1080300E0C31C249A136000F040BDDDE902450022002320462946CB
:4043C00001F0CAFF074658B1229A01231360249B002B00F0228581481860013800F02ABD14AB019315AB009322462B46504601F0E3F8C8F30A56059056B1C5F3130343F0EF
:404400007F51204641F44011A6F2FF3611971DE0159B149E1E4406F23243202B0ADD029A06F21240C3F1400322FA00F008FA03F3184304E0C3F12000029B03FA00F0FEF778
:4044400029FF0123A1F1F871013E11930022644BFEF7E2FD58A3D3E90023FEF791FF58A3D3E90023FEF7DAFD044630460D46FEF721FF55A3D3E90023FEF782FF02460B465A
:4044800020462946FEF7CAFD04460D4601F0ACFF0022834600232046294601F067FF58B15846FEF707FF02460B462046294601F053FF08B90BF1FF3BBBF1160F0DD8494966
:4044C00001EBCB01DDE90223D1E9000101F06CFF30B10BF1FF3B002300E00123109300E01090149B9E1B731E089343BFC3F10009002308934FF00009BBF1000F07DB089B08
:40450000CDF834B05B4408930023099306E0CBF1000309930023CBEB09090D93209B092B27D8052BC4BF043B2093209BA3F10203CCBF00250125032B20D8DFE803F0060E5C
:404540000204012302E0012308E000230C93219B002B1CDD069398461EE000230C93219B5B4403F1010806934346012BB8BF012312E00125002320930C9501E001230C93D6
:404580004FF0FF33069398460022122303E00123069398461A462192DAF8244000226260042101F114029A421ED86268013262604900F6E7AFF3008061436F63A787D23F56
:4045C000B3C8608B288AC63FFB799F501344D33F0000F07FA8690810B1690810856908100000F83F586A08106168504600F05BFDDAF8243020601B680793B8F10E0F00F2CF
:404600005D81002D00F05A819DED027BBBF1000F8DED0E7B31DDA04A0BF00F0302EBC30393ED007B4FEA2B14E2068DED0A7B0CD59A4BDDE90E01D3E90823FEF7CBFF04F098
:404640000F04CDE90201032600E00226934D6CB1E30708D5DDE90A01D5E90023FEF790FECDE90A01013664100835F0E7DDE90A23DDE90201FEF7AEFF20E0CBF1000404B3EF
:40468000854B864D04F00F0203EBC203D3E90023DDE90E01FEF774FECDE9020124110023022654B1E70705D5D5E90023FEF768FE0136012364100835F3E71BB1CDE90201D7
:4046C00000E00226109BEBB1DDE902450022744B2046294601F04AFEA0B1B8F1000F11D0069B002B40F3E6800BF1FF330A9300226C4B20462946FEF743FE0136CDE9020181
:40470000069F02E0CDF828B047463046FEF7D2FDDDE90223FEF734FE0022634BFEF77EFC0446A1F15075CFB90022604BDDE90201FEF772FC22462B46CDE9020101F034FE66
:40474000002840F04182224605F10043DDE9020101F00CFE002840F02E82ABE00C9A4E4B791E002A4AD003EBC103D3E9002300204F49FEF72FFF22462B46FEF74DFC079CE6
:4047800005460E46DDE9020101F02EFE1290FEF791FD02460B46DDE90201FEF73DFC129B303304F8013B2A463346CDE9020101F0DDFD002840F02183DDE902230020384982
:4047C000FEF72AFC2A46334601F0D0FD002840F0D280079BE31ABB426CDA0022314B28463146FEF7CDFD002205460E462D4BDDE90201FEF7C5FDCDE90201C3E703EBC1015D
:4048000022462B46D1E90001FEF7BAFD079BCDE91201DC191D46DDE9020101F0E5FD0646FEF748FD303602460B46DDE90201FEF7F3FB05F8016BAC42CDE902014FF0000257
:4048400023D11B4BDDE91201FEF7E8FB02460B46DDE9020101F0A8FD002840F08C80DDE9122300201249FEF7D7FB02460B46DDE9020101F07BFDE8B114F8013C302B04F197
:40488000FF3240F0BA821446F6E7064BFEF778FDCDE90201BFE700BF586A0810306A08100000F03F0000244000001C40000014400000E03FDDE90E34CDE90234159B002B8E
:4048C0007CDBBBF10E0F79DC8F4B03EBCB03D3E90067219B002B14DAB8F1000F11DC40F06C810022894B30463946FEF749FDDDE9022301F04FFD45464646002840F05F8156
:4049000066E1079C32463B46DDE90201FEF762FE01F06AFD0546FEF7CDFC32463B46FEF72FFD0B460246DDE90201FEF775FB05F1300E04F801EB079BC3EB040EF045CDE9CB
:4049400002012ED102460B46FEF768FB8046894602460B463046394601F008FD78B942464B463046394601F0F7FC002800F04782E90704D443E2DDF828B000E01C4614F83F
:40498000012C392A04F1FF3307D1079A9A42F5D1079930220BF1010B0A701A7801321A702DE200225A4BFEF7EBFC00220023CDE9020101F0D1FC0028A4D020E20C9A002A86
:4049C0002DD0209A012A0ADC119A12B103F2334302E0149BC3F13603099D4C4615E0099B08F1FF35AB42BFBF099B0995EA1A0D9BB7BF9B185D1B0D930025B8F1000FB9BFAB
:404A0000C8EB090400234C464346089A01211A4450469944089200F01AFC064602E0099D0C9E4C465CB1089B002B08DDA342089AA8BF2346C3EB0909E41AD31A0893099B32
:404A4000002B1DDD0C9BABB185B131462A46504600F098FC059A01460646504600F000FC05990746504600F053FB0597099B5A1B06D000E0099A0599504600F083FC05901E
:404A80000121504600F0E3FB0D9B05465BB31A460146504600F076FC209B012B054618DC029B83B9039BC3F3130373B9039B23F000473F0D3F054FB1089B013309F10109D8
:404AC0000893012702E0002700E0029F0D9B73B100E000272B6905EB8303186900F06AFBC0F1200004E0209B012BD9DD0D9F0120089B184410F01F000ED0C0F12003042B98
:404B000008DDC0F11C0008E0586A0810000014400000244006D018461C30089B0344814404440893B9F1000F05DD4A460599504600F076FC0590089B002B05DD29461A4662
:404B4000504600F06DFC0546109BEBB12946059800F0B7FC002817DA00230A220599504600F0EDFA0C9B05900BF1FF3B002B00F05881002331460A22504600F0E0FA069B65
:404B8000002B064637DC33E0B8F1000F2ADC209B022B27DDCDF81880069B83B929460522504600F0CCFA01460546059800F089FC00280DDC03E03D4600E000252E46219B42
:404BC000079C6FEA030B0AE0DDF828B03D463E46079B079A5C1C312313700BF1010BB0460026F7E00C9BCDF8188023B9079CB1E0209B022BD0DC002C05DD31462246504655
:404C000000F00EFC06469FB17168504600F04BFA326902320446920006F10C010C3000F037FA01222146504600F0FAFB804600E0B046029BDDF81C9003F00103089329466E
:404C40000598FFF7D0FA3146044600F13007059800F037FC424602902946504600F04DFCC36802463BB901460990059800F029FC099A034600E0012311465046099300F074
:404C800047FA099B4BB9209A3AB9089A2AB9392F28D0029B002B1ADC1BE0029A002A04DB1AD1209AC2B9089AB2B9002B11DD01220599504600F0B4FB2946059000F001FCEE
:404CC000002802DC05D1FA0703D5392F0AD004F1310709F101040CE0002B09F101040BDD392F05D1392389F8003009F1010954E0013789F800706DE0079B069A04F8017CDF
:404D0000E31A9342A1463AD000230A220599504600F015FA464505904FF000034FF00A023146504604D100F00AFA0646804686E700F005FA4146064600230A22504600F095
:404D4000FEF980467BE700230A220599504600F0F6F9059029460598FFF745FA00F1300704F8017B079B069AE31A9342EBDB079B012AACBF9B180133B04699460026012225
:404D80000599504600F04CFB2946059000F099FB002802DC15D1FB0713D54C4614F8013C392B04F1FF3209D1079B934204D10BF1010B3123079A02E01446EFE701331370D9
:404DC00008E04C4614F8013C302B04F1FF3201D11446F7E72946504600F09AF9B8F1000F0DD02EB1464503D03146504600F090F94146504600F08CF901E0DDF828B00599C7
:404E0000504600F085F90023229A23700BF101031360249B1BB11C6001E008480AE0079808E0069B002B3FF7E1AE209B022B7FF7DDAEB1E617B0BDE8F08F00BF8469081020
:404E4000014900F0A9B800BF71600810002310B5044603604360836081814366C281036143618361194608225C30FEF7EBFC054B6362054BA362054BE362054B24622363AE
:404E800010BD00BF115D0810335D08106B5D08108F5D081070B568234D1E5D430E4605F1740100F033FC044640B1002180E842000C30A06005F16802FEF7C4FC204670BDD1
:404EC000836910B5044633BB8364C3640365124B124A1B688262984204BF0123836100F01FF86060204600F01BF8A060204600F017F80022E06004216068FFF7A7FF0122EB
:404F00000921A068FFF7A2FF02221221E068FFF79DFF0123A36110BD70690810414E0810F8B51C4B1E68B369074613B93046FFF7C7FF4836B4687368013B04D4B4F90C5057
:404F40007DB16834F8E733680BB13668F2E704213846FFF79FFF30600028F6D10C233B60F8BD4FF6FF73E3810123A38165662560A560656025616561A5610822294604F128
:404F80005C00FEF75FFC6563A563A564E5642046F8BD00BF706908102DE9F8438046894600F14804002694B1A5686768013F0CD4AB89012B07D9B5F90E30013303D029462C
:404FC0004046C84706436835F0E72468EBE73046BDE8F8830048704714430208024B0146186800F093BB00BF104302080000000001F0FF01102A2BDB10F0070F08D010F876
:40500000013B013A8B422DD010F0070F42B3F6D1F0B441EA012141EA014122F007047FF000070023F0E80256083C85EA010586EA010685FA47F5A3FA87F586FA47F6A5FAB9
:4050400087F68EB9EED1F0BC01F0FF0102F0070232B110F8013B013A83EA010313B1F8D10020704701387047002D06BF35460338073815F0010F07D1013015F4807F02BF20
:40508000013015F4C03F0130F0BC0138704700BF10B5431E0A44914204D011F8014B03F8014FF8E710BD70B5456A04460E463DB91020FFF793FF6062456085600560C560CE
:4050C000656AEB6843B1636ADB6853F8260078B1026843F8262017E021220421204600F0B9FA636AE860DB68002BECD1002070BD012101FA06F56A1D9200204600F0AAFAE5
:405100000028F3D04660856000230361C36070BD70B5446A06460D463CB91020FFF75EFF7062446084600460C4603DB1736A6A68DB6853F82210296043F8225070BD2DE980
:40514000F0410D691F4606460C4601F1140E0023DEF8000081B202FB01710F0C000C02FB007089B2013301EB00419D424FEA10474EF8041BECDCD7B1A3689D4212DB6168E2
:4051800030460131FFF78FFF2269023204F10C01804692000C30FFF77BFF21463046FFF7B7FF444604EB850301355F6125612046BDE8F081030C1B0413B90004102300E06B
:4051C000002310F07F4F04BF0002083310F0704F04BF0001043310F0404F04BF80000233002803DB420003D5581C70471846704720207047036813F007020BD0D90722D47E
:405200009A074BBF5B089B08036003604CBF01200220704799B209B91B0C102213F0FF0F04BF1B0A0832190704BF1B090432990704BF9B080232D90702D45B0805D00132C1
:40524000036010467047002070472020704710B50C460121FFF727FF01224461026110BD2DE9F74F14460A6923699A42B8BF0B468846BCBFA0461C46D8F81070D4F81090FD
:40528000D8F80830D8F8041007EB09069E42C8BF0131FFF708FF00F1140505EB860C2B460022634502D243F8042BFAE704F1140208F1140102EB890301EB87070093009B4B
:4052C0000192934257D9B2F800B0BBF1000F23D08946AE464FF0000859F8044BBEF800A0A3B20BFB03A34FEA144ADEF8004043444FEA14480BFB0A8404EB1344F2469BB2E5
:4053000043EA04434F454FEA14484AF8043B01D9D646E1E7CEF80480019BB3F802A00432BAF1000F21D02B682C4689464FF00008B9F800E0B4F802B00AFB0EBEF044A34685
:405340009BB243EA08434BF8043B59F8043BB4F804E01B0C0AFB03E303EB18434F454FEA134801D95C46E3E763600435A7E75CF8043D13B9013E002EF9DC066103B0BDE811
:40538000F08F00002DE9F843154612F0030206460F4607D0013A214C002354F82220FFF7CEFE0746AD1036D0746A3CB91020FFF715FE7062446084600460C460D6F82480B8
:4053C000D8F808404CB940F271213046FFF73FFF0023C8F80800044603604FF00008EB070AD5394622463046FFF73AFF394681463046FFF78DFE4F466D100CD0206808B17A
:405400000446ECE7224621463046FFF729FF2060C0F80080F4E73846BDE8F883206A08102DE9F0470C464FEA621A26694968A368564407469146751CAB4202DA01315B00D5
:40544000FAE73846FFF72FFE0023804600F114011A46534503DA41F823200133F9E72AEAEA73206901EB830319F01F0904F1140101EB800E14D0C9F1200C0022086800FADF
:4054800009F002439A4643F8042B51F8042B8E4522FA0CF2F2D8CAF8042042B1B51C06E0043B51F8042B43F8042F8E45F9D8013D3846C8F810502146FFF72AFE4046BDE850
:4054C000F08703690A699B1A10B511D192001430143183180A4453F8044D52F8041D8C4202D007D3012010BD9842F4D3002010BD184610BD4FF0FF3010BD2DE9F8430C46F0
:405500000746114620461546FFF7DBFF061E08D131463846FFF7C7FD012303614661BDE8F883BCBF23462C4638466168BABF1D4601260026FFF7B7FD2B69C660266905F18C
:405540001409143404EB860709EB830800F114054FF0000C54F8043B59F8042B1CFA83F11FFA82FE120CCEEB0101C2EB134303EB214389B24FEA234CC84541EA0343A646CD
:4055800045F8043BE6D8BE450ED25EF8041B1CFA81F2131403EB114392B242EA03424FEA234C45F8042BEEE755F8043D0BB9013EFAE70661BDE8F8832DE9F34101211C4602
:4055C000089E099D9046FFF76EFDC4F31303C4F30A5407460CB143F480130193B8F1000F19D002A840F8088DFFF704FE009B48B1019AC0F1200102FA01F10B43C2407B61B3
:40560000019200E07B61019BBB61002B14BF02210121396107E001A8FFF7ECFD019B7B6101213961203034B1A4F2334404443460C0F1350009E007EB8103A0F232403060EC
:405640001869FFF7B7FDC0EB41102860384602B0BDE8F08138B502FB01F4214600F056F8054618B122460021FEF7ECF8284638BD38B50546002946D051F8043C0C1F002B82
:40568000B8BFE41800F0ABFD1F4A1368114613B96360146032E0A3420ED92268A018834204BF18685B68636004BF121822600C6024E0A24203D813465A68002AF9D11868C6
:4056C0001918A1420BD12168014458188242196014D1106852685A60014419600EE002D90C232B600AE021686018824204BF10685268626004BF091821605C602846BDE893
:40570000384000F06DBD38BD904B020870B5CD1C25F0030508350C2D38BF0C25002D064601DBA94202D90C23336046E000F057FD234B1C681A462146A1B10B685B1B0ED417
:405740000B2B03D90B60CC18CD501EE08C420DBF63684B686360136018BF0C4615E00C464968E9E7174C23681BB9304600F0C0FA20602946304600F0BBFA431C18D0C41C5B
:4057800024F00304A0420DD12560304600F028FD04F10B00231D20F00700C31A0ED05A42E25070BD211A304600F0A2FA0130EBD10C233360304600F013FD002070BD00BF83
:4057C000904B02088C4B02082DE9F0478E689E4282460C46914698463ED88A8912F4906F3AD0256809696F1A6569022305EB450595FBF3F57B1C43449D4238BF1D465305DD
:405800000FD52946FFF782FF064698B13A462169FFF73EFCA38923F4906343F08003A38113E02A4600F0DDFC064670B921695046FFF71EFF0C23CAF80030A38943F0400328
:40584000A3814FF0FF30BDE8F087266165613E44ED1B2660A5604646464528BF464632464946206800F0A0FCA3689B1BA36023681E4426600020BDE8F08700002DE9F04FAB
:405880009DB0804603938B891C060D4616460DD50B695BB94021FFF739FF2860286118B90C23C8F80030CDE040236B610023099320238DF82930DFF89CB130238DF82A304E
:4058C00037463C4614F8013B1BB9B7EB060910D003E0252BF9D02746F3E74B46324629464046FFF771FF013000F0A780099B4B4409933B78002B00F0A08000234FF0FF32BD
:4059000004930793059206938DF853301A930126052221784E48FFF76BFB671C049B38B14B4A801A06FA00F0184304903C46EFE7D90644BF20228DF853201A0744BF2B227A
:405940008DF8532022782A2A03D0079A00210A200BE0039A111D12680391002A10DA524243F00200079204900BE0274601343B78303B092B03D800FB02320121F5E701B11B
:4059800007923B782E2B1ED17B782A2B0AD1039B1A1D1B680392002BB8BF4FF0FF330237059310E000230593781C19460A24074601303A78303A092A03D804FB01210123A6
:4059C000F5E703B10591032239782248FFF710FB40B14023CBEB000003FA00F0049B18430490013739781C488DF8281006227E1CFFF7FEFA88B1194B33B9039B073323F08D
:405A000007030833039314E003AB00932A46144B04A94046FDF7B0FF07E003AB00932A460F4B04A94046FEF761FAB0F1FF3F824603D0099B5344099342E7AB895B0601D458
:405A4000099801E04FF0FF301DB0BDE8F08F00BF206B0810266B08102A6B081079390810C95708109368013B002B10B4936009DA9469A34202DBCBB20A2B03D15DF8044BA6
:405A800000F08AB91368581C10601970C8B25DF8044B7047F8B506460F461446D518AC4208D03A4614F8011B3046FFF7DBFF431CF5D100E00020F8BD2DE9F04F9DB00C46DF
:405AC00017460393064618B183690BB9FFF7F8F97F4B9C4201D1746808E07E4B9C4201D1B46803E07C4B9C4208BFF468A38918070CD5236953B10023099320238DF82930ED
:405B000030238DF82A30DFF8D4B144E02146304600F0A8F90028EED04FF0FF30D5E0039A111D12680391002A80F28C80524243F002000792049098F800302E2B00F08480B8
:405B4000032298F800106548FFF752FA48B14023CBEB000003FA00F0049B1843049008F1010898F800105E488DF82810062208F10107FFF73DFA002800F09580594B002B8D
:405B800040F08880039B073323F0070308330393099B53440993B846454615F8013B1BB9B8EB07090FD003E0252BF9D0A846F3E74B463A4621463046FFF76CFF01307FD045
:405BC000099B4B44099398F80030002B78D000234FF0FF3204930793059206938DF853301A930127052229783F48FFF701FA05F10108049B38B13C4A801A07FA00F018439F
:405C000004904546EEE7D90644BF20228DF853201A0744BF2B228DF853202A782A2A3FF47EAF079A00210A20A846013598F80030303B092B03D800FB02320121F4E70029F6
:405C40003FF479AF079276E798F801302A2B0BD1039B1A1D1B680392002BB8BF4FF0FF3308F1020805936BE70023059308F1010019460A258046013098F80020303A092A6D
:405C800003D805FB01210123F4E7002B3FF458AF059155E703AB00932246144B04A93046FDF76AFE07E003AB009322460F4B04A93046FEF71BF9B0F1FF3F82467FF468AFE3
:405CC000A3895B063FF528AF09981DB0BDE8F08FB8690810D8690810F8690810266B08102A6B081079390810206B0810955A081038B5064C002305460846236000F0BCFB80
:405D0000431C02D1236803B12B6038BD3C4C020810B50C46B1F90E1000F08AFA0028ABBF636DA3891B1823F48053ACBF6365A38110BD2DE9F0411F468B89DB0505460C4681
:405D4000164605D502230022B1F90E1000F0BAF9A389B4F90E1023F48053A38132463B462846BDE8F04100F06BB810B50C46B1F90E1000F0A7F9431CA38915BF606523F43C
:405D8000805343F48053A38118BFA38110BDB1F90E1000F0D5B80000F8B50F461446064618B183690BB9FFF78BF8224B9C4201D1746808E0204B9C4201D1B46803E01F4BD6
:405DC0009C4208BFF468A369A360A3891A0709D523693BB123682069181A63699842FDB20FDB08E02146304600F03CF80028F1D04FF0FF30F8BD2146304600F039F900284F
:405E0000F6D1A368013BA36023685A1C22601F706269431C934204D0A389DB0707D50A2D05D12146304600F023F90028E0D12846F8BD00BFB8690810D8690810F8690810C6
:405E400038B5074C054608461146002222601A46FDF770F8431C02D1236803B12B6038BD3C4C0208324B70B51D6806460C4625B1AB6913B92846FFF723F82E4B9C4201D1EC
:405E80006C6808E02C4B9C4201D1AC6803E02B4B9C4208BFEC68B4F90C309AB215071DD4D00602D4092232603AE0510712D5616B41B104F14403994202D03046FFF7D8FBAF
:405EC00000236363A38923F02403A3810023636023692360A38943F00803A38123694BB9A38903F42073B3F5007F03D02146304600F01EF9A28912F0010305D00023A3605C
:405F000063695B42A36103E0920758BF6369A36023695BB9B4F90C3003F0800080B230B143F04003A3814FF0FF3070BD002070BD10430208B8690810D8690810F869081099
:405F400038B5064C002305460846236000F074FA431C02D1236803B12B6038BD3C4C02088A892DE9F041054610070C4659D44B68002B02DC0B6C002B17DDE66AAEB102F490
:405F80008052002392B22F682B600AB1606D15E0216A01232846B047411C0FD12B686BB11D2B01D0162B03D12F600020BDE8F081A38943F04003A381BDE8F081A3895A07AD
:405FC00005D56368C01A636B0BB1236CC01A00230246E66A216A2846B047431CA38906D129681D293AD8214ACA40D60736D500226260D9042269226004D5421C01D12B6872
:4060000003B96065616B2F600029CED004F14403994202D02846FFF72BFB00206063BDE8F0810F69002FC0D093070E6808BF4B690F6018BF0023C7EB06088B6002E007444E
:40604000C0EB0808B8F1000FAFDD43463A46216AA66A2846B0470028F1DCA38943F04003A3814FF0FF30BDE8F08100BF0100402038B50B6905460C46DBB118B183690BB9B6
:40608000FEF71EFF0C4B9C4201D16C6808E00B4B9C4201D1AC6803E0094B9C4208BFEC68B4F90C302BB121462846BDE83840FFF757BF002038BD00BFB8690810D869081098
:4060C000F869081038B5074C054608461146002222601A4600F0C8F9431C02D1236803B12B6038BD3C4C020870B50E46B1F90E10002990B014461D4606DA00232B60B3898E
:406100001A060ED540230EE001AA00F0A3F80028F3DB029A02F47042A2F500535A425A412A604FF480630020236010B070BD00008B8973B59E0705460C4610D401AB6A467C
:40614000FFF7D2FF009906462846FFF7DFFA68B9B4F90C309A0522D443F00203A38104F14703236023610123636118E00D4BAB62A389206043F08003A381009B6361019B2F
:4061800020614BB1B4F90E10284600F075F818B1A38943F00103A381A0893043A08102B070BD00BF414E0810884210B501EB020301D8421E0BE09842FBD28118D21AD34295
:4061C00004D013F8014D01F8014DF8E710BD994204D011F8014B02F8014FF8E710BD70477047F8B5074615460E4621B91146BDE8F840FFF78BBA1AB9FFF73AFA2846F8BD05
:4062000000F04AF885420ED929463846FFF77EFA044650B131462A46FEF73AFF31463846FFF726FA01E03046F8BD2046F8BD000038B5074C054608461146002222601A465D
:40624000FCF78AFE431C02D1236803B12B6038BD3C4C020838B5074C0023054608461146236000F0F1F8431C02D1236803B12B6038BD00BF3C4C020838B5064C0023054682
:406280000846236000F0E8F8431C02D1236803B12B6038BD3C4C020851F8040C0028BEBF091851F8043CC018043870474FF0FF3C06E000BF4FF0010C02E000BF4FF0010CEF
:4062C0004DF804CD4FEA410C7FEA6C5C4FEA430C18BF7FEA6C5C1BD001B050EA410C0CBF52EA430C91EA030F02BF90EA020F0020704710F1000F91EA030F58BF994208BFC2
:4063000090422CBFD8176FEAE37040F0010070474FEA410C7FEA6C5C02D150EA013C07D14FEA430C7FEA6C5CD6D152EA033CD3D05DF8040B704700BF8446104662468C4652
:406340001946634600E000BF01B5FFF7B7FF002848BF10F1000F01BD4DF808EDFFF7F4FF0CBF012000205DF808FB00BF4DF808EDFFF7EAFF34BF012000205DF808FB00BF6D
:406380004DF808EDFFF7E0FF94BF012000205DF808FB00BF4DF808EDFFF7CEFF94BF012000205DF808FB00BF4DF808EDFFF7C4FF34BF012000205DF808FB00BF4FEA410CB7
:4063C0007FEA6C5C02D150EA013C0AD14FEA430C7FEA6C5C02D152EA033C02D14FF0000070474FF0010070474FEA410212F5001215D211D56FF47873B3EB625212D94FEA5A
:40640000C12343F0004343EA505311F0004F23FA02F018BF404270474FF00000704750EA013005D111F0004008BF6FF0004070474FF00000704700BF024B58221A604FF0F9
:40644000FF3070473C4C0208024B58221A604FF0FF3070473C4C0208024B58221A600020704700BF3C4C0208024B58221A604FF0FF3070473C4C0208044A05491368002B09
:4064800008BF0B461844106018467047944B0208404C0208F8B500BFF8BC08BC9E467047F8B500BFF8BC08BC9E467047583A2025660D0A00593A2025660D0A005A3A2025E4
:4064C000660D0A00583A252E32660000593A252E326600005A3A252E3266000003000000010000000100000000000000050360000400000001000000000000000100000032
:406500000604600008000000004B02086D0408102F000000070000002E00000007000000000000000C0000000800000000020000000000000000000000000000000000008A
:406540000000000000000000000000000B0000000000000000000000000000000000000047656E6572617465645F536F757263655C50536F43365C70646C5C6472697665B8
:4065800072732F7065726970686572616C2F6970632F63795F6970635F6472762E68000047656E6572617465645F536F757263655C50536F43365C70646C5C6472697665F1
:4065C00072735C7065726970686572616C5C6970635C63795F6970635F6472762E68000047656E6572617465645F536F757263655C50536F43365C70646C5C64726976652A
:4066000072735C7065726970686572616C5C6970635C63795F6970635F6472762E63000047656E6572617465645F536F757263655C50536F43365C70646C5C6472697665EE
:4066400072735C7065726970686572616C5C6970635C63795F6970635F706970652E630047656E6572617465645F536F757263655C50536F43365C70646C5C64726976654C
:4066800072735C7065726970686572616C5C7363625C63795F7363625F636F6D6D6F6E2E6800000047656E6572617465645F536F757263655C50536F43365C70646C5C64EA
:4066C0007269766572735C7065726970686572616C5C7363625C63795F7363625F6932632E63000047656E6572617465645F536F757263655C50536F43365C70646C5C6484
:406700007269766572735C7065726970686572616C5C7363625C63795F7363625F6932632E68000047656E6572617465645F536F757263655C50536F43365C70646C5C643E
:406740007269766572735C7065726970686572616C5C7363625C63795F7363625F756172742E680047656E6572617465645F536F757263655C50536F43365C70646C5C6440
:406780007269766572735C7065726970686572616C5C7363625C63795F7363625F756172742E630047656E6572617465645F536F757263655C50536F43365C70646C5C6405
:4067C0007269766572735C7065726970686572616C5C737973696E745C63795F737973696E742E6300000000000020400000244000000040000000000000234000003040C7
:406800000000314000009F40000022400000104002020202020202020210101D800017007500FF030602063604102000000000007FC0000000040000000000000019324BA8
:40684000647D00804000080B100000000000FF012002001F00800004FF081018001000140018001C4044484C50000000081000000800000004000000041000000012000056
:4068800004210000002100000016000040114002C41300138013A013200000001C0000000000214000002540000001400000344000002440000031400000324000001F415B
:4068C0000000234000001140010101010101010101101010800019005500F0000501053B04101C01010000000FC000000004000001010101011D3A57789600082000101277
:4069000008000000001F00000010000F002000023F06080E00080009000A000B24282C3034000000100000009000000088000000080000008000000004F0000000F00000FE
:40694000400200002005A000D00100018001A0012000000010000000020000000000000000000000000000000000000043000000B0420208494E4600696E66004E414E00B4
:406980006E616E00300030313233343536373839414243444546003031323334353637383961626364656600496E66696E697479004E614E0000000000000000000000001F
:4069C0000000000000000000000000000000000000000000000000000000000000000000000000000000000000000000000000000000000000000000000000000000000097
:406A0000000000000000000000000000000000000000000000000000504F534958002E0005000000190000007D000000000000000080E03779C34143176E05B5B5B893461E
:406A4000F5F93FE9034F384D321D30F94877825A3CBF737FDD4F1575000000000000F03F000000000000244000000000000059400000000000408F40000000000088C340AD
:406A800000000000006AF8400000000080842E4100000000D01263410000000084D797410000000065CDCD41000000205FA00242000000E876483742000000A2941A6D4247
:406AC000000040E59C30A2420000901EC4BCD64200003426F56B0C430080E03779C3414300A0D8855734764300C84E676DC1AB43003D9160E458E143408CB5781DAF154495
:406B000050EFE2D6E41A4B4492D54D06CFF08044F64AE1C7022DB544B49DD9794378EA44232D302B2000686C4C0065666745464700000000000000000000081000400208A7
:406B40008C020000586B08108C4202086406000084490208BC0200000048E80100127A0000093D0000127A0000127A0008000000401F00000000A00F3E60021000000000F4
:406B8000B8690810D8690810F8690810000000000000000000000000000000006C6908100000000000000000000000000000000000000000000000000000000000000000DD
:406BC00000000000000000000000000000000000000000000000000000000000B04202081E6A0810256B0810256B0810256B0810256B0810256B0810256B0810256B081061
:406C0000256B0810256B0810FFFFFFFFFFFFFFFFFFFFFFFFFFFF0000B10208108D0208100000000080B2C10050B3164B1B681A6AB3F8B030C3EBC303D358002BF5DA3E22BE
:406C4000114B1A6041F61E7204331A60A3F584730622C3F8182521F07F41C3F81C15D3F81C35084B1A68116AB2F8B030C3EBC3030B4400225A60054BD3F81C35002BFADA5A
:406C8000704700BFEC4B02080401264000002640F8B5274B1B6893F83130052B04D840F2C311244800F052FA214F3A68166AB2F8B03003EB83031E4452684FF26003D45888
:406CC000A4B200F04BFA05463B681968D3F890208A58013C032C27D8032A0CD1164A127812F0FF0F07D10822B2601968D3F890208A58032AF9D01968D3F884208B58885833
:406D0000C0F307221B0E581C02FB00000B4B03FB00F00B4B1B680B4AA2FB03239B09B0FBF3F08230FFF77EFF284600F03FFAF8BDEC4B0208606508100B00001640420F0035
:406D400090420208D34D62104378FF2B23D110B500F004FA0446104B1B6893F83130042B04D840F2C3110D4800F0F0F90A4B1A68136AB2F8B02003EB8203DB685A68136805
:406D800043F001031360136813F0010FFBD1204600F00CFA10BD7047EC4B0208606508102DE9F04707468846554B1B6893F83130012B04D840F2C311524800F0C7F9504B67
:406DC0001B681C6AB3F8B0201444D3F8B420161993F85030002B79D04B4B1B7813F0FF0F02D04FF0000901E04FF00109B9F1000F38D0434B1B6893F83130052B04D840F2F0
:406E0000C311404800F0A2F93D4B1A68116AB2F8B03003EB83030B44D2F8B420D358002B22DB002000F0BAF9384B98421ED00023374A12690121184600F098F918B1354D2F
:406E400017E0013500E00025002000F0A7F92F4B984202D0304B9D42F3D92F4B9D4207D92C4D06E0002504E02A4D02E0294D00E00025002D41D100F071F98246274BD3F8D1
:406E80001C35002B10DA224A0121204600F056F960B94046FFF7C6FE57B13368002BFCDB00F06CF9054604E01A4D02E0194D00E01B4DB9F1000F05D00121002000F066F9A1
:406EC0000028F9D1504600F071F916E000F046F980460F4A0121204600F030F938B947B13368002BFCDB00F049F9054602E0094D00E00B4D404600F059F92846BDE8F08706
:406F0000EC4B0208606508100B00001601018800244B020805005200EF4902000000264001005000F0B47F4B1A6855684FF0B0535B7813F0FF0F04D04FF0B0535B78DBB27E
:406F400000E02123212B55D1116AB2F8B030C3EBC303CC18CB58002BF6DAE36843F00103E360146AB2F8B030C3EBC3031C44E36813F0020F2DD0E3689EB21368D2F884108F
:406F80005958090A090401F47F01D2F88870DB591B0A41EA03633343E3601168D2F884208B5823F47F4343F410638B505D4A13681C68D3F88810635823F47F4343F41063B7
:406FC000635013681A68D3F884105158D3F88830D358544B1A68116AB2F8B030C3EBC3030B4400215960116AB2F8B030C3EBC3030B445B684B4B19680C68D1F894301C4465
:40700000494A136943F004031361012801D030BF07E020BF454B1B7803B120BF0122434B1A70236803F00303022BE9D00A6AB1F8B030C3EBC303D018D358002BF6DA4FF0CB
:40704000B0535B7813F0FF0F04D04FF0B0535B78DBB200E02123212B30D1C36813F0020F1FD00C68D1F88410635823F47F42C3681B0C1B0203F47F4313436350294B19688A
:407080000C68D1F88800235823F47F420D6AB1F8B030C3EBC3032B44DB681B0E42EA03232350204B1A68136AB2F8B020C2EBC2021344DA6822F00102DA6026E0D5F80C3157
:4070C0001BBB1B490E681B4BD3F818451A4A106841F61E770F600621C3F818153E2111604422C3F81C25134BD3F81C35002BFADA4FF0AA33C5F80C310D4B1E60A3F5847306
:40710000C3F8184503F582731860064B1A68116AB2F8B030C3EBC3030B4400225A60F0BC704700BFEC4B020800ED00E04C4B020808012640000026400401264001B402484B
:40714000844601BC604700BF750E081001B40248844601BC604700BF452E081001B40248844601BC604700BF1B2F081001B40248844601BC604700BF5512081001B4024858
:40718000844601BC604700BF4D0D081001B40248844601BC604700BFF90F081001B40248844601BC604700BF8110081001B40248844601BC604700BF232F08100000000079
:4071C000000000000000000000000000000000000000000000000000000000000000000000000000000000000000000000000000000000000000000000000000000000008F
:0200000490303A
:02000000E425F5
:0200000490501A
:0C0000000005E2F021002101E31B0525B2
:00000001FF